:020000040002F8
:10600000F85A0020252803009B740200EF84020048
:106010000F8502002BBC0200BFBE02000000000082
:1060200000000000000000000000000037C4020073
:10603000BBE6020000000000DFE602000FEC0200F9
:10604000D1120300A926030049F90200EF2603003C
:10605000FB260300032903002DEA0200E389020066
:106060000529030007290300092903000B29030060
:106070000D2903000F290300112903001329030030
:1060800015290300299C0200172903001929030080
:10609000959C02001B29030027AF02001D29030065
:1060A0001F290300212903002329030025290300B8
:1060B0002729030029290300000000000000000038
:1060C0002B2903002D2903002F2903003129030068
:1060D0003329030035290300372903003929030038
:1060E0003B2903003D2903003F2903000000000075
:1060F00000000000412903000000000043290300C4
:10610000000000000000000000000000000000008F
:10611000000000000000000000000000000000007F
:10612000000000000000000000000000000000006F
:10613000000000000000000000000000000000005F
:10614000000000000000000000000000000000004F
:10615000000000000000000000000000000000003F
:10616000000000000000000000000000000000002F
:10617000000000000000000000000000000000001F
:10618000000000000000000000000000000000000F
:1061900000000000000000000000000000000000FF
:1061A00000000000000000000000000000000000EF
:1061B00000000000000000000000000000000000DF
:1061C00000000000000000000000000000000000CF
:1061D00000000000000000000000000000000000BF
:1061E00000000000000000000000000000000000AF
:1061F000000000000000000000000000000000009F
:1062000070B504460025DFF88C6B301D50F8251062
:1062100009B1204688476D1C042DF6D370BD884215
:1062200005D2006810F1010F01D001207047002055
:106230007047418800EB81000C30704738B5044648
:106240000D46FFF7F6FF854201D2022032BDA1883C
:106250004FF6FF7291421CBF2088002801D1012017
:1062600032BD002032BD68B10168DFF82C2B9142AD
:1062700008D14068DFF8241B401A04D0401E01D129
:1062800001207047032070472DE9F04203460E4677
:1062900002201446308003F10805DFF81C7B03F56B
:1062A00080590DE0A868B96A814238BFB8626A882F
:1062B0003188D21C511831802846FFF7BAFF0546B5
:1062C00049462846FFF7ABFF68B149462846FFF725
:1062D000B5FF0028E6D00CB1012121700228E6D1DB
:1062E0004FF480603080BDE8F0828A7D032A04DBB1
:1062F000CB880289DB1C9A1802814289C988521A0C
:10630000D31E43817047000080B50020DFF8A81A33
:1063100002A28969009008230BE00000DEC0ADDE18
:10632000FF011EF180B50146002000905FF00803D8
:1063300001A200F0B1F902BDDEC0ADDEFE011EF12A
:1063400030B5C01C80B240F2FE32904201DB092021
:1063500030BD00231425DFF8D04A5D432C44227859
:106360003AB9228965891218AA1892B2B2F5806FDB
:1063700004DB5B1C022BEDDB072030BD0B80618949
:1063800040186081002030BD142210B5DFF8983A23
:10639000514319444C89201AC01E488110BD70B564
:1063A0000C4600F0A4F84168206801F5805518B942
:1063B00001F1080603E03046FFF73BFF0646294699
:1063C0003046FFF72CFF58B129463046FFF736FF1D
:1063D00018B1022804D0F2D2EDE72660012070BD8A
:1063E000002070BDF8B506460C467268DFF8C85943
:1063F000100024D0DFF8343ADF681146B94224BFD8
:106400001B698B421BD312F0030F02BF30892B890B
:10641000984202BF30689368984210D10020DFF89C
:10642000542A1425131D45435B598B423CBF03F589
:106430008053994215D3401C0228F2DB1AE0002059
:1064400020800022009220886946FFF7A8FF58B1FB
:106450000098326881689142F5D170602989318154
:1064600000E020800120F2BD2088401C208080B206
:106470000228E6DB0020F2BD2DE9F04100F0C8FB68
:1064800017461E4608B902202FE0002F18BF002E25
:1064900005D1052029E03060B188491CB180B08861
:1064A000022821DA1421DFF8CC294843105C0028A7
:1064B000F2D1B0883146FFF772FF0028EBD0306888
:1064C000002C1EBF828823889A42F2D1002D1EBF65
:1064D00002882B889A42ECD1816839607860B8F8DC
:1064E00008003881002000E00A20BDE8F081142176
:1064F000DFF8802948431044704710B50146DFF8A3
:10650000780900F00BFD04461C2100F075FD2046C3
:1065100010BD0146DFF8600900F022BD2DE9F84FFB
:106520004FF0000900254FF0030ACB46C846DFF8BC
:106530008848DFF8F808C1684FEA084201EB1217F3
:106540006B1C14209BB2DFF82C19009368430E18C3
:106550003846FFF788FEF0B1012828D003283DD146
:10656000002057F8201011F1010F47D1401CB0F561
:10657000806FF6D3A06930B102213170776031812C
:106580006580009D04E0A7610220A0834FF0010B0D
:1065900049F0010922E03070776006F1100206F13F
:1065A00008013846FFF770FE49F002092BE05FEA68
:1065B0000B0005D002203070A16971603081009D10
:1065C000A761002204F11C013846FFF75DFEA08B95
:1065D00002280CBF0420082040EA090908F101083C
:1065E0001FFA88F00228A4DD1FFA8AF00228B8BF3B
:1065F0004FF000095FFA89F0BDE8F28F7760032061
:10660000AAF1010A3070009DE8E738B50C46002574
:106610000146009504230FF6740200F03DF808B11E
:106620000E2032BD1420DFF84C28444310190121FC
:106630000174002032BD70B5DFF87C47DFF8E82731
:106640006188142041435518DFF8E007E96821B953
:10665000042626700023696805E002210522A18333
:1066600022700023A1690122BDE8704000F0AEBD98
:106670001CB5DFF84407416842684B88032101706C
:10668000DB1C8169808B00241B0401EB80010094DA
:106690009B0B00F001F816BDDFF8900700F018BD65
:1066A00080B5DFF81407011D4088FFF778FE10B1B0
:1066B000BDE80140DCE7BDE80140BCE7DFF8F806D3
:1066C000DFF8B02703781421072B00D9704730B5C5
:1066D000DFE803F0043131171F2C2C2F0489641CD0
:1066E000002304814380037301FB03F4145D641EE3
:1066F000A441C5185B1CE40F022BAC72F4DB012132
:1067000015E041684B88828BDB1C9A18828302213A
:106710000DE044888369614311444A6882614B609B
:10672000828B0A8102218183062203E00721017006
:1067300030BD0122027030BDF8B502460F20DFF8EF
:1067400078461AB1002060610120F2BD0A79DFF8B5
:1067500024571426032A3DD8DFE802F002071C283C
:1067600001200871FFF7D0FD34E0297800200229CC
:1067700008D116FB00F60020A855291D8859FFF7FF
:10678000D1FD27E0297D01200229F2D020740021CB
:106790006161EFE0002008710221A1830023A1695B
:1067A000DFF88806012200F011FD13E000200871D7
:1067B0002F1DA069FFF7B6FD6188A2694E43291D10
:1067C0008B59A361BA51A919A28B0A810223A38311
:1067D00000220A7010B1002060610E20F2BD00009E
:1067E000F8B50D461421AB8ADFF888264B43D6183E
:1067F00028B129463046FFF778FD0120F2BD7068C8
:106800003189DFF8287600EB8104A87D06285BD863
:10681000DFE800F011411E31044E570000211163E2
:1068200002F12801A869D06202F12C00FFF7DAFD1D
:1068300008B90A20F2BD0220A875002100910423A6
:106840002A1D2146384600F043FC10B30E243CE0DC
:106850002869002814BF03200120A8750423002004
:10686000009005F10C0204F10801384600F030FCFC
:106870000028EBD10DE00120A8750021009104F162
:106880000C01EB882A699B00384600F021FC0028A7
:10689000DCD100241DE0287803280CBF0520062049
:1068A000A87504230020009005F10802211DDCE7F3
:1068B0000620A875118D106BFFF7A7FE040004D108
:1068C00007E041F61D5400E00F2429463046FFF74B
:1068D0000CFD2046F2BD0000F8B508B10120F2BD64
:1068E000DFF8D444207B00281ABF00212173FFF772
:1068F000E5FE20781421401E0628DFF8782533D8DD
:10690000DFE800F004351C1F32222B000023002694
:1069100002F10C07E518A87A48B1AE7201FB03F545
:106920007859002802BF5019007C01281ED05B1C3A
:10693000022BEFDB2670668066601BE0BDE8F1404D
:1069400096E6BDE8F14076E6638806202070121DC9
:1069500059435058BDE8F240E4E40720207000217C
:106960006160BDE8F140CFE40F20F2BD6380BDE877
:10697000F14095E641F61D50F2BD00002DE9F04FC3
:10698000DFF834540FF208580FF2105A85B004465D
:1069900005F1C00605F1D00741F61D59E86A20B996
:1069A0003946304600F0ECFAE862E96A0878401EA1
:1069B00005285ED8DFE800F00310101414592046B3
:1069C000FFF7BAFE0446002C00F0A48000F0A5F802
:1069D0004C4551D100244FE02046FFF701FFF1E77D
:1069E0008B460CB1012445E09BF80400E8B1022875
:1069F00001D002D337E04C46E5E705F120036A46B3
:106A000000210BF10600FFF737FD040005D1A98C2A
:106A10000198FFF7FAFD044604E005F1200000218B
:106A2000C0E900110A2CCED1E5E702208BF8040062
:106A300001A998E81C0081E81C00DBF80C0001901B
:106A4000694601A8FFF7CEFC58B102988188ABF8DF
:106A500006100288ABF80820BDF80010FFF7D5FD3E
:106A6000B0E70A24AFE70F24ADE72046FFF734FF75
:106A7000A8E70F2400F051F8E86A01940178491E54
:106A8000052935D8DFE801F031281D11070305225B
:106A90008DF800202CE004218DF800100021C28820
:106AA000ADF80C20ADF80E1009E003218DF80010B0
:106AB000C288ADF80C200189ADF80E10C1680291B2
:106AC00016E0022100F02EF8C1680291807D0628B0
:106AD00014BF0021012105E0012100F023F800216D
:106AE000C06802908DF8101002E000218DF80010AF
:106AF0006846FFF785FB0020E8623946304600F023
:106B00006BFA012105F1300000F05AFC0024002846
:106B10007FF444AF05B0BDE8F08F684651461422BB
:106B200000F060BC8DF800100289ADF80C2081885F
:106B3000ADF80E10704780B50121DFF8400300F07A
:106B400027FC10B9BDE8024018E701BD406815E711
:106B50002DE9FE4300F05CF8994608B9022055E0A3
:106B60000DB9052052E028884FF6FF7188421ABF00
:106B700068880028042049D0287910F0030F07D135
:106B800042B9AF686946B8B2FFF7DAFB30B13DE011
:106B900003203BE01088ADF80000578801A8FFF7FC
:106BA000ACFC060006D1BDF80010B8B2FFF7ECFB54
:106BB00008202BE086F800900020B075BDF800108A
:106BC000B18201216868306108F1280000F0ECFB17
:106BD000F060B9F1030F288830816988B180F780AF
:106BE00003D10420B0752168B1610020708101A833
:106BF000FFF78FFC3CB100206060F1682160A0725B
:106C0000B8F808102181FFF796FF0020BDE8FE8349
:106C1000DFF8A481044698F810000D46704710B5BF
:106C20005C4A1168042901D10C2010BD136802EBE5
:106C3000830401216060104600F0B6FB002010BD07
:106C400038B586B001A8142100F0D8FB5A4C207C3E
:106C5000A0BB04F1140000F0BFFB002855D1DFF801
:106C60002002DFF8202201681068526811F1010F3C
:106C700004BF114641436D480161A1F54051C16017
:106C80000022DFF8041200F0F7F900283ED11C239F
:106C90008C2204F1340104F1C00000F009F9FFF77F
:106CA0003DFC050018BF022802D0062802D009E0EA
:106CB0000B202BE0012020740021616101A8FFF767
:106CC0009FFA22E000F097F808B908201EE00121A1
:106CD000012D18BF032D01700AD0052D18BF072DF7
:106CE0000DD0092D06D00A2D06D00B2D02D007E0BD
:106CF000002202E0032102E00222027100E00171A1
:106D00006846FFF706FCFFF716FF002007B030BD0E
:106D10007CB504000D4618BF002D01D1052076BDBD
:106D20006946FFF75FFB98B1BDF80030514A6668CD
:106D300014204343D01801210C3000F035FB2E60A5
:106D40000122606800F10C016960A272002076BD2A
:106D50000A2076BD1CB5040001D1052016BD694688
:106D6000FFF740FBA0B1BDF80020424814214A4380
:106D70008118C86800281CBFA07A002806D0C868FF
:106D8000401EC8600021A172002016BD062016BD5D
:106D90000A2016BD503A0020DEC0ADDEFE011EF115
:106DA000022303E008B90520704703230022CFE641
:106DB0001F490446087C7047FC3200201CB5FFF7D1
:106DC000F7FF08B9022016BD4FF6FF718C4201D1C2
:106DD000042016BD00F00FF808B9082016BD0521E3
:106DE000017001220271C4806846FFF792FBFFF731
:106DF000A2FE002016BD6846FFF77FBB1CB50C4CF9
:106E0000207C08B9022016BDFFF7F5FF08B908205D
:106E100016BD062101706846FFF77BFB207808B19C
:106E200001212173E3E70000EC3800203429002021
:106E3000FC32002003B581B002A901A8FFF71CFBBA
:106E40000EBD01B513460A466946002004E001B5AF
:106E500013460A4600216846FFF70EFB02BD0028D4
:106E600018BF002901D10520704700680860002084
:106E700070470000EC380020BC3300202C33002089
:106E80001410001010000010AC2603000000FFFFDB
:106E900000000000000000000000000000000000F2
:106EA00000000000000000000000000000000000E2
:106EB00050B509B90E2050BD144694FBF3F603FB00
:106EC00016440CB1092050BD01608460002141606E
:106ED0008281C381002050BD81B050E8022FC1885B
:106EE000B2EB324F4FF0000317BF92B241EA0141BB
:106EF00042EA014104E04268B2EB324F08BF01238D
:106F000040E80212002AE8D18DF800309DF8000018
:106F1000002814BF0020112001B070473CB550E894
:106F2000015FAAB2C3891A4483899A4228BFD21A40
:106F300003899A4202BFBFF32F8F002407E0C2EA01
:106F4000050240E80123002BE9D14FF0010400F0D5
:106F50003AF81AB100680988084436BD002036BDE9
:106F60000A8849888A4209D150E8011FC1EA0141D3
:106F700040E80112002AF7D1012070470020704735
:106F80003CB550E8025F1FFAA5F2C3889A4202BFDF
:106F9000BFF32F8F00240DE0C3891A4483899A42DE
:106FA00028BFD21AC5EA024240E80223002BE8D1EA
:106FB0004FF0010400F007F81AB10068498808444E
:106FC00036BD002036BD01958DF80040019B0B6059
:106FD0009DF80020704700000A8849888A4209D13C
:106FE00050E8021FC1EA214140E80212002AF7D10D
:106FF0000120704700207047002200F01FBAF0B453
:107000000246106895681318506803EB5004C007D7
:107010001DD54D441BE013F8017B05F8017B491E8B
:10702000F9D1A0B1B60813F8011B06F00306032E30
:1070300008BF13F8016B01EB06214942801C29446B
:1070400005D011F8016B05F8016B401EF9D1A34280
:107050000ED013F8016B16F0030104BF13F8011BE7
:10706000C91C30090F28DAD113F8010B0F30D6E70D
:10707000F0BC02F10C0070477CB5DFF8FC31DFF8A2
:10708000FC51DFF8FC415D1BED082D0445F00105C6
:107090000FF20C2328B90E26009621460FF2142277
:1070A00005E049B90E20009021460FF21022284633
:1070B00000F05EFB0E2076BD016011460268136889
:1070C00002B0BDE8704018475146384600F050BB4A
:1070D0002DE9FC4700F06BF80FF2F41900F060F8AE
:1070E00016461D4647F0010714B900F053F804E0B6
:1070F0003EB90E2000904B467AA2FFF7E5FF0E2026
:1071000041E0206818B900F057F808203BE025B9A5
:10711000092000904B4657A20BE060684068B5FB21
:10712000F0F100FB115040B1092000904B460AF1EC
:107130005402FFF7C9FF092025E018F0030F0DD115
:1071400016F003000ED12A464146204600F09AF878
:1071500080B900F01AF80AF1A40207E000F015F86F
:1071600062A203E000F011F80AF18002FFF7ACFF21
:10717000102008E00A9800902B4620462468E56815
:1071800032464146A847BDE8F687102000904B469E
:10719000704700000E2300934FEA090345A2704791
:1071A000DFF8DCA0C71BFF083F0488467047044691
:1071B0003148324F70470000082100914FEA09031F
:1071C00040A25146384600F0D3BA00002DE9FC47F2
:1071D000FFF7EDFF0FF22C18DFF8A490C71BFF0894
:1071E0003F040E4615469A4647F001074CB90E2358
:1071F000009349464FEA08032EA2FFF766FF0E20D0
:1072000036E0206840B90821009143462DA2494646
:10721000FFF75BFF08202BE045B9092000904346AB
:1072200014A24946FFF751FF092021E06068026877
:10723000511E0E420BD16A433146204600F022F81F
:1072400078B910200090434609F1F40204E01020C0
:107250000090434609F1CC024946FFF736FF102063
:1072600006E0204624682A46256953463146A84749
:10727000BDE8F6876C656E00FC160300BC160300C3
:10728000C00B0300C368994207D300695118491E17
:1072900088428041C043C00F704700207047000003
:1072A0006E72665F6673746F726167655F696E693F
:1072B00074000000705F667300000000705F617012
:1072C00069000000705F66732D3E705F6170690039
:1072D0006E72665F6673746F726167655F777269FD
:1072E00074650000705F7372630000006164647213
:1072F0005F69735F616C69676E65643332286465CA
:10730000737429006E72665F6673746F726167656D
:107310005F6572617365000010B5024652E8000FA8
:107320000C4642E8004393F0000FF7D110BD000077
:1073300010B5024652E8000F40EA010442E800435B
:1073400093F0000FF6D110BD10B5024652E8004F81
:1073500044EA010042E8000393F0000FF6D110BDAB
:1073600010B5024652E8000F00EA010442E800436B
:1073700093F0000FF6D110BD10B5024652E8004F51
:1073800004EA010042E8000393F0000FF6D110BDBB
:1073900010B5024652E8000F00EB010442E800433A
:1073A00093F0000FF6D110BD10B5024652E8004F21
:1073B00004EB010042E8000393F0000FF6D110BD8A
:1073C00010B5024652E8004FA4EB010042E800036A
:1073D00093F0000FF6D110BD0121A9E70121B3E719
:1073E0000021BDE74AB1000011F8013B521E00F830
:1073F000013B1CBF11F8013BF8E77047002200F089
:1074000047BB30B4002513E050F8042BD30744BF2A
:10741000A9F101039A18091F042942F8045BFAD262
:1074200013468C0744BF15809B1CC90748BF1D70BD
:1074300050F8041B0029E7D130BC7047401810F009
:10744000030308D0C91A1FD3DB0748BF00F8012D7A
:1074500028BF20F8022D130030B414461546103909
:1074600028BF20E93C00FAD8490728BF20E90C00D2
:1074700048BF40F8042D890028BF20F8022D48BFDE
:1074800000F8012D30BC7047C91818BF00F8012D55
:10749000CB0728BF00F8012D7047FEE780B5DFF865
:1074A000A405FF21002281600260426000F21440C6
:1074B000426002600273DFF8900500F002FB20B921
:1074C0000FF2B85000F0A7FB002002BD30B591B11B
:1074D000DFF87825DFF878150568DFF87835511A78
:1074E000002200E0521CB2EBD10F06D233F822404A
:1074F000AC42F7D10260002030BD052030BD01B59F
:107500006846FFF7E3FF28B9DFF84C05009950F80B
:10751000310002BD002002BD00000000491EDFF85E
:107520003825032902EBC0000BD8DFE801F0020484
:1075300006080220704704207047007970474079A0
:10754000704700207047024600201368C3F3800292
:107550009AB103F00300012802D0022807D00BE003
:107560000A68C3F38310801C82180A6004E008686C
:107570009B0D9B1C1B180B6001207047F8B5DFF8B2
:10758000C44484B004F58360FFF728FF04F2144577
:107590002846FFF723FF6068A7680090002600993F
:1075A00004F10C00394000EB81006946FFF7CBFF86
:1075B0000028F4D101AB009A04F10C013A4000F02C
:1075C000FBF9F8D90199BDF80A0001F0030101297E
:1075D0000AD002290FD1019906460098890DC91CCD
:1075E00000EB9100009006E0064601980099C0F378
:1075F0008310411800912846FFF7F2FE08B1009869
:107600006060304605B0F0BD80B50021DFF84C0465
:10761000FFF782FE80F3100002BD2DE9F84F04460B
:10762000884693461F460A9DDFF81894FFF7ECFF43
:1076300009F10C0A7E1C00042E4040EA1440E400CC
:107640004AF8260004F0380444EA8B14C4F3090411
:1076500009F10C0044EA88242F4044F0010440F86A
:107660002740BDE8F18F2DE9FC41884600218DF8C7
:1076700000101646DFF8CC730446684600F0DAFACC
:107680003868C8F80000A51CBA6839687868521CC8
:10769000511A411807F21C480FE001214046FFF73C
:1076A00083FEFFF76BFF01464046FFF77DFEB8689B
:1076B0003968401C411A78684118A942EDD32EB1AF
:1076C000A40104F4707444F0050402E0A40544F03D
:1076D00006043968B868014007EB8102D460396854
:1076E0009DF800006D183D6000F0C1FA0120BDE872
:1076F000F6812DE9FE43DFF84C6304460D469046C3
:107700009946B768012201A94846FFF7ACFFA8B126
:107710000198801C002108E007EA000206EB8202C3
:1077200058F82130D360401C491C4945F4D30097D8
:107730004A46019B29462046FFF76FFF96F8200432
:1077400018B100F02DF80028FBD1BDE8F783002325
:107750000022CEE780B50092012300F012F801BDAF
:10776000E0B5009201936A460223FFF7C2FF07BD0E
:107770001FB5069C009201930294032300F001F8C8
:107780001FBD6A46B5E77FB5089D099E009201932B
:10779000029503960423FFF7F4FF05B060BD0000D7
:1077A0002DE9F847A74E70683168884285B024D02B
:1077B00006F582670020B860BFF34F8F7068B46829
:1077C000009006F10C000099214000EB810005E0DB
:1077D00006F10C0004EA010200EB82006946FFF7A3
:1077E000B2FE002800F0CB80B868002840F0C780C7
:1077F000306800998142EBD370600020BCE00299B0
:1078000065F39F51029105F1080100F05CF95FEA10
:10781000000A4ED000F09EF900F0C8F80098204011
:10782000641C241AA40006F10C01AC4201EB800197
:1078300019D234B9284606F10C014FF00008002592
:1078400003E0204606F10C082D1BC4B20823224693
:10785000504600F0D4F9B8F1000F09D004F1080344
:10786000EAB2414601E008232A46504600F0C7F933
:10787000009809F1030100EB9100009039E00299B2
:1078800001F0030101295AD10299029AC1F383112F
:107890000529C8BF062122F4707242EA81120292C1
:1078A0000299C1F38311891C890000F00CF95FEA89
:1078B000000A44D000F04EF900F078F84FF00809C3
:1078C0004FF0000810E00098411C009106F10C05F3
:1078D000204005EB80014B460422504600F08FF912
:1078E00009F1040908F101080298C0F383108045EA
:1078F000E9D33C68B86870B1504600F02FF933E026
:10790000E0684179012904D1226813685146204674
:107910009847E0680468002CF2D1504600F01EF948
:1079200000208DF8040001A800F084F9B86808B9B7
:10793000009870609DF8040000F099F914E03C682C
:1079400005E021688A6820469047E0680468002CBA
:10795000F7D14348DFF8F82043A1801AC00800049B
:1079600040F00200FFF7F3FE7068316888420CBFF8
:107970000120002080F0010006B0BDE8F087002063
:1079800002AB009A06F10C01224000F015F8F8D97C
:1079900002992D4801F0030102297FF470AF029D86
:1079A000AD0DA946502DA8BF502528E70023082279
:1079B00002A9504600F023B951F8221043F82010D4
:1079C000401C0099491C01280091704730B50246BF
:1079D00000201C4BD3F8101400E0096889B1C96875
:1079E0000C798442F9D1401C0A28F3DB4FF0FF30B8
:1079F00030BDC9680D682560D3F81034D9680A60B5
:107A000030BD10F1010FFBD0D1680871D3F810140C
:107A1000D4680029EDD1C3F81024216030BD10B521
:107A2000104804680121017408E0E16801224A71EC
:107A30002046226851688847E0680468002CF4D129
:107A400010BD000048290020C02703008C17030048
:107A5000BC16030000000000BC160300642D0020CB
:107A600004170300582D00204261636B656E647338
:107A700020666C7573686564000000001036002095
:107A80007F000000243A002062F30F2262F31F42BD
:107A900000B500BF130096469446103928BFA0E8F1
:107AA0000C50FAD85FEA417C28BF0CC048BF40F8B0
:107AB000042BC90728BF20F8022B48BF00F8012B70
:107AC00000BD00F0EFB82DE9F04105460F462E8AC3
:107AD00000F0FFF8361F040021D0F7190020012123
:107AE000FF1C20716171A046B7FBF6F7E680FFB27C
:107AF0007F1EC8F80050002607E06179491C6171BB
:107B0000C8F8000005608046761CBE4209D22846AF
:107B100000F0DFF80028F0D1204600F005F8002042
:107B200000E02046BDE8F081F8B501460D464C79ED
:107B3000601E002200E0521C2D688242FBD300260A
:107B400005E00F68284600F0E7F83946761CA642A3
:107B5000F7D3F1BD0121001DFFF726BC1CB504467B
:107B60000121201DFFF72CFC00909DF8000018B9A2
:107B70002046BDE81640D7E713BD2DE9F04714466F
:107B8000B0F806804279256846465643361F5F198D
:107B900003F1040CBE42BCFBF8F234BFF31A2B46CF
:107BA00008FB12CC2360002A01E00068521EFCD1C1
:107BB000A8EB0C029A469342089F4FF0000988BF39
:107BC00092460E4605461C46BCB105EB0C00001D56
:107BD00006EB0903390052460EBF19460146184606
:107BE000FFF700FC2D68A4EB0A04D14444454FF094
:107BF000000CA246E8D9C246E6E7BDE8F0871CB50E
:107C00000192002402E01CB501920124009401AA13
:107C1000FFF7B3FF13BD80680021816001614161FE
:107C2000C160416001607047EFF3108072B6704729
:107C300062B6704738B50446FFF7F6FF154A9168FB
:107C400071B9012393601449144B1D680D401560F0
:107C50001960596851604FF0FF325A60002100E00E
:107C60000121217010B9BDE83140E1E731BD10B507
:107C7000084CA16869B160B9FFF7D6FF08492268CE
:107C80000A6063684B600021A16010B9BDE8104034
:107C9000CEE710BDA03A0020FC06FFBD80E100E069
:107CA00000E100E010B508B90E2010BD036842687D
:107CB00081681A60891A03E013685C1C14601970EB
:107CC0000B46591EDBB20268002BF5D10020107163
:107CD00010BD38B5044600258DF800506846FFF702
:107CE000A9FF21686268086882420FD2421E0A60BA
:107CF0001578208AE36845431D44A36820689A1AD2
:107D00000379D2B29A4238BF1A460A719DF8000030
:107D1000FFF7ADFF284632BD38B50C4600210546B9
:107D20008DF800106846FFF785FF286801684A1C37
:107D30000260E8682A8A241AB4FBF2F20A709DF8FD
:107D40000000FFF794FF31BD00F0D2BB10B5044630
:107D500000F03AFC204600F06FFC20780C2803D19C
:107D6000BDE81040002004E210BD0178002900D0D9
:107D7000704710B54068445E012100F04FFF08B124
:107D800000F0B6FB4FF4167014FB00F14A1201EB41
:107D9000925106208912414301F5877189B240F65C
:107DA000B8329142A8BF642137DA40F6543291428A
:107DB0000ADD40F6B833591A3A204143642291FB58
:107DC000F2F1C1F1640128E040F6B423994208DDE4
:107DD000511A18204143A02391FBF3F1C1F12A016C
:107DE0001BE040F68812914209DD591A0C204143EC
:107DF0004FF4967291FBF2F1C1F112010DE040F6E1
:107E00003503994208DB511A48434FF4AA7190FB9D
:107E1000F1F1C1F1060100E000214FF6FE72C9B296
:107E2000DFF8DC0500F0FDFF002818BF082807D0A8
:107E300013281EBF112843F20141884200D094E16B
:107E400010BD0146DFF8BC0501F04BB880B500F06D
:107E500028FF00B110E001BD80B5002001F015FA47
:107E600008B100F045FB01F0DAFA08B100F040FB80
:107E700033DF00B100E001BDBDE8024000F038BBD7
:107E800080B560B103280DD100F086F90FF2BC5126
:107E900000F085F9022001F0F8F918B1ECE7BDE82F
:107EA0000140D9E701BD00F023BB7FB5DFF85805DD
:107EB000DFF858450090694604F1640001F01CFBAE
:107EC00008B100F015FB00200221ADF800006FF0B2
:107ED00007028DF801108DF80020694604F11C009E
:107EE00001F090FB08B100F003FB0020CDE9000099
:107EF00002210FF201128DF804100092694604F17C
:107F0000280001F0DEFB08B100F0F2FA684600211B
:107F10000022002380E80E008DF8082002220FF2D4
:107F2000E901DFF8EC5400918DF809208DF80A2062
:107F30000195694604F13C0001F023FC08B100F012
:107F4000D7FA6846002100220023002680E84E0070
:107F50000FF2F101009101228DF804200121642229
:107F60008DF80D108DF80E108DF80F1002938DF80E
:107F70000C20694604F1500000F02FFF08B100F01A
:107F8000B7FACDE900662670019569460FF28902BD
:107F90000092201D00F0E0FF08B100F0A9FA7FBDBB
:107FA00000F0A6BADFF86C14DFF86C248A1A80B5EA
:107FB000D208120442F0030218B102280FD007D3EE
:107FC00001BD0FF29C411046FFF7C1FB11200CE0F0
:107FD0000FF298411046FFF7BAFB0D2005E00FF2B3
:107FE00098411046FFF7B3FB102001F04EF900B1A5
:107FF00042E701BD087828B9486800281CBF00780E
:10800000FFF7D0BF704700000878002804BF487809
:10801000FFF7C8BF7047000010B50878DFF8EC43E1
:1080200010B102280BD010BD8A894988201D00F0AC
:10803000E2FF08B100F05CFA0120607010BD002181
:10804000617010BD80B50978DFF8D00311B1012946
:1080500006D001BD00224FF4701101F050FE01E086
:1080600001F065FE00B107E701BD38B50446DFF851
:10807000A413DFF8A4032288081AC0080004102AF9
:1080800040F003000DD0112A06D0212A23D03B2A2C
:1080900018BF562A28D031BD0FF2E831FFF757FB41
:1080A00031BD0FF2F031FFF752FB072001F0EDF880
:1080B00008B100F01DFADFF85453A18805F16400FF
:1080C00001F02EFA08B100F013FAA18805F1700052
:1080D00002F0D4F80BE00FF214400188ADF8001064
:1080E0006946A0888FDF02E0A088132176DF08B1FF
:1080F00000F0FEF931BD10B50428C44C09D00A289F
:1081000004D00E280BD00F2822D010BDBDE810409F
:10811000A2E6A089132176DF082825D021E0617826
:1081200011B3207800280CBF02210021201D00F08F
:1081300057FF28B92078401E8041C00F207010BD25
:1081400013281CBF43F2014188420DD0052809E0E5
:1081500000F022F80FF2483100F021F8112001F070
:1081600094F8002800D000E010BDBDE8104000F0F9
:10817000BFB980B5012808D100F00EF80FF22C31FC
:1081800000F00DF802F080FA03E00321A44802F0A9
:1081900051FC00B170E601BD9E489F4A7047801AAD
:1081A000C008000440F00300FFF7D1BA30B5ABB00F
:1081B0004FF400410020FFF771F908B100F098F981
:1081C00002F06AFD01F067FD08B100F091F9954AEF
:1081D000C2A0012101F080FD08B100F089F99249A7
:1081E000032001F05DF808B100F082F96946002033
:1081F00001F065F908B100F07BF99DF80000022854
:108200000CBF0124002402F057FD08B100F070F902
:1082100002F002FE08B100F06BF900200090694600
:10822000012002F095FE08B100F062F9684602F004
:108230000DFF08B100F05CF9DFF8F011A6A000F026
:108240006DFC08B100F054F9A5A191E82C00684636
:10825000694680E82C00002000F09EFC08B100F088
:1082600047F96F4D012105F51B7000F0D7FC08B1EF
:1082700000F03EF9012105F26E2000F0CFFC08B1BC
:1082800000F036F911208DF800000B226CA1684631
:108290007CDF08B100F02CF94FF4107078DF08B1E2
:1082A00000F026F901A90020C1E90000ADF808009E
:1082B0004FF4C8714FF44872ADF80410ADF80620C1
:1082C000ADF80A1001A87ADF08B100F011F9002119
:1082D00005F5167002F087FF08B100F009F9AC212E
:1082E0006846FFF78BF802218DF800100122052166
:1082F0008DF803108DF8022005F51C7104220591FC
:10830000ADF810201FA828210122C1608DF87C2023
:1083100044F250624649816202616946284602F091
:108320000BFB08B100F0E4F80121284602F001FB44
:10833000404801F056FF08B100F0DAF8FFF7B5FD4C
:108340001C216846FFF75AF84FF4203201920021B1
:10835000032200918DF80C204FF47021012202912C
:108360008DF810200021344AADF80E1005910692C8
:10837000684603F09BF808B100F0BAF802F0B6F8CE
:1083800008B100F0B5F805216846FFF737F831204D
:108390008DF8000007219DF803008DF8011040F0D2
:1083A00003008DF8030010229DF804008DF80220D0
:1083B00040F003008DF80400684602F003F908B1AC
:1083C00000F096F81D4802F0EBF808B100F090F8C4
:1083D000FFF7E2FE39A1FFF7E2FE2046FFF7C9FEF4
:1083E00095F854106FF00702012077DF08B100F014
:1083F0007FF8FFF7D5F90028FBD102F06AFCF8E717
:108400006022002014220020A77E020010220020FB
:10841000497D020004170300BC160300CC3900207C
:10842000542500204D7E0200F78002006B7D020083
:10843000817E0200437E0200A17F02004D7D02008A
:108440004E6F726469635F50726F78004661737437
:10845000206164766572746973696E672E0000002E
:108460004E6F20416C6572742E0000004D696C6483
:1084700020416C6572742E004849474820416C6564
:1084800072742E00446973636F6E6E656374656405
:108490002E000000436F6E6E65637465642E0000ED
:1084A000416C657274204F66662E000045726173E0
:1084B0006520626F6E6473210000000050726F7857
:1084C000696D697479206578616D706C652073746D
:1084D00061727465642E000001000600CC39002032
:1084E0000000000002000009000000000000FEE79C
:1084F0001FB5694600220023002481E81C00029079
:108500006A46002144F2010003F094F81FBDFEE723
:108510002DE9F845054643F2020669B9694602F0BD
:1085200067F8B0421CBF0028FFF7E2FF9DF800008B
:10853000C0F34000002844D10021284602F04BF847
:10854000040018BF112C3CD0DFF89003DFF89073C3
:10855000DFF89083C71BFF083F040D2C47F0020A89
:1085600012D12A4641465046FFF7F4F81321284617
:1085700076DF30B303F096F802462B4608F174011B
:108580005046FFF7EDF81CE00B2C03D12A4608F10A
:10859000AC0104E0B44206D12A4608F58671504683
:1085A000FFF7D8F80DE0204603F07CF802462B4692
:1085B00008F5AC7147F00100FFF7D2F82046FFF74D
:1085C00097FFBDE8F185A3E710B5044600F0E6F893
:1085D000207818B96088BDE810407DE107280FD1E8
:1085E000DFF8F802DFF8F8220FF20C31801AC00829
:1085F000000440F00100FFF7AAF8A06800B167E1AD
:1086000010BD80B586B068460FF280311822FEF7A3
:10861000E9FE684600F010F807B000BD10B586B05E
:10862000044668461821FEF7E9FEADF804406846A6
:1086300000F002F806B010BD2DE9FC410446DFF859
:10864000A852217869B1022927D006292ED00829FD
:1086500018BF0A2975D0132976D0142900F090800C
:1086600099E0A08802F0BEF8862818BF11280DD125
:108670006869A1882A1D22F81010401C811000EBA7
:108680005172D210A0EBC200686182E006281CBFC4
:108690000728132809D000284FE0207A012818BFA6
:1086A000002878D1A088FFF7B9FF74E02878002867
:1086B00071D18A498A4E8E1BF608360446F00307AC
:1086C0000FF240213846FFF742F86878B0B900232E
:1086D0006A46002102F020F80400DFF8108217D16A
:1086E000BDF8002041463846FFF734F8BDF80000D9
:1086F00001F0C2FF040007D101206870FEF77EFB85
:10870000D0B90120287046E0FFF7F2FE0120687022
:10871000052C04D10FF2082146F0010005E0062CDB
:1087200006D108F12C0146F00200FFF710F832E004
:10873000002CE3D0204601E008282CD0FFF7D8FE1B
:1087400029E00120687026E000216C6929706970B9
:108750000026A119881001EB5072D210281DA1EB40
:10876000C20230F812004FF6FF73984204D0291D60
:1087700021F81230FFF752FF761C082EE9DB0AE0E1
:1087800000212970207B30B1A0680E2818BF012875
:1087900001D1FFF736FFBDE8F38100002DE9FE436C
:1087A00007464E484E4E3A78DFF84491514C861BAE
:1087B000F608360446F0030846F00105142A46F090
:1087C000020600F27980DFE802F07E7E0B1C7E7EDE
:1087D0002E327E384C5058607E677E7E7E7E7100E1
:1087E000788803F021F809F10C013A7A51F8221047
:1087F0000091214659F820207B884046FEF7B8FFBB
:1088000061E0788803F010F87989019109F10C0290
:108810003B7A52F82310009104F1400159F82020CE
:108820007B8840461AE000BF45A1304628E000F0B2
:108830004CF8024604F194012CE0386902F032FF52
:108840000190787A09EB80010A6C0092387ABA8834
:1088500009EB800130468B6904F1C001FEF793FFFC
:1088600031E0BA8804F5867114E000F02EF8034672
:10887000BA8804F59A71284613E000BF36A1404635
:1088800003B0BDE8F043FEF762BF00F01EF80246F9
:1088900004F5B271284611E0BB887A8804F5C471EA
:1088A000304603B0BDE8F043FEF75ABF00F00DF8C4
:1088B000024604F5E27100E02CA1304603B0BDE8A9
:1088C000F043FEF747BFBDE8F783B86802F0EABEA1
:1088D000BDE81040FFF70CBE002174E674170300DA
:1088E000BC1603002C07030074280020341F03006B
:1088F0002C28002038050300417373657274696E7B
:10890000672E0000417474656D7074696E67207421
:108910006F20636C65616E20666C6173682E000069
:10892000546865726520617265206E6F20706565A0
:10893000727320746F2064656C6574652E0000008E
:10894000466C6173682073746F7261676520697328
:108950002066756C6C000000416C6C20706565725F
:10896000732064656C657465642E0000556E6578CF
:1089700070656374656420504D206576656E742063
:1089800049443A20307825782E0000000600000087
:1089900000000000000000000000000000000000D7
:1089A00000000000000000000000000000000000C7
:1089B000DFF81013085800B10120C0B27047DFF88B
:1089C000041381B000220A5008580090009901B0A9
:1089D000704710B50001DFF8F0321C1862601950C2
:1089E00010BD7FB54FF48270DFF8E062DFF8D4523B
:1089F000FFF7DEFF06F12D04F8B100F0CAF8607849
:108A000008B1A178C9B17168019100228DF80020E8
:108A10003189ADF80810F16809B9327408E0328B79
:108A20007283716032810021F16008B901202860F1
:108A30006846316888470020A070607840B34FF4E2
:108A40008070FFF7B5FF18B300F0E5F82178738B5D
:108A5000DFF87C22994208D2581A708380B2338999
:108A60007468181A04EB400007E08B420CD1F068E0
:108A700030B10123A370002474831060516003E0BF
:108A800001200021A070718300F083F8012068604C
:108A90004FF48870FFF78CFF58B14FF48870FFF7E0
:108AA0008EFF0020307402218DF800106846326875
:108AB00090474FF48A70FFF77BFF30B14FF48A7014
:108AC000FFF77DFF002030747FBD746923E0B4FAA6
:108AD00084F5EDB24FF00040E840AD00844305F569
:108AE0008C752846FFF764FFA8B12846FFF767FF9B
:108AF000A5F58C71C9082D0601208DF80410AD0E66
:108B00008DF8000005F0010585F0010531688DF84C
:108B1000055068468847002CD9D17FBD70B5DFF875
:108B2000AC2102F12C040546207808B1082070BD64
:108B30001160DFF8A0012978DFF89C610160012154
:108B40006B7843600023E878A07021701374637021
:108B50005361E3706FF00041716000F01AF800F0AB
:108B60005AF8A878DFF87411400108708022DFF805
:108B70007001DFF8701102600A6002223260A07892
:108B800008B1012131600120DFF85C211060002074
:108B900070BD4FF4827012E738B54C4C04F11005EB
:108BA0002A780AB1112032BD04EB4004227F12B9A9
:108BB0006A7F521C6A770301CA7922770D7A65773A
:108BC0004C780A78404D240102F0030204F030048E
:108BD00022438C78240204F4E0642243CC782403FA
:108BE00004F4805422430C79240404F4E024224346
:108BF0004C79240504F4801422438C79240604F073
:108C00008074224305F10804E2500A7AC979FFF71B
:108C1000E0FE002032BD4FF48070D0E6F8B52E4F54
:108C20002A4B12227A601A7C022A08BF12200AD02C
:108C30001A7C274E012A03F12D0C0C46054617D14C
:108C4000DA681AB1022038601120F2BDD8601983A9
:108C50009CF8010048B94FF48070FFF7A9FE002886
:108C6000F9D0FFF7D8FF356074600220386016E055
:108C700002223A6001271F745860198100229CF873
:108C80000100DA6028B19CF80000598335607060FB
:108C900005E035607460FFF7BEFF0A490F600020F1
:108CA000F2BD12490A780020012A01D0082070473D
:108CB000897F044A11B1012313607047012151607B
:108CC00070470000007000401075004024390020FB
:108CD0002C760040F07500400473004007E400E08B
:108CE00080E200E000E100E000750040343900203F
:108CF00038B505460C0018BF002D1DD02888502817
:108D00001AD1607CC0B1E8886189884204BF288A92
:108D1000022811D1216879B105F1120002F040FE5C
:108D2000401E8041C00F8DF800002046A988ADF894
:108D3000021069462268904731BD70B50D468EB06D
:108D40000446287B8DF80000202106A8FEF756FB7C
:108D5000012042F61922ADF81C00ADF81E00ADF856
:108D60001820CDF820D0A21D9DF82510607C01F0C0
:108D7000EF0141EA001141F002018DF8251006A92A
:108D8000A87B8DF82B00687B8DF82900A08802F065
:108D90002BFE00BBA968E9B10DF1020002F007FE4D
:108DA0000646142101A8FEF729FB42F60810ADF88B
:108DB000040004F10E02E97B8DF80A10ADF80E6094
:108DC0000DF10201ADF81260059101A9E08802F0F1
:108DD000CDFE00E0E0810EB070BD38B504000B465A
:108DE00018BF002B01D10E2032BD18682060FF2073
:108DF00019796174207401218DF8021041F60F0574
:108E0000ADF80050221D69460120A8DF18B91946A7
:108E10002046FFF792FF32BD0A4601461046AEDFFC
:108E20007047F3B5030091B0154608BF0E2056D029
:108E30000846197C0024884250D0CDE90044012125
:108E4000ADF80010ADF8024012A901916A46D98828
:108E50004FF6FF70ACDF040040D1587C9DF84810FD
:108E60001974002839D002A800210022002600270A
:108E700080E8C600D9880198ADF808100122BDF835
:108E800002108DF80A20ADF80C104FF6FE7229463C
:108E90009142CDF810D005901AD106A802F0FAFC44
:108EA00000250698854219D207A931F81560304689
:108EB00002F0C9FC022809D1002C314602A802D0D8
:108EC000FFF7AAFF02E0FFF7A7FF04466D1CE8E7E3
:108ED00002A8FFF7A1FF044600E00824204613B0D3
:108EE000F0BD7FB504460D460E216846FEF786FAB2
:108EF00001228DF800206988ADF80210287800283A
:108F000002BFA88841F60201884204BFA87901285F
:108F100017D1002612E012207043284442F60622A0
:108F2000C189914209D1817CC1F3800129B100F14D
:108F30000E010A2201A8FEF755FA761C287A86420D
:108F4000E9D3BDF80C0010B100218DF8001069467E
:108F50002268204690477FBD00281CBF0A68002A6F
:108F600000D009B90E20704702604FF6FF724968C1
:108F7000416002810021C182012242F60621C181A5
:108F8000027441F60201027341810A3001F036B9E0
:108F90001FB5008811280C460DD14FF6FF71E08AED
:108FA000218140B102228DF80020694623682046C5
:108FB00098470022E2821FBDFEB56C4600250026C0
:108FC000002784E8E000ADF80210ADF8045002215B
:108FD0008DF80010ADF8062002936946A3DFFEBDB0
:108FE00002B5C18A29B100896B460122FFF7E4FF6F
:108FF00002BD052002BD08B90E2070470181C28262
:1090000000207047042838BF02F07ABE0020704765
:109010002DE9F8438046894602F090FE002404289A
:109020002FD2DFF8706300EB400175183718B9F1E3
:10903000000F14D0B9F1020F1AD01AD22C78687828
:1090400050B106F10F024FF4004106F15C0000F050
:1090500056FE08B986F80F80A878387409E006F142
:109060005C0000F064FEAC78387CA04209D100E0DE
:109070006C7820001CBFB169002902D0BDE8F44320
:109080000847BDE8F18300780221C1E710B5DFF899
:109090000413887B48B10024204602F005FE641CBE
:1090A000042C06D2022CFAD0F6E7BDE8104002F0FC
:1090B000FFBD10BD2DE9FC41B64E0446707B002774
:1090C00010B17773FFF7E2FF8DF8004021461729B2
:1090D0000191B14DDFF8C482B14C00F2BF80DFE8EE
:1090E00001F00C1515282F3A4F5559625962B86F87
:1090F0006F6F6F6F9EA2A8AFB8B8FFF7C7FF06F1FA
:109100001C0000F014FE07460020A6E000F0ACF8BA
:1091100040B100F0ACF89DF80000022814BF4046B2
:10912000A04821E002F0BCFD9DF8000002281AD002
:109130000FE000F099F8A0B100F099F89A4813E018
:1091400000F092F818B100F092F840460CE002F0FE
:10915000A7FD284608E000F087F810B100F087F876
:1091600001E000F07EF8204600214FF47A720023DF
:109170009DF80050357302F01FFE0146002219E0F1
:10918000002002F0A7FD0620307308E000F069F827
:10919000072062E001217173012002F09BFD002293
:1091A00040F6CD4106E00120707302F093FD0022ED
:1091B0004FF4804106F11C0000F0A1FD07464DE090
:1091C00006F13C0000F0B3FD07460198D0F1110014
:1091D0001FD0F7B9012817D980B2C8214843C11759
:1091E000C90341EA5041C00310F5FA7041F1000192
:1091F0004FF47A72002302F0DFFD0146002206F1EF
:109200003C0000F07CFD0746022002F049FD0120F1
:1092100003E0022002F048FD0020B0731EE0FFF7DB
:1092200035FF122019E0FFF731FF00F01AF8132084
:1092300013E0FFF72BFF012002F032FD14200CE0B9
:10924000FFF724FF00F00DF8012002F029FD1520A2
:1092500003E002F036FD9DF8000030733846BDE8AB
:10926000F681002002F01CBD002002F00FBD00209E
:1092700002F01ABD4748017DCA0744BF007BFFF7D3
:1092800019BF7047022002F025BD80B5414A137D09
:109290000021DA0702D5FFF70DFF0146084602BD9F
:1092A00070B505463B48002445618161A8071ED57D
:1092B000002601220121304600F02FF8761C042EF2
:1092C000044601D2002CF4D08CB940F2666204212D
:1092D0003FA002F08DFE04464CB902F0BEFE0446EB
:1092E0002CB9324A39A0002100F0F6FC0446E80708
:1092F00011D5012002F036FD6CB92D4A31A00021B4
:1093000000F0EAFC044634B9DFF8A8202EA00121C1
:1093100000F0E2FC0446204670BD30B50346002054
:10932000042B15D21B4C03EB4305012A2C4405D119
:10933000012908BF03F10E0204D0002231B1022935
:1093400002D005D2227030BD627030BDA27030BD37
:10935000072030BD10B5042819D2002914BF0324FA
:10936000002402F0FBFC1F2892BF134900F01F00ED
:10937000124951F8202022F4403241F8202051F8BF
:10938000202042EA044241F82020002010BD06209F
:1093900010BD000090360020F401C800F401D00791
:1093A000F4016400F4018403F40190018790020049
:1093B000759202008592020000070050000A0050DA
:1093C0000121C7E7AC360020CC360020EC36002067
:1093D0000B000300119002000C000300119002002A
:1093E0001800030011900200190003001190020000
:1093F00080B5012200F05AF8002818BF07280DD1C7
:1094000000F058F8002818BF072807D10A220021C9
:1094100000F04DF8002814BF0728002002BD80B5D9
:109420000020FFF7CDFF002818BF062806D1012035
:10943000FFF7C6FF002814BF0628002002BD10B5A4
:109440002C4C014609886068102902D011291FD0D0
:1094500010BDC8B901220021FFF75FFF002818BF27
:1094600007280CD100F026F8002818BF072806D1DD
:10947000042200F01BF8002818BF072804D0002899
:109480001EBF2168002988476068401C606010BDCD
:10949000401E606009D1FFF7ABFF00281CBF2168A8
:1094A000002902D0BDE81040084710BD022100206D
:1094B000FFF733BF072202210120FFF72EBF70B54F
:1094C0000C4E0C460025306064B10120FFF79AFD78
:1094D00008B1022003E0FFF795FD10B10B202070CA
:1094E00000E02570706810B9FFF782FF0546284636
:1094F00070BD0000B83A0020002818BF002901D133
:109500000E2070470278DE2A01D1082070470968D2
:109510004160DE2202704FF6FF73438000207047E7
:1095200008B90E2070470278DE2A01D00820704763
:109530004180002070470246107A50B150880021C7
:1095400066DF10B1112802D10120107270475168F6
:10955000084770477FB505460C0018BF002D4AD05C
:109560002078DE2847D1A8886188884204BF204639
:10957000FFF7E1FF2888012804D0112834D05128B2
:109580000DD07FBD297A012902BFA8886188884251
:1095900031D1012020722046FFF7CDFF7FBDA88882
:1095A0006188884204BFA879022824D1A87B0428B6
:1095B0001CBF062805281ED168461021FDF71EFF96
:1095C00002214FF4C0768DF80010ADF80460A87B3E
:1095D000052804BF0021ADF80410A8886946B0DF53
:1095E00048B1616888477FBDA8886188884204BF08
:1095F0004FF6FF7060807FBD0288102A04BF80880C
:109600004881704730B589B00D4601218DF80210B0
:10961000044641F60403ADF80030224669460120B5
:10962000A8DFD8B9202101A8FDF7E8FE9DF81100B8
:10963000039540F0020042F6072101228DF8110047
:10964000ADF80410ADF80820ADF80A20A21C687827
:109650008DF8150001A9208802F0C6F909B030BDC7
:109660003EB505460C462888102802D050280BD05D
:1096700037BD002100916A46A988206902F008FDE3
:10968000F0B90099087037BDE888E188884204BFC6
:10969000288A012814D1A98820696A4602F0F8FCBA
:1096A00010B90099A87C087000208DF80400A988E2
:1096B0000098ADF80610029001A922682046904754
:1096C00037BD38B50C468AB00546206808B9072072
:1096D0002BE0286001218DF8061041F60203ADF859
:1096E00004302A1D01A90120A8DFF0B98DF800007F
:1096F000202102A8FDF782FE9DF81500CDF810D0BC
:1097000040F0040042F6062101228DF81500ADF864
:109710000810ADF80C20ADF80E20AA1D20798DF8A8
:109720001A0002A9A88802F05FF90BB030BD1CB581
:109730000C0018BF002823D00188102904D011295B
:1097400005D0192913D013BD8288628211E0007AF6
:10975000082815D100218DF8001020460DF10101D7
:1097600000F04FF840B1616851B1884713BD007AED
:1097700030B90021ADF800106946226820469047B4
:1097800013BD30B504000D4614BF002D0E2089B066
:1097900035D0286808B9072031E0206001216868C9
:1097A00060608DF8021041F60303ADF8003004F15B
:1097B000080269460120A8DF08BB202101A8FDF7A7
:1097C0001DFE9DF8110040F00A0042F6062101221C
:1097D0008DF81100ADF80410ADF80820A87A8DF8C6
:1097E0001600697A8DF81510ADF80A2005F1080108
:1097F000039104F10A02208901A902F0F5F809B0E9
:1098000030BD1CB5002818BF002901D10E2016BD9F
:109810006A4600230024C2E9003401910123ADF817
:109820000030ADF802404189408AADDF16BD00002E
:10983000012200F01F01DFF8143504E0012200F0DE
:109840001F01DFF80C358A40400943F8202070479B
:10985000012200F01F01DFF8FC34F4E749010200A7
:1098600007D5DFF8F42400F00F00104400F8041CC2
:109870007047DFF8E8341954704728B10FF22051CF
:10988000800141F001010847704710B5DFF8D0149E
:10989000DFF8D0444FF4003008604FF48031DFF837
:1098A000C804016401602F2001212160FFF7E5FF5A
:1098B000012161600020DFF8B444A06000F0B8F836
:1098C0000020A07010BD1420B8E72DE9F84FDFF894
:1098D0009C74DFF89C548046786800904FF0000933
:1098E00000E07E60B8F1000F7DD04646D6F81C80BF
:1098F00031E0A346E469002C73D08442F9D1A3453A
:1099000002BFC8697860002808D1DFF86814012018
:1099100008600022F870BA6000F08AF82168E069F7
:10992000CBF81C0010B10268891801607868824584
:1099300057D04FF0010954E0307C002853D188689B
:109940007060CA68B2600869F0604969B161F8780E
:1099500008B100217160B8687168DFF81C340A1A18
:1099600022F07F429A4203D2B0688218326008E047
:10997000401AB16820F07F40884234BF081A0020A6
:109980003060002171600020B06001213174F0610D
:1099900079680029A5D008683268904203D3801AFC
:1099A0000860F1619DE70846036893423AD2014698
:1099B000C069D21A0028F7D136E0B9F1000F02BF12
:1099C00078680099884214BF01200020BDE8F28F1A
:1099D000786800281FBF00210174C0697860F7D142
:1099E00001E000213174287869788842E5D0024688
:1099F000144618202B1D44431919521CAB78D0B2C1
:109A0000984208BF00222A700A784868012A064650
:109A100092D00CD3032ADBD009D279688B468A46D0
:109A20005C4668E79B1A03603260F061CE6159E7DB
:109A30002F2022E72DE9F843DFF830436068002843
:109A400039D00568DFF834633768D4F80880A7EBAD
:109A5000080020F07F4000F10309A07890B9DFF8FA
:109A600020034FF48031016401601120FFF7F0FE04
:109A70001120FFF7DDFEC34901200860FFF7D8FF82
:109A80000120A0704D4538BF4D46454425F07F4527
:109A9000F563ED1B3068C71B27F07F4725F07F4536
:109AA000FF1CBD420AD23068F063FFF7C1FFBDE87A
:109AB000F2431120C2E6BDE8F143E6E6BDE8F183DA
:109AC0002DE9F041A94C94F800C06378A168606862
:109AD000002200269C450F46804612D00CF1010C56
:109AE0005FFA8CF3022B08BF944604F10C035FFA73
:109AF0008CFE53F82E30591821F07F41A1600121CE
:109B000001E00023002184F800C0F9B114E05B1AE1
:109B10008E190021CCF800108646DCF81C00DCF819
:109B20000C1049B1F519CCF81C2025F07F45CCF874
:109B30000450CCF80810724638B18446DCF80010A6
:109B40008B42E4D2CB1ACCF800300126606010467C
:109B5000FFF7BBFE00280EBF002E4046FFF76AFF4E
:109B60000020E070BDE8F08110B581494A788C781A
:109B7000521CD3B2A34208BF00220C78D3B2A34236
:109B800001D1002010BD027018204A784243881885
:109B9000001D10BD2DE9FC41804600240D461646EF
:109BA0001F4600F03CF80DF10100FFF7DDFF08B99A
:109BB00004240BE001210170C0F804806F4A116891
:109BC0008160C5600661476100F024F89DF80000DF
:109BD000FEF74DF80CB9FFF776FE2046BDE8F6819A
:109BE0007CB5054600240E4600F019F80DF1010081
:109BF000FFF7BAFF08B9042403E00670456000F0DF
:109C000009F89DF80000FEF732F80CB9FFF75BFE8B
:109C1000204676BD9DF801005549487070478DF883
:109C200000406846FEF706B8F8B557484F4D00218A
:109C3000016441648164C164016041606C6844B343
:109C40004E480068AF68C71B002627F07F47206892
:109C500087420CD33F1A86192146E469087C20B15B
:109C6000002288690A7449698847002CEFD1687816
:109C70002978814201BF401C6870C0B2022804BF2D
:109C800000206870687805EB8001CE60BDE8F14087
:109C900019E6F1BD14E738B5FFF7F7FD3448334C4A
:109CA00000210B230180837061602170617014209A
:109CB000FFF7CEFD06211420FFF7D0FD1420FFF79B
:109CC000B7FD2E4D0020686006211120FFF7C6FD6C
:109CD0002868A060002032BD10B5254CA37843B1A0
:109CE000130018BF002801D1072010BD0368187C9D
:109CF00008B1082010BD187459745A6110BD10B510
:109D00001B4C1346A278002A18BF002805D005294D
:109D100001D2072010BD42690AB9082010BD427C5B
:109D2000BDE81040012A0CBF0A46002232E7104A63
:109D30009178002918BF002801D0416909B908208D
:109D400070470021017402214AE7000000E100E0B1
:109D500000E200E080E200E018ED00E000E400E056
:109D600080E100E004100140081301403C3A00206B
:109D7000F031002008100140FFFF7F000415014072
:109D800004130140001001400011014000000000D8
:109D900000000000000000000000000000000000C3
:109DA0000338FDD87047000010B50021DFF8BC254E
:109DB00000E0491C536A99420CD202EB8104A3785B
:109DC0008478A34202BF32F821300488A342F0D144
:109DD000D06910BD002010BD78B59FB0154600F0C9
:109DE0004CF81044FFF7E0FF06000AD06846DFF8A1
:109DF00080157C22FDF7F6FAADF802500194684612
:109E0000B04720B070BD2DE9F84F924600F035F80C
:109E100000EB02084046FFF7C7FF814658B3DFF862
:109E20004C65356A062D26D2DFF848B50BEBC51711
:109E3000381DA7F802A041467622FDF7D3FA002C80
:109E400019BF0020387002213970C7F87C906D1C52
:109E50003562706A85420ED1002407E0E1010BF102
:109E60007C020BEB010051588847641C706A8442E5
:109E7000F4D300213162BDE8F18F0C4690F8C62280
:109E800076214A437047F8B5034603F2C5260C46CF
:109E90003179DFF8D804DFF8DC54491C3171C9B2DC
:109EA000426A914219D20021317076227178491CA0
:109EB0007170C9B212FB01F21A4450F82170176098
:109EC00001210027177120469BDF58B10146B7706A
:109ED00022461846FFF780FF01E00021B170032001
:109EE00028706C80F1BD70B5A2B990F8C65209898E
:109EF000762200F108045543665BB1420FD0491C3D
:109F0000198000F1080190F8C60212FB00F28A5A8B
:109F10005A800BE00889D488411CA14201D100205D
:109F200070BD401C1880D088411E5980012070BD32
:109F30001CB5024602F2C52308465C7876214C43E4
:109F40001978224449B14B1EDBB212214B43D11880
:109F50004C8A641CADF8004002E0D188ADF80010D6
:109F600069461289ADF802209DDF16BD2DE9F84F34
:109F700000F2C52690460C467278377876214A431F
:109F80004FF0120A85181AFB07F3EB1803F10A01C8
:109F90002B797A1C9A4208D16B460022FFF7A3FF67
:109FA000F0B90120207000201FE083462879874205
:109FB000F7DA401E87421DBF1AFB07F0281800F190
:109FC0001C094FF000096B464A465846FFF78BFFC5
:109FD00030B93078401C7F1C49463070FFB2E5E74D
:109FE00000212170404669469EDFBDE8F28F2DE9D1
:109FF000F84F0D4682462888BAF8CA12884279D1AD
:10A000000AF2C524688861784FF0760919FB01F1DE
:10A0100000280AEB01064FD13079E988804658FACA
:10A0200081F2062A02DC0818307116E0DFF84813C6
:10A03000DFF84873DFF848B33288CF1B0620FF08EB
:10A0400030713F0447F0020759463846FDF782FB5E
:10A050000BF148013846FDF77AFB4FF0000B12E098
:10A060000A2101FB0BF1294407F10A0008310A22F9
:10A07000FDF7B8F90020B882F8823883788308F1B8
:10A0800001080BF1010B122000FB08F037183079A2
:10A090008045E5D361783A8819FB01F90AEB09019B
:10A0A0000B899A4208D2062806D02070504629888B
:10A0B000FFF73EFF40B91DE00020207069462A8866
:10A0C0005046FFF753FF48B10021A17001462A888E
:10A0D0005046FFF781FE00F07EF80BE09DF800008F
:10A0E00040B12A8801215046FFF78DFE298850464D
:10A0F000FFF7C9FEBDE8F18FF8B50D460446288884
:10A10000B4F8CA12884259D104F2C5267620717873
:10A11000377841436218122102F10A034F436888DD
:10A12000D91900284BD100230CE0488900281CBF16
:10A130008889002805D0C88900281CBF088A002803
:10A140003DD15B1CE888834239D206275F43E8197A
:10A150004FF4245E4789B7EB0E070BD07F1E0CD05F
:10A160007F1E04D0BF1F04BF00890882DDE700897D
:10A170004881DAE700898881D7E70089C881D4E778
:10A18000401C307069462A882046FFF7EFFE48B130
:10A190000021B17001462A882046FFF71DFE00F01D
:10A1A0001AF8F1BD9DF8000040B12A88012120462F
:10A1B000FFF729FE29882046FFF765FEF1BD002044
:10A1C0008DF8000030781279411C9142D8D10120DD
:10A1D0008DF80000E9E76748032101702A88428072
:10A1E0007047010001D10E2070476049C86100220C
:10A1F00001234A620B760A620020704738B50400DA
:10A2000001D10E2032BD594D287E012801D00820F1
:10A2100032BD2046FFF7C8FD38B9686A062806D265
:10A22000216845F82010401C6862002032BD0420DF
:10A2300032BD70B50D4604464FF43371FCF7DCFEB9
:10A240004A48A4F8CA52002104F2C52301621971D8
:10A25000597019707626597850F8210016FB01F6CE
:10A26000A2190121106028469BDF112801D020B9D6
:10A2700000E00120D8709970002070BD08B90E2050
:10A2800070473A4A137E012B01D1526A0AB908205D
:10A29000704790F8C722002A08BFFFF7CABF1120F5
:10A2A000704770B504000D4618BF002D5BD02F48D5
:10A2B000017E012957D12188112905F2C6263AD0FD
:10A2C000302904D032292CD033292FD03DE03278E8
:10A2D000B38876204243A918A2889A4235D1E088F3
:10A2E000B0B9E068086028462269C1F80620A18854
:10A2F000FFF71EFE48B3002171700146A288284670
:10A30000FFF76AFD1B4803210170A28842801CE010
:10A3100000212846FFF777FDA1882846FFF7B3FD07
:10A3200013E0211D2846FFF762FE0EE0211D28469E
:10A33000FFF7E2FE09E0A088B188884205D100203D
:10A340007070B0704FF6FF70B080B07858B121884F
:10A350003039202907D2B188A088884203D1284605
:10A36000BDE8704065E770BD000000008039002046
:10A37000241B03006C2D0020C4160300BC16030030
:10A38000EC18030070B504460025DFF8246506E0EC
:10A3900006F11001204651F8252090476D1CF078F9
:10A3A0008542F5DB70BD10B5DFF8044500230022BF
:10A3B00004F10C01201D00F0AFF9002816BF05289C
:10A3C00001200020607010BDF8B5044686B0A0885A
:10A3D000DFF8DC5401F0A3FF012760804FF6FF7621
:10A3E0002278A968A878083A032A49D8DFE802F059
:10A3F000021D2A4EAB886878627A4AB951B1E26888
:10A40000914207D10020A860A188A980E06038E0CF
:10A41000012A36D1002834D0A088984204BF217A7E
:10A4200006292ED1FFF7BFFF2BE0607A48BB41B36E
:10A43000E068814225D1E8680021401EA960E860FB
:10A44000E1601EE0A0B1304602F0FCF9B0420FD14D
:10A45000304602F0F9F9B0420AD100F057F90C2168
:10A4600000F026F82046FFF78DFF00F04DF9002799
:10A47000687828B1A088A988884208BFFFF793FFB1
:10A4800017B12046FFF77EFF07B0F0BD0028F8D0D7
:10A4900000F03CF90D2100F00BF8A0680290207B41
:10A4A0008DF80C002046FFF76DFF00F02DF9EBE76B
:10A4B0008DF80010ADF80460ADF802607047002818
:10A4C00018BFFFF75FBF70475CE75BE710B500F0B0
:10A4D000CEF850B1204601F025FE204602F048FBA0
:10A4E0002046BDE8104002F0C5BD10BD70B502F0B9
:10A4F00096F8DFF8C013DFF8C0430FF2D035DFF86D
:10A50000BC630C1BE408240444F0010428B101F0EE
:10A51000C9F803462A46314630E002F0C5FF30B1A3
:10A5200001F0C0F803462A4606F12C0126E002F0AD
:10A53000FCFA30B101F0B6F803462A4606F158019C
:10A540001CE003F0A4FA30B101F0ACF803462A464F
:10A5500006F1840112E002F03AFD30B101F0A2F8F8
:10A5600003462A4606F1B00108E003F054FC50B15E
:10A5700001F098F803462A4606F1DC012046FDF773
:10A58000EFF8032070BDDFF828034FF6FF710022BB
:10A59000818082600021012241700270002070BD24
:10A5A000DFF80C23117809B908207047D178032906
:10A5B00001DB0420704702EB8103491C1861D17054
:10A5C00000207047DFF8E8221178002918BF02F058
:10A5D00019BB0820704780B5DFF8D4321A780AB961
:10A5E000082002BD02F036FB082808BF112002BD7A
:10A5F00038B50C46DFF8B8120546087808B90820C7
:10A6000032BD0CB90E2032BD284601F01CF910B93C
:10A6100043F2020032BD217802280CBF0120002045
:10A6200001F0FE0108432070284601F020FE4FF69D
:10A63000FF718842217814BF0120002001F0F7014A
:10A6400041EAC0012170284601F00CF9217801F09F
:10A65000FD0141EA40012170284601F010F92178FE
:10A6600001F0FB0141EA80012170002032BDDFF8DA
:10A6700040120446087870478D4A1178002918BFA7
:10A6800001F07BBE0820704770B5894D287886B0F0
:10A6900008B9082015E00120A8704FF6FF74204685
:10A6A00002F0D0F8A042064615D100F02FF80C2198
:10A6B0008DF80010ADF80440ADF8024000F024F829
:10A6C000002006B070BD304601F057FE48B9304654
:10A6D00002F0B8F80646A642F2D028780028F2D157
:10A6E000082000F0DFFF03467248734C79A27449DA
:10A6F000009600F002F80320E3E7001BC008000406
:10A7000040F00100FDF734B868463BE60020A87031
:10A7100018216846FCF772BE2DE9F34F64490878AA
:10A7200085B014461D4608B9082053E04FF6FF785F
:10A730000427404602F086F800210191ADF8007030
:10A740000DF1040767A18346D1E90023CDE9022377
:10A75000039700F042F8002707284FF0FF394646DC
:10A76000C24610D1052035E00198B84224BF074603
:10A770005E4648453CBF8146DA46584602F062F8DC
:10A78000834600F02AF80028EED00528F5D0C3450E
:10A7900011D14645059916BFC2450520002001B1DB
:10A7A0000E80069901B10F600CB1A4F800A08DB124
:10A7B000C5F800900EE0404C00F074FF02463D48A2
:10A7C0004049001BC00800045B4640F00100FCF754
:10A7D000C7FF032007B0BDE8F08F6B4602AA062131
:10A7E00001F05CBF70B5324E0546307888B008B9CC
:10A7F00008205BE03DA0D0E90023CDE90623707876
:10A8000008B9FFF7D0FD707808B1B06808B111241D
:10A810004BE0B288F06895421ED110B3182168460B
:10A82000FCF7ECFD08208DF800000024284601F01C
:10A8300076FDADF8020006219DF810008DF8081095
:10A8400000F0FE008DF81000ADF804508DF80940BE
:10A850000394FFF759FF28E010F1010F08BF1324FC
:10A8600023D0401CF06006F1080206A9284601F03A
:10A870007AFF040019D0F1680020491E112C1CBF7A
:10A88000862C072CB060F1600FD0204600F00AFF44
:10A8900002460848084C0C49001BC00800042B461F
:10A8A00040F00100FCF75CFF0324204608B070BDB7
:10A8B000083A00206C170300BC1603007410030054
:10A8C000D022030018230300E4230300706D5F69A6
:10A8D0006E697400706D5F70656572735F64656C3E
:10A8E0006574650000000000000000000100060023
:10A8F000143A0020417939B100F25221087818B990
:10A90000887810B1012070470020704770B5044668
:10A9100004F50D760D46B1883068012203F0CEFDB6
:10A9200000B1057004F13C02314604F1540072DFBD
:10A9300070BD80F8301070472DE9F04104465FEAA1
:10A94000010814BF002C0E2068D008F17A000178AD
:10A95000012902BF807F012807205FD00020A0705E
:10A9600008F17801201D2C22FCF73CFD04F124069F
:10A970000020307304F50D7508F1A40004F15007B0
:10A98000016831614FF6FF7140687061A9822D61E5
:10A99000072104F24A20FCF72FFB207808B9FF2199
:10A9A000397104F15500286004F50E7231780129DF
:10A9B0000CBFEE201F20A88004F15501404603F093
:10A9C000ADFC58BB18F13C0010D004F24311A96053
:10A9D00004F51072307801280CBFEE201F20A881EA
:10A9E00008F13C0003F09AFC18B117E0A8600021C0
:10A9F000A9810120787004F13C02A169B18430760C
:10AA00000021F1610020387004F154006169316265
:10AA1000002172DF10B9012020700020BDE8F08114
:10AA2000006801281CBF0228042801D101207047BA
:10AA3000002070472DE9F84307460D46387808B9DD
:10AA40000820E8E007F24A28BD7007214046FCF7DD
:10AA5000D3FAB87907F5117607F1240410B1B87864
:10AA6000012806D0F87968B1B878012818BF022803
:10AA700008D1206928B10121717308202169884714
:10AA800000E070730021781890F84B02002840F025
:10AA9000C480491C0629F6D36D1E032D18D8DFE8A3
:10AAA00005F002090F13BA7922B1217811B938B132
:10AAB00001200EE0F97900291CBF0028022008D1EE
:10AAC000387A08B1032004E0787A08B1042000E065
:10AAD0000020B870206980B1B878032818BF042816
:10AAE0000BD1787948B1B07B38B90021317401209D
:10AAF000F07307202169884701E00020F0731821D6
:10AB000007F13C00FCF77AFC0120207607F15005A4
:10AB100007F12C00FFF784FF002819BFA0686870B8
:10AB200001216970207848B107F12C00FFF778FF08
:10AB3000002819BF6068A8700121A9700020287042
:10AB400007F50D79B978042953D8DFE801F05103EE
:10AB50000F213700012060730021316021628020C5
:10AB60000221C4F81C802176A08442E002212078D2
:10AB70006173002819BF07212176032020763869E8
:10AB8000A08400213160C4F81C80F868206230E0A5
:10AB900078692062B9692078A184002819BF06214C
:10ABA0002176012020763846FFF7A4FE20B100F080
:10ABB00036F8F0B9052014E0032115E0F8692062A9
:10ABC000396A2078A184002819BF06212176012046
:10ABD00020763846FFF78EFE28B100F020F840B905
:10ABE0000620607301E004216173C6F8009000E064
:10ABF0006073B87850B1316807F13C0207F1540036
:10AC000072DF40B9217B287973DF20B9216909B14E
:10AC1000607B88470020BDE8F28301203CE70220EA
:10AC200028700421384671E610B502880C46102AB7
:10AC300004F5127104D0112A08D0262A11D010BDB3
:10AC4000C37B012B26D18088088010BD00228A7228
:10AC500080880988884204BF2279002A1AD10121FC
:10AC60000DE0007A012818BF022813D1A078401CFB
:10AC7000052190FBF1F101EB8101401AC1B22046A0
:10AC8000FFF7D8FE00281CBFA16B002902D0BDE849
:10AC90001040084710BD704780B503F042FC042106
:10ACA0000348FCF793FE03490120487101BD0000F1
:10ACB00034280300EC27002080B51548002141709E
:10ACC0000161BFF35F8F001D13A103F08EFC002014
:10ACD00002BD80B500218DF800106846FCF7AAFF80
:10ACE000F1EE100A20F09F00E1EE100ABFF35F8F33
:10ACF0000849402008609DF80000FCF7B8FF00F00C
:10AD0000F0F808B141DF01BD20BF40BF20BF01BD49
:10AD10008C3A002084E200E098250300B02503006F
:10AD2000040000002028014604DA6F48C84000F003
:10AD300001007047402808DA0122A1F1200012FA30
:10AD400000F018BF0120C0B270470120704700001A
:10AD50001FB5044674A1684603F047FC02E068464C
:10AD600003F047FC029A3AB15168126820469047B6
:10AD70000028F4D1112000E0002004B010BD000034
:10AD80001FB504466BA1684603F02FFC06E051682E
:10AD9000126820469047684603F02BFC029A002A6E
:10ADA000F5D11FBD80B51620FFF7BCFF28B942F2D0
:10ADB0000100BDE80240FDF79BBB4C48007840090C
:10ADC000082803D2EC21C140C80702D442F2020095
:10ADD000EFE74749886820B10A6842F480020A60B8
:10ADE00001BD444913E080B51620FFF79BFF28B949
:10ADF000BDE8024042F20100FDF77ABB3C49886899
:10AE000020B10A6822F480020A6001BD3A494FF479
:10AE10008000086001BD00003EB5384D287808B1BB
:10AE200008203EBD0120A8700020FFF791FF1128E7
:10AE30001FD00020FFF7A4FF44A10A68019200235D
:10AE40008DF800306846FCF7F5FE2D4901A810DFAB
:10AE50000446401E8041C00F00F033F80CB120467C
:10AE60003EBD0020A8706870FFF79CFF0120FFF72F
:10AE700087FF00203EBD38B5204D287808B908204E
:10AE800032BD0120A870FFF763FF112817D0022000
:10AE9000FFF776FF00208DF800006846FCF7CAFE39
:10AEA00011DF0446002000F00CF80CB1204632BD42
:10AEB0000020A870FFF797FF0320FFF761FF002035
:10AEC00032BD28709DF80000FCF7D1BE0B49887890
:10AED00008B9082070470878002818BFFFF7CBBFD3
:10AEE0009AE7064800787047FC06FFBD16E400E0CC
:10AEF000A03A002000E100E080E100E0EC3A002010
:10AF000035B60200E0B500BF0DA1684603F06DFB49
:10AF100005E0486809688847684603F06AFB0299BB
:10AF20000029F6D107BDEDE72C2403003C240300E3
:10AF3000080000003C2403004C240300080000002B
:10AF40004C2403005C2403000800000001000007FB
:10AF50007FB50C0008BF0E205FD06B496B4E21609F
:10AF60006A4600210023002582E82A0001210623E9
:10AF70008DF800008DF80210ADF8043069462268A3
:10AF8000634D202069DF63494D1BED082D0445F01A
:10AF9000010528B100F086FB0246314600F046F874
:10AFA00000F03DF80121ADF802208DF8011069464E
:10AFB0002268402069DF30B100F074FB024606F1E0
:10AFC000480100F033F800F034F8012069DF30B1B7
:10AFD00000F068FB024606F1940100F027F800F04B
:10AFE0001EF84FF4B061009169462268A12069DF24
:10AFF00030B100F057FB024606F1E00100F016F810
:10B0000000F017F8A02069DF30B100F04BFB0246DA
:10B0100006F59A7100F00AF8002004B070BD684689
:10B0200000210022002380E80E0070472846FCF72C
:10B0300091BB684600210022002380E80E008DF8B5
:10B040000010694622687047000000002DE9F843AF
:10B050000646304937682E4D60DF04464D1BED082B
:10B0600030682D0487421AD245F00208DFF8A89014
:10B0700049464046FCF76BFB33683A4609F130011C
:10B080004046FCF76DFB254802683068920202F1E9
:10B090000052121A09F164014046FCF75BFB1CB92F
:10B0A0001F490120087008E0204600F0FBFA024624
:10B0B0001CA145F00100FCF74DFB2046BDE8F283E2
:10B0C000174900B5087891B080B903E0052818BF8A
:10B0D000FDF70EFA11B000BD5168126804A8904740
:10B0E00001A803F086FA039A002AF5D13420ADF8BE
:10B0F0000000694604A861DF0028E7D111A101A87A
:10B1000003F073FAEFE7000010220020C0080300EC
:10B11000BC1603001C170300901903000C0100105B
:10B12000EF3A002073645F626C655F656E61626C0C
:10B130006528292072657475726E65642025732EEA
:10B1400000000000C8240300E824030008000000F9
:10B150001721018000231B224180037143718271FA
:10B16000C2717047F8B500BF96A384B0D3E90067F9
:10B17000CDE90267ADF80810ADF80A10054600BF2A
:10B180008EA16A46D1E90067CDE9006702A990DF88
:10B19000040025D000F086FA03467D487D4E7E4FA0
:10B1A000861BF608360446F001062A463946304624
:10B1B000FCF7D6FABDF80000BDF80230002808BF41
:10B1C000002B05D0024607F14C013046FCF7C8FAC7
:10B1D000BDF8042022B107F18C013046FCF7BAFA21
:10B1E000204605B0F0BD80B508B90E2002BD016152
:10B1F0001B231721018041800371801DFFF7A8FFE9
:10B20000002002BD02469088002800D07047F0B5AB
:10B210008BB05F4B5F4C1088604D1C1BE40824040E
:10B22000102844F001040E460BD011282ED02328FC
:10B2300000F09180242870D03A282BD0552849D08E
:10B2400093E0B71D3079B871D17B012904D0022970
:10B2500004D17088388001E03188398039887A8853
:10B260008A420ED20020A5DF10B90120787108E0D3
:10B27000112802D10120387103E000F013FA00F028
:10B280008FF8B979F87988426FD26BE0B01DFFF77B
:10B290005FFF6AE0B71D50893988884228BF084699
:10B2A000788078881728B8BF172078803069002800
:10B2B0001CBF7879002809D044A100F076F86946CF
:10B2C0007888ADF8040030463269904700207871E4
:10B2D00038714AE0D088B71D17283988B8BF1720C1
:10B2E000884228BF0846788000203871B5DF38B121
:10B2F00000F0D8F9024605F134012046FCF72AFA9D
:10B300007879002831D1306900282ED031A100F0A1
:10B310004CF87888ADF8040018E0111D68462C221E
:10B32000FCF760F8BDF80010BDF8042006EBC1077B
:10B330007A73D6F81000C0B128A0D0E90023CDE977
:10B340000023ADF80210787B8DF80400694632695D
:10B350003046904709E0B01D12898179D2B29142FE
:10B3600088BF11460020FFF7FDFEB07A68B1F18872
:10B370000020A5DF18B90121B072F17205E0112893
:10B3800003D000F08FF900F00BF80BB0F0BD000017
:10B39000EC160300BC160300041503000C20030088
:10B3A000024629462046FCF7D5B90020D1E9002302
:10B3B000CDE90023ADF80200704700000000000056
:10B3C000000000000000000000000000770A0000FC
:10B3D00000000000770A0000000000007ADA000098
:10B3E0000000000090490A89824202D101F1080060
:10B3F000704700207047F0B586881746BC19B242E6
:10B4000028BF3746F51BC2881F4607EB020C934244
:10B4100028BF1746D61B4A8803889A4224BF408813
:10B42000904209D38888A84228BF844204D3C888A0
:10B43000B04228BF844501D20020F0BD0120F0BDFC
:10B440007A498969002918BF0847704738B504460A
:10B4500080B2FFF7C7FF020027D0744D107A297B16
:10B4600088420DD202F10A01A0B275DF20B1112885
:10B470001BD0FFF7E5FF31BD107A401C107231BDC3
:10B4800000211172287C38B13B21A0B276DF002860
:10B490001CBF0828FFF7D4FF696931B100228DF87D
:10B4A0000020ADF802406846884731BD70B5040001
:10B4B00001D10E2070BD5D4E304621461C22FBF7A7
:10B4C00091FF594D35602068A8B17ADFB8B921687D
:10B4D00028460822FBF786FF4FF6FF7005F11C0196
:10B4E0002881E96005F10C00514A0021FEF7F4FBC8
:10B4F00028B1032070BD28467BDF0028ECD070BD4A
:10B5000080B502460B464949587A58B9187A00283E
:10B5100058680CBF49688968FEF7F1FB68B1FFF70E
:10B520008FFF01BD00201872496931B101238DF8E8
:10B530000030ADF802206846884701BD2DE9F84388
:10B5400006463A4F3088102840F2F3184FF6FF7540
:10B5500006D0112829D0122850D0502832D061E0CE
:10B56000F07BB6F8049001285CD12846FFF73AFF3B
:10B57000040008BF04203ED0A4F8009000202072F0
:10B58000082204F10A002849FBF72CFF2B4642460B
:10B5900006F1100104F10A00FFF72DFF6072F8892F
:10B5A00000283FD12146484639E0B088FFF71AFF0E
:10B5B000040037D06068FEF7BAFB08B1FFF740FF20
:10B5C00025802FE0F088F989884204BF308A02285C
:10B5D00028D1B5882846FFF705FF040022D006F1E0
:10B5E000120000F0DDF910B12146284617E060682E
:10B5F000FEF79DFBB0B1BDE8F24321E7B7883846BE
:10B60000FFF7F0FE04000DD02B46424606F108017C
:10B6100004F10A00FFF7EFFE607221463846BDE8EC
:10B62000F4436DE7BDE8F183B0380020EC39002029
:10B630004DB4020010B572B6FCF7F1F9FCF7B0F8A2
:10B640000028FBD11048114C1149041BE4082404C4
:10B6500044F00100FCF77BF80E480168CA0700D5EA
:10B6600000BE0D4944F00200FCF771F8BFF34F8FA4
:10B670000A490B480A6802F4E06202430A60BFF319
:10B680004F8F00BFFDE700BF04170300BC16030087
:10B6900008270300F0ED00E0142703000CED00E0A4
:10B6A0000400FA0580B500F003F800B90FA002BD50
:10B6B00010B50D4901F5947200E01A4691420FD27F
:10B6C000531ADB1003EBD3735B1001EBC3031C684D
:10B6D000A042F2D3844238BF03F10801EED301E067
:10B6E000002010BD586810BD040D0300556E6B6E30
:10B6F0006F776E206572726F7220636F64650000F1
:10B7000033B58BB00021044600910C9880B1002520
:10B7100029460CA802F0A0FF38B10099684600EB5A
:10B72000410295800098401C00906D1C142DEFD3B1
:10B73000204669462C22FBF755FE0DB030BD014670
:10B740008E4802F089BF2DE9F84306468CB0308858
:10B75000B4888A4D102804D0112838D01A283AD03D
:10B7600057E0AA68D243009268466968FBF704FE76
:10B77000009901A8FFF7C4FF4FF000090EE002A8EE
:10B78000002730F81980281D414600EB870002F0A1
:10B7900054FF7F1C1D2FF6D309F101090198814543
:10B7A000EDD3142C03DB0420FCF7A2FE31E021468C
:10B7B00005F1080002F02BFF2146281D02F027FFAB
:10B7C000F07B012825D0214605F10C0014E021462C
:10B7D00005F108001BE0307A000902280FDBCCBF1E
:10B7E00001260026214605F1100002F010FF002E70
:10B7F000214605F114000AD002F009FF09E02146B4
:10B8000005F1100002F019FF214605F1140002F0C5
:10B8100014FF0DB0BDE8F08301461429BCBF5848A1
:10B8200002F01ABF0020704738B500F026F8002556
:10B8300038B12146534802F00FFF002814BF0225FB
:10B840000125284632BD38B500F017F8002538B17B
:10B8500021464D4802F000FF002814BF02250125B3
:10B86000284632BD10B500F008F828B12146BDE8E1
:10B870001040464802F0F0BE10BD0446CCE710B5BB
:10B88000FFF7FBFF28B12146BDE81040404802F019
:10B89000E3BE10BD3949496832E710B5FFF7EDFF47
:10B8A00008B1204610BD142010BD80B518213348C2
:10B8B00002F0DBFE182818BFC0B202BD38B504463E
:10B8C0000D462846FFF73BFF68B12046FFF7A4FF6F
:10B8D00048B12A4800EB8502214602F11800BDE874
:10B8E000344002F0B9BE002032BD70B504460D46AA
:10B8F00016462846FFF723FF98B12046FFF78CFF36
:10B9000078B11E48002E00EB8500214604D0BDE82A
:10B910007040183002F07BBEBDE87040183002F075
:10B920008CBE70BDF1B50C462000154601D100203B
:10B93000F2BD0098002660B100273946684602F043
:10B940008BFE18B12946B8B2A047761C7F1C142F75
:10B95000F3D33046F2BD70B504460D461646FFF7E8
:10B96000EEFE40B1054800EB840332469869294653
:10B97000BDE87040D6E770BD000000000C37002025
:10B980001037002018370020143700201C37002003
:10B990002037002001460878497840EA01207047A6
:10B9A00080B5FFF7F7FFFFE700F0010002BD0A785E
:10B9B000027049784170022070470000401E00224A
:10B9C00004280A700FD8DFE800F0030507090C000F
:10B9D000112007E0212202E0312003E012220A7048
:10B9E0007047222008707047F8B50F4690B00546A2
:10B9F000B878002806BF01218DF80E108DF80E00D2
:10BA00003888ADF80C001646032101A8FBF7F6FCB8
:10BA1000787C01A9FFF7D2FFB87C0DF10501FFF793
:10BA2000CDFF9DF80610FA7B00F0F8F88DF80610AF
:10BA300001F0EF013A7C02B1012241EA02118DF8D6
:10BA4000061001F0FE01387B00B1012001438DF8A2
:10BA5000061001F0F901387D002814BF02200120F2
:10BA600041EA40018DF8061009A81C21FBF7C6FC2D
:10BA7000787B10F0300F15D0032102A8FBF7BEFC35
:10BA8000F87C0DF10901FFF799FF9DF80A1001F00C
:10BA9000F90141F002018DF80A10112002A98DF878
:10BAA00008000E91787B8DF8240004A8B97B8DF8EE
:10BAB00025101421FBF7A2FC03A901AA0491059209
:10BAC000B888ADF81C00B86818B1FA88ADF818202D
:10BAD0000890BC69002C3FD003216846FBF78EFC20
