:020000040002F8
:10600000F8560020F92003009B740200F389020077
:10601000079802002798020047980200000000003D
:106020000000000000000000000000006FAE020051
:106030001BBC020000000000F7DE0200FFE10200CE
:10604000D50B030003E2020061F2020027E2020026
:106050007D1F0300C31F030075E50200CF1F03006F
:10606000CB210300CD210300CF210300D121030068
:10607000D3210300D5210300D7210300D921030038
:10608000DB21030069CC0200DD210300DF210300D6
:10609000D5CC0200E121030057D00200E321030028
:1060A000E5210300E7210300E9210300EB210300C0
:1060B000ED210300EF2103000000000000000000BC
:1060C000F1210300F3210300F5210300F721030070
:1060D000F9210300FB210300FD210300FF21030040
:1060E0000122030003220300052203000000000038
:1060F0000000000007220300000000000922030046
:10610000000000000000000000000000000000008F
:10611000000000000000000000000000000000007F
:10612000000000000000000000000000000000006F
:10613000000000000000000000000000000000005F
:10614000000000000000000000000000000000004F
:10615000000000000000000000000000000000003F
:10616000000000000000000000000000000000002F
:10617000000000000000000000000000000000001F
:10618000000000000000000000000000000000000F
:1061900000000000000000000000000000000000FF
:1061A00000000000000000000000000000000000EF
:1061B00000000000000000000000000000000000DF
:1061C00000000000000000000000000000000000CF
:1061D00000000000000000000000000000000000BF
:1061E00000000000000000000000000000000000AF
:1061F000000000000000000000000000000000009F
:1062000070B504460025DFF88C6B301D50F8251062
:1062100009B1204688476D1C042DF6D370BD884215
:1062200005D2006810F1010F01D001207047002055
:106230007047418800EB81000C30704738B5044648
:106240000D46FFF7F6FF854201D2022032BDA1883C
:106250004FF6FF7291421CBF2088002801D1012017
:1062600032BD002032BD68B10168DFF82C2B9142AD
:1062700008D14068DFF8241B401A04D0401E01D129
:1062800001207047032070472DE9F04203460E4677
:1062900002201446308003F10805DFF81C7B03F56B
:1062A00080590DE0A868B96A814238BFB8626A882F
:1062B0003188D21C511831802846FFF7BAFF0546B5
:1062C00049462846FFF7ABFF68B149462846FFF725
:1062D000B5FF0028E6D00CB1012121700228E6D1DB
:1062E0004FF480603080BDE8F0828A7D032A04DBB1
:1062F000CB880289DB1C9A1802814289C988521A0C
:10630000D31E43817047000080B50020DFF8A81A33
:1063100002A28969009008230BE00000DEC0ADDE18
:10632000FF011EF180B50146002000905FF00803D8
:1063300001A200F0B1F902BDDEC0ADDEFE011EF12A
:1063400030B5C01C80B240F2FE32904201DB092021
:1063500030BD00231425DFF8D04A5D432C44227859
:106360003AB9228965891218AA1892B2B2F5806FDB
:1063700004DB5B1C022BEDDB072030BD0B80618949
:1063800040186081002030BD142210B5DFF8983A23
:10639000514319444C89201AC01E488110BD70B564
:1063A0000C4600F0A4F84168206801F5805518B942
:1063B00001F1080603E03046FFF73BFF0646294699
:1063C0003046FFF72CFF58B129463046FFF736FF1D
:1063D00018B1022804D0F2D2EDE72660012070BD8A
:1063E000002070BDF8B506460C467268DFF8C85943
:1063F000100024D0DFF8343ADF681146B94224BFD8
:106400001B698B421BD312F0030F02BF30892B890B
:10641000984202BF30689368984210D10020DFF89C
:10642000542A1425131D45435B598B423CBF03F589
:106430008053994215D3401C0228F2DB1AE0002059
:1064400020800022009220886946FFF7A8FF58B1FB
:106450000098326881689142F5D170602989318154
:1064600000E020800120F2BD2088401C208080B206
:106470000228E6DB0020F2BD2DE9F04100F0C8FB68
:1064800017461E4608B902202FE0002F18BF002E25
:1064900005D1052029E03060B188491CB180B08861
:1064A000022821DA1421DFF8CC294843105C0028A7
:1064B000F2D1B0883146FFF772FF0028EBD0306888
:1064C000002C1EBF828823889A42F2D1002D1EBF65
:1064D00002882B889A42ECD1816839607860B8F8DC
:1064E00008003881002000E00A20BDE8F081142176
:1064F000DFF8802948431044704710B50146DFF8A3
:10650000780900F00BFD04461C2100F075FD2046C3
:1065100010BD0146DFF8600900F022BD2DE9F84FFB
:106520004FF0000900254FF0030ACB46C846DFF8BC
:106530008848DFF8F808C1684FEA084201EB1217F3
:106540006B1C14209BB2DFF82C19009368430E18C3
:106550003846FFF788FEF0B1012828D003283DD146
:10656000002057F8201011F1010F47D1401CB0F561
:10657000806FF6D3A06930B102213170776031812C
:106580006580009D04E0A7610220A0834FF0010B0D
:1065900049F0010922E03070776006F1100206F13F
:1065A00008013846FFF770FE49F002092BE05FEA68
:1065B0000B0005D002203070A16971603081009D10
:1065C000A761002204F11C013846FFF75DFEA08B95
:1065D00002280CBF0420082040EA090908F101083C
:1065E0001FFA88F00228A4DD1FFA8AF00228B8BF3B
:1065F0004FF000095FFA89F0BDE8F28F7760032061
:10660000AAF1010A3070009DE8E738B50C46002574
:106610000146009504230FF6740200F03DF808B11E
:106620000E2032BD1420DFF84C28444310190121FC
:106630000174002032BD70B5DFF87C47DFF8E82731
:106640006188142041435518DFF8E007E96821B953
:10665000042626700023696805E002210522A18333
:1066600022700023A1690122BDE8704000F0AEBD98
:106670001CB5DFF84407416842684B88032101706C
:10668000DB1C8169808B00241B0401EB80010094DA
:106690009B0B00F001F816BDDFF8900700F018BD65
:1066A00080B5DFF81407011D4088FFF778FE10B1B0
:1066B000BDE80140DCE7BDE80140BCE7DFF8F806D3
:1066C000DFF8B02703781421072B00D9704730B5C5
:1066D000DFE803F0043131171F2C2C2F0489641CD0
:1066E000002304814380037301FB03F4145D641EE3
:1066F000A441C5185B1CE40F022BAC72F4DB012132
:1067000015E041684B88828BDB1C9A18828302213A
:106710000DE044888369614311444A6882614B609B
:10672000828B0A8102218183062203E00721017006
:1067300030BD0122027030BDF8B502460F20DFF8EF
:1067400078461AB1002060610120F2BD0A79DFF8B5
:1067500024571426032A3DD8DFE802F002071C283C
:1067600001200871FFF7D0FD34E0297800200229CC
:1067700008D116FB00F60020A855291D8859FFF7FF
:10678000D1FD27E0297D01200229F2D020740021CB
:106790006161EFE0002008710221A1830023A1695B
:1067A000DFF88806012200F011FD13E000200871D7
:1067B0002F1DA069FFF7B6FD6188A2694E43291D10
:1067C0008B59A361BA51A919A28B0A810223A38311
:1067D00000220A7010B1002060610E20F2BD00009E
:1067E000F8B50D461421AB8ADFF888264B43D6183E
:1067F00028B129463046FFF778FD0120F2BD7068C8
:106800003189DFF8287600EB8104A87D06285BD863
:10681000DFE800F011411E31044E570000211163E2
:1068200002F12801A869D06202F12C00FFF7DAFD1D
:1068300008B90A20F2BD0220A875002100910423A6
:106840002A1D2146384600F043FC10B30E243CE0DC
:106850002869002814BF03200120A8750423002004
:10686000009005F10C0204F10801384600F030FCFC
:106870000028EBD10DE00120A8750021009104F162
:106880000C01EB882A699B00384600F021FC0028A7
:10689000DCD100241DE0287803280CBF0520062049
:1068A000A87504230020009005F10802211DDCE7F3
:1068B0000620A875118D106BFFF7A7FE040004D108
:1068C00007E041F61D5400E00F2429463046FFF74B
:1068D0000CFD2046F2BD0000F8B508B10120F2BD64
:1068E000DFF8D444207B00281ABF00212173FFF772
:1068F000E5FE20781421401E0628DFF8782533D8DD
:10690000DFE800F004351C1F32222B000023002694
:1069100002F10C07E518A87A48B1AE7201FB03F545
:106920007859002802BF5019007C01281ED05B1C3A
:10693000022BEFDB2670668066601BE0BDE8F1404D
:1069400096E6BDE8F14076E6638806202070121DC9
:1069500059435058BDE8F240E4E40720207000217C
:106960006160BDE8F140CFE40F20F2BD6380BDE877
:10697000F14095E641F61D50F2BD00002DE9F04FC3
:10698000DFF834540FF208580FF2105A85B004465D
:1069900005F1C00605F1D00741F61D59E86A20B996
:1069A0003946304600F0ECFAE862E96A0878401EA1
:1069B00005285ED8DFE800F00310101414592046B3
:1069C000FFF7BAFE0446002C00F0A48000F0A5F802
:1069D0004C4551D100244FE02046FFF701FFF1E77D
:1069E0008B460CB1012445E09BF80400E8B1022875
:1069F00001D002D337E04C46E5E705F120036A46B3
:106A000000210BF10600FFF737FD040005D1A98C2A
:106A10000198FFF7FAFD044604E005F1200000218B
:106A2000C0E900110A2CCED1E5E702208BF8040062
:106A300001A998E81C0081E81C00DBF80C0001901B
:106A4000694601A8FFF7CEFC58B102988188ABF8DF
:106A500006100288ABF80820BDF80010FFF7D5FD3E
:106A6000B0E70A24AFE70F24ADE72046FFF734FF75
:106A7000A8E70F2400F051F8E86A01940178491E54
:106A8000052935D8DFE801F031281D11070305225B
:106A90008DF800202CE004218DF800100021C28820
:106AA000ADF80C20ADF80E1009E003218DF80010B0
:106AB000C288ADF80C200189ADF80E10C1680291B2
:106AC00016E0022100F02EF8C1680291807D0628B0
:106AD00014BF0021012105E0012100F023F800216D
:106AE000C06802908DF8101002E000218DF80010AF
:106AF0006846FFF785FB0020E8623946304600F023
:106B00006BFA012105F1300000F05AFC0024002846
:106B10007FF444AF05B0BDE8F08F684651461422BB
:106B200000F060BC8DF800100289ADF80C2081885F
:106B3000ADF80E10704780B50121DFF8400300F07A
:106B400027FC10B9BDE8024018E701BD406815E711
:106B50002DE9FE4300F05CF8994608B9022055E0A3
:106B60000DB9052052E028884FF6FF7188421ABF00
:106B700068880028042049D0287910F0030F07D135
:106B800042B9AF686946B8B2FFF7DAFB30B13DE011
:106B900003203BE01088ADF80000578801A8FFF7FC
:106BA000ACFC060006D1BDF80010B8B2FFF7ECFB54
:106BB00008202BE086F800900020B075BDF800108A
:106BC000B18201216868306108F1280000F0ECFB17
:106BD000F060B9F1030F288830816988B180F780AF
:106BE00003D10420B0752168B1610020708101A833
:106BF000FFF78FFC3CB100206060F1682160A0725B
:106C0000B8F808102181FFF796FF0020BDE8FE8349
:106C1000DFF8A481044698F810000D46704710B5BF
:106C20005C4A1168042901D10C2010BD136802EBE5
:106C3000830401216060104600F0B6FB002010BD07
:106C400038B586B001A8142100F0D8FB5A4C207C3E
:106C5000A0BB04F1140000F0BFFB002855D1DFF801
:106C60002002DFF8202201681068526811F1010F3C
:106C700004BF114641436D480161A1F54051C16017
:106C80000022DFF8041200F0F7F900283ED11C239F
:106C90008C2204F1340104F1C00000F009F9FFF77F
:106CA0003DFC050018BF022802D0062802D009E0EA
:106CB0000B202BE0012020740021616101A8FFF767
:106CC0009FFA22E000F097F808B908201EE00121A1
:106CD000012D18BF032D01700AD0052D18BF072DF7
:106CE0000DD0092D06D00A2D06D00B2D02D007E0BD
:106CF000002202E0032102E00222027100E00171A1
:106D00006846FFF706FCFFF716FF002007B030BD0E
:106D10007CB504000D4618BF002D01D1052076BDBD
:106D20006946FFF75FFB98B1BDF80030514A6668CD
:106D300014204343D01801210C3000F035FB2E60A5
:106D40000122606800F10C016960A272002076BD2A
:106D50000A2076BD1CB5040001D1052016BD694688
:106D6000FFF740FBA0B1BDF80020424814214A4380
:106D70008118C86800281CBFA07A002806D0C868FF
:106D8000401EC8600021A172002016BD062016BD5D
:106D90000A2016BD50360020DEC0ADDEFE011EF119
:106DA000022303E008B90520704703230022CFE641
:106DB0001F490446087C7047002F00201CB5FFF7D0
:106DC000F7FF08B9022016BD4FF6FF718C4201D1C2
:106DD000042016BD00F00FF808B9082016BD0521E3
:106DE000017001220271C4806846FFF792FBFFF731
:106DF000A2FE002016BD6846FFF77FBB1CB50C4CF9
:106E0000207C08B9022016BDFFF7F5FF08B908205D
:106E100016BD062101706846FFF77BFB207808B19C
:106E200001212173E3E700004035002038280020CD
:106E3000002F002003B581B002A901A8FFF71CFBB9
:106E40000EBD01B513460A466946002004E001B5AF
:106E500013460A4600216846FFF70EFB02BD0028D4
:106E600018BF002901D10520704700680860002084
:106E70007047000040350020C02F0020302F002038
:106E80001410001010000010801F03000000FFFF0E
:106E900000000000000000000000000000000000F2
:106EA00000000000000000000000000000000000E2
:106EB00050B509B90E2050BD144694FBF3F603FB00
:106EC00016440CB1092050BD01608460002141606E
:106ED0008281C381002050BD81B050E8022FC1885B
:106EE000B2EB324F4FF0000317BF92B241EA0141BB
:106EF00042EA014104E04268B2EB324F08BF01238D
:106F000040E80212002AE8D18DF800309DF8000018
:106F1000002814BF0020112001B070473CB550E894
:106F2000015FAAB2C3891A4483899A4228BFD21A40
:106F300003899A4202BFBFF32F8F002407E0C2EA01
:106F4000050240E80123002BE9D14FF0010400F0D5
:106F50003AF81AB100680988084436BD002036BDE9
:106F60000A8849888A4209D150E8011FC1EA0141D3
:106F700040E80112002AF7D1012070470020704735
:106F80003CB550E8025F1FFAA5F2C3889A4202BFDF
:106F9000BFF32F8F00240DE0C3891A4483899A42DE
:106FA00028BFD21AC5EA024240E80223002BE8D1EA
:106FB0004FF0010400F007F81AB10068498808444E
:106FC00036BD002036BD01958DF80040019B0B6059
:106FD0009DF80020704700000A8849888A4209D13C
:106FE00050E8021FC1EA214140E80212002AF7D10D
:106FF0000120704700207047002200F01FBAF0B453
:107000000246106895681318506803EB5004C007D7
:107010001DD54D441BE013F8017B05F8017B491E8B
:10702000F9D1A0B1B60813F8011B06F00306032E30
:1070300008BF13F8016B01EB06214942801C29446B
:1070400005D011F8016B05F8016B401EF9D1A34280
:107050000ED013F8016B16F0030104BF13F8011BE7
:10706000C91C30090F28DAD113F8010B0F30D6E70D
:10707000F0BC02F10C0070477CB5DFF8FC31DFF8A2
:10708000FC51DFF8FC415D1BED082D0445F00105C6
:107090000FF20C2328B90E26009621460FF2142277
:1070A00005E049B90E20009021460FF21022284633
:1070B00000F05EFB0E2076BD016011460268136889
:1070C00002B0BDE8704018475146384600F050BB4A
:1070D0002DE9FC4700F06BF80FF2F41900F060F8AE
:1070E00016461D4647F0010714B900F053F804E0B6
:1070F0003EB90E2000904B467AA2FFF7E5FF0E2026
:1071000041E0206818B900F057F808203BE025B9A5
:10711000092000904B4657A20BE060684068B5FB21
:10712000F0F100FB115040B1092000904B460AF1EC
:107130005402FFF7C9FF092025E018F0030F0DD115
:1071400016F003000ED12A464146204600F09AF878
:1071500080B900F01AF80AF1A40207E000F015F86F
:1071600062A203E000F011F80AF18002FFF7ACFF21
:10717000102008E00A9800902B4620462468E56815
:1071800032464146A847BDE8F687102000904B469E
:10719000704700000E2300934FEA090345A2704791
:1071A000DFF8DCA0C71BFF083F0488467047044691
:1071B0003148324F70470000082100914FEA09031F
:1071C00040A25146384600F0D3BA00002DE9FC47F2
:1071D000FFF7EDFF0FF22C18DFF8A490C71BFF0894
:1071E0003F040E4615469A4647F001074CB90E2358
:1071F000009349464FEA08032EA2FFF766FF0E20D0
:1072000036E0206840B90821009143462DA2494646
:10721000FFF75BFF08202BE045B9092000904346AB
:1072200014A24946FFF751FF092021E06068026877
:10723000511E0E420BD16A433146204600F022F81F
:1072400078B910200090434609F1F40204E01020C0
:107250000090434609F1CC024946FFF736FF102063
:1072600006E0204624682A46256953463146A84749
:10727000BDE8F6876C656E00F00F0300C00F0300D9
:10728000C4040300C368994207D300695118491E1A
:1072900088428041C043C00F704700207047000003
:1072A0006E72665F6673746F726167655F696E693F
:1072B00074000000705F667300000000705F617012
:1072C00069000000705F66732D3E705F6170690039
:1072D0006E72665F6673746F726167655F777269FD
:1072E00074650000705F7372630000006164647213
:1072F0005F69735F616C69676E65643332286465CA
:10730000737429006E72665F6673746F726167656D
:107310005F6572617365000010B5024652E8000FA8
:107320000C4642E8004393F0000FF7D110BD000077
:1073300010B5024652E8000F40EA010442E800435B
:1073400093F0000FF6D110BD10B5024652E8004F81
:1073500044EA010042E8000393F0000FF6D110BDAB
:1073600010B5024652E8000F00EA010442E800436B
:1073700093F0000FF6D110BD10B5024652E8004F51
:1073800004EA010042E8000393F0000FF6D110BDBB
:1073900010B5024652E8000F00EB010442E800433A
:1073A00093F0000FF6D110BD10B5024652E8004F21
:1073B00004EB010042E8000393F0000FF6D110BD8A
:1073C00010B5024652E8004FA4EB010042E800036A
:1073D00093F0000FF6D110BD0121A9E70121B3E719
:1073E0000021BDE74AB1000011F8013B521E00F830
:1073F000013B1CBF11F8013BF8E77047002200F089
:1074000047BB30B4002513E050F8042BD30744BF2A
:10741000A9F101039A18091F042942F8045BFAD262
:1074200013468C0744BF15809B1CC90748BF1D70BD
:1074300050F8041B0029E7D130BC7047401810F009
:10744000030308D0C91A1FD3DB0748BF00F8012D7A
:1074500028BF20F8022D130030B414461546103909
:1074600028BF20E93C00FAD8490728BF20E90C00D2
:1074700048BF40F8042D890028BF20F8022D48BFDE
:1074800000F8012D30BC7047C91818BF00F8012D55
:10749000CB0728BF00F8012D7047FEE780B5DFF865
:1074A000A405FF21002281600260426000F21440C6
:1074B000426002600273DFF8900500F002FB20B921
:1074C0000FF2B85000F0A7FB002002BD30B591B11B
:1074D000DFF87825DFF878150568DFF87835511A78
:1074E000002200E0521CB2EBD10F06D233F822404A
:1074F000AC42F7D10260002030BD052030BD01B59F
:107500006846FFF7E3FF28B9DFF84C05009950F80B
:10751000310002BD002002BD00000000491EDFF85E
:107520003825032902EBC0000BD8DFE801F0020484
:1075300006080220704704207047007970474079A0
:10754000704700207047024600201368C3F3800292
:107550009AB103F00300012802D0022807D00BE003
:107560000A68C3F38310801C82180A6004E008686C
:107570009B0D9B1C1B180B6001207047F8B5DFF8B2
:10758000C44484B004F58360FFF728FF04F2144577
:107590002846FFF723FF6068A7680090002600993F
:1075A00004F10C00394000EB81006946FFF7CBFF86
:1075B0000028F4D101AB009A04F10C013A4000F02C
:1075C000FBF9F8D90199BDF80A0001F0030101297E
:1075D0000AD002290FD1019906460098890DC91CCD
:1075E00000EB9100009006E0064601980099C0F378
:1075F0008310411800912846FFF7F2FE08B1009869
:107600006060304605B0F0BD80B50021DFF84C0465
:10761000FFF782FE80F3100002BD2DE9F84F04460B
:10762000884693461F460A9DDFF81894FFF7ECFF43
:1076300009F10C0A7E1C00042E4040EA1440E400CC
:107640004AF8260004F0380444EA8B14C4F3090411
:1076500009F10C0044EA88242F4044F0010440F86A
:107660002740BDE8F18F2DE9FC41884600218DF8C7
:1076700000101646DFF8CC730446684600F0DAFACC
:107680003868C8F80000A51CBA6839687868521CC8
:10769000511A411807F21C480FE001214046FFF73C
:1076A00083FEFFF76BFF01464046FFF77DFEB8689B
:1076B0003968401C411A78684118A942EDD32EB1AF
:1076C000A40104F4707444F0050402E0A40544F03D
:1076D00006043968B868014007EB8102D460396854
:1076E0009DF800006D183D6000F0C1FA0120BDE872
:1076F000F6812DE9FE43DFF84C6304460D469046C3
:107700009946B768012201A94846FFF7ACFFA8B126
:107710000198801C002108E007EA000206EB8202C3
:1077200058F82130D360401C491C4945F4D30097D8
:107730004A46019B29462046FFF76FFF96F8200432
:1077400018B100F02DF80028FBD1BDE8F783002325
:107750000022CEE780B50092012300F012F801BDAF
:10776000E0B5009201936A460223FFF7C2FF07BD0E
:107770001FB5069C009201930294032300F001F8C8
:107780001FBD6A46B5E77FB5089D099E009201932B
:10779000029503960423FFF7F4FF05B060BD0000D7
:1077A0002DE9F847A74E70683168884285B024D02B
:1077B00006F582670020B860BFF34F8F7068B46829
:1077C000009006F10C000099214000EB810005E0DB
:1077D00006F10C0004EA010200EB82006946FFF7A3
:1077E000B2FE002800F0CB80B868002840F0C780C7
:1077F000306800998142EBD370600020BCE00299B0
:1078000065F39F51029105F1080100F05CF95FEA10
:10781000000A4ED000F09EF900F0C8F80098204011
:10782000641C241AA40006F10C01AC4201EB800197
:1078300019D234B9284606F10C014FF00008002592
:1078400003E0204606F10C082D1BC4B20823224693
:10785000504600F0D4F9B8F1000F09D004F1080344
:10786000EAB2414601E008232A46504600F0C7F933
:10787000009809F1030100EB9100009039E00299B2
:1078800001F0030101295AD10299029AC1F383112F
:107890000529C8BF062122F4707242EA81120292C1
:1078A0000299C1F38311891C890000F00CF95FEA89
:1078B000000A44D000F04EF900F078F84FF00809C3
:1078C0004FF0000810E00098411C009106F10C05F3
:1078D000204005EB80014B460422504600F08FF912
:1078E00009F1040908F101080298C0F383108045EA
:1078F000E9D33C68B86870B1504600F02FF933E026
:10790000E0684179012904D1226813685146204674
:107910009847E0680468002CF2D1504600F01EF948
:1079200000208DF8040001A800F084F9B86808B9B7
:10793000009870609DF8040000F099F914E03C682C
:1079400005E021688A6820469047E0680468002CBA
:10795000F7D14348DFF8F82043A1801AC00800049B
:1079600040F00200FFF7F3FE7068316888420CBFF8
:107970000120002080F0010006B0BDE8F087002063
:1079800002AB009A06F10C01224000F015F8F8D97C
:1079900002992D4801F0030102297FF470AF029D86
:1079A000AD0DA946502DA8BF502528E70023082279
:1079B00002A9504600F023B951F8221043F82010D4
:1079C000401C0099491C01280091704730B50246BF
:1079D00000201C4BD3F8101400E0096889B1C96875
:1079E0000C798442F9D1401C0A28F3DB4FF0FF30B8
:1079F00030BDC9680D682560D3F81034D9680A60B5
:107A000030BD10F1010FFBD0D1680871D3F810140C
:107A1000D4680029EDD1C3F81024216030BD10B521
:107A2000104804680121017408E0E16801224A71EC
:107A30002046226851688847E0680468002CF4D129
:107A400010BD00004C280020942003007810030093
:107A5000C00F030000000000C00F0300682C0020CE
:107A6000F80F03005C2C00204261636B656E647349
:107A700020666C7573686564000000001432002095
:107A80007F0000002436002062F30F2262F31F42C1
:107A900000B500BF130096469446103928BFA0E8F1
:107AA0000C50FAD85FEA417C28BF0CC048BF40F8B0
:107AB000042BC90728BF20F8022B48BF00F8012B70
:107AC00000BD00F0EFB82DE9F04105460F462E8AC3
:107AD00000F0FFF8361F040021D0F7190020012123
:107AE000FF1C20716171A046B7FBF6F7E680FFB27C
:107AF0007F1EC8F80050002607E06179491C6171BB
:107B0000C8F8000005608046761CBE4209D22846AF
:107B100000F0DFF80028F0D1204600F005F8002042
:107B200000E02046BDE8F081F8B501460D464C79ED
:107B3000601E002200E0521C2D688242FBD300260A
:107B400005E00F68284600F0E7F83946761CA642A3
:107B5000F7D3F1BD0121001DFFF726BC1CB504467B
:107B60000121201DFFF72CFC00909DF8000018B9A2
:107B70002046BDE81640D7E713BD2DE9F04714466F
:107B8000B0F806804279256846465643361F5F198D
:107B900003F1040CBE42BCFBF8F234BFF31A2B46CF
:107BA00008FB12CC2360002A01E00068521EFCD1C1
:107BB000A8EB0C029A469342089F4FF0000988BF39
:107BC00092460E4605461C46BCB105EB0C00001D56
:107BD00006EB0903390052460EBF19460146184606
:107BE000FFF700FC2D68A4EB0A04D14444454FF094
:107BF000000CA246E8D9C246E6E7BDE8F0871CB50E
:107C00000192002402E01CB501920124009401AA13
:107C1000FFF7B3FF13BD80680021816001614161FE
:107C2000C160416001607047EFF3108072B6704729
:107C300062B6704738B50446FFF7F6FF154A9168FB
:107C400071B9012393601449144B1D680D401560F0
:107C50001960596851604FF0FF325A60002100E00E
:107C60000121217010B9BDE83140E1E731BD10B507
:107C7000084CA16869B160B9FFF7D6FF08492268CE
:107C80000A6063684B600021A16010B9BDE8104034
:107C9000CEE710BDA0360020FC06FFBD80E100E06D
:107CA00000E100E010B508B90E2010BD036842687D
:107CB00081681A60891A03E013685C1C14601970EB
:107CC0000B46591EDBB20268002BF5D10020107163
:107CD00010BD38B5044600258DF800506846FFF702
:107CE000A9FF21686268086882420FD2421E0A60BA
:107CF0001578208AE36845431D44A36820689A1AD2
:107D00000379D2B29A4238BF1A460A719DF8000030
:107D1000FFF7ADFF284632BD38B50C4600210546B9
:107D20008DF800106846FFF785FF286801684A1C37
:107D30000260E8682A8A241AB4FBF2F20A709DF8FD
:107D40000000FFF794FF31BDDFF82C16497800F0F2
:107D50003CBCDFF82416C97800F037BC10B50446E7
:107D6000608800F062FDA0802046BDE8104000F071
:107D700050BF38B586B004460D4668460FF24461E0
:107D800000F097F8ADF80240029500F095F807B0C2
:107D900030BDF8B586B004460D4616461F46684607
:107DA0000FF2506100F085F8DFF8CC050178ADF8EE
:107DB00002408DF80850ADF80A608DF80C70002272
:107DC000204600F019FC00F077F807B0F0BD13462C
:107DD0000A460021DDE72DE9F843DFF89C45894696
:107DE00021780646904600F0F0FBC0B33046FFF71E
:107DF000ABFF70B3A178304600F0E7FB002814BF5A
:107E00000127022706F58070072180B201F01FFAD2
:107E1000040018BF052C14D0DFF8605501F058FAA3
:107E20000246DFF85C05DFF85C15401BC008000463
:107E3000334640F00100FFF793FC21463046FFF740
:107E400098FF43464A463946304601B0BDE8F04304
:107E50009FE7424649463046BDE8F843B7E7BDE8EC
:107E6000F183F8B5DFF810750E461446397886B000
:107E70000546324600F0C0FBCEB12200797818BF2B
:107E80000122284600F0B8FB012CB9780CBF012272
:107E90000022284600F0B0FB68460FF2105100F0B7
:107EA00008F8ADF802508DF8084000F005F807B06A
:107EB000F0BD1822FFF796BA68464FE7FEB50646B2
:107EC00006F10C0000F0ECFC002407464FF6FF75AD
:107ED00039463088A94203D100F0A7FC074601E0EB
:107EE00000F022FD308800220121FFF7BAFF38465A
:107EF000A84212D001AA072101F02EF968B9029810
:107F000000F13405297CC80706D406F10C0105F1FF
:107F1000120000F0B0FC00B12C4630880023002293
:107F2000214686DF050016D001F0D2F90246DFF8BF
:107F30005004DFF84844DFF850140097001BC008D5
:107F40003388000440F00100FFF712FC3088294616
:107F5000FFF70FFFF7BD24B9308841F20601FFF7A4
:107F600036FFF7BD10B586B0044618216846FFF706
:107F700045FA04228DF80020ADF8024010E010B55B
:107F800086B002238DF800300488ADF802404079B5
:107F9000C0F3800000B902208DF808008DF80910A8
:107FA000FFF78AFF06B010BD2DE9F84D064689B0EF
:107FB000DFF8C433B6F8008019780022404600F09C
:107FC0001BFB70790024C0F38000002838D008F52E
:107FD000807001AB00F003F90546DFF8A403DFF879
:107FE0009C73DFF8A8A3C71BFF083F0447F00107F5
:107FF00055B1284601F06CF90246434651463846D1
:10800000FFF7AEFB294628E040464FF6FF7500F02B
:108010000CFC29468842834628D1029800F0E8FBF0
:10802000A84283460ED05946404600F07DFC00F041
:1080300027F9D8B94046FFF795FF00F021F9A8B914
:10804000002129E001F066FBA842834609D10AF12C
:108050005C013846FFF77BFB04214046FFF789FEB1
:10806000EEE75946404600F05FFC012408F58070B9
:108070005A46072180B201F0F4F805000BD0862D96
:108080000ED103A80FF25431FFF713FFADF80E80A5
:1080900003A8FFF763FE01213046FFF770FF16E0EB
:1080A00001F016F90246CDF800B043460AF19001FE
:1080B0003846FFF75DFB29464046FFF75AFE002190
:1080C0003046FFF75CFF14B1584600F034FC0AB0AC
:1080D000BDE8F08D10B504462078182802D100F0D4
:1080E0006BFA207010BD10B5A34C2046FFF7F2FFCD
:1080F000601CFFF7EFFFA01CFFF7ECFFE01CFFF791
:10810000E9FF207818281CBF6078182805D0A078CF
:1081100018281CBFE07818280BD19948974A9C4929
:10812000801AC008000440F00100FFF710FB032094
:1081300010BD002010BD00002DE9FC470D46904900
:108140008E4FDFF85092CF1BFF083F0416461C46A7
:1081500047F0010834B900BF90A249464046FFF7F6
:10816000F9FA11E082460AF580706B4600F037F8A4
:1081700011280AD058B101F0ABF80246534609F174
:1081800034014046FFF7ECFA0320BDE8F68701987A
:108190005021FEF731FF01980570019901F134007B
:1081A0002060E660019800F1180121610198411CEE
:1081B0007948E0616161019800F11101504600F0D9
:1081C00044FB0028E1D001F083F80246534609F150
:1081D000980147F00200FFF7C3FA0820D5E7012213
:1081E000072180B200F0BBBF2DE9F84388B080467C
:1081F0000C46914600F0AAF9054620216846FFF793
:10820000FDF80027012D5C4E04D1F1780022404694
:1082100000F0F2F915B943F202002EE00CB98527FF
:1082200023E0404600F001FB4FF6FF7188420BD07F
:10823000012D09D100F024F830B94046FFF792FE35
:1082400000F01EF800B985272078C10704D4311D3D
:10825000CDF80C90079108E0852F06D06B464A4672
:1082600029464046FFF768FF38B9012D6B460CBF21
:1082700022460022394640467FDF09B0BDE8F08340
:10828000404666E538B505460C4600F05FF9012822
:1082900008D1002044B1214628467EDF042803D1BE
:1082A000112032BD43F2020032BD000038B5044651
:1082B00086B02088112808D013280FD0142827D082
:1082C000192829D01A2834D053E0217A3D290CBF2F
:1082D00041F23D014FF48851002226E0A08800F0D1
:1082E00035F9012808D1207AC1074CBF01220222AA
:1082F000A0880121FFF7B5FDA58800BF43A168460E
:10830000FFF7D7FD04F10801ADF8025002912EE00D
:10831000201DFFF7D3FD2CE0217A19B9201DFFF7AE
:1083200043FE26E0627A02F00302A088FFF753FDC5
:108330001FE0A088FFF708FDD8B9A08800F024F955
:1083400030B9A088012241F20601FFF740FD10E09C
:1083500009480178A088002200F04EF902208DF82B
:1083600000000022A188ADF80210ADF80820FFF748
:10837000A3FD07B030BD000090270020C00F030010
:1083800068100300E417030028160300380C0300EC
:1083900098160300200D0300942700207365635F87
:1083A0006B65797365745F66696C6C000100000031
:1083B00000000000000000000000000000000000BD
:1083C00000000000070000000000000000000000A6
:1083D0000000000000000000000000000600000097
:1083E000000000000000000000000000000000008D
:1083F000000000000300000000000000000000007A
:108400000000000000000000000000000500000067
:10841000000000000000000000000000000000005C
:108420000000000033B58BB00021044600910C9889
:1084300080B1002529460CA801F0B5F938B10099A2
:10844000684600EB410295800098401C00906D1C2E
:10845000142DEFD3204669462C22FEF7C3FF0DB042
:1084600030BD0146884801F09EB92DE9F843064623
:108470008CB03088B488844D102804D0112838D0AE
:108480001A283AD057E0AA68D24300926846696831
:10849000FEF772FF009901A8FFF7C4FF4FF0000933
:1084A0000EE002A8002730F81980281D414600EB95
:1084B000870001F069F97F1C1D2FF6D309F101092E
:1084C00001988145EDD3142C03DB042001F09CF9C5
:1084D00031E0214605F1080001F040F92146281D50
:1084E00001F03CF9F07B012825D0214605F10C0074
:1084F00014E0214605F108001BE0307A000902284B
:108500000FDBCCBF01260026214605F1100001F04B
:1085100025F9002E214605F114000AD001F01EF9BC
:1085200009E0214605F1100001F02EF9214605F180
:10853000140001F029F90DB0BDE8F08301461429BB
:10854000BCBF524801F02FB90020704738B500F089
:1085500026F8002538B121464D4801F024F90028BD
:1085600014BF02250125284632BD38B500F017F8A2
:10857000002538B12146474801F015F9002814BFFD
:1085800002250125284632BD10B500F008F828B1B3
:108590002146BDE81040404801F005B910BD044631
:1085A000CCE710B5FFF7FBFF28B12146BDE810402E
:1085B0003A4801F0F8B810BD80B51821324801F0F2
:1085C000FBF8182818BFC0B202BD38B504460D46E6
:1085D0002846FFF746FF68B12046FFF7AFFF48B1D6
:1085E000294800EB8502214602F11800BDE834401D
:1085F00001F0D9B8002032BD70B504460D461646CC
:108600002846FFF72EFF98B12046FFF797FF78B175
:108610001D48002E00EB8500214604D0BDE87040C7
:10862000183001F09BB8BDE87040183001F0ACB8CC
:1086300070BDF1B50C462000154601D10020F2BDF9
:108640000098002660B100273946684601F0ABF873
:1086500018B12946B8B2A047761C7F1C142FF3D35B
:108660003046F2BD70B504460D461646FFF7F9FEDA
:1086700040B1054800EB8403324698692946BDE8BD
:108680007040D6E770BD0000103300201433002086
:108690001C33002018330020203300202433002016
:1086A0000022815C21B9521C102AFAD300207047A5
:1086B0000120704780B5002818BF002905D0027836
:1086C0000B785208B2EB530F01D0002002BD0622F6
:1086D000491C401C01F0A8F8401E8041C00F02BD9B
:1086E00001460A88102A00D0704738B594B003A814
:1086F000091D2C22FEF776FE9DF8100040084FF66B
:10870000FF7503282C4615D000F07AFF9DF8100065
:10871000400802D0022834D00CD200F081F848B1D1
:10872000029800F1110104A8FFF7C4FF0028F4D05B
:10873000BDF80040BDF80C100A204143DFF81C02D0
:1087400044520144881C04A90722FEF74BFEAC42A8
:108750000ED0BDF80C10ADF83A10ADF83C40002139
:108760008DF838100EA801F012F90EA801F0B6FC31
:1087700015B030BD0298411C04A800F019F900287A
:10878000D6D100F04DF80028F4D1D3E770B50446F7
:108790000D461022691C601C01F046F850B9601C9F
:1087A000FFF77EFF30B1681CFFF77AFF060002D0AA
:1087B000012600E0002605F1110104F11100FFF788
:1087C00079FF617C4908022918BF03290CD0697C14
:1087D0004908022918BF032906D0012130B981F0C8
:1087E00001010E40304670BD0021F8E70126F9E78F
:1087F0003EB504460D4600F003FF00F011F860B1ED
:10880000BDF80000A842F8D002992046FFF7BEFF4D
:108810000028F2D0BDF800003EBD4FF6FF703EBD0F
:1088200001AA6946072000F0F0BE10B50446142CDA
:1088300002DAFFF783FE10B94FF6FF7010BD0A2071
:10884000DFF818114443085B10BD38B50546142DF8
:108850000C4602DAFFF772FE10B943F2020032BD95
:108860000A213E4A4D4351192046891C0722FEF732
:10887000B9FD002032BD38B504460D4600F047F87A
:1088800018B120882988884201D0002032BD0822F2
:10889000A91CA01C00F0C8FF401E8041C00F32BDC3
:1088A0001FB5044600F0ACFEFFF7BAFF88B102988E
:1088B00000F146012046FFF7DEFF38B9029800F1CB
:1088C0002A012046FFF7D7FF0028EDD0BDF80000B1
:1088D00001E04FF6FF7004B010BDF8B54FF6FF741D
:1088E000A04205460FD000271C4EB8B20A214843CB
:1088F000305AA84203D1B8B2FFF720FE28B97F1C36
:10890000B8B21428F1DB2046F2BDB8B2F2BD01883E
:1089100041B900228118897821B9521C082AF9D35B
:108920000020704701207047142803DA0A220B4BFD
:1089300050431952704738B50446FFF7CEFF05463D
:10894000204600F0C6FB38B9142D05DA0A21034B86
:108950004D434FF6FF725A5332BD0000D42F002012
:1089600038B50D468CB0144600214A420244D27BF1
:108970000DF80120491C1029F7D30D2104A8FEF79A
:108980003DFD00204342295C0DEB0302401C0328FF
:10899000D177F7D3684646DF002042420DEB020153
:1089A00091F82F302354401C0328F6D30DB030BD6E
:1089B0003EB504460D4620784008022801D000202C
:1089C0003EBD0322611C02A8FEF70CFD0322211DFF
:1089D0006846FEF707FD01AA69462846FFF7C0FF73
:1089E000032201A902A800F01FFF401E8041C00F12
:1089F0003EBDFEE700F0C5BF38B504461046002274
:108A0000112908BF0122DFF8BC5320B1297B204681
:108A1000FFF7F2FD0022697A2046BDE83840FFF7F3
:108A2000EBBD2DE9F0410C001CBF112C082C86B0C9
:108A30000746154644D068461821FEF7DFFCADF81E
:108A400002703846FFF7F1FEADF80400DFF87863F6
:108A5000DFF87803DFF87883861BF60836040D2CE0
:108A600019D13A46414646F00200FEF773FE032054
:108A70008DF8000025B12878C10748BF012000D437
:108A80000220002141F201128DF808008DF80C102F
:108A9000ADF80A2011E0204600F01AFC02463B46E1
:108AA00008F1B80146F00100FEF75AFE07218DF8E3
:108AB0000010029400218DF80C106846FFF79AFF11
:108AC000A4E038B586B0144605228DF80020ADF834
:108AD00002000D46FFF7A9FEADF8040002950394CD
:108AE0006846FFF787FF07B030BD2DE9F0478146A4
:108AF0000F46380086B090461D46B24C27D000265F
:108B0000424631464846FFF7BDFB824600225146A9
:108B10004846FFF771FF5FEA0A0018BF082833D004
:108B20000B2818BF0D282FD0112804D043F20201C2
:108B3000884229D02AE0E17A3A464846FFF75CFDB0
:108B4000A17A42464846FFF757FD00272DE06846C8
:108B500000210022002380E80E0026690096694665
:108B600091E80C4003A8002180E80C4003AA484685
:108B7000FFF7A7FF207A039E002804BF9DF8150089
:108B80000028BDD1052017E057460EE08E4F00F0BB
:108B90009FFB02468D488F49C01BC00800044B460E
:108BA00040F00100FEF7DCFD032725B132465146B7
:108BB0004846FFF736FF384606B0BDE8F0872DE996
:108BC000F04186B0044603A800220023002580E877
:108BD0002C007C4D2869039003AE96E880416B46DB
:108BE0006A4683E880412046FFF76BFF6A69009977
:108BF0002046FFF7F9FA0546012229462046FFF7ED
:108C0000FBFE009A29462046FFF70BFF06B0BDE8A1
:108C1000F08110B504462078052802D0122805D02E
:108C20001EE0A1686088BDE81040C8E7654A106989
:108C3000002178B11078237A03B1012300F00102FA
:108C40009A4207D3627A400802B1012200F0010083
:108C5000904200D20121608801230022FFF745FFE6
:108C60002046BDE81040C5E60021A8E770B5554D87
:108C7000A97A0446FFF7A9FC0646E97A2046FFF7E1
:108C8000A4FC014632462046BDE8704001232CE793
:108C900010B500780838032801D90B3803D1494CA6
:108CA0004D49207B32E010BD10B5044620781828CD
:108CB00002D1FFF781FC207010BD10B5414C04F1CA
:108CC0000900FFF7F1FF04F10A00FFF7EDFF04F1DF
:108CD0000B00FFF7E9FF04F10C00FFF7E5FF207B35
:108CE00018280BD13948384A3C49801AC00800047A
:108CF00040F00100FEF72BFD032010BD002010BD49
:108D000010B5304CFFF7D2FA207B33490022FFF731
:108D1000A9FC607A3249BDE810400022FFF7A2BCEE
:108D2000B0B30278910701D4130631D4C2F3021113
:108D300004292DDC02F0F201322929D04178837810
:108D40008B4225D3072923DB112B21DAC178C1F30C
:108D50008003002B02BF0079C0F38003002B17D1E2
:108D6000C1F3C003002B04BFC0F3C003002B0FD11D
:108D7000D20701F0030106D4002908BF10F0030F49
:108D800006D101207047002908BF10F0030FF8D169
:108D90000020704738B504000A4D04D1012100209D
:108DA0002972286132BDFFF7BBFF48B12846214632
:108DB0000522FEF717FB012028722D61002032BD2D
:108DC000072032BDD4270020C00F0300701003001D
:108DD00054080300241A0300698C020008170300DA
:108DE0006D8C02000A46002300217EE64FF6FF71DB
:108DF00001800022FF218170417202724260817AFB
:108E000001F0FC018172704730B50A68DFF8083460
:108E100000E0521C042A07D20C2454431D5B8542F7
:108E2000F7D10A60181930BD002030BD38B50D46A5
:108E30000022044600926946FFF7E6FF01000ED0CB
:108E40008878A84204BF8B7A13F0030F01D14868D9
:108E500028B10098401C009069462046ECE708467F
:108E600032BD70B504460025DFF8AC6307E0617AD7
:108E70006918C9B206F1300001F00CFB6D1C207AB4
:108E80008542F4D32046BDE87040AFE770B5044694
:108E900000250FF2244656F82510204688476D1C01
:108EA000042DF8D370BD8170426050214B439BB2BA
:108EB000DB1C9B10038070477CB504460FF2084012
:108EC000DFF85853DFF85863D0E90023CDE90023D9
:108ED000A0788DF80200617ADFF8480301F0C4FA47
:108EE000DFF844134D1BED082D04024645F0010543
:108EF0002AB9627A31462846FEF72CFC4AE0237AEA
:108F0000A1786846FFF7CFFF9DF80200012818BF3F
:108F1000062808D007280AD008280BD10198818894
:108F20000931890800E00121ADF8001002E01422A7
:108F3000ADF80020221D2088694600F08EFB02005B
:108F4000BA4906D0072826D0112807D086280FD086
:108F500017E0A17A01F0FC01A17276BDA07A00F0C1
:108F6000FE0040F00200A07201200870002076BDD3
:108F7000A27A02F0FD0242F00102A27201220A70FE
:108F800076BD00F0A5F92388024606F14001284687
:108F9000FEF7E6FB032076BD2DE9F041A34E8046A7
:108FA000307886B0C8B10021317000279A4D0C246A
:108FB0007C432819817A11F0030F0BD0C1F34001D3
:108FC0000122002908BF5FEA0801327002D0FFF7D2
:108FD00073FF28B97F1C042FE9D306B0BDE8F081E8
:108FE0004FF6FF72ADF8022086282B5BADF80430F7
:108FF00003D106218DF8001010E007228DF8002023
:10900000029000228DF80C2000F062F92B5B834C5B
:109010008749024600F099F8FEF7A2FB6846FFF781
:1090200035FFDAE770B504460025E16800220C231D
:1090300079485343184446688E4203D0521C042A90
:10904000F5DB00202278082A05D0092A09D0132A46
:1090500008BF012511E0617A79B970B1FFF701FF0E
:109060000BE0617A49B940B1827A416042F0020274
:10907000827201206D49087002E02046FFF706FF6A
:109080002846BDE8704087E73EB50024624D0C20BD
:1090900060432844FFF7AAFE641C032CF7D9502034
:1090A00004210190009105F5C0734FF4A07205F101
:1090B000400105F1300001F08BF948B100F008F9EA
:1090C00002465948DFF8543173A100F0B9F8032083
:1090D0003EBD3EB500220546019201A904E001987B
:1090E000401C019001A92846FFF78EFE040024D001
:1090F000A178284600F0ABF8002818BF0528EED06C
:1091000000F0E6F80246A078444C4A4900902B460D
:1091100000F01BF8FEF72CFB0DE000F0D9F8034639
:1091200041483E4C4449001BC00800042A4640F018
:109130000100FEF715FB03203EBD284600F0EEFAC5
:109140000028F9D00728E8D13EBD3748001BC008E9
:10915000000440F001007047002300F019BA2DE927
:10916000F84381465FEA03080D46164608BF0E2005
:109170004FD0072D18BF082D02D10EB1052E01D3F7
:10918000072046E0FFF752FE002704001BD1FF2115
:109190004FF6FF70FFF74AFE040012D0A4F80090CB
:1091A000A570607ADFF87090FF2812D1314609F17E
:1091B000300001F025F9FF28607209D12046FFF741
:1091C00015FE112025E0207AB042EAD00F2020E0E1
:1091D0000127617A267209F1300001F045F938B9AA
:1091E00011480E4B627A154900F02AF8032010E06E
:1091F0000246B3B229464046FFF755FE47B1082D57
:1092000006D1B8F800008000811FD8F804008180E2
:109210000020BDE8F2830000702C0020C00F030086
:10922000B8150300A02C002050100300F1360020D8
:10923000141903002C11030084110300D41403003B
:10924000C01AC008000440F00100FEF783BA80B5E0
:10925000FFF7ECFD08B9052002BDFFF702FE002074
:1092600002BD70B50D46072D18BF082D04461646E1
:1092700003D1304600F05EFA08B9072070BD2946D8
:109280002046FFF7D3FD08B9052070BD0680857024
:10929000BDE8704010E60000504D5F42554646451F
:1092A000525F494E495428292072657475726E6563
:1092B000642025732E0000008D980200918C02001E
:1092C00081A602000FA102000000000000000000C3
:1092D00080B500F003F800B90FA002BD10B50D492C
:1092E00001F5947200E01A4691420FD2531ADB1036
:1092F00003EBD3735B1001EBC3031C68A042F2D3F2
:10930000844238BF03F10801EED301E0002010BD14
:10931000586810BD08060300556E6B6E6F776E209F
:109320006572726F7220636F646500004FF6FF71A3
:109330004180FFF777BEB0F5404F05DB4FF6FF7178
:10934000884201D00120704700207047072818BFCD
:10935000012808D0082818BF052804D006281CBFFB
:109360000928042801D10120704700207047F0B57A
:10937000DFF880538BB000202870CDE900004FF655
:10938000FF74204603E0304601F0D7F8304601F084
:109390001DF90646A64230D0A6F580476A4602A9C6
:1093A000B8B2FDF754FD0A28EDD0B8B2FDF706FDBE
:1093B0000446082C02D1012028701EE0ECB1DFF831
:1093C0003803DFF83853DFF83813401BC0080004B7
:1093D0003346224640F00100FEF7C2F905A80FF21D
:1093E00064311822FDF7FEFF01218DF82010ADF841
:1093F0001860079405A8FFF799FF0BB0F0BD7CB586
:1094000004460D4616462846FFF7A0FF0021CDE989
:109410000011A4F58040A5F580416B46324689B223
:1094200080B2FDF707FD00B1052076BDF8B586B026
:10943000064668461821FDF7E1FFB789DFF8B44218
:1094400007F58047ADF804704FF6FF753078401E81
:10945000022804D9C01E2CD0401E3FD04CE0B08959
:10946000FFF769FF28B9F089B0F5404F44DBA84207
:1094700042D0F0898DF80800317803290CBF012013
:1094800000208DF80900B0680390706848B9082082
:109490008DF800009DF8100040F001008DF81000DC
:1094A00027E009228DF80020049001228DF8142075
:1094B0001FE0B089FFF73FFFF0B1F089E0B97068B5
:1094C00030B90A208DF80000B8B201F036F802E099
:1094D0000B2200F017F8012121700AE0706818B91A
:1094E00013208DF8000002E0142200F00BF8ADF814
:1094F00004506846FFF71AFF207808B1FFF737FFDE
:1095000007B0F0BD8DF80020029001228DF80C20EC
:10951000704730B5794C7B487B4D87B0FDF77FFBBA
:1095200075490C1BE4082404024644F001042AB1E6
:1095300029462046FEF70EF9032027E0FDF780FBC1
:1095400038B1024605F144012046FEF703F98620B2
:109550001CE000F0B7FF0021CDE900110DE002A9E9
:1095600004A8FDF7D5FB0298848804A8FDF7F2FB58
:1095700004F58044A0B200F0CFFF6A4604A94CF283
:109580000700FDF75EFC0028E9D0002007B030BDE1
:10959000F0B5B0F5807F85B006460F4615461C46EF
:1095A00003DA3846FFF7D2FE08B9072017E002AA0F
:1095B00039463046FFF723FF20B9694602A8FDF778
:1095C000A7FB08B105200AE0AF70009846882E80FE
:1095D0003CB90198686002A8FDF7BCFB002005B00B
:1095E000F0BD20880199B6003746B04238BF064624
:1095F00068683246FDF7F6FEBE42ECD20C20EEE77C
:1096000042480021C0E90011704778B585B0054691
:109610000C461646FFF79AFEE0B1A5F580403B4A9E
:1096200002A980B2FDF70DFC20B9694602A8FDF73A
:109630006FFB08B100200EE0B570009841883180C2
:10964000019870600099888800F58040208002A809
:10965000FDF780FB012006B070BD70B5B0F5807FCE
:1096600086B005460E46144603DAB078FFF76EFE64
:1096700008B907203BE0A5F58040ADF80000B178BF
:10968000A1F58040ADF8020028467168019132884A
:10969000029203AAB178FFF7B2FE0528694603A833
:1096A00002D1FDF77DFB01E0FDF77CFB010006D058
:1096B00007280DD0082818BF0E2807D00AE01CB1D3
:1096C000214603A8FDF7CBFB002010E011200EE09F
:1096D00086200CE002460848084C0D49001BC008D3
:1096E00000042B4640F00100FEF73AF8032006B0D4
:1096F00070BD0000F036002048100300C00F0300CA
:10970000C81A03002D94020068120300E0360020FE
:10971000CC1903004FF6FF7000F0FEBE80B5B0F527
:10972000807F01DB072002BD00F0F8FEFFF71FFE7F
:10973000002002BD00F00DBF00F014BF00F033BFE9
:1097400000F044BF0700000000000000000000001F
:109750000000000000000000000000000B46012196
:1097600003F01F025B09914000EB8300FDF7ECBDA5
:1097700010B50A4602F01F0401215209A14000EB76
:109780008200FDF7D5FD0AE00B46012103F01F0220
:1097900091405B09C94300EB8300FDF7EDBDE0405C
:1097A00000F0010010BD4A0950F8220001F01F012D
:1097B000C84000F001007047F8B504460D46002689
:1097C00014E054F82600C04300F016F83CBF07EB45
:1097D0004617AF4209D239462046FFF7C9FF002895
:1097E000EFD13846F2BD2846F2BD761C681E40090E
:1097F000401C8642F7D2E4E790FAA0F0B0FA80F776
:10980000FFB2202F7047FEE71FB5694600220023F4
:10981000002481E81C0002906A46002144F2010005
:1098200000F0DAFE1FBDFEE703000020521E22BF3B
:1098300013F8010B11F801CBB0EB0C00F6D0521C61
:1098400008BF10467047FEE770B504460025DFF8F4
:10985000846506E006F11001204651F82520904766
:109860006D1CF0788542F5DB70BD10B5DFF86445FE
:109870000023002204F10C01201D00F0DFF9002874
:1098800016BF052801200020607010BDF8B5044601
:1098900086B0A088DFF83C55FFF71FF801276080ED
:1098A0004FF6FF762278A968A878083A032A49D8A3
:1098B000DFE802F0021D2A4EAB886878627A4AB966
:1098C00051B1E268914207D10020A860A188A98027
:1098D000E06038E0012A36D1002834D0A0889842D0
:1098E00004BF217A06292ED1FFF7BFFF2BE0607A53
:1098F00048BB41B3E068814225D1E8680021401EA1
:10990000A960E860E1601EE0A0B13046FFF716FFF5
:10991000B0420FD13046FFF713FFB0420AD100F03A
:1099200087F90C2100F026F82046FFF78DFF00F0A4
:109930007DF90027687828B1A088A988884208BFE7
:10994000FFF793FF17B12046FFF77EFF07B0F0BD8A
:109950000028F8D000F06CF90D2100F00BF8A06899
:109960000290207B8DF80C002046FFF76DFF00F081
:109970005DF9EBE78DF80010ADF80460ADF802601A
:109980007047002818BFFFF75FBF70475CE75BE7D1
:1099900010B500F0FDF850B12046FEF7A1FE2046BC
:1099A000FFF7AEF92046BDE8104000F041BC10BD05
:1099B00070B5FFF7AEFDDFF82014DFF820440FF29A
:1099C0003045DFF81C640C1BE408240444F0010457
:1099D00028B1FFF77DFC03462A46314630E0FFF709
:1099E00053FB30B1FFF774FC03462A4606F12C0105
:1099F00026E0FFF762F930B1FFF76AFC03462A461A
:109A000006F158011CE0FEF76EFB30B1FFF760FC79
:109A100003462A4606F1840112E000F0B6FB30B19D
:109A2000FFF756FC03462A4606F1B00108E000F0B5
:109A300030FE50B1FFF74CFC03462A4606F1DC012C
:109A40002046FDF78DFE032070BDDFF888034FF63A
:109A5000FF7100228180826000210122417002702A
:109A6000002070BDDFF86C23117809B90820704719
:109A7000D178032901DB0420704702EB8103491CE4
:109A80001861D17000207047DFF848231178002951
:109A900018BFFFF77FB90820704780B5DFF834336F
:109AA0001A780AB9082002BDFFF79CF9082808BFF8
:109AB000112002BD38B50C46DFF8181305460878AA
:109AC00008B9082032BD0CB90E2032BD2846FEF779
:109AD0004CFD10B943F2020032BD217802280CBFC0
:109AE0000120002001F0FE01084320702846FEF707
:109AF0009CFE4FF6FF718842217814BF01200020A0
:109B000001F0F70141EAC00121702846FEF73CFD53
:109B1000217801F0FD0141EA400121702846FEF75D
:109B200040FD217801F0FB0141EA80012170002015
:109B300032BD10B5DFF89C220C46117809B9082017
:109B400010BD0CB90E2010BDFEF7C7FE0CE010B51D
:109B5000DFF880220C46117809B9082010BD0CB935
:109B60000E2010BDFEF761FE2080002010BD10B554
:109B700000F00EF810B94FF6FF7010BD2046FFF749
:109B8000DDFD0446FFF7D8FD0028F7D1204610BDC3
:109B9000DFF840120446087870478E4A1178002991
:109BA00018BFFEF7C8BE08207047000070B5894D89
:109BB000287886B008B9082015E00120A8704FF673
:109BC000FF742046FFF7BAFDA042064615D100F00B
:109BD0002FF80C218DF80010ADF80440ADF80240CC
:109BE00000F024F8002006B070BD3046FEF7A3FE5A
:109BF00048B93046FFF7A2FD0646A642F2D02878C3
:109C00000028F2D10820FFF763FB03467248734C2B
:109C100079A27449009600F002F80320E3E7001BE4
:109C2000C008000440F00100FDF7A2BD68460BE645
:109C30000020A87018216846FDF7E0BB2DE9F34F1E
:109C40006449087885B014461D4608B9082053E0D9
:109C50004FF6FF7804274046FFF770FD0021019181
:109C6000ADF800700DF1040767A18346D1E9002328
:109C7000CDE90223039700F042F8002707284FF0B0
:109C8000FF394646C24610D1052035E00198B8425A
:109C900024BF07465E4648453CBF8146DA465846E3
:109CA000FFF74CFD834600F02AF80028EED0052887
:109CB000F5D0C34511D14645059916BFC2450520CB
:109CC000002001B10E80069901B10F600CB1A4F81B
:109CD00000A08DB1C5F800900EE0404CFFF7F8FAF7
:109CE00002463D484049001BC00800045B4640F066
:109CF0000100FDF735FD032007B0BDE8F08F6B468E
:109D000002AA0621FFF744BC70B5324E05463078F2
:109D100088B008B908205BE03DA0D0E90023CDE978
:109D20000623707808B9FFF7A0FD707808B1B06815
:109D300008B111244BE0B288F06895421ED110B3EF
:109D400018216846FDF75AFB08208DF80000002412
:109D50002846FEF7C2FDADF8020006219DF810006E
:109D60008DF8081000F0FE008DF81000ADF80450DA
:109D70008DF809400394FFF759FF28E010F1010F17
:109D800008BF132423D0401CF06006F1080206A986
:109D90002846FFF762FC040019D0F1680020491E34
:109DA000112C1CBF862C072CB060F1600FD0204610
:109DB000FFF78EFA02460848084C0C49001BC00801
:109DC00000042B4640F00100FDF7CAFC03242046A6
:109DD00008B070BD0836002058100300C00F030003
:109DE00078090300141B03005C1B0300681C0300BC
:109DF000706D5F696E697400706D5F706565727318
:109E00005F64656C65746500000000000000000080
:109E10000100060014360020BFF35F8F00210160AF
:109E2000704710B504466088FEF7FFFCA08020460E
:109E3000BDE81040FFF7AABD38B586B004460D4610
:109E400068460FF2145100F00DF9ADF8024002958A
:109E500000F0B2F807B030BD2DE9F04286B00446FC
:109E6000684618210025FDF7C9FA4FF6FF708442B5
:109E7000ADF802403ED0204600F060FC0746DFF817
:109E8000A004DFF8A064DFF8A094861BF60836046F
:109E9000380008D00B280CD0112808D043F202015A
:109EA000884220D011E00E228DF800200AE0012522
:109EB00019E00F208DF800002246494646F00200C6
:109EC000FDF748FC00F078F80DE0FFF701FA0246D4
:109ED000234609F1800146F00100FDF741FC3946B7
:109EE0002046FFF7A9FFDFF8440441782A462046C0
:109EF000FEF782FB06B0BDE8F0820A46DFF82C14BC
:109F00000978FEF779BBA7E72DE9F04D8046DFF829
:109F10001C4486B0012104F10800FDF7FDF9BFF3F0
:109F20005F8F002845D1404600F0B9FB8346DFF83B
:109F3000F003DFF8F053DFF8F8A3451BED08002627
:109F400000272D045FEA0B001AD0112816D08628AE
:109F500004D043F20201884222D013E068460FF297
:109F6000104100F07FF8ADF802804246514645F0BE
:109F70000200FDF7EFFB00F01FF811E001260FE0F3
:109F800001270DE0FFF7A4F9024643460AF1380124
:109F900045F00100FDF7E4FB59464046FFF74CFF52
:109FA00031464046FFF7A9FF1FB904F10800FFF74B
:109FB00033FF06B0BDE8F08D684632E72DE9F8437F
:109FC000DFF86863F17886B08046FEF7FEFA002875
:109FD00047D1404600F002FC012700258146C0B170
:109FE000062818BF08280DD011281CBF43F2020113
:109FF00088422ED043F20141884215D14046FFF7F6
:10A000002BFF26E04046FEF710FC00F019FC00276D
:10A010001FE068460FF2703100F024F8ADF80280BE
:10A02000FFF7CAFF012514E0FFF752F90246DFF8F7
:10A03000F002DFF8F042DFF8FC12001BC008000459
:10A04000434640F00100FDF78BFB49464046FFF7D1
:10A05000F3FEB1783A4600F05FF9F1782A4600F055
:10A060005BF955E11822FDF7BDB9B048B2498078D7
:10A070000022FEF7F7BA82B0694600220A60012387
:10A0800042F6A622ADF800208DF802300FF2C4226D
:10A090001368019301AAA0DF02B070471CB5044603
:10A0A000FEF7C3FB00236A460921FFF771FA052872
:10A0B00005D19E48017901222046FEF79DFA13BD85
:10A0C00010B59A4C9D4920780022FEF7CBFA20B9B2
:10A0D00020799B49BDE81040CAE710BD38B5044659
:10A0E000207898B96088FFF7B7FE6588284600F0A9
:10A0F00066FB28B18D48817801222846FEF77CFA5C
:10A100006088FFF7CBFFBDE83140D9E731BD7CB5B2
:10A1100006463078082804BF707A002832D1317A98
:10A12000824D01294FF6FF7411D0072902D008296A
:10A1300021D027E0B088FEF7D0FBA042054621D011
:10A140000121FFF7DAFE2846FFF7A8FF1AE0B088E2
:10A150006A46FFF701F8A8B90199087890B1B0886C
:10A16000FEF7BBFBA0420DD0A9780122FEF744FA0E
:10A17000FFF77BFF06E0A868012804BF05F108008F
:10A18000FFF74AFEFFF79CFF73BD10B5674CFEF763
:10A1900013FA2070FEF710FA6070FEF70DFAA07047
:10A1A000FEF70AFAE070FEF707FA21782071182905
:10A1B0001CBF6178182906D0A17818291EBFE17844
:10A1C000182918280BD15648564A5E49801AC008EB
:10A1D000000440F00100FDF7BAFA032010BD002092
:10A1E000A060BFF35F8F10BD3EB500BF6EA2002917
:10A1F000D2E90045CDE9004514BF0FF2A4110FF2DA
:10A20000A4110191FEF711FB00226946FFF725FA20
:10A2100060B1FFF75DF802464148424B4A49C01A17
:10A22000C008000440F00200FDF794FA37BD0000BA
:10A230002DE9F843074686B03888B7F804803B4CD0
:10A24000352832D050281ED0522802D0542804D0AD
:10A2500057E04046FFF700FE53E0684654A1FFF781
:10A2600001FFADF802804046FEF7DFFAADF80400CA
:10A2700000F0E6FAE17800F04EF8A17800F04BF833
:10A28000FFF79AFE3DE0387B012804BFB87A012829
:10A2900002BF388942F60211884232D1012140467C
:10A2A000FFF72BFEFFF70CFF2BE0217900F033F8CE
:10A2B000FA880026B2F5857F1FD01948194DDFF8BE
:10A2C0008C90451BED082D0445F002050AB1494666
:10A2D0000CE07A89012A04D009F13C012846FDF7F7
:10A2E00039FABA89012A05D009F178012846FDF723
:10A2F00031FA02E0B87B00B1012631464046FFF753
:10A3000073FF607812490022FEF7ACF9FFF7ADFE4B
:10A3100007B0BDE8F08300224046FEF76DB90000AB
:10A32000C00F0300C00F0300EC0E0300AC3600208A
:10A330006C130300E81B0300BD9F0200099F02008D
:10A3400077A0020048150300B4180300781003003A
:10A35000079F02000100FFFF07000000000000004F
:10A3600000000000000000000000000000000000ED
:10A3700006000000000000000000000000000000D7
:10A3800000000000000000001000000000000000BD
:10A3900000000000000000000000000000000000BD
:10A3A00001000000000000000100090000000000A2
:10A3B000110000000000000000000000000000008C
:10A3C0000000000000000000BFF35F8FFFF7EBB953
:10A3D00070B5002818BF002910D07BB1059C049DE2
:10A3E00004FB05F6B24209D3002D18BF002C05D09E
:10A3F000016043608560C460002070BD072070BDAF
:10A400002DE9B84104001CBF20680028884628D0E8
:10A41000606830B3FF2500270AE0E9B2204600F06B
:10A4200039F86D1CE8B2B842F7DBFF257F1CFFB29C
:10A43000A068874215D260683946FFF799F9401E37
:10A440008041C00FBFF35F8F08D0FF2D08BF3D468E
:10A45000781B401C4045E9D1284603E0FF2DE5D09C
:10A46000E0E7FF20BDE8B28138B504001CBF2068DA
:10A4700000280D460CD06068002818BFFF2907D0BF
:10A48000FFF7A2FF20B1E06821684543481932BDBB
:10A49000002032BD38B504001CBF206800280D46DE
:10A4A0000FD06068002818BFFF290AD0FFF78CFF83
:10A4B00038B16068BFF35F8F2946BDE83440FFF7CD
:10A4C00063B931BD40214248FCF798BF70B50446DE
:10A4D0004FF6FF75AC4208462E460AD14FF4807104
:10A4E000FFF76AF9064680B2B0F5807F09D12E46A3
:10A4F00007E02146B1F5807F03DAFFF739F900B9AB
:10A500002646B0B270BD0A460146B1F5807FBCBF99
:10A510001046FFF739B970472D49D7E710B54FF608
:10A52000FF718842044606D02A49FFF7CFFFA042B8
:10A5300001D1012010BD002010BD38B5244D0446C6
:10A540002946FFF7E0FF05F120012046BDE8344031
:10A55000D9E70146B0F5807FBCBF1D48FFF723B99E
:10A56000002070470146B0F5807FBCBF1948FFF757
:10A570001AB90020704770B54FF6FF76B0420D460D
:10A5800008BF002404D0441CA0B2B0F5807F08DAD4
:10A59000A1B22846FFF707F908B1A0B270BD641C4C
:10A5A000F2E7304670BD38B5094D2946FFF7E3FFA5
:10A5B0004FF6FF729042044606D0FFF7D3FF002803
:10A5C0001CBF29462046F1D1204632BD0149D2E7C1
:10A5D000003500202035002010B572B6FDF71FFAB7
:10A5E000FDF7DEF80028FBD11048114C1149041B7F
:10A5F000E408240444F00100FDF7A9F80E480168BE
:10A60000CA0700D500BE0D4944F00200FDF79FF8CF
:10A61000BFF34F8F0A490B480A6802F4E062024315
:10A620000A60BFF34F8F00BFFDE700BFF80F0300C4
:10A63000C00F0300DC1F0300F0ED00E0E81F030083
:10A640000CED00E00400FA053EB500BF82A0002238
:10A65000D0E90045CDE900456946724C2088FEF7F7
:10A66000FCFF014620884FF6FF72904218BF112967
:10A6700005D0FFF763F8208000226946EFE737BD79
:10A68000684801884FF6FF72914218BFFFF7DCBFA0
:10A69000704764494FF6FF700880002070472DE92D
:10A6A000FE430546FEF7C1F84FF6FF71804688422B
:10A6B00008BF43F2020030D00127DFF86C916B46EF
:10A6C000BAB208214046FEF74AFD002604467F1C28
:10A6D00084BB019803210160021D811D03232846CC
:10A6E000B2DF04001BD00C2C20D1012608214046EB
:10A6F000FEF7ADFD70B1FEF7EBFD03464B484C4C49
:10A70000001BC00800044246494640F00100FDF726
:10A7100027F80324002ED2D12046BDE8FE8342460E
:10A7200008214046FEF79DFD0446F5E7052CDDD1E6
:10A730000024DBE7072CEFD10C24EDE72DE9FC41E9
:10A740008046FEF772F800260027032401254FF605
:10A75000FF72904208D06A460821FEF7FDFC18B946
:10A76000019887880468861D31463A46234602E0F0
:10A770000021002203234046B1DF042803D008282B
:10A7800006D1002000E0112005B90B20BDE8F681BC
:10A790000B28F9D10025980748BF0123EBD40029E5
:10A7A00008BF002AE4D12148214B2249C01AC00821
:10A7B0000004424640F00100FCF7CCFFE5E7E0B5BD
:10A7C000CDF808D0FEF731F801AA0121FEF7C4FC4C
:10A7D00008B100200EBD029800780EBD10B50346EA
:10A7E000154C2046B3DF00284FF6FF7211D0FEF75C
:10A7F0006FFD02460D480E4B1049C01AC0080004F8
:10A8000040F00100FCF7A6FF032010BD2088401C8B
:10A81000208018462188AFDF43F203018842F5D03B
:10A8200010BD0000EC360020EC120300C80F03003E
:10A83000C00F0300E4130300EE3600207C1A03006F
:10A84000E0B500BF06A1D1E90023CDE900236946A8
:10A850000022FEF702FF07BD010001000C200300EB
:10A860000100010010200300FEF7CEBFFEF7CCBFB1
:10A87000FEF7CABF80B5012808D100F094FA0FF2A4
:10A880008C5100F097F8FFF791F904E00321DFF80D
:10A890001C0500F08DFB00B10FE101BD38B5087853
:10A8A0000124B8B9B1F88200DFF80455042806D1B4
:10A8B0000422891C05F51570FEF7B6FF00B10024CF
:10A8C000214605F1240000F0D6FE18B1BDE8324063
:10A8D000FEF79ABF31BD0A460146DFF8D80400F002
:10A8E0004FBE38B50446FDF740FE0228DFF8C054DD
:10A8F00008BF01220CD069462046FFF728F958B955
:10A90000BDF80000FFF749F908B1FEF77DFF00220E
:10A9100029782046FDF770FE31BD10B500F042FAEF
:10A92000DFF8941400F046F8DFF8840401786088BA
:10A93000BDE810400122FDF75FBE38B500F033FAE4
:10A94000DFF8781400F036F84FF6FF7420460BE07D
:10A950006946FFF7EEF808B1FEF756FFBDF80000B4
:10A960000021FFF7BEFF2846FFF701F9A042054688
:10A97000EED131BD7CB500F015FADFF8441400F0DB
:10A9800019F84FF6FF7528460EE06946FFF7D1F833
:10A9900008B1FEF739FFBDF80000618888421CBF8E
:10A9A0000021FFF79EFF3046FFF7E1F8A842064678
:10A9B000EBD173BD801AC008000440F00300FCF71F
:10A9C000C6BE18B59BB068460021002200230024B3
:10A9D00080E81E004FF40071ADF80810DFF8D04396
:10A9E000DFF8E013DFF8E023039104F15400019055
:10A9F00000926946201D00F06DFE08B1FEF704FFCD
:10AA00001C2104A8FCF7FAFCFDF7D6FDDFF8BC1307
:10AA1000DFF8BC230491207002218DF819108DF805
:10AA20001A100592211D9DF81800DFF8A823079140
:10AA3000089240F02A00DFF8A013DFF8A0238DF879
:10AA4000180009910A9204A904F1240000F0C8FD3D
:10AA500008B1FEF7D9FE40210BA8FCF7CFFC0FF29E
:10AA6000C8310BA800F0E9FF01208DF868000BA8A1
:10AA700001F006F908B1FEF7C7FE1CB010BD007862
:10AA800040B9DFF82C2350883B2176DF002818BF1F
:10AA9000FEF7BABE7047FEF7B7BE80B5002001F0E2
:10AAA00008FB08B1FEF7B0FE01F0CDFB08B1FEF7E0
:10AAB000ABFE33DF00B100E001BDBDE80240FEF7B0
:10AAC000A3BE80B560B103280DD100F06CF90FF280
:10AAD0006C31FFF76FFF022001F0EBFA18B1ECE7E1
:10AAE000BDE80140D9E701BD38B5044601F02AFEB2
:10AAF000BB49BC48AE4D081A2188C0080004102983
:10AB000040F0030008D011291ED0212928D03B296C
:10AB100018BF56292CD031BD0FF23431FCF717FE87
:10AB2000072001F0C6FA08B1FEF76EFEA188698021
:10AB300005F1240000F04EFD08B1FEF765FE6988BE
:10AB4000281D00F04FFE16E0C4A1FCF700FE287897
:10AB5000A5490022FDF786FD4FF6FF70688031BDE4
:10AB6000C2A10888ADF800006946A0888FDF02E026
:10AB7000A088132176DF08B1FEF746FE31BD042818
:10AB800002D00A280AD188E789484088132176DF55
:10AB9000082803D0002818BFFEF736BE704710B54E
:10ABA000044601F047FC204601F07CFC20780C288C
:10ABB00003D1BDE8104000205CE610BD30B5ABB05D
:10ABC0004FF400410020FCF769FC08B1FEF71CFEC1
:10ABD00001F03CFE02F07FF808B1FEF715FE834954
:10ABE000032001F071FA08B1FEF70EFE694600205D
:10ABF00001F079FB08B1FEF707FE9DF8000002287E
:10AC00000CBF0124002402F0EFF808B1FEF7FCFDB0
:10AC100002F09AF908B1FEF7F7FD002000906946AE
:10AC2000012002F02DFA08B1FEF7EEFD684602F0B1
:10AC3000A5FA08B1FEF7E8FD11208DF800000A2200
:10AC400076A168467CDF08B1FEF7DEFD002078DFE4
:10AC500008B1FEF7D9FD01A90020C1E90000ADF857
:10AC6000080007224FF4C871ADF80420ADF80610B3
:10AC7000ADF80A1001A87ADF08B1FEF7C5FD5C4DFA
:10AC80000021284602F047FB08B1FEF7BDFDAC21CC
:10AC90006846FCF7B3FB02218DF800100122052164
:10ACA0008DF803108DF80220ADF8102005F51B710A
:10ACB000059100228DF879200DF179000121C170F4
:10ACC0002822229222A944F250624A600023037192
:10ACD0004848494AC8610A62694605F1140000F013
:10ACE000E9F808B1FEF790FD012105F1140000F02C
:10ACF000DEF8FFF766FE1C216846FCF77FFB0021AB
:10AD000000914FF4F0224FF420310192029103227E
:10AD100000218DF80C20ADF80E108DF8101068464B
:10AD20003649374A0591069202F058FC08B1FEF701
:10AD30006BFDFEF73DFE08B1FEF766FD0521684696
:10AD4000FCF75CFB31208DF8000007219DF8030023
:10AD50008DF8011040F003008DF8030010229DF8DB
:10AD600004008DF8022040F003008DF804006846CE
:10AD7000FEF78AFE08B1FEF747FD2248FEF772FE95
:10AD800008B1FEF741FD00F00EF81F49FFF712FE73
:10AD90002046FFF76FFDFCF703FD0028FBD102F012
:10ADA00030F8F8E704460E480E4A70477C2400202D
:10ADB0001022002034220020A81C0300181D0300CC
:10ADC000281C0300D7A8020069A802009DA8020061
:10ADD0006DA802001BA902003BA9020075A9020090
:10ADE000F80F0300C00F0300E3A802007FAB0200CE
:10ADF00068240020C3AA020071A802007FAA0200F2
:10AE000097AA02009FAB02003C1E030045726173CB
:10AE10006520626F6E647321000000004E6F7264E3
:10AE200069635F424D5300004E6F726469635365FE
:10AE30006D69636F6E647563746F720046617374DD
:10AE400020616476657273746973696E672E0000A1
:10AE5000436F6E6E656374656400000044697363DC
:10AE60006F6E6E6563746564000000000000FEE7AD
:10AE7000417939B100F25221087818B9887810B1B7
:10AE8000012070470020704770B5044604F50D7628
:10AE90000D46B1883068012202F0CCFE00B1057089
:10AEA00004F13C02314604F1540072DF70BD80F8B9
:10AEB000301070472DE9F04104465FEA010814BFE5
:10AEC000002C0E2068D008F17A000178012902BF19
:10AED000807F012807205FD00020A07008F1780152
:10AEE000201D2C22FCF77EFA04F12406002030738A
:10AEF00004F50D7508F1A40004F1500701683161F3
:10AF00004FF6FF7140687061A9822D61072104F23C
:10AF10004A20FCF771F8207808B9FF21397104F153
:10AF20005500286004F50E72317801290CBFEE201F
:10AF30001F20A88004F15501404602F0ABFD58BB2C
:10AF400018F13C0010D004F24311A96004F510720E
:10AF5000307801280CBFEE201F20A88108F13C00AA
:10AF600002F098FD18B117E0A8600021A981012026
:10AF7000787004F13C02A169B18430760021F1615E
:10AF80000020387004F1540061693162002172DFE1
:10AF900010B9012020700020BDE8F0810068012870
:10AFA0001CBF0228042801D10120704700207047EF
:10AFB0002DE9F84307460D46387808B90820E8E03F
:10AFC00007F24A28BD7007214046FCF715F8B8790A
:10AFD00007F5117607F1240410B1B878012806D0DE
:10AFE000F87968B1B878012818BF022808D120691B
:10AFF00028B10121717308202169884700E070732E
:10B000000021781890F84B02002840F0C480491CB9
:10B010000629F6D36D1E032D18D8DFE805F00209C6
:10B020000F13BA7922B1217811B938B101200EE09D
:10B03000F97900291CBF0028022008D1387A08B10C
:10B04000032004E0787A08B1042000E00020B87002
:10B05000206980B1B878032818BF04280BD178790B
:10B0600048B1B07B38B9002131740120F07307205A
:10B070002169884701E00020F073182107F13C00A6
:10B08000FCF7BCF90120207607F1500507F12C00F0
:10B09000FFF784FF002819BFA0686870012169705C
:10B0A000207848B107F12C00FFF778FF002819BF7E
:10B0B0006068A8700121A9700020287007F50D793B
:10B0C000B978042953D8DFE801F051030F21370084
:10B0D0000120607300213160216280200221C4F8C8
:10B0E0001C802176A08442E0022120786173002830
:10B0F00019BF07212176032020763869A08400211A
:10B100003160C4F81C80F868206230E07869206201
:10B11000B9692078A184002819BF06212176012071
:10B1200020763846FFF7A4FE20B100F036F8F0B9DB
:10B13000052014E0032115E0F8692062396A2078BF
:10B14000A184002819BF06212176012020763846E7
:10B15000FFF78EFE28B100F020F840B9062060739A
:10B1600001E004216173C6F8009000E06073B878D4
:10B1700050B1316807F13C0207F1540072DF40B969
:10B18000217B287973DF20B9216909B1607B884769
:10B190000020BDE8F28301203CE702202870042152
:10B1A000384671E610B502880C46102A04F5127173
:10B1B00004D0112A08D0262A11D010BDC37B012B40
:10B1C00026D18088088010BD00228A728088098874
:10B1D000884204BF2279002A1AD101210DE0007AA9
:10B1E000012818BF022813D1A078401C052190FB2C
:10B1F000F1F101EB8101401AC1B22046FFF7D8FE00
:10B2000000281CBFA16B002902D0BDE810400847F0
:10B2100010BD704738B588B004460D4620216846F9
:10B22000FCF7ECF842F6A4229DF80D00ADF80020E2
:10B2300001218DF810108DF80C1040F008008DF8E9
:10B240000D0080210022ADF804108DF81120A87A9D
:10B250008DF81200E86828B19DF80E0040F001005A
:10B260008DF80E0004F116022088694600F006FCF5
:10B2700009B030BD78B50546A1B000200E4685F86E
:10B280002C003078032802D1287B010703E0062830
:10B2900003D1287B810705D422E0092820D1287B0F
:10B2A00081061DD56C68C4B184216846FCF7A6F8F8
:10B2B00000228DF80020B11CB6F88200ADF88200A3
:10B2C0000DF10200B6F88220FCF78CF8022085F818
:10B2D0002C0069462846A04702E0012085F82C0092
:10B2E00022B070BD10B513460A0001D0812901DBE0
:10B2F000092010BD04781C704A1EA3F88220411C4E
:10B3000092B2981CFCF76EF8002010BD032904D0FF
:10B31000062904D0092904D07047016A0847426A07
:10B320001047816A0847F8B5074608461146CB4AD8
:10B33000CB4C1D46141BE4082A462404FFF7D2FF19
:10B3400044F00104C74E30B131462046FCF7FFF906
:10B3500040F28110F2BD2878032814D006280DD0C1
:10B36000092803D1397B11F0300F10D106F12801E3
:10B370002046FCF7ECF94FF4C070F2BD387B10F0BA
:10B38000030F04D1F2E7387B10F00C0FEED0294602
:10B390003846FFF76FFF97F82C0030B106F15001E7
:10B3A0002046FCF7D4F94FF48470F2BD30B5044662
:10B3B00089B0227B12F02A0F0D4601D0286870B1A7
:10B3C00012F00C0F01D0286948B112F0030F01D020
:10B3D000686920B112F0300F03D0A86908B90E20B7
:10B3E00041E00021900748BF4FF40061900648BF3C
:10B3F00041F40031D00648BF41F48031D00748BF46
:10B4000041F48061100748BF41F02001500748BF58
:10B4100041F010018DF800100A0A090C8DF8021095
:10B420008DF80120202101A8FBF7E8FF9DF81110FD
:10B43000CDF80CD041F002018DF8111042F6A52094
:10B440000321ADF80810ADF80A10ADF80400002291
:10B45000697A8DF815108DF8162004F10E022088F7
:10B4600001A900F00BFB09B030BD000078B5A5B014
:10B4700004466846002200230025002680E86C0070
:10B480008A78022A04BF887A012802BF8888E28A63
:10B49000904227D102208DF8000004ABCA891031F8
:10B4A0002046FFF740FFADF8040000289DF8060095
:10B4B00004D000F0FE008DF806000DE040F0010021
:10B4C0008DF80600664A654873A100F0CDF89DF836
:10B4D00010102046FFF71AFF60886946B0DF08B1F8
:10B4E000A168884726B070BD38B5C2B00446802533
:10B4F0000846ADF8005011466B46498822AA00F074
:10B500002CF920B100F032F840F2811006E0BDF8CD
:10B51000002001AB22A92046FFF705FF43B030BD54
:10B5200018B5C3B0044600218020ADF8021023AB4B
:10B53000ADF800000193E18A60886A46ADDF28B962
:10B54000019802AA8021FFF7CDFE20B100F00EF88D
:10B5500040F2811008E09DF808102046FFF7D6FE63
:10B56000012084F82C00002044B010BD3B483C4A28
:10B570003C49801AC008000440F00100FCF7E7B81D
:10B5800038B5002818BF002906D02AB100F11604EA
:10B5900053882588AB4202D04FF4C07032BD137877
:10B5A000012B02D1BDE838409EE7002B04BFA37DEC
:10B5B000002B02D1BDE83840B2E7002032BD0A00BE
:10B5C00018BF002805D00388512B02D1011D104659
:10B5D0004CE7704708B90E20704741800020704743
:10B5E000F8B504460D0018BF002C01D10E20F2BDA5
:10B5F00001218DF8021041F61E02ADF8002005F180
:10B6000010032968616022466868A06004F1200088
:10B61000297A2173694693E8C01080E8C0104FF67C
:10B62000FF7060800120A8DFB0B929462046FFF7EF
:10B63000BDFE88B929462046FFF7ECFD60B9E868F1
:10B6400018B1E18A00F06BF8F2BD0448DFF8102071
:10B6500019A100F009F80020F2BD0000D80F030086
:10B66000C00F03005C140300801AC008000440F0FF
:10B670000300FCF76CB808B90E20704790F82C2036
:10B68000022A01D0082070474A1E9241D20F80F84A
:10B690002C20002070470000436F6E74726F6C2086
:10B6A000706F696E742077726974653A20537563A0
:10B6B0006365737300000000496E697420636F6DE9
:10B6C000706C6574652E000001460878497840EA80
:10B6D0000120704730B5002818BF002901D10E2085
:10B6E00030BD0278DE2A01D1082030BD0A684260F0
:10B6F000DE2303704FF6FF7400F10A02448000233A
:10B700001370537003730372D1E9014500F1140201
:10B71000C2E90045C968C1610374002030BD08B9A1
:10B720000E2070470278DE2A01D008207047037B84
:10B73000012B1CBF4269002A01D0028B0AB90420E8
:10B7400070470A0001D10720704700EB4302518186
:10B75000017B491C0173002070472DE9F84F05005B
:10B76000914618BFB9F1000F1F4600D00FB90E2047
:10B770002FE02878DE2818BF08202AD100260024D0
:10B78000ADF8001068698019FFF79EFF5FEA0008B6
:10B790001DD000F022F8824600F01FF88346BDF865
:10B7A0000000B61C80450DD10BEB0A043988A2B20B
:10B7B000914210D36869B3B2C1185A4609EB0A0026
:10B7C000FBF710FE5E44298BB6B28E42DADB3C807A
:10B7D0000020BDE8F28F0420FBE7B61C6869B1B217
:10B7E000084471E708B90E2070470278DE2A01D0BC
:10B7F000082070474180002070470246107A58B1F7
:10B80000508802F1140166DF10B1112802D1012025
:10B81000107270475168084770477FB50246684606
:10B82000002300240025002680E878004FF4C07330
:10B830000224ADF804308DF8004000200D8802F19C
:10B840000E0400E0401C137C984221D234F81030E2
:10B85000AB42F7D1ADF8046012E0401C137B984274
:10B860000ED202EB40046389AB42F6D1ADF804601E
:10B8700002F10E04107C431C1374098824F8101084
:10B8800069465088B0DF10B11674526890477FBD8A
:10B89000BDF804000028F3D00020DFE730B585B004
:10B8A00004466846002100220023002580E82E007F
:10B8B0000222ADF804108DF80020207C98B94FF4D6
:10B8C000C072ADF8042069466088B0DF002826D039
:10B8D0006168884723E0012000F023F8010018BFC9
:10B8E000ADF804006D1C217CA8B28842F3D36088B7
:10B8F0006946B0DF08B161688847BDF8040060B9E7
:10B90000002506E0002000F00CF80020ADF804004F
:10B910006D1C217CA8B28842F4D30020207405B0AD
:10B9200030BD8DF8100004F10E01AAB231F81200FA
:10B93000ADF8120004A9E2692046104738B584B07A
:10B9400004466946002000220023002581E82D00DE
:10B9500002228DF80020ADF804306088B0DF08B115
:10B9600061688847257405B030BD38B505460C00C0
:10B9700018BF002D53D02078DE2850D1A8886188C8
:10B98000884204BF2046FFF738FF2888012806D0E8
:10B99000022811D0112839D0512817D031BD297A69
:10B9A000012902BFA8886188884238D1012020720D
:10B9B0002046BDE8324020E7287A012802BFA88847
:10B9C000618888422BD10020207431BDA88861880D
:10B9D000884204BFA879022821D1A87B04280FD06F
:10B9E0001DD3062806D01AD205F108012046BDE86D
:10B9F0003440A3E705F108012046BDE834404DE797
:10BA000005F108012046BDE8344006E7A8886188B2
:10BA1000884204D14FF6FF7000216080217431BD4F
:10BA200001460878497840EA0120704780B5FFF761
:10BA3000F7FFFFE700F0010002BD38B504460D46F0
:10BA4000284602F005F92080656031BD0000000045
:10BA5000401E002204280A700FD8DFE800F003051A
:10BA600007090C00112007E0212202E0312003E049
:10BA700012220A707047222008707047F8B50F46EE
:10BA800090B00546B878002806BF01218DF80E1049
:10BA90008DF80E003888ADF80C001646032101A879
:10BAA000FBF7ACFC787C01A9FFF7D2FFB87C0DF165
:10BAB0000501FFF7CDFF9DF80610FA7B00F0A6F810
:10BAC0008DF8061001F0EF013A7C02B1012241EA43
:10BAD00002118DF8061001F0FE01387B00B1012043
