:020000040002F8
:1060000018550020F51D03009B740200FB89020057
:106010000B9802002B9802004B9802000000000031
:1060200000000000000000000000000083AE02003D
:10603000ABB80200000000005FBB020043C60200D4
:10604000D50903000BD8020061F00200FFDF020057
:1060500003E0020027E0020075E30200611C030078
:10606000A71C0300B31C0300B71E0300B91E0300E6
:10607000BB1E0300BD1E0300BF1E0300C11E0300A4
:10608000C31E030069CA0200C51E0300C71E030029
:10609000D5CA0200C91E030057CE0200CB1E030062
:1060A000CD1E0300CF1E0300D11E0300D31E03002C
:1060B000D51E0300D71E03000000000000000000F2
:1060C000D91E0300DB1E0300DD1E0300DF1E0300DC
:1060D000E11E0300E31E0300E51E0300E71E0300AC
:1060E000E91E0300EB1E0300ED1E0300000000008C
:1060F00000000000EF1E030000000000F11E03007E
:10610000000000000000000000000000000000008F
:10611000000000000000000000000000000000007F
:10612000000000000000000000000000000000006F
:10613000000000000000000000000000000000005F
:10614000000000000000000000000000000000004F
:10615000000000000000000000000000000000003F
:10616000000000000000000000000000000000002F
:10617000000000000000000000000000000000001F
:10618000000000000000000000000000000000000F
:1061900000000000000000000000000000000000FF
:1061A00000000000000000000000000000000000EF
:1061B00000000000000000000000000000000000DF
:1061C00000000000000000000000000000000000CF
:1061D00000000000000000000000000000000000BF
:1061E00000000000000000000000000000000000AF
:1061F000000000000000000000000000000000009F
:1062000070B504460025DFF88C6B301D50F8251062
:1062100009B1204688476D1C042DF6D370BD884215
:1062200005D2006810F1010F01D001207047002055
:106230007047418800EB81000C30704738B5044648
:106240000D46FFF7F6FF854201D2022032BDA1883C
:106250004FF6FF7291421CBF2088002801D1012017
:1062600032BD002032BD68B10168DFF82C2B9142AD
:1062700008D14068DFF8241B401A04D0401E01D129
:1062800001207047032070472DE9F04203460E4677
:1062900002201446308003F10805DFF81C7B03F56B
:1062A00080590DE0A868B96A814238BFB8626A882F
:1062B0003188D21C511831802846FFF7BAFF0546B5
:1062C00049462846FFF7ABFF68B149462846FFF725
:1062D000B5FF0028E6D00CB1012121700228E6D1DB
:1062E0004FF480603080BDE8F0828A7D032A04DBB1
:1062F000CB880289DB1C9A1802814289C988521A0C
:10630000D31E43817047000080B50020DFF8A81A33
:1063100002A28969009008230BE00000DEC0ADDE18
:10632000FF011EF180B50146002000905FF00803D8
:1063300001A200F0B1F902BDDEC0ADDEFE011EF12A
:1063400030B5C01C80B240F2FE32904201DB092021
:1063500030BD00231425DFF8D04A5D432C44227859
:106360003AB9228965891218AA1892B2B2F5806FDB
:1063700004DB5B1C022BEDDB072030BD0B80618949
:1063800040186081002030BD142210B5DFF8983A23
:10639000514319444C89201AC01E488110BD70B564
:1063A0000C4600F0A4F84168206801F5805518B942
:1063B00001F1080603E03046FFF73BFF0646294699
:1063C0003046FFF72CFF58B129463046FFF736FF1D
:1063D00018B1022804D0F2D2EDE72660012070BD8A
:1063E000002070BDF8B506460C467268DFF8C85943
:1063F000100024D0DFF8343ADF681146B94224BFD8
:106400001B698B421BD312F0030F02BF30892B890B
:10641000984202BF30689368984210D10020DFF89C
:10642000542A1425131D45435B598B423CBF03F589
:106430008053994215D3401C0228F2DB1AE0002059
:1064400020800022009220886946FFF7A8FF58B1FB
:106450000098326881689142F5D170602989318154
:1064600000E020800120F2BD2088401C208080B206
:106470000228E6DB0020F2BD2DE9F04100F0C8FB68
:1064800017461E4608B902202FE0002F18BF002E25
:1064900005D1052029E03060B188491CB180B08861
:1064A000022821DA1421DFF8CC294843105C0028A7
:1064B000F2D1B0883146FFF772FF0028EBD0306888
:1064C000002C1EBF828823889A42F2D1002D1EBF65
:1064D00002882B889A42ECD1816839607860B8F8DC
:1064E00008003881002000E00A20BDE8F081142176
:1064F000DFF8802948431044704710B50146DFF8A3
:10650000780900F00BFD04461C2100F075FD2046C3
:1065100010BD0146DFF8600900F022BD2DE9F84FFB
:106520004FF0000900254FF0030ACB46C846DFF8BC
:106530008848DFF8F808C1684FEA084201EB1217F3
:106540006B1C14209BB2DFF82C19009368430E18C3
:106550003846FFF788FEF0B1012828D003283DD146
:10656000002057F8201011F1010F47D1401CB0F561
:10657000806FF6D3A06930B102213170776031812C
:106580006580009D04E0A7610220A0834FF0010B0D
:1065900049F0010922E03070776006F1100206F13F
:1065A00008013846FFF770FE49F002092BE05FEA68
:1065B0000B0005D002203070A16971603081009D10
:1065C000A761002204F11C013846FFF75DFEA08B95
:1065D00002280CBF0420082040EA090908F101083C
:1065E0001FFA88F00228A4DD1FFA8AF00228B8BF3B
:1065F0004FF000095FFA89F0BDE8F28F7760032061
:10660000AAF1010A3070009DE8E738B50C46002574
:106610000146009504230FF6740200F03DF808B11E
:106620000E2032BD1420DFF84C28444310190121FC
:106630000174002032BD70B5DFF87C47DFF8E82731
:106640006188142041435518DFF8E007E96821B953
:10665000042626700023696805E002210522A18333
:1066600022700023A1690122BDE8704000F0AEBD98
:106670001CB5DFF84407416842684B88032101706C
:10668000DB1C8169808B00241B0401EB80010094DA
:106690009B0B00F001F816BDDFF8900700F018BD65
:1066A00080B5DFF81407011D4088FFF778FE10B1B0
:1066B000BDE80140DCE7BDE80140BCE7DFF8F806D3
:1066C000DFF8B02703781421072B00D9704730B5C5
:1066D000DFE803F0043131171F2C2C2F0489641CD0
:1066E000002304814380037301FB03F4145D641EE3
:1066F000A441C5185B1CE40F022BAC72F4DB012132
:1067000015E041684B88828BDB1C9A18828302213A
:106710000DE044888369614311444A6882614B609B
:10672000828B0A8102218183062203E00721017006
:1067300030BD0122027030BDF8B502460F20DFF8EF
:1067400078461AB1002060610120F2BD0A79DFF8B5
:1067500024571426032A3DD8DFE802F002071C283C
:1067600001200871FFF7D0FD34E0297800200229CC
:1067700008D116FB00F60020A855291D8859FFF7FF
:10678000D1FD27E0297D01200229F2D020740021CB
:106790006161EFE0002008710221A1830023A1695B
:1067A000DFF88806012200F011FD13E000200871D7
:1067B0002F1DA069FFF7B6FD6188A2694E43291D10
:1067C0008B59A361BA51A919A28B0A810223A38311
:1067D00000220A7010B1002060610E20F2BD00009E
:1067E000F8B50D461421AB8ADFF888264B43D6183E
:1067F00028B129463046FFF778FD0120F2BD7068C8
:106800003189DFF8287600EB8104A87D06285BD863
:10681000DFE800F011411E31044E570000211163E2
:1068200002F12801A869D06202F12C00FFF7DAFD1D
:1068300008B90A20F2BD0220A875002100910423A6
:106840002A1D2146384600F043FC10B30E243CE0DC
:106850002869002814BF03200120A8750423002004
:10686000009005F10C0204F10801384600F030FCFC
:106870000028EBD10DE00120A8750021009104F162
:106880000C01EB882A699B00384600F021FC0028A7
:10689000DCD100241DE0287803280CBF0520062049
:1068A000A87504230020009005F10802211DDCE7F3
:1068B0000620A875118D106BFFF7A7FE040004D108
:1068C00007E041F61D5400E00F2429463046FFF74B
:1068D0000CFD2046F2BD0000F8B508B10120F2BD64
:1068E000DFF8D444207B00281ABF00212173FFF772
:1068F000E5FE20781421401E0628DFF8782533D8DD
:10690000DFE800F004351C1F32222B000023002694
:1069100002F10C07E518A87A48B1AE7201FB03F545
:106920007859002802BF5019007C01281ED05B1C3A
:10693000022BEFDB2670668066601BE0BDE8F1404D
:1069400096E6BDE8F14076E6638806202070121DC9
:1069500059435058BDE8F240E4E40720207000217C
:106960006160BDE8F140CFE40F20F2BD6380BDE877
:10697000F14095E641F61D50F2BD00002DE9F04FC3
:10698000DFF834540FF208580FF2105A85B004465D
:1069900005F1C00605F1D00741F61D59E86A20B996
:1069A0003946304600F0ECFAE862E96A0878401EA1
:1069B00005285ED8DFE800F00310101414592046B3
:1069C000FFF7BAFE0446002C00F0A48000F0A5F802
:1069D0004C4551D100244FE02046FFF701FFF1E77D
:1069E0008B460CB1012445E09BF80400E8B1022875
:1069F00001D002D337E04C46E5E705F120036A46B3
:106A000000210BF10600FFF737FD040005D1A98C2A
:106A10000198FFF7FAFD044604E005F1200000218B
:106A2000C0E900110A2CCED1E5E702208BF8040062
:106A300001A998E81C0081E81C00DBF80C0001901B
:106A4000694601A8FFF7CEFC58B102988188ABF8DF
:106A500006100288ABF80820BDF80010FFF7D5FD3E
:106A6000B0E70A24AFE70F24ADE72046FFF734FF75
:106A7000A8E70F2400F051F8E86A01940178491E54
:106A8000052935D8DFE801F031281D11070305225B
:106A90008DF800202CE004218DF800100021C28820
:106AA000ADF80C20ADF80E1009E003218DF80010B0
:106AB000C288ADF80C200189ADF80E10C1680291B2
:106AC00016E0022100F02EF8C1680291807D0628B0
:106AD00014BF0021012105E0012100F023F800216D
:106AE000C06802908DF8101002E000218DF80010AF
:106AF0006846FFF785FB0020E8623946304600F023
:106B00006BFA012105F1300000F05AFC0024002846
:106B10007FF444AF05B0BDE8F08F684651461422BB
:106B200000F060BC8DF800100289ADF80C2081885F
:106B3000ADF80E10704780B50121DFF8400300F07A
:106B400027FC10B9BDE8024018E701BD406815E711
:106B50002DE9FE4300F05CF8994608B9022055E0A3
:106B60000DB9052052E028884FF6FF7188421ABF00
:106B700068880028042049D0287910F0030F07D135
:106B800042B9AF686946B8B2FFF7DAFB30B13DE011
:106B900003203BE01088ADF80000578801A8FFF7FC
:106BA000ACFC060006D1BDF80010B8B2FFF7ECFB54
:106BB00008202BE086F800900020B075BDF800108A
:106BC000B18201216868306108F1280000F0ECFB17
:106BD000F060B9F1030F288830816988B180F780AF
:106BE00003D10420B0752168B1610020708101A833
:106BF000FFF78FFC3CB100206060F1682160A0725B
:106C0000B8F808102181FFF796FF0020BDE8FE8349
:106C1000DFF8A481044698F810000D46704710B5BF
:106C20005C4A1168042901D10C2010BD136802EBE5
:106C3000830401216060104600F0B6FB002010BD07
:106C400038B586B001A8142100F0D8FB5A4C207C3E
:106C5000A0BB04F1140000F0BFFB002855D1DFF801
:106C60002002DFF8202201681068526811F1010F3C
:106C700004BF114641436D480161A1F54051C16017
:106C80000022DFF8041200F0F7F900283ED11C239F
:106C90008C2204F1340104F1C00000F009F9FFF77F
:106CA0003DFC050018BF022802D0062802D009E0EA
:106CB0000B202BE0012020740021616101A8FFF767
:106CC0009FFA22E000F097F808B908201EE00121A1
:106CD000012D18BF032D01700AD0052D18BF072DF7
:106CE0000DD0092D06D00A2D06D00B2D02D007E0BD
:106CF000002202E0032102E00222027100E00171A1
:106D00006846FFF706FCFFF716FF002007B030BD0E
:106D10007CB504000D4618BF002D01D1052076BDBD
:106D20006946FFF75FFB98B1BDF80030514A6668CD
:106D300014204343D01801210C3000F035FB2E60A5
:106D40000122606800F10C016960A272002076BD2A
:106D50000A2076BD1CB5040001D1052016BD694688
:106D6000FFF740FBA0B1BDF80020424814214A4380
:106D70008118C86800281CBFA07A002806D0C868FF
:106D8000401EC8600021A172002016BD062016BD5D
:106D90000A2016BD74340020DEC0ADDEFE011EF1F7
:106DA000022303E008B90520704703230022CFE641
:106DB0001F490446087C7047482D00201CB5FFF78A
:106DC000F7FF08B9022016BD4FF6FF718C4201D1C2
:106DD000042016BD00F00FF808B9082016BD0521E3
:106DE000017001220271C4806846FFF792FBFFF731
:106DF000A2FE002016BD6846FFF77FBB1CB50C4CF9
:106E0000207C08B9022016BDFFF7F5FF08B908205D
:106E100016BD062101706846FFF77BFB207808B19C
:106E200001212173E3E70000883300208026002041
:106E3000482D002003B581B002A901A8FFF71CFB73
:106E40000EBD01B513460A466946002004E001B5AF
:106E500013460A4600216846FFF70EFB02BD0028D4
:106E600018BF002901D10520704700680860002084
:106E70007047000088330020082E0020782D002065
:106E80001410001010000010641C03000000FFFF2D
:106E900000000000000000000000000000000000F2
:106EA00000000000000000000000000000000000E2
:106EB00050B509B90E2050BD144694FBF3F603FB00
:106EC00016440CB1092050BD01608460002141606E
:106ED0008281C381002050BD81B050E8022FC1885B
:106EE000B2EB324F4FF0000317BF92B241EA0141BB
:106EF00042EA014104E04268B2EB324F08BF01238D
:106F000040E80212002AE8D18DF800309DF8000018
:106F1000002814BF0020112001B070473CB550E894
:106F2000015FAAB2C3891A4483899A4228BFD21A40
:106F300003899A4202BFBFF32F8F002407E0C2EA01
:106F4000050240E80123002BE9D14FF0010400F0D5
:106F50003AF81AB100680988084436BD002036BDE9
:106F60000A8849888A4209D150E8011FC1EA0141D3
:106F700040E80112002AF7D1012070470020704735
:106F80003CB550E8025F1FFAA5F2C3889A4202BFDF
:106F9000BFF32F8F00240DE0C3891A4483899A42DE
:106FA00028BFD21AC5EA024240E80223002BE8D1EA
:106FB0004FF0010400F007F81AB10068498808444E
:106FC00036BD002036BD01958DF80040019B0B6059
:106FD0009DF80020704700000A8849888A4209D13C
:106FE00050E8021FC1EA214140E80212002AF7D10D
:106FF0000120704700207047002200F01FBAF0B453
:107000000246106895681318506803EB5004C007D7
:107010001DD54D441BE013F8017B05F8017B491E8B
:10702000F9D1A0B1B60813F8011B06F00306032E30
:1070300008BF13F8016B01EB06214942801C29446B
:1070400005D011F8016B05F8016B401EF9D1A34280
:107050000ED013F8016B16F0030104BF13F8011BE7
:10706000C91C30090F28DAD113F8010B0F30D6E70D
:10707000F0BC02F10C0070477CB5DFF8FC31DFF8A2
:10708000FC51DFF8FC415D1BED082D0445F00105C6
:107090000FF20C2328B90E26009621460FF2142277
:1070A00005E049B90E20009021460FF21022284633
:1070B00000F05EFB0E2076BD016011460268136889
:1070C00002B0BDE8704018475146384600F050BB4A
:1070D0002DE9FC4700F06BF80FF2F41900F060F8AE
:1070E00016461D4647F0010714B900F053F804E0B6
:1070F0003EB90E2000904B467AA2FFF7E5FF0E2026
:1071000041E0206818B900F057F808203BE025B9A5
:10711000092000904B4657A20BE060684068B5FB21
:10712000F0F100FB115040B1092000904B460AF1EC
:107130005402FFF7C9FF092025E018F0030F0DD115
:1071400016F003000ED12A464146204600F09AF878
:1071500080B900F01AF80AF1A40207E000F015F86F
:1071600062A203E000F011F80AF18002FFF7ACFF21
:10717000102008E00A9800902B4620462468E56815
:1071800032464146A847BDE8F687102000904B469E
:10719000704700000E2300934FEA090345A2704791
:1071A000DFF8DCA0C71BFF083F0488467047044691
:1071B0003148324F70470000082100914FEA09031F
:1071C00040A25146384600F0D3BA00002DE9FC47F2
:1071D000FFF7EDFF0FF22C18DFF8A490C71BFF0894
:1071E0003F040E4615469A4647F001074CB90E2358
:1071F000009349464FEA08032EA2FFF766FF0E20D0
:1072000036E0206840B90821009143462DA2494646
:10721000FFF75BFF08202BE045B9092000904346AB
:1072200014A24946FFF751FF092021E06068026877
:10723000511E0E420BD16A433146204600F022F81F
:1072400078B910200090434609F1F40204E01020C0
:107250000090434609F1CC024946FFF736FF102063
:1072600006E0204624682A46256953463146A84749
:10727000BDE8F6876C656E00F00D0300C00D0300DD
:10728000C4020300C368994207D300695118491E1C
:1072900088428041C043C00F704700207047000003
:1072A0006E72665F6673746F726167655F696E693F
:1072B00074000000705F667300000000705F617012
:1072C00069000000705F66732D3E705F6170690039
:1072D0006E72665F6673746F726167655F777269FD
:1072E00074650000705F7372630000006164647213
:1072F0005F69735F616C69676E65643332286465CA
:10730000737429006E72665F6673746F726167656D
:107310005F6572617365000010B5024652E8000FA8
:107320000C4642E8004393F0000FF7D110BD000077
:1073300010B5024652E8000F40EA010442E800435B
:1073400093F0000FF6D110BD10B5024652E8004F81
:1073500044EA010042E8000393F0000FF6D110BDAB
:1073600010B5024652E8000F00EA010442E800436B
:1073700093F0000FF6D110BD10B5024652E8004F51
:1073800004EA010042E8000393F0000FF6D110BDBB
:1073900010B5024652E8000F00EB010442E800433A
:1073A00093F0000FF6D110BD10B5024652E8004F21
:1073B00004EB010042E8000393F0000FF6D110BD8A
:1073C00010B5024652E8004FA4EB010042E800036A
:1073D00093F0000FF6D110BD0121A9E70121B3E719
:1073E0000021BDE74AB1000011F8013B521E00F830
:1073F000013B1CBF11F8013BF8E77047002200F089
:1074000047BB30B4002513E050F8042BD30744BF2A
:10741000A9F101039A18091F042942F8045BFAD262
:1074200013468C0744BF15809B1CC90748BF1D70BD
:1074300050F8041B0029E7D130BC7047401810F009
:10744000030308D0C91A1FD3DB0748BF00F8012D7A
:1074500028BF20F8022D130030B414461546103909
:1074600028BF20E93C00FAD8490728BF20E90C00D2
:1074700048BF40F8042D890028BF20F8022D48BFDE
:1074800000F8012D30BC7047C91818BF00F8012D55
:10749000CB0728BF00F8012D7047FEE780B5DFF865
:1074A000A405FF21002281600260426000F21440C6
:1074B000426002600273DFF8900500F002FB20B921
:1074C0000FF2B85000F0A7FB002002BD30B591B11B
:1074D000DFF87825DFF878150568DFF87835511A78
:1074E000002200E0521CB2EBD10F06D233F822404A
:1074F000AC42F7D10260002030BD052030BD01B59F
:107500006846FFF7E3FF28B9DFF84C05009950F80B
:10751000310002BD002002BD00000000491EDFF85E
:107520003825032902EBC0000BD8DFE801F0020484
:1075300006080220704704207047007970474079A0
:10754000704700207047024600201368C3F3800292
:107550009AB103F00300012802D0022807D00BE003
:107560000A68C3F38310801C82180A6004E008686C
:107570009B0D9B1C1B180B6001207047F8B5DFF8B2
:10758000C44484B004F58360FFF728FF04F2144577
:107590002846FFF723FF6068A7680090002600993F
:1075A00004F10C00394000EB81006946FFF7CBFF86
:1075B0000028F4D101AB009A04F10C013A4000F02C
:1075C000FBF9F8D90199BDF80A0001F0030101297E
:1075D0000AD002290FD1019906460098890DC91CCD
:1075E00000EB9100009006E0064601980099C0F378
:1075F0008310411800912846FFF7F2FE08B1009869
:107600006060304605B0F0BD80B50021DFF84C0465
:10761000FFF782FE80F3100002BD2DE9F84F04460B
:10762000884693461F460A9DDFF81894FFF7ECFF43
:1076300009F10C0A7E1C00042E4040EA1440E400CC
:107640004AF8260004F0380444EA8B14C4F3090411
:1076500009F10C0044EA88242F4044F0010440F86A
:107660002740BDE8F18F2DE9FC41884600218DF8C7
:1076700000101646DFF8CC730446684600F0DAFACC
:107680003868C8F80000A51CBA6839687868521CC8
:10769000511A411807F21C480FE001214046FFF73C
:1076A00083FEFFF76BFF01464046FFF77DFEB8689B
:1076B0003968401C411A78684118A942EDD32EB1AF
:1076C000A40104F4707444F0050402E0A40544F03D
:1076D00006043968B868014007EB8102D460396854
:1076E0009DF800006D183D6000F0C1FA0120BDE872
:1076F000F6812DE9FE43DFF84C6304460D469046C3
:107700009946B768012201A94846FFF7ACFFA8B126
:107710000198801C002108E007EA000206EB8202C3
:1077200058F82130D360401C491C4945F4D30097D8
:107730004A46019B29462046FFF76FFF96F8200432
:1077400018B100F02DF80028FBD1BDE8F783002325
:107750000022CEE780B50092012300F012F801BDAF
:10776000E0B5009201936A460223FFF7C2FF07BD0E
:107770001FB5069C009201930294032300F001F8C8
:107780001FBD6A46B5E77FB5089D099E009201932B
:10779000029503960423FFF7F4FF05B060BD0000D7
:1077A0002DE9F847A74E70683168884285B024D02B
:1077B00006F582670020B860BFF34F8F7068B46829
:1077C000009006F10C000099214000EB810005E0DB
:1077D00006F10C0004EA010200EB82006946FFF7A3
:1077E000B2FE002800F0CB80B868002840F0C780C7
:1077F000306800998142EBD370600020BCE00299B0
:1078000065F39F51029105F1080100F05CF95FEA10
:10781000000A4ED000F09EF900F0C8F80098204011
:10782000641C241AA40006F10C01AC4201EB800197
:1078300019D234B9284606F10C014FF00008002592
:1078400003E0204606F10C082D1BC4B20823224693
:10785000504600F0D4F9B8F1000F09D004F1080344
:10786000EAB2414601E008232A46504600F0C7F933
:10787000009809F1030100EB9100009039E00299B2
:1078800001F0030101295AD10299029AC1F383112F
:107890000529C8BF062122F4707242EA81120292C1
:1078A0000299C1F38311891C890000F00CF95FEA89
:1078B000000A44D000F04EF900F078F84FF00809C3
:1078C0004FF0000810E00098411C009106F10C05F3
:1078D000204005EB80014B460422504600F08FF912
:1078E00009F1040908F101080298C0F383108045EA
:1078F000E9D33C68B86870B1504600F02FF933E026
:10790000E0684179012904D1226813685146204674
:107910009847E0680468002CF2D1504600F01EF948
:1079200000208DF8040001A800F084F9B86808B9B7
:10793000009870609DF8040000F099F914E03C682C
:1079400005E021688A6820469047E0680468002CBA
:10795000F7D14348DFF8F82043A1801AC00800049B
:1079600040F00200FFF7F3FE7068316888420CBFF8
:107970000120002080F0010006B0BDE8F087002063
:1079800002AB009A06F10C01224000F015F8F8D97C
:1079900002992D4801F0030102297FF470AF029D86
:1079A000AD0DA946502DA8BF502528E70023082279
:1079B00002A9504600F023B951F8221043F82010D4
:1079C000401C0099491C01280091704730B50246BF
:1079D00000201C4BD3F8101400E0096889B1C96875
:1079E0000C798442F9D1401C0A28F3DB4FF0FF30B8
:1079F00030BDC9680D682560D3F81034D9680A60B5
:107A000030BD10F1010FFBD0D1680871D3F810140C
:107A1000D4680029EDD1C3F81024216030BD10B521
:107A2000104804680121017408E0E16801224A71EC
:107A30002046226851688847E0680468002CF4D129
:107A400010BD000094260020901D0300780E030056
:107A5000C00D030000000000C00D0300B02A00208C
:107A6000F80D0300A42A00204261636B656E647305
:107A700020666C7573686564000000005C3000204F
:107A80007F0000004834002062F30F2262F31F429F
:107A900000B500BF130096469446103928BFA0E8F1
:107AA0000C50FAD85FEA417C28BF0CC048BF40F8B0
:107AB000042BC90728BF20F8022B48BF00F8012B70
:107AC00000BD00F0EFB82DE9F04105460F462E8AC3
:107AD00000F0FFF8361F040021D0F7190020012123
:107AE000FF1C20716171A046B7FBF6F7E680FFB27C
:107AF0007F1EC8F80050002607E06179491C6171BB
:107B0000C8F8000005608046761CBE4209D22846AF
:107B100000F0DFF80028F0D1204600F005F8002042
:107B200000E02046BDE8F081F8B501460D464C79ED
:107B3000601E002200E0521C2D688242FBD300260A
:107B400005E00F68284600F0E7F83946761CA642A3
:107B5000F7D3F1BD0121001DFFF726BC1CB504467B
:107B60000121201DFFF72CFC00909DF8000018B9A2
:107B70002046BDE81640D7E713BD2DE9F04714466F
:107B8000B0F806804279256846465643361F5F198D
:107B900003F1040CBE42BCFBF8F234BFF31A2B46CF
:107BA00008FB12CC2360002A01E00068521EFCD1C1
:107BB000A8EB0C029A469342089F4FF0000988BF39
:107BC00092460E4605461C46BCB105EB0C00001D56
:107BD00006EB0903390052460EBF19460146184606
:107BE000FFF700FC2D68A4EB0A04D14444454FF094
:107BF000000CA246E8D9C246E6E7BDE8F0871CB50E
:107C00000192002402E01CB501920124009401AA13
:107C1000FFF7B3FF13BD80680021816001614161FE
:107C2000C160416001607047EFF3108072B6704729
:107C300062B6704738B50446FFF7F6FF154A9168FB
:107C400071B9012393601449144B1D680D401560F0
:107C50001960596851604FF0FF325A60002100E00E
:107C60000121217010B9BDE83140E1E731BD10B507
:107C7000084CA16869B160B9FFF7D6FF08492268CE
:107C80000A6063684B600021A16010B9BDE8104034
:107C9000CEE710BDC4340020FC06FFBD80E100E04B
:107CA00000E100E010B508B90E2010BD036842687D
:107CB00081681A60891A03E013685C1C14601970EB
:107CC0000B46591EDBB20268002BF5D10020107163
:107CD00010BD38B5044600258DF800506846FFF702
:107CE000A9FF21686268086882420FD2421E0A60BA
:107CF0001578208AE36845431D44A36820689A1AD2
:107D00000379D2B29A4238BF1A460A719DF8000030
:107D1000FFF7ADFF284632BD38B50C4600210546B9
:107D20008DF800106846FFF785FF286801684A1C37
:107D30000260E8682A8A241AB4FBF2F20A709DF8FD
:107D40000000FFF794FF31BDDFF82C16497800F0F2
:107D50003FBCDFF82416C97800F03ABC10B50446E1
:107D6000608800F066FDA0802046BDE8104000F06D
:107D700054BF38B586B004460D4668460FF24461DC
:107D800000F097F8ADF80240029500F095F807B0C2
:107D900030BDF8B586B004460D4616461F46684607
:107DA0000FF2506100F085F8DFF8CC050178ADF8EE
:107DB00002408DF80850ADF80A608DF80C70002272
:107DC000204600F01CFC00F077F807B0F0BD134629
:107DD0000A460021DDE72DE9F843DFF89C45894696
:107DE00021780646904600F0F3FBC0B33046FFF71B
:107DF000ABFF70B3A178304600F0EAFB002814BF57
:107E00000127022706F58070072180B201F023FACE
:107E1000040018BF052C14D0DFF8605501F05CFA9F
:107E20000246DFF85C05DFF85C15401BC008000463
:107E3000334640F00100FFF793FC21463046FFF740
:107E400098FF43464A463946304601B0BDE8F04304
:107E50009FE7424649463046BDE8F843B7E7BDE8EC
:107E6000F183F8B5DFF810750E461446397886B000
:107E70000546324600F0C3FBCEB12200797818BF28
:107E80000122284600F0BBFB012CB9780CBF01226F
:107E90000022284600F0B3FB68460FF2105100F0B4
:107EA00008F8ADF802508DF8084000F005F807B06A
:107EB000F0BD1822FFF796BA68464FE7FEB50646B2
:107EC00006F10C0000F0F0FC002407464FF6FF75A9
:107ED00039463088A94203D100F0ABFC074601E0E7
:107EE00000F026FD308800220121FFF7BAFF384656
:107EF000A84212D001AA072101F032F968B902980C
:107F000000F13405297CC80706D406F10C0105F1FF
:107F1000120000F0B4FC00B12C463088002300228F
:107F2000214686DF050016D001F0D6F90246DFF8BB
:107F30005004DFF84844DFF850140097001BC008D5
:107F40003388000440F00100FFF712FC3088294616
:107F5000FFF70FFFF7BD24B9308841F20601FFF7A4
:107F600036FFF7BD10B586B0044618216846FFF706
:107F700045FA04228DF80020ADF8024010E010B55B
:107F800086B002238DF800300488ADF802404079B5
:107F9000C0F3800000B902208DF808008DF80910A8
:107FA000FFF78AFF06B010BD2DE9F84D064689B0EF
:107FB000DFF8C433B6F8008019780022404600F09C
:107FC0001EFB70790024C0F38000002838D008F52B
:107FD000807001AB00F003F90546DFF8A403DFF879
:107FE0009C73DFF8A8A3C71BFF083F0447F00107F5
:107FF00055B1284601F070F90246434651463846CD
:10800000FFF7AEFB294628E040464FF6FF7500F02B
:1080100010FC29468842834628D1029800F0ECFBE8
:10802000A84283460ED05946404600F081FC00F03D
:1080300027F9D8B94046FFF795FF00F021F9A8B914
:10804000002129E001F06AFBA842834609D10AF128
:108050005C013846FFF77BFB04214046FFF789FEB1
:10806000EEE75946404600F063FC012408F58070B5
:108070005A46072180B201F0F8F805000BD0862D92
:108080000ED103A80FF25431FFF713FFADF80E80A5
:1080900003A8FFF763FE01213046FFF770FF16E0EB
:1080A00001F01AF90246CDF800B043460AF19001FA
:1080B0003846FFF75DFB29464046FFF75AFE002190
:1080C0003046FFF75CFF14B1584600F038FC0AB0A8
:1080D000BDE8F08D10B504462078182802D100F0D4
:1080E0006EFA207010BD10B5A34C2046FFF7F2FFCA
:1080F000601CFFF7EFFFA01CFFF7ECFFE01CFFF791
:10810000E9FF207818281CBF6078182805D0A078CF
:1081100018281CBFE07818280BD19948974A9C4929
:10812000801AC008000440F00100FFF710FB032094
:1081300010BD002010BD00002DE9FC470D46904900
:108140008E4FDFF85092CF1BFF083F0416461C46A7
:1081500047F0010834B900BF90A249464046FFF7F6
:10816000F9FA11E082460AF580706B4600F037F8A4
:1081700011280AD058B101F0AFF80246534609F170
:1081800034014046FFF7ECFA0320BDE8F68701987A
:108190005021FEF731FF01980570019901F134007B
:1081A0002060E660019800F1180121610198411CEE
:1081B0007948E0616161019800F11101504600F0D9
:1081C00048FB0028E1D001F087F80246534609F148
:1081D000980147F00200FFF7C3FA0820D5E7012213
:1081E000072180B200F0BFBF2DE9F84388B0804678
:1081F0000C46914600F0AAF9054620216846FFF793
:10820000FDF80027012D5C4E04D1F1780022404694
:1082100000F0F5F915B943F202002EE00CB98527FC
:1082200023E0404600F005FB4FF6FF7188420BD07B
:10823000012D09D100F024F830B94046FFF792FE35
:1082400000F01EF800B985272078C10704D4311D3D
:10825000CDF80C90079108E0852F06D06B464A4672
:1082600029464046FFF768FF38B9012D6B460CBF21
:1082700022460022394640467FDF09B0BDE8F08340
:10828000404666E538B505460C4600F05FF9012822
:1082900008D1002044B1214628467EDF042803D1BE
:1082A000112032BD43F2020032BD000038B5044651
:1082B00086B02088112808D013280FD0142827D082
:1082C000192829D01A2834D053E0217A3D290CBF2F
:1082D00041F23D014FF48851002226E0A08800F0D1
:1082E00035F9012808D1207AC1074CBF01220222AA
:1082F000A0880121FFF7B5FDA58800BF43A168460E
:10830000FFF7D7FD04F10801ADF8025002912EE00D
:10831000201DFFF7D3FD2CE0217A19B9201DFFF7AE
:1083200043FE26E0627A02F00302A088FFF753FDC5
:108330001FE0A088FFF708FDD8B9A08800F024F955
:1083400030B9A088012241F20601FFF740FD10E09C
:1083500009480178A088002200F051F902208DF828
:1083600000000022A188ADF80210ADF80820FFF748
:10837000A3FD07B030BD0000D8250020C00D0300CC
:10838000680E03006C150300B0130300380A0300E5
:1083900020140300200B0300DC2500207365635FBD
:1083A0006B65797365745F66696C6C000100000031
:1083B00000000000000000000000000000000000BD
:1083C00000000000070000000000000000000000A6
:1083D0000000000000000000000000000600000097
:1083E000000000000000000000000000000000008D
:1083F000000000000300000000000000000000007A
:108400000000000000000000000000000500000067
:10841000000000000000000000000000000000005C
:108420000000000033B58BB00021044600910C9889
:1084300080B1002529460CA801F0B7F938B10099A0
:10844000684600EB410295800098401C00906D1C2E
:10845000142DEFD3204669462C22FEF7C3FF0DB042
:1084600030BD01468A4801F0A0B92DE9F84306461F
:108470008CB03088B488864D102804D0112838D0AC
:108480001A283AD057E0AA68D24300926846696831
:10849000FEF772FF009901A8FFF7C4FF4FF0000933
:1084A0000EE002A8002730F81980281D414600EB95
:1084B000870001F06BF97F1C1D2FF6D309F101092C
:1084C00001988145EDD3142C03DB042001F09EF9C3
:1084D00031E0214605F1080001F042F92146281D4E
:1084E00001F03EF9F07B012825D0214605F10C0072
:1084F00014E0214605F108001BE0307A000902284B
:108500000FDBCCBF01260026214605F1100001F04B
:1085100027F9002E214605F114000AD001F020F9B8
:1085200009E0214605F1100001F030F9214605F17E
:10853000140001F02BF90DB0BDE8F08301461429B9
:10854000BCBF544801F031B90020704738B500F085
:1085500026F8002538B121464F4801F026F90028B9
:1085600014BF02250125284632BD38B500F017F8A2
:10857000002538B12146494801F017F9002814BFF9
:1085800002250125284632BD10B500F008F828B1B3
:108590002146BDE81040424801F007B910BD04462D
:1085A000CCE710B5FFF7FBFF28B12146BDE810402E
:1085B0003C4801F0FAB810BD3549496832E780B54A
:1085C0001821334801F0FAF8182818BFC0B202BDCC
:1085D00038B504460D462846FFF743FF68B12046EC
:1085E000FFF7ACFF48B12A4800EB8502214602F1B3
:1085F0001800BDE8344001F0D8B8002032BD70B595
:1086000004460D4616462846FFF72BFF98B1204634
:10861000FFF794FF78B11E48002E00EB850021463D
:1086200004D0BDE87040183001F09AB8BDE8704041
:10863000183001F0ABB870BDF1B50C4620001546FE
:1086400001D10020F2BD0098002660B10027394614
:10865000684601F0AAF818B12946B8B2A047761CBE
:108660007F1C142FF3D33046F2BD70B504460D467F
:108670001646FFF7F6FE40B1054800EB840332468C
:1086800098692946BDE87040D6E770BD000000003B
:10869000583100205C31002064310020603100201E
:1086A000683100206C3100200022815C21B9521C0D
:1086B000102AFAD3002070470120704780B50028A7
:1086C00018BF002905D002780B785208B2EB530F7F
:1086D00001D0002002BD0622491C401C01F0A6F872
:1086E000401E8041C00F02BD01460A88102A00D0FA
:1086F000704738B594B003A8091D2C22FEF772FE0E
:108700009DF8100040084FF6FF7503282C4615D041
:1087100000F07AFF9DF81000400802D0022834D003
:108720000CD200F081F848B1029800F1110104A8C0
:10873000FFF7C4FF0028F4D0BDF80040BDF80C10CE
:108740000A204143DFF81C0244520144881C04A95A
:108750000722FEF747FEAC420ED0BDF80C10ADF874
:108760003A10ADF83C4000218DF838100EA801F009
:1087700010F90EA801F084FC15B030BD0298411C20
:1087800004A800F019F90028D6D100F04DF800280F
:10879000F4D1D3E770B504460D461022691C601C65
:1087A00001F044F850B9601CFFF77EFF30B1681C3F
:1087B000FFF77AFF060002D0012600E0002605F14F
:1087C000110104F11100FFF779FF617C49080229CA
:1087D00018BF03290CD0697C4908022918BF032956
:1087E00006D0012130B981F001010E40304670BD44
:1087F0000021F8E70126F9E73EB504460D4600F0F2
:1088000003FF00F011F860B1BDF80000A842F8D0F5
:1088100002992046FFF7BEFF0028F2D0BDF8000005
:108820003EBD4FF6FF703EBD01AA6946072000F02D
:10883000F0BE10B50446142C02DAFFF77FFE10B923
:108840004FF6FF7010BD0A20DFF818114443085B93
:1088500010BD38B50546142D0C4602DAFFF76EFE42
:1088600010B943F2020032BD0A213E4A4D4351196C
:108870002046891C0722FEF7B5FD002032BD38B521
:1088800004460D4600F047F818B120882988884230
:1088900001D0002032BD0822A91CA01C00F0C6FF98
:1088A000401E8041C00F32BD1FB5044600F0ACFE33
:1088B000FFF7BAFF88B1029800F146012046FFF7A2
:1088C000DEFF38B9029800F12A012046FFF7D7FFF2
:1088D0000028EDD0BDF8000001E04FF6FF7004B0B5
:1088E00010BDF8B54FF6FF74A04205460FD0002723
:1088F0001C4EB8B20A214843305AA84203D1B8B23C
:10890000FFF71CFE28B97F1CB8B21428F1DB204603
:10891000F2BDB8B2F2BD018841B900228118897850
:1089200021B9521C082AF9D3002070470120704752
:10893000142803DA0A220B4B50431952704738B5FA
:108940000446FFF7CEFF0546204600F0C6FB38B9C7
:10895000142D05DA0A21034B4D434FF6FF725A538B
:1089600032BD00001C2E002038B50D468CB01446D8
:1089700000214A420244D27B0DF80120491C1029F3
:10898000F7D30D2104A8FEF739FD00204342295CEE
:108990000DEB0302401C0328D177F7D3684646DF6E
:1089A000002042420DEB020191F82F302354401C6D
:1089B0000328F6D30DB030BD3EB504460D462078F1
:1089C0004008022801D000203EBD0322611C02A8FD
:1089D000FEF708FD0322211D6846FEF703FD01AAEC
:1089E00069462846FFF7C0FF032201A902A800F04C
:1089F0001DFF401E8041C00F3EBDFEE700F0C3BF1B
:108A000038B5044610460022112908BF0122DFF8BC
:108A1000BC5320B1297B2046FFF7F1FD0022697A83
:108A20002046BDE83840FFF7EABD2DE9F0410C00D3
:108A30001CBF112C082C86B00746154644D068464A
:108A40001821FEF7DBFCADF802703846FFF7F1FEA7
:108A5000ADF80400DFF87863DFF87803DFF8788397
:108A6000861BF60836040D2C19D13A46414646F0CD
:108A70000200FEF76FFE03208DF8000025B1287874
:108A8000C10748BF012000D40220002141F2011299
:108A90008DF808008DF80C10ADF80A2011E0204682
:108AA00000F01AFC02463B4608F1B80146F001000E
:108AB000FEF756FE07218DF80010029400218DF874
:108AC0000C106846FFF79AFFA4E038B586B014464C
:108AD00005228DF80020ADF802000D46FFF7A9FE33
:108AE000ADF80400029503946846FFF787FF07B0CE
:108AF00030BD2DE9F04781460F46380086B09046DC
:108B00001D46B24C27D00026424631464846FFF764
:108B1000B9FB8246002251464846FFF771FF5FEAE3
:108B20000A0018BF082833D00B2818BF0D282FD0F3
:108B3000112804D043F20201884229D02AE0E17AC8
:108B40003A464846FFF75BFDA17A42464846FFF7A2
:108B500056FD00272DE0684600210022002380E812
:108B60000E0026690096694691E80C4003A8002192
:108B700080E80C4003AA4846FFF7A7FF207A039E2F
:108B8000002804BF9DF815000028BDD1052017E07E
:108B900057460EE08E4F00F09FFB02468D488F49EE
:108BA000C01BC00800044B4640F00100FEF7D8FD92
:108BB000032725B1324651464846FFF736FF38466F
:108BC00006B0BDE8F0872DE9F04186B0044603A861
:108BD00000220023002580E82C007C4D28690390AA
:108BE00003AE96E880416B466A4683E880412046A2
:108BF000FFF76BFF6A6900992046FFF7F5FA054613
:108C0000012229462046FFF7FBFE009A294620460E
:108C1000FFF70BFF06B0BDE8F08110B504462078E1
:108C2000052802D0122805D01EE0A1686088BDE8A2
:108C30001040C8E7654A1069002178B11078237A9E
:108C400003B1012300F001029A4207D3627A40087F
:108C500002B1012200F00100904200D2012160889F
:108C600001230022FFF745FF2046BDE81040C5E67E
:108C70000021A8E770B5554DA97A0446FFF7A8FC76
:108C80000646E97A2046FFF7A3FC01463246204615
:108C9000BDE8704001232CE710B5007808380328A0
:108CA00001D90B3803D1494C4D49207B32E010BD2E
:108CB00010B504462078182802D1FFF780FC2070F8
:108CC00010BD10B5414C04F10900FFF7F1FF04F1AC
:108CD0000A00FFF7EDFF04F10B00FFF7E9FF04F1D5
:108CE0000C00FFF7E5FF207B18280BD13948384AE4
:108CF0003C49801AC008000440F00100FEF727FD3F
:108D0000032010BD002010BD10B5304CFFF7CEFA87
:108D1000207B33490022FFF7A8FC607A3249BDE886
:108D200010400022FFF7A1BCB0B30278910701D434
:108D3000130631D4C2F3021104292DDC02F0F20132
:108D4000322929D0417883788B4225D3072923DB28
:108D5000112B21DAC178C1F38003002B02BF007907
:108D6000C0F38003002B17D1C1F3C003002B04BF55
:108D7000C0F3C003002B0FD1D20701F0030106D4CA
:108D8000002908BF10F0030F06D101207047002909
:108D900008BF10F0030FF8D10020704738B5040069
:108DA0000A4D04D1012100202972286132BDFFF74C
:108DB000BBFF48B1284621460522FEF713FB0120E0
:108DC00028722D61002032BD072032BD1C260020F4
:108DD000C00D0300700E030054060300AC1703001F
:108DE000718C020090140300758C02000A46002367
:108DF00000217EE64FF6FF7101800022FF21817085
:108E0000417202724260817A01F0FC018172704706
:108E100030B50A68DFF8083400E0521C042A07D293
:108E20000C2454431D5B8542F7D10A60181930BDEC
:108E3000002030BD38B50D46002204460092694638
:108E4000FFF7E6FF01000ED08878A84204BF8B7AB6
:108E500013F0030F01D1486828B10098401C00901E
:108E600069462046ECE7084632BD70B50446002549
:108E7000DFF8AC6307E0617A6918C9B206F1300027
:108E800001F0DAFA6D1C207A8542F4D32046BDE861
:108E90007040AFE770B5044600250FF2244656F83F
:108EA0002510204688476D1C042DF8D370BD8170B5
:108EB000426050214B439BB2DB1C9B1003807047E8
:108EC0007CB504460FF20840DFF85853DFF85863CA
:108ED000D0E90023CDE90023A0788DF80200617A63
:108EE000DFF8480301F092FADFF844134D1BED0858
:108EF0002D04024645F001052AB9627A314628461A
:108F0000FEF728FC4AE0237AA1786846FFF7CFFFF6
:108F10009DF80200012818BF062808D007280AD0AB
:108F200008280BD1019881880931890800E00121C6
:108F3000ADF8001002E01422ADF80020221D2088B8
:108F4000694600F08EFB0200BA4906D0072826D0F9
:108F5000112807D086280FD017E0A17A01F0FC0174
:108F6000A17276BDA07A00F0FE0040F00200A0726F
:108F700001200870002076BDA27A02F0FD0242F0C6
:108F80000102A27201220A7076BD00F0A5F92388C1
:108F9000024606F140012846FEF7E2FB032076BDBB
:108FA0002DE9F041A34E8046307886B0C8B100214B
:108FB000317000279A4D0C247C432819817A11F0D6
:108FC000030F0BD0C1F340010122002908BF5FEA63
:108FD0000801327002D0FFF773FF28B97F1C042FFD
:108FE000E9D306B0BDE8F0814FF6FF72ADF802207C
:108FF00086282B5BADF8043003D106218DF80010D4
:1090000010E007228DF80020029000228DF80C203D
:1090100000F062F92B5B834C8749024600F099F817
:10902000FEF79EFB6846FFF735FFDAE770B50446AA
:109030000025E16800220C23794853431844466810
:109040008E4203D0521C042AF5DB00202278082A25
:1090500005D0092A09D0132A08BF012511E0617A39
:1090600079B970B1FFF701FF0BE0617A49B940B1FE
:10907000827A416042F00202827201206D490870DA
:1090800002E02046FFF706FF2846BDE8704087E76C
:109090003EB50024624D0C2060432844FFF7AAFE31
:1090A000641C032CF7D9502004210190009105F590
:1090B000C0734FF4A07205F1400105F1300001F0DA
:1090C00059F948B100F008F902465948DFF854311F
:1090D00073A100F0B9F803203EBD3EB5002205465D
:1090E000019201A904E00198401C019001A92846C1
:1090F000FFF78EFE040024D0A178284600F0ABF8DC
:10910000002818BF0528EED000F0E6F80246A07847
:10911000444C4A4900902B4600F01BF8FEF728FB10
:109120000DE000F0D9F8034641483E4C4449001B8D
:10913000C00800042A4640F00100FEF711FB03209E
:109140003EBD284600F0EEFA0028F9D00728E8D105
:109150003EBD3748001BC008000440F001007047C6
:10916000002300F019BA2DE9F84381465FEA0308AD
:109170000D46164608BF0E204FD0072D18BF082DEC
:1091800002D10EB1052E01D3072046E0FFF752FEB3
:10919000002704001BD1FF214FF6FF70FFF74AFEA6
:1091A000040012D0A4F80090A570607ADFF87090E7
:1091B000FF2812D1314609F1300001F0F3F8FF2801
:1091C000607209D12046FFF715FE112025E0207AB4
:1091D000B042EAD00F2020E00127617A267209F11F
:1091E000300001F013F938B911480E4B627A154975
:1091F00000F02AF8032010E00246B3B229464046A8
:10920000FFF755FE47B1082D06D1B8F800008000E1
:10921000811FD8F8040081800020BDE8F28300009F
:10922000B82A0020C00D030040130300E82A0020E4
:10923000500E0300153500209C1603002C0F030070
:10924000840F03005C120300C01AC008000440F041
:109250000100FEF77FBA80B5FFF7ECFD08B90520E5
:1092600002BDFFF702FE002002BD70B50D46072DBE
:1092700018BF082D0446164603D1304600F05EFAAA
:1092800008B9072070BD29462046FFF7D3FD08B96D
:10929000052070BD06808570BDE8704010E60000B6
:1092A000504D5F4255464645525F494E4954282924
:1092B0002072657475726E65642025732E0000003F
:1092C00091980200998C020025A60200B3A002002A
:1092D000000000000000000080B500F003F800B9B5
:1092E0000FA002BD10B50D4901F5947200E01A46B9
:1092F00091420FD2531ADB1003EBD3735B1001EBD7
:10930000C3031C68A042F2D3844238BF03F10801B2
:10931000EED301E0002010BD586810BD0804030022
:10932000556E6B6E6F776E206572726F7220636F11
:10933000646500004FF6FF714180FFF777BEB0F51E
:10934000404F05DB4FF6FF71884201D00120704786
:1093500000207047072818BF012808D0082818BF28
:10936000052804D006281CBF0928042801D10120A3
:10937000704700207047F0B5DFF880538BB00020B5
:109380002870CDE900004FF6FF74204603E0304618
:1093900001F0A5F8304601F0EBF80646A64230D0C1
:1093A000A6F580476A4602A9B8B2FDF750FD0A2823
:1093B000EDD0B8B2FDF702FD0446082C02D1012021
:1093C00028701EE0ECB1DFF83803DFF83853DFF81F
:1093D0003813401BC00800043346224640F0010009
:1093E000FEF7BEF905A80FF260311822FDF7FAFF6B
:1093F00001218DF82010ADF81860079405A8FFF73B
:1094000099FF0BB0F0BD7CB504460D4616462846C4
:10941000FFF7A0FF0021CDE90011A4F58040A5F5DC
:1094200080416B46324689B280B2FDF703FD00B140
:10943000052076BDF8B586B0064668461821FDF7CA
:10944000DDFFB789DFF8B44207F58047ADF8047057
:109450004FF6FF753078401E022804D9C01E2CD06C
:10946000401E3FD04CE0B089FFF769FF28B9F08972
:10947000B0F5404F44DBA84242D0F0898DF8080097
:10948000317803290CBF012000208DF80900B06855
:109490000390706848B908208DF800009DF810000E
:1094A00040F001008DF8100027E009228DF800201F
:1094B000049001228DF814201FE0B089FFF73FFFD0
:1094C000F0B1F089E0B9706830B90A208DF8000079
:1094D000B8B201F004F802E00B2200F017F8012105
:1094E00021700AE0706818B913208DF8000002E0BE
:1094F000142200F00BF8ADF804506846FFF71AFF8D
:10950000207808B1FFF737FF07B0F0BD8DF80020D5
:10951000029001228DF80C20704730B5794C7B48C1
:109520007B4D87B0FDF77BFB75490C1BE4082404D9
:10953000024644F001042AB129462046FEF70AF902
:10954000032027E0FDF77CFB38B1024605F144011A
:109550002046FEF7FFF886201CE000F085FF002182
:10956000CDE900110DE002A904A8FDF7D1FB029896
:10957000848804A8FDF7EEFB04F58044A0B200F057
:109580009DFF6A4604A94CF20700FDF75AFC00282B
:10959000E9D0002007B030BDF0B5B0F5807F85B0D0
:1095A00006460F4615461C4603DA3846FFF7D2FE3C
:1095B00008B9072017E002AA39463046FFF723FF13
:1095C00020B9694602A8FDF7A3FB08B105200AE00F
:1095D000AF70009846882E803CB90198686002A858
:1095E000FDF7B8FB002005B0F0BD20880199B6005A
:1095F0003746B04238BF064668683246FDF7F2FE8D
:10960000BE42ECD20C20EEE742480021C0E9001136
:10961000704778B585B005460C461646FFF79AFEAA
:10962000E0B1A5F580403B4A02A980B2FDF709FCF4
:1096300020B9694602A8FDF76BFB08B100200EE0D7
:10964000B5700098418831800198706000998888D1
:1096500000F58040208002A8FDF77CFB012006B0C9
:1096600070BD70B5B0F5807F86B005460E461446D5
:1096700003DAB078FFF76EFE08B907203BE0A5F5E6
:109680008040ADF80000B178A1F58040ADF802004F
:109690002846716801913288029203AAB178FFF7D7
:1096A000B2FE0528694603A802D1FDF779FB01E067
:1096B000FDF778FB010006D007280DD0082818BF59
:1096C0000E2807D00AE01CB1214603A8FDF7C7FB0E
:1096D000002010E011200EE086200CE00246084831
:1096E000084C0D49001BC00800042B4640F0010047
:1096F000FEF736F8032006B070BD000014350020D8
:10970000480E0300C00D03005018030035940200FA
:109710006810030004350020541703004FF6FF7053
:1097200000F0CCBE80B5B0F5807F01DB072002BD24
:1097300000F0C6FEFFF71FFE002002BD00F0DBBEFA
:1097400000F003BF00F014BF07000000000000009D
:109750000000000000000000000000000000000009
:109760000B46012103F01F025B09914000EB8300CF
:10977000FDF7EABD10B50A4602F01F0401215209A7
:10978000A14000EB8200FDF7D3FD0AE00B4601216A
:1097900003F01F0291405B09C94300EB8300FDF712
:1097A000EBBDE04000F0010010BD4A0950F8220076
:1097B00001F01F01C84000F001007047F8B50446F1
:1097C0000D46002614E054F82600C04300F016F8B9
:1097D0003CBF07EB4617AF4209D239462046FFF798
:1097E000C9FF0028EFD13846F2BD2846F2BD761CED
:1097F000681E4009401C8642F7D2E4E790FAA0F0C8
:10980000B0FA80F7FFB2202F7047FEE71FB5694618
:1098100000220023002481E81C0002906A460021F7
:1098200044F2010000F0AAFE1FBDFEE70300002085
:10983000521E22BF13F8010B11F801CBB0EB0C0044
:10984000F6D0521C08BF10467047FEE770B50446BC
:109850000025DFF8246506E006F11001204651F8E6
:10986000252090476D1CF0788542F5DB70BD10B562
:10987000DFF804450023002204F10C01201D00F054
:10988000AFF9002816BF052801200020607010BD28
:10989000F8B5044686B0A088DFF8DC54FFF721F85D
:1098A000012760804FF6FF762278A968A878083AE9
:1098B000032A49D8DFE802F0021D2A4EAB886878F7
:1098C000627A4AB951B1E268914207D10020A8609A
:1098D000A188A980E06038E0012A36D1002834D080
:1098E000A088984204BF217A06292ED1FFF7BFFF36
:1098F0002BE0607A48BB41B3E068814225D1E8683B
:109900000021401EA960E860E1601EE0A0B1304681
:10991000FFF716FFB0420FD13046FFF713FFB042FA
:109920000AD100F057F90C2100F026F82046FFF785
:109930008DFF00F04DF90027687828B1A088A9882C
:10994000884208BFFFF793FF17B12046FFF77EFF5D
:1099500007B0F0BD0028F8D000F03CF90D2100F070
:109960000BF8A0680290207B8DF80C002046FFF7D2
:109970006DFF00F02DF9EBE78DF80010ADF80460F5
:10998000ADF802607047002818BFFFF75FBF70474F
:109990005CE75BE710B500F0CEF850B12046FEF76B
:1099A000A3FE2046FFF7B0F92046BDE8104000F0C6
:1099B00011BC10BD70B5FFF7B0FDDFF8C013DFF8C4
:1099C000C0430FF2D035DFF8BC630C1BE40824045D
:1099D00044F0010428B1FFF77FFC03462A463146D4
:1099E00030E0FFF755FB30B1FFF776FC03462A461F
:1099F00006F12C0126E0FFF764F930B1FFF76CFCAB
:109A000003462A4606F158011CE0FEF76CFB30B114
:109A1000FFF762FC03462A4606F1840112E000F0DB
:109A200086FB30B1FFF758FC03462A4606F1B00129
:109A300008E000F000FE50B1FFF74EFC03462A4656
:109A400006F1DC012046FDF78BFE032070BDDFF838
:109A500028034FF6FF7100228180826000210122DD
:109A600041700270002070BDDFF80C23117809B935
:109A700008207047D178032901DB0420704702EBEE
:109A80008103491C1861D17000207047DFF8E8227B
:109A90001178002918BFFFF781B90820704780B5F9
:109AA000DFF8D4321A780AB9082002BDFFF79EF910
:109AB000082808BF112002BD38B50C46DFF8B812DF
:109AC0000546087808B9082032BD0CB90E2032BD11
:109AD0002846FEF74AFD10B943F2020032BD217854
:109AE00002280CBF0120002001F0FE010843207075
:109AF0002846FEF79EFE4FF6FF718842217814BF7C
:109B00000120002001F0F70141EAC0012170284640
:109B1000FEF73AFD217801F0FD0141EA4001217094
:109B20002846FEF73EFD217801F0FB0141EA800165
:109B30002170002032BDDFF84012044608787047DB
:109B40008D4A1178002918BFFEF7F9BE082070472A
:109B500070B5894D287886B008B9082015E0012035
:109B6000A8704FF6FF742046FFF7EAFDA0420646B4
:109B700015D100F02FF80C218DF80010ADF804403D
:109B8000ADF8024000F024F8002006B070BD304669
:109B9000FEF7D5FE48B93046FFF7D2FD0646A6428D
:109BA000F2D028780028F2D10820FFF795FB034671
:109BB0007248734C79A27449009600F002F80320B1
:109BC000E3E7001BC008000440F00100FDF7D0BD32
:109BD00068463BE60020A87018216846FDF70EBCD9
:109BE0002DE9F34F6449087885B014461D4608B93D
:109BF000082053E04FF6FF7804274046FFF7A0FD0A
:109C000000210191ADF800700DF1040767A18346B2
:109C1000D1E90023CDE90223039700F042F80027A1
:109C200007284FF0FF394646C24610D1052035E0DF
:109C30000198B84224BF07465E4648453CBF81466E
:109C4000DA465846FFF77CFD834600F02AF80028E4
:109C5000EED00528F5D0C34511D14645059916BF6C
:109C6000C2450520002001B10E80069901B10F60A8
:109C70000CB1A4F800A08DB1C5F800900EE0404CE6
:109C8000FFF72AFB02463D484049001BC00800047C
:109C90005B4640F00100FDF763FD032007B0BDE81F
:109CA000F08F6B4602AA0621FFF776BC70B5324EE4
:109CB0000546307888B008B908205BE03DA0D0E9BF
:109CC0000023CDE90623707808B9FFF7D0FD70783E
:109CD00008B1B06808B111244BE0B288F068954231
:109CE0001ED110B318216846FDF788FB08208DF8B7
:109CF000000000242846FEF7F4FDADF8020006211E
:109D00009DF810008DF8081000F0FE008DF810008E
:109D1000ADF804508DF809400394FFF759FF28E08F
:109D200010F1010F08BF132423D0401CF06006F18E
:109D3000080206A92846FFF794FC040019D0F16830
:109D40000020491E112C1CBF862C072CB060F1602E
:109D50000FD02046FFF7C0FA02460848084C0C49CD
:109D6000001BC00800042B4640F00100FDF7F8FC82
:109D70000324204608B070BD2C340020580E030088
:109D8000C00D0300780703009C180300E4180300CB
:109D9000B0190300706D5F696E697400706D5F705B
:109DA000656572735F64656C657465000000000032
:109DB000000000000100060038340020BFF35F8F70
:109DC00000210160704710B504466088FEF731FD40
:109DD000A0802046BDE81040FFF7DABD38B586B058
:109DE00004460D4668460FF2145100F00DF9ADF827
:109DF0000240029500F0B2F807B030BD2DE9F04204
:109E000086B00446684618210025FDF7F7FA4FF69C
:109E1000FF708442ADF802403ED0204600F060FC66
:109E20000746DFF8A004DFF8A064DFF8A094861BE3
:109E3000F6083604380008D00B280CD0112808D0BA
:109E400043F20201884220D011E00E228DF800205A
:109E50000AE0012519E00F208DF80000224649464E
:109E600046F00200FDF776FC00F078F80DE0FFF711
:109E700033FA0246234609F1800146F00100FDF75E
:109E80006FFC39462046FFF7A9FFDFF8440441780C
:109E90002A462046FEF7B3FB06B0BDE8F0820A462C
:109EA000DFF82C140978FEF7AABBA7E72DE9F04DDF
:109EB0008046DFF81C4486B0012104F10800FDF75C
:109EC0002BFABFF35F8F002845D1404600F0B9FB65
:109ED0008346DFF8F003DFF8F053DFF8F8A3451B03
:109EE000ED08002600272D045FEA0B001AD0112888
:109EF00016D0862804D043F20201884222D013E013
:109F000068460FF2104100F07FF8ADF8028042463B
:109F1000514645F00200FDF71DFC00F01FF811E06E
:109F200001260FE001270DE0FFF7D6F90246434670
:109F30000AF1380145F00100FDF712FC5946404690
:109F4000FFF74CFF31464046FFF7A9FF1FB904F168
:109F50000800FFF733FF06B0BDE8F08D684632E732
:109F60002DE9F843DFF86863F17886B08046FEF7A4
:109F70002FFB002847D1404600F002FC01270025B6
:109F80008146C0B1062818BF08280DD011281CBF73
:109F900043F2020188422ED043F20141884215D19A
:109FA0004046FFF72BFF26E04046FEF742FC00F05C
:109FB00019FC00271FE068460FF2703100F024F80A
:109FC000ADF80280FFF7CAFF012514E0FFF784F91E
:109FD0000246DFF8F002DFF8F042DFF8FC12001B67
:109FE000C0080004434640F00100FDF7B9FB4946B4
:109FF0004046FFF7F3FEB1783A4600F05FF9F1789A
:10A000002A4600F05BF955E11822FDF7EBB9B0489C
:10A01000B24980780022FEF728BB82B06946002250
:10A020000A60012342F6A622ADF800208DF8023026
:10A030000FF2C4221368019301AAA0DF02B0704797
:10A040001CB50446FEF7F5FB00236A460921FFF71D
:10A05000A3FA052805D19E48017901222046FEF782
:10A06000CEFA13BD10B59A4C9D4920780022FEF718
:10A07000FCFA20B920799B49BDE81040CAE710BD21
:10A0800038B50446207898B96088FFF7B7FE658830
:10A09000284600F066FB28B18D48817801222846C9
:10A0A000FEF7ADFA6088FFF7CBFFBDE83140D9E796
:10A0B00031BD7CB506463078082804BF707A002888
:10A0C00032D1317A824D01294FF6FF7411D0072920
:10A0D00002D0082921D027E0B088FEF702FCA04278
:10A0E000054621D00121FFF7DAFE2846FFF7A8FF39
:10A0F0001AE0B0886A46FFF733F8A8B901990878E2
:10A1000090B1B088FEF7EDFBA0420DD0A9780122F6
:10A11000FEF775FAFFF77BFF06E0A868012804BF89
:10A1200005F10800FFF74AFEFFF79CFF73BD10B56D
:10A13000674CFEF744FA2070FEF741FA6070FEF7B4
:10A140003EFAA070FEF73BFAE070FEF738FA21788D
:10A15000207118291CBF6178182906D0A178182908
:10A160001EBFE178182918280BD15648564A5E4977
:10A17000801AC008000440F00100FDF7E8FA03204F
:10A1800010BD0020A060BFF35F8F10BD3EB500BFC3
:10A190006EA20029D2E90045CDE9004514BF0FF2B7
:10A1A000A4110FF2A4110191FEF743FB00226946AE
:10A1B000FFF757FA60B1FFF78FF802464148424B6C
:10A1C0004A49C01AC008000440F00200FDF7C2FA74
:10A1D00037BD00002DE9F843074686B03888B7F848
:10A1E00004803B4C352832D050281ED0522802D053
:10A1F000542804D057E04046FFF700FE53E068467D
:10A2000054A1FFF701FFADF802804046FEF711FBB5
:10A21000ADF8040000F0E6FAE17800F04EF8A1781D
:10A2200000F04BF8FFF79AFE3DE0387B012804BFB1
:10A23000B87A012802BF388942F60211884232D129
:10A2400001214046FFF72BFEFFF70CFF2BE02179A1
:10A2500000F033F8FA880026B2F5857F1FD0194840
:10A26000194DDFF88C90451BED082D0445F00205D3
:10A270000AB149460CE07A89012A04D009F13C016F
:10A280002846FDF767FABA89012A05D009F1780155
:10A290002846FDF75FFA02E0B87B00B1012631469F
:10A2A0004046FFF773FF607812490022FEF7DDF9A0
:10A2B000FFF7ADFE07B0BDE8F08300224046FEF791
:10A2C0009EB90000C80D0300C00D0300EC0C030094
:10A2D000D03400206C11030070190300619F02004C
:10A2E000AD9E02001BA00200D01203003C1603002A
:10A2F000780E0300AB9E02000100FFFF0700000084
:10A30000000000000000000000000000000000004D
:10A310000000000006000000000000000000000037
:10A32000000000000000000000000000100000001D
:10A33000000000000000000000000000000000001D
:10A340000000000001000000000000000100090002
:10A3500000000000110000000000000000000000EC
:10A36000000000000000000000000000BFF35F8F4D
:10A37000FFF71BBA70B5002818BF002910D07BB1B9
:10A38000059C049D04FB05F6B24209D3002D18BFBD
:10A39000002C05D0016043608560C460002070BD62
:10A3A000072070BD2DE9B84104001CBF20680028BB
:10A3B000884628D0606830B3FF2500270AE0E9B25C
:10A3C000204600F039F86D1CE8B2B842F7DBFF25F3
:10A3D0007F1CFFB2A068874215D260683946FFF73C
:10A3E000C9F9401E8041C00FBFF35F8F08D0FF2D19
:10A3F00008BF3D46781B401C4045E9D1284603E094
:10A40000FF2DE5D0E0E7FF20BDE8B28138B50400BC
:10A410001CBF206800280D460CD06068002818BFBB
:10A42000FF2907D0FFF7A2FF20B1E068216845436C
:10A43000481932BD002032BD38B504001CBF206869
:10A4400000280D460FD06068002818BFFF290AD0E9
:10A45000FFF78CFF38B16068BFF35F8F2946BDE816
:10A460003440FFF793B931BD40214248FCF7C6BFE5
:10A4700070B504464FF6FF75AC4208462E460AD129
:10A480004FF48071FFF79AF9064680B2B0F5807FED
:10A4900009D12E4607E02146B1F5807F03DAFFF7A8
:10A4A00069F900B92646B0B270BD0A460146B1F559
:10A4B000807FBCBF1046FFF769B970472D49D7E7C9
:10A4C00010B54FF6FF718842044606D02A49FFF7BF
:10A4D000CFFFA04201D1012010BD002010BD38B532
:10A4E000244D04462946FFF7E0FF05F120012046F0
:10A4F000BDE83440D9E70146B0F5807FBCBF1D48B8
:10A50000FFF753B9002070470146B0F5807FBCBF0C
:10A510001948FFF74AB90020704770B54FF6FF762B
:10A52000B0420D4608BF002404D0441CA0B2B0F5D0
:10A53000807F08DAA1B22846FFF737F908B1A0B248
:10A5400070BD641CF2E7304670BD38B5094D294630
:10A55000FFF7E3FF4FF6FF729042044606D0FFF785
:10A56000D3FF00281CBF29462046F1D1204632BD2A
:10A570000149D2E7483300206833002010B572B695
:10A58000FDF74DFAFDF70CF90028FBD11048114CEE
:10A590001149041BE408240444F00100FDF7D7F836
:10A5A0000E480168CA0700D500BE0D4944F00200FC
:10A5B000FDF7CDF8BFF34F8F0A490B480A6802F444
:10A5C000E06202430A60BFF34F8F00BFFDE700BFA8
:10A5D000F80D0300C00D0300C01C0300F0ED00E007
:10A5E000CC1C03000CED00E00400FA053EB500BFF2
:10A5F00082A00022D0E90045CDE900456946724CB1
:10A600002088FFF72EF8014620884FF6FF7290420F
:10A6100018BF112905D0FFF793F820800022694662
:10A62000EFE737BD684801884FF6FF72914218BFC7
:10A63000FFF7DCBF704764494FF6FF7008800020C9
:10A6400070472DE9FE430546FEF7F3F84FF6FF711C
:10A650008046884208BF43F2020030D00127DFF86D
:10A660006C916B46BAB208214046FEF77CFD00268D
:10A6700004467F1C84BB019803210160021D811DDB
:10A6800003232846B2DF04001BD00C2C20D1012666
:10A6900008214046FEF7DFFD70B1FEF71DFE0346C0
:10A6A0004B484C4C001BC00800044246494640F051
:10A6B0000100FDF755F80324002ED2D12046BDE855
:10A6C000FE83424608214046FEF7CFFD0446F5E7EB
:10A6D000052CDDD10024DBE7072CEFD10C24EDE7BE
:10A6E0002DE9FC418046FEF7A4F80026002703244C
:10A6F00001254FF6FF72904208D06A460821FEF706
:10A700002FFD18B9019887880468861D31463A469E
:10A71000234602E00021002203234046B1DF042843
:10A7200003D0082806D1002000E0112005B90B2035
:10A73000BDE8F6810B28F9D10025980748BF012311
:10A74000EBD4002908BF002AE4D12148214B22493B
:10A75000C01AC0080004424640F00100FCF7FAFFAE
:10A76000E5E7E0B5CDF808D0FEF763F801AA0121CE
:10A77000FEF7F6FC08B100200EBD029800780EBD71
:10A7800010B50346154C2046B3DF00284FF6FF7284
:10A7900011D0FEF7A1FD02460D480E4B1049C01A1C
:10A7A000C008000440F00100FCF7D4FF032010BDF6
:10A7B0002088401C208018462188AFDF43F2030127
:10A7C0008842F5D010BD000010350020EC100300C9
:10A7D000D00D0300C00D0300E4110300123500206A
:10A7E00004180300E0B500BF06A1D1E90023CDE9BC
:10A7F000002369460022FEF734FF07BD0100010077
:10A80000F01C030001000100F41C03001CB5044609
:10A8100000F094FB204600F0C9FB2078022802D00B
:10A820000C280ED013BD6946DFF89C0500F073FEBE
:10A8300008B1FEF7EBFF9DF8000028B100F024F806
:10A8400013BD002000F084F913BD10B5DFF87C457E
:10A85000214604F53B7000F089FEC1B24FF6FE724E
:10A8600004F1440000F041FF002818BF08280AD076
:10A8700013281EBF112843F20141884203D0BDE8CE
:10A880001040FEF7C3BF10BD38B5DFF8404594F85F
:10A890002000002888B044D100218DF8001001224A
:10A8A0008DF801208DF8022004F1100104F53D70AF
:10A8B00000F05CFE6FF0010202908DF804208DF82C
:10A8C0000C2000EBC0000521B0FBF1F0DFF8001513
:10A8D00000F54860D1E900230490CDE9052388798B
:10A8E0001B30C2B204253C2A8DF81C5008DB4A7983
:10A8F000521C4A713C38D2B23C2AA4BF00224A7191
:10A900008871694604F1580000F0D7FD010002D0BB
:10A91000082806D003E0012084F8200001E0FEF7BB
:10A9200075FF09B030BD087810B1022801D070471A
:10A93000AAE7DFF89814002081F820007047FEF79E
:10A9400065BF38B59CB0DFF88C04DFF88044069012
:10A9500006A904F1880000F028FF08B1FEF756FFB1
:10A9600000210022CDE900128DF8062004F15800E4
:10A97000DFF86414009102218DF807108DF804109F
:10A9800001218DF80510694600F031FD08B1FEF790
:10A990003DFF02A8002100220023002580E82E00B0
:10A9A00001218DF815108DF816108DF817108DF8FF
:10A9B0000C10029364218DF81410049302A904F181
:10A9C000440000F06EFE08B1FEF720FF40210CA805
:10A9D000FCF714FD0FF240410CA800F07FFF0FF2CE
:10A9E0004C410EA800F07AFFDFF8F023DFF8F013F7
:10A9F0000A911123CDE90823012108AA18928DF8A4
:10AA00006C100CA801F0DEF808B1FEF7FFFE1DB0D7
:10AA100030BD007840B9DFF8B423508C3B2176DF9D
:10AA2000002818BFFEF7F2BE7047FEF7EFBE80B5F4
:10AA3000002001F0E0FA08B1FEF7E8FE01F0A5FB06
:10AA400008B1FEF7E3FE33DF00B111E001BD80B5D0
:10AA500060B103280BD100F08EF80FF2E03100F066
:10AA60008DF8022001F0C7FA08B101E06DE001BDE8
:10AA7000BDE80240FEF7CABE38B50446DFF86413ED
:10AA8000DFF864032288DFF84453081AC008000482
:10AA9000102A40F0030008D0112A17D0212A20D014
:10AAA0003B2A18BF562A25D031BD0FF2A431FCF73E
:10AAB0004EFE072001F09FFA08B1FEF7A7FEA1881D
:10AAC000698405F1880000F084FE16E00FF28C31F5
:10AAD000FCF73DFE4FF6FF706884002185F82010DA
:10AAE00031BD0FF29C300188ADF800106946A08896
:10AAF0008FDF02E0A088132176DF08B1FEF786FE23
:10AB000031BD80B5B1494A8C04284FF6FF7307D098
:10AB1000072809D00A2802D00E2810D001BD14E061
:10AB20001321104676DF05E09A420DD101F1940021
:10AB300001F06AFD082818BF002805D098E79A425E
:10AB400002D0BDE801409FE601BDBDE801406EE7CF
:10AB500080B5012840F0088000F00DF8C3A100F096
:10AB60000DF8FEF7F5FF03E00321A04801F01AFC01
:10AB700000B17DE701BD9B489B4A7047801AC00821
:10AB8000000440F00300FCF7E2BD000078B5ABB074
:10AB90004FF400410020FCF781FC08B1FEF736FEBF
:10ABA00001F050FD01F097FF08B1FEF72FFE904A2B
:10ABB000B2A0012101F0B0FF08B1FEF727FE8D49D8
:10ABC000032001F023FA08B1FEF720FE69460020B9
:10ABD00001F02BFB08B1FEF719FE9DF800000228DA
:10ABE0000CBF0124002401F0FFFF08B1FEF70EFEA8
:10ABF00002F0AAF808B1FEF709FE002000906946AD
:10AC0000012002F03DF908B1FEF700FE684602F0AF
:10AC1000B5F908B1FEF7FAFD11208DF800000A22FF
:10AC20007AA168467CDF08B1FEF7F0FD4FF4407072
:10AC300078DF08B1FEF7EAFD01A90020C1E90000B4
:10AC4000ADF808004FF4C8714FF44872ADF8041025
:10AC5000ADF80620ADF80A1001A87ADF08B1FEF7BA
:10AC6000D5FD5A4D002105F1740002F054FA08B1E7
:10AC7000FEF7CCFDAC216846FCF7C0FB02218DF845
:10AC80000010012206218DF803108DF8022005F531
:10AC90003F7103220591ADF810201FA82821012241
:10ACA000C1608DF87C2044F2506253498162026198
:10ACB00005F194066946304601F0F6FA08B1FEF750
:10ACC000A5FD0121304601F0ECFAFFF73AFE5120D4
:10ACD0006421286069600122AA602A73294605F56B
:10ACE0003B7000F039FC40F6686040F684712861E2
:10ACF000696124200021A861297705F53D7005F1DF
:10AD0000100100F029FC1C216846FCF777FB0021AC
:10AD100000914FF420324FF47021019202910322EE
:10AD200000218DF80C20ADF80E108DF8101068463B
:10AD30003249334A0591069202F050FB08B1FEF702
:10AD400065FDFEF737FE08B1FEF760FD0521684698
:10AD5000FCF754FB31208DF8000007219DF803001B
:10AD60008DF8011040F003008DF8030010229DF8CB
:10AD700004008DF8022040F003008DF804006846BE
:10AD8000FEF784FE08B1FEF741FD1E48FEF76CFE9B
:10AD900008B1FEF73BFDFFF7EEFE1B49FFF7EEFEA5
:10ADA00000224FF4803105F1240001F0C8FE08B103
:10ADB000FEF72CFD2046FFF7CBFEFCF7F1FC002848
:10ADC000FBD101F01EFFF8E76822002010220020CE
:10ADD000182500203FA9020027A90200554433226C
:10ADE00088776600F80D0300C00D0300A422002040
:10ADF0004BA8020003AB02004FAA020013AA0200F4
:10AE00002BAA02000DA80200201B03004E6F7264E3
:10AE100069635F48545300004E6F72646963536501
:10AE20006D69636F6E647563746F72004E532D4865
:10AE300054532D4558414D504C45000046617374A4
:10AE4000206164766572746973696E672E00000014
:10AE5000436F6E6E65637465642E000044697363AE
:10AE60006F6E6E65637465642E00000045726173D9
:10AE70006520626F6E6473210000000034220020A0
:10AE80000000FEE72DE9F845054643F2020669B9E0
:10AE90006946FEF711FEB0421CBF0028FEF7B6FC63
:10AEA0009DF80000C0F34000002844D1002128464E
:10AEB000FEF7F5FD040018BF112C3CD0DFF890031D
:10AEC000DFF89073DFF89083C71BFF083F040D2C59
:10AED00047F0020A12D12A4641465046FCF73AFC96
:10AEE0001321284676DF30B3FEF7F6F902462B46EB
:10AEF00008F174015046FCF733FC1CE00B2C03D125
:10AF00002A4608F1AC0104E0B44206D12A4608F50D
:10AF100086715046FCF71EFC0DE02046FEF7DCF97A
:10AF200002462B4608F5AC7147F00100FCF718FC0F
:10AF30002046FEF76BFCBDE8F185A3E710B504469B
:10AF400000F0E6F8207818B96088BDE810407DE18F
:10AF500007280FD1DFF8F802DFF8F8220FF20C31E2
:10AF6000801AC008000440F00100FCF7F0FBA06864
:10AF700000B167E110BD80B586B068460FF2803140
:10AF80001822FCF72FFA684600F010F807B000BD51
:10AF900010B586B0044668461821FCF72FFAADF8C4
:10AFA0000440684600F002F806B010BD2DE9FC41EF
:10AFB0000446DFF8A852217869B1022927D0062972
:10AFC0002ED0082918BF0A2975D0132976D0142944
:10AFD00000F0908099E0A088FEF768FE862818BFF0
:10AFE00011280DD16869A1882A1D22F81010401C73
:10AFF000811000EB5172D210A0EBC200686182E0B8
:10B0000006281CBF0728132809D000284FE0207A03
:10B01000012818BF002878D1A088FFF7B9FF74E095
:10B020002878002871D18A498A4E8E1BF60836048A
:10B0300046F003070FF240213846FCF788FB68789A
:10B04000B0B900236A460021FEF7CAFD0400DFF80C
:10B05000108217D1BDF8002041463846FCF77AFB34
:10B06000BDF80000FEF76CFD040007D101206870F8
:10B07000FBF7C4FED0B90120287046E0FEF7C6FBFE
:10B0800001206870052C04D10FF2082146F0010060
:10B0900005E0062C06D108F12C0146F00200FCF771
:10B0A00056FB32E0002CE3D0204601E008282CD0EB
:10B0B000FEF7ACFB29E00120687026E000216C69F6
:10B0C000297069700026A119881001EB5072D21006
:10B0D000281DA1EBC20230F812004FF6FF73984210
:10B0E00004D0291D21F81230FFF752FF761C082EDC
:10B0F000E9DB0AE000212970207B30B1A0680E282E
:10B1000018BF012801D1FFF736FFBDE8F381000029
:10B110002DE9FE4307464E484E4E3A78DFF84491FB
:10B12000514C861BF608360446F0030846F001052C
:10B13000142A46F0020600F27980DFE802F07E7EF3
:10B140000B1C7E7E2E327E384C5058607E677E7E91
:10B150007E7E71007888FDF7F9F909F10C013A7AE1
:10B1600051F822100091214659F820207B88404652
:10B17000FCF7FEFA61E07888FDF7E8F9798901913A
:10B1800009F10C023B7A52F82310009104F14001BE
:10B1900059F820207B8840461AE000BF45A1304680
:10B1A00028E000F04CF8024604F194012CE03869E4
:10B1B000FEF792F80190787A09EB80010A6C009210
:10B1C000387ABA8809EB800130468B6904F1C001F6
:10B1D000FCF7D9FA31E0BA8804F5867114E000F082
:10B1E0002EF80346BA8804F59A71284613E000BF8A
:10B1F00036A1404603B0BDE8F043FCF7A8BA00F022
:10B200001EF8024604F5B271284611E0BB887A8820
:10B2100004F5C471304603B0BDE8F043FCF7A0BAB2
:10B2200000F00DF8024604F5E27100E02CA1304672
:10B2300003B0BDE8F043FCF78DBABDE8F783B8680A
:10B24000FEF74AB8BDE81040FEF7E0BA002174E608
:10B25000600E0300C00D030030FE0200C025002078
:10B2600000150300782500203CFC02004173736543
:10B270007274696E672E0000417474656D70746934
:10B280006E6720746F20636C65616E20666C6173FD
:10B29000682E0000546865726520617265206E6FCB
:10B2A00020706565727320746F2064656C657465C9
:10B2B0002E000000466C6173682073746F726167C2
:10B2C000652069732066756C6C000000416C6C2011
:10B2D00070656572732064656C657465642E00002A
:10B2E000556E657870656374656420504D20657691
:10B2F000656E742049443A20307825782E0000008D
:10B300000600000000000000000000000000000037
:10B3100000000000000000001CB50C460188102948
:10B3200006D0112907D0502909D0532917D013BDB1
:10B330008088E08213BD4FF6FF71E18213BDC188A2
:10B340006289914204BF038A022B13D1216889B11B
:10B35000123000F0B5FA401E8041C00F04E0C088F2
:10B36000E188884206D102208DF8000069462268F3
:10B370002046904713BD30B50878002400B1012461
:10B380004B780BB144F0020428B191F90C300869F4
:10B3900044F0010402E091F90430886820F07F4015
:10B3A00040EA03605070030A050C000E10719370A0
:10B3B000D5700523487880B1888A507144F0020422
:10B3C000000A9071887DD071CB7D1372087E507217
:10B3D0004B7E93720C23887ED072887820B1087FD0
:10B3E000D05444F004045B1C1470D8B230BD38B59E
:10B3F0000D4696B00446286820604FF6FF71E18242
:10B400000121E87920768DF8021041F60903ADF8A4
:10B410000030221D69460120A8DF00284BD12021E1
:10B4200001A8FBF7EBFF20210EA8FBF7E7FF42F690
:10B430001C20ADF8040009AA0EA92046FFF79BFFC7
:10B44000ADF80A0009AA1420ADF8080001219DF802
:10B450001100039240F020008DF811008DF81010BB
:10B46000A21D28798DF8170001A9A08800F056FACE
:10B4700008BBA879F0B1202101A8FBF7BFFF9DF818
:10B48000110042F61D21ADF80410012240F0020027
:10B49000ADF808208DF8110069798DF81510ADF818
:10B4A0000A20E91D039104F10E02A08801A900F011
:10B4B00035FA00B9002017B030BD70B504468AB027
:10B4C000E38A4FF6FF75AB4222D00025002605AA7D
:10B4D000FFF751FF00210023024601A8ADF800202C
:10B4E00080E86A00E188ADF80410022305A98DF810
:10B4F0000630ADF80850CDF80CD0049101A9E08ACF
:10B50000AEDF30B9BDF80010914202D00C2000E04F
:10B5100008200AB070BD3EB50D4601A900220023E7
:10B52000C1E90023ADF80630CDF808D00222ADF80D
:10B53000042001AA4189C08AADDF040005D1684614
:10B5400000F0BEF9287020463EBD43F2014084421F
:10B55000F9D12B7000203EBD0A7B002A19BF496833
:10B5600000220968012202710160704710B504468B
:10B5700020790028204602D000F005F801E000F014
:10B580000EF8206810BD10B54A6803688968D41A9F
:10B59000A14232BFCA1800210171026010BD10B56E
:10B5A0008A68096803685C1AA24231BF9A1A0A467F
:10B5B00001210171026010BD38B505460C0018BFAD
:10B5C000002D1DD0288850281AD1607CC0B1E88891
:10B5D0006189884204BF288A022811D1216879B183
:10B5E00005F1120000F068F9401E8041C00F8DF88F
:10B5F00000002046A988ADF80210694622689047ED
:10B6000031BD70B50D468EB00446287B8DF8000024
:10B61000202106A8FBF7F2FE012042F61922ADF820
:10B620001C00ADF81E00ADF81820CDF820D0A21DEA
:10B630009DF82510607C01F0EF0141EA001141F016
:10B6400002018DF8251006A9A87B8DF82B00687BD8
:10B650008DF82900A08800F061F900BBA968E9B164
:10B660000DF1020000F034F90646142101A8FBF7A1
:10B67000C5FE42F60810ADF8040004F10E02E97BA5
:10B680008DF80A10ADF80E600DF10201ADF81260F0
:10B69000059101A9E08800F003FA00E0E0810EB016
:10B6A00070BD38B504000B4618BF002B01D10E2029
:10B6B00032BD18682060FF2019796174207401215F
:10B6C0008DF8021041F60F05ADF80050221D6946B5
:10B6D0000120A8DF18B919462046FFF792FF32BDB6
:10B6E0000A4601461046AEDF7047F3B5030091B03D
:10B6F000154608BF0E2056D00846197C0024884203
:10B7000050D0CDE900440121ADF80010ADF8024061
:10B7100012A901916A46D9884FF6FF70ACDF040088
:10B7200040D1587C9DF848101974002839D002A8DF
:10B73000002100220026002780E8C600D988019851
:10B74000ADF808100122BDF802108DF80A20ADF8FE
:10B750000C104FF6FE7229469142CDF810D005909C
:10B760001AD106A8FCF728FF00250698854219D2B1
:10B7700007A931F815603046FCF7F7FE022809D119
:10B78000002C314602A802D0FFF7AAFF02E0FFF723
:10B79000A7FF04466D1CE8E702A8FFF7A1FF0446D7
:10B7A00000E00824204613B0F0BD002818BF00298F
:10B7B00001D10E2070470278DE2A01D1082070479F
:10B7C00009684160DE2202704FF6FF73438000205B
:10B7D000704708B90E2070470278DE2A01D0082091
:10B7E00070474180002070470246107A50B150885F
:10B7F000002166DF10B1112802D1012010727047BC
:10B800005168084770477FB505460C0018BF002DEA
:10B810004AD02078DE2847D1A8886188884204BFB2
:10B820002046FFF7E1FF2888012804D0112834D0F2
:10B8300051280DD07FBD297A012902BFA8886188CF
:10B84000884231D1012020722046FFF7CDFF7FBD15
:10B85000A8886188884204BFA879022824D1A87BDF
:10B8600004281CBF062805281ED168461021FBF7B6
:10B87000C5FD02214FF4C0768DF80010ADF80460CC
:10B88000A87B052804BF0021ADF80410A8886946EC
:10B89000B0DF48B1616888477FBDA8886188884269
:10B8A00004BF4FF6FF7060807FBDFEE70146087859
:10B8B000497840EA0120704780B5FFF7F7FF04E0C0
:10B8C00080B5FFF7F3FF0006400E00F0010002BD57
:10B8D0000A780270497841700220704738B50446F2
:10B8E0000D46284601F03EFE2080656031BD000017
:10B8F000401E002204280A700FD8DFE800F003057C
:10B9000007090C00112007E0212202E0312003E0AA
:10B9100012220A707047222008707047F8B50F464F
:10B9200090B00546B878002806BF01218DF80E10AA
:10B930008DF80E003888ADF80C001646032101A8DA
:10B94000FBF75CFD787C01A9FFF7D2FFB87C0DF115
:10B950000501FFF7CDFF9DF80610FA7B00F0F8F81F
:10B960008DF8061001F0EF013A7C02B1012241EAA4
:10B9700002118DF8061001F0FE01387B00B10120A4
:10B9800001438DF8061001F0F901387D002814BF3D
:10B990000220012041EA40018DF8061009A81C216F
:10B9A000FBF72CFD787B10F0300F15D0032102A897
:10B9B000FBF724FDF87C0DF10901FFF799FF9DF8D5
:10B9C0000A1001F0F90141F002018DF80A1011206E
:10B9D00002A98DF808000E91787B8DF8240004A848
:10B9E000B97B8DF825101421FBF708FD03A901AAE6
:10B9F00004910592B888ADF81C00B86818B1FA88AF
:10BA0000ADF818200890BC69002C3FD0032168468F
:10BA1000FBF7F4FC2088ADF82C006088ADF82E0010
:10BA200061680A91CDF834D06946207BFFF760FF4A
:10BA3000B869407B0DF10101FFF75AFFB869807AC0
:10BA400000B101209DF8021001F0F70141EAC001A8
:10BA50008DF80210B869C07A00B1012001F0EF0141
:10BA600041EA00118DF80210B869007A00B1012096
:10BA700001F0FE0100F066F8BA69907B002814BF5F
:10BA80000220012041EA40018DF80210F86900B15E
:10BA90000C90334604AA09A92846AADF11B0F0BDCC
:10BAA00078B587B005460C461646142102A8FBF768
:10BAB000A5FCA078002806BF01218DF806108DF89E
:10BAC00006002188ADF8041001AA02926946A07907
:10BAD000FFF70EFFE0790DF10101FFF709FF9DF877
