:02000002F0000C
:108000000000042079830F0061830F0063830F0059
:1080100065830F0067830F0069830F000000000075
:1080200000000000000000000000000001A10F009F
:108030006D830F00000000006F830F0071830F003D
:1080400073830F0073830F0073830F0073830F001C
:1080500073830F0073830F0073830F0073830F000C
:1080600073830F0073830F0073830F0073830F00FC
:1080700073830F0073830F0073830F0073830F00EC
:1080800015A80F0073830F0073830F0073830F0015
:1080900073830F0073830F00159B0F0073830F0012
:1080A00073830F0073830F0073830F0073830F00BC
:1080B00073830F0073830F000000000000000000B6
:1080C00073830F0073830F0073830F0073830F009C
:1080D000DDA40F0073830F0073830F0073830F0001
:1080E00073830F0073830F00F1D40F0000000000B2
:1080F0000000000073830F000000000073830F0076
:10810000000000000000000000000000000000006F
:10811000000000000000000000000000000000005F
:10812000000000000000000000000000000000004F
:10813000000000000000000000000000000000003F
:10814000000000000000000000000000000000002F
:10815000000000000000000000000000000000001F
:10816000000000000000000000000000000000000F
:1081700000000000000000000000000000000000FF
:1081800000000000000000000000000000000000EF
:1081900000000000000000000000000000000000DF
:1081A00000000000000000000000000000000000CF
:1081B00000000000000000000000000000000000BF
:1081C00000000000000000000000000000000000AF
:1081D000000000000000000000000000000000009F
:1081E000000000000000000000000000000000008F
:1081F000000000000000000000000000000000007F
:10820000364937480A1A02D0072291438D4635492C
:1082100035480A1A06D00722914381F309880222C1
:1082200082F3148831483249324A00F045F8324826
:108230003249334A00F040F832483349334A00F0BB
:108240003BF833483349344A00F036F83348344970
:10825000344A00F031F834483449354A00F02CF8FB
:1082600034483549354A00F027F835483549002269
:1082700000F02DF834483549002200F028F8344841
:108280003449091A082903DB002202600430016026
:10829000314A90471F482049884205D0026804307F
:1082A00003B4904703BCF7E700208646EC46002065
:1082B00000212A4A9047FEE7884207D0521A05D08B
:1082C000037801300B700131013AF9D170478842CF
:1082D00002D002700130FAE770470000000004206D
:1082E00000F8032000000420000004207CDA0F00C6
:1082F000C4EE0220FCEE0220D8830F00D8830F00CA
:1083000098D60F007CDA0F00C4EE0220C4EE0220E3
:108310000CD70F000CD70F000CD70F000CD70F0095
:108320000CD70F000CD70F000CD70F000CD70F0085
:108330007CDA0F00B4DA0F00FCEE0220FCEE022023
:10834000FCEE0220D41E0320D41E0320D41E0320E2
:10835000D41E0320D41E0320A1830F00E19F0F0031
:10836000FEE7FEE7FEE7FEE7FEE7FEE7FEE7FEE7E5
:10837000FEE7FEE7704700BF1048804710484FF007
:108380000701884385460F4880470F48016841F43C
:1083900070010160BFF34F8FBFF36F8FFFF730BFE6
:1083A0000A480B490B4A884207D0521A05D0037875
:1083B00001300B700131013AF9D1704775830F001C
:1083C00000000420ADA80F0088ED00E0F8D60F00F3
:0883D000B0EE0220C4EE022011
:1083D80012F0030310B511D1094C22604C1CE400C3
:1083E800A4B22244074C2260074A1370074A13704C
:1083F800074A1080074A1846118010BD0720FCE77D
:1084080004EF022000EF0220FCEE02200CEF022015
:1084180008EF02200AEF02202DE9F3472B4D2B88A5
:108428008B4206460C4617464BD302A84FF000086D
:1084380000F8018D00F088F8254B264A1878117845
:10844800CBB2254909888B4238BF0133C0B238BF47
:108458005FFA83F840452ED092F800801378DBB29B
:10846800994286BF0133DBB2002313709DF80700E1
:1084780000F08EF84FF6FF73984524D0DFF860A01F
:10848800DAF800304FEAC80903EB090243F83870FC
:10849800A6B19CB1114B28881B68224608FB003006
:1084A800314605F069F8DAF800304B4400209C802A
:1084B80002B0BDE8F0874FF6FF78D7E7002090803C
:1084C800F6E70920F4E70420F2E700BF08EF0220EE
:1084D8000CEF0220FCEE02200AEF022000EF02203F
:1084E80004EF0220F8B5124C124D264622782B785C
:1084F8009A4200D1F8BD23780F48104A07881268BD
:108508000F48DBB219B202EBC10C006852F83120F7
:10851800BCF8041003FB070090470A4A2378128826
:10852800DBB29A4286BF0133DBB200233370DDE74A
:108538000CEF0220FCEE022008EF022004EF0220DC
:1085480000EF02200AEF022070B5EFF3108672B632
:108558000C4A946801239CB993600B4B0B4DD3F8DC
:10856800801029401160C3F88050D3F884105160FE
:108578004FF0FF32C3F88420047006B962B670BDAC
:108588000370FAE710EF022000E100E0FC06FFBDEF
:10859800084B9A6810B55AB150B9EFF3108172B60A
:1085A800054A1C6814605C685460986001B962B63A
:1085B80010BD00BF10EF022000E100E030B53AB175
:1085C8001368DB430B4C0144884204D1D84330BDC7
:1085D8004FF0FF33F6E710F8012B5340082213F051
:1085E800010F14BF25460025013A85EA5303F6D149
:1085F800EAE700BF2083B8ED10B561B1B2FBF3F430
:1086080003FB1424A4B244B9C0E900148460828135
:10861800C381204610BD0E20FCE70920FAE782B08E
:1086280050E8022FC188B2EB324F4FF0000317BF5A
:1086380092B241EA014142EA014104E04268B2EBE8
:10864800324F08BF012340E80212002AE8D18DF812
:1086580007309DF80730002B0CBF1120002002B016
:10866800704737B550E8013F9DB2C48925448489D5
:10867800A54228BF2D1B0489A54202BFBFF32F8F37
:10868800002207E0C5EA030540E80154002CE9D1BF
:108698004FF001028DF803200193019B9DF8032000
:1086A8000B6002F0FF0322B10B880068184403B086
:1086B80030BD1846FBE70A884B889A4209D150E832
:1086C800012FC2EA024240E80123002BF7D1012022
:1086D80070470020704737B550E8023F1FFAA3F5EE
:1086E800C488A54202BFBFF32F8F00220DE0C489C2
:1086F80025448489A54228BF2D1BC3EA054540E8C7
:108708000254002CE8D14FF001028DF803200193A8
:10871800019B9DF803200B6002F0FF0322B14B88F8
:108728000068184403B030BD1846FBE70A884B8838
:108738009A4209D150E8022FC2EA224240E80223B5
:10874800002BF7D1012070470020704750E8002F18
:108758000B4640E8003C9CF0000FF7D110467047EC
:1087680050E8002F42EA010340E8003C9CF0000F6B
:10877800F6D11046704750E8003F03EA010240E88E
:10878800002C9CF0000FF6D1104670470121FFF72E
:10879800E7BF0021FFF7EFBF10B590B1D0E9012383
:1087A80001689B1ADBB20A60013BDBB2FF2B02684F
:1087B80002D10020107110BD11684C1C14600B70A0
:1087C800F2E70E20F7E737B5054602A8002400F8BF
:1087D800014DFFF7B9FE2A686B68116899420ED9F6
:1087E800481E106011F8014CEB68298A01FB04341B
:1087F800AB6811791B1ADBB2994238BF13719DF827
:108808000700FFF7C5FE204603B030BD37B5054663
:1088180002A8002300F8013D0C46FFF795FE2A68E0
:108828001368591C1160E968641A298AB4FBF1F4C9
:108838001C709DF80700FFF7ABFE03B030BD016068
:108848000B681146184710B40468E468A4465DF83C
:10885800044B604710B404682469A4465DF8044BCF
:10886800604700002DE9F04108B10368C3B90E4E16
:108878000E4B14229B1B0024B3FBF2F3374602FB7A
:1088880003F5A54201D1002008E03B5930190BB986
:108898001434F6E7DB6998470028F9D0BDE8F08181
:1088A800DB69BDE8F0411847B0EE0220C4EE0220B3
:1088B800014B4360002070470CD70F0008467047F3
:1088C80000207047024B1868003018BF012070471D
:1088D8001CEF022008B50248FFF75BFF002008BD27
:1088E8001CEF022008B510461A4604F045FE002089
:1088F80008BD00002DE9F041804686B013480E46B9
:1089080015461F46FFF742FF044630B1112018E014
:1089180006EB043001F0D6F90134A542F8D10B4832
:10892800FFF737FFD8F8083000246BB102226846F9
:108938008DF80020CDE90146CDE903450597984714
:10894800204606B0BDE8F0811846FAE71CEF022081
:108958002DE9F041804686B012480F4616461D465E
:10896800FFF714FF0446D8B9AA083146384601F083
:10897800C1F90C48FFF70DFFD8F8083073B1012290
:108988008DF800200C9A05926846CDE90147CDE99B
:1089980003659847204606B0BDE8F0811846FAE717
:1089A8001120F8E71CEF022029DF704728DF704705
:1089B80070B503689D6886B004460E466DB11422F2
:1089C8000021684604F001FEA36805932379019607
:1089D8002BB1012B0DD06846A84706B070BD012306
:1089E8008DF8003023690293E36803936369049365
:1089F800F1E702238DF80030E3681B030293F5E7E3
:108A08000846704700207047024B187A003018BF9C
:108A1800012070470CF10220034B187A0122B0FAAA
:108A280080F05A74400970470CF1022008B51046CE
:108A38001A4604F0A1FD002008BD000008B5142264
:108A48000021044804F0C1FD0348FFF7E8FD0020B9
:108A580008BD00BF0CF10220FCF0022010B5094C43
:108A6800094B43602046FFF791FE48B901F034F8FE
:108A78001C2320744FF4EE7204490548FFF7BCFD2F
:108A8800002010BD0CF1022038D70F0020EF022083
:108A9800FCF0022070B5234D234E2B7A2C463BB9AF
:108AA80022492348FFF717FE306008B9686070BD97
:108AB8000223237233681A7972B1012A22D0184628
:108AC8000321FFF775FF00232372636017491848D5
:108AD800BDE87040FFF72ABED3E90520121A142A10
:108AE80028BF1422D3E903159208012A014438BF8C
:108AF80001222844FFF758FF50B11128DFD1012384
:108B08002372D4E7D3E903021044FFF74FFFF3E7DA
:108B1800237C002BCBD10146BDE87040022000F039
:108B280009B800BF0CF1022024F1022020F1022034
:108B3800FCF0022038B5831E012B43D8224C237A3F
:108B4800002B3FD0022B09D103282ED01F4B1B68C6
:108B58000022E2601A793AB1012A20D0637C6BBB0B
:108B6800BDE83840FFF796BFD3E905128D1A142DDA
:108B780094BF521914329A619142EFD102284FF0F2
:108B8800000308BF19462372104B18BF0D2118683F
:108B9800FFF70EFF0E490F48FFF7C8FDDEE71A6919
:108BA80001321A615B699A42E7E7E3680133082BEF
:108BB80001D8E360D2E70023E360DFE7BDE838408F
:108BC80000F07ABF38BD00BF0CF1022024F102206A
:108BD80020F10220FCF0022000F0FD03012B08D157
:108BE800044B00225A74421E504250411874FFF739
:108BF80051BF70470CF1022010B5064C201DFFF73D
:108C0800C5FD28B9637C1BB9BDE81040FFF742BF1A
:108C180010BD00BF0CF102202DE9F34180460D463E
:108C28000F4801A916461F46FFF71BFD0446A8B1C9
:108C38001C22002104F0C9FC2D0B0123237101A97A
:108C4800C4F80080A760E56066610548FFF733FD5A
:108C5800FFF7D2FF002002B0BDE8F0810420FAE758
:108C6800FCF002202DE9F74381468846104801A907
:108C780017461E46FFF7F5FC0446B0B11C2200213A
:108C880004F0A3FC00250A9BA36001A92571C4F880
:108C98000090C4E9037866610548FFF70CFDFFF70B
:108CA800ABFF284603B0BDE8F0830420FAE700BF15
:108CB800FCF002200B684A684360934208BF002317
:108CC800016008BF43607047436843B10268916818
:108CD80052680B449342436004BF002343607047CB
:108CE8000023C0E90232C0E900118B781A440261FE
:108CF80091F903301A4442610878003018BF012006
:108D0800704738B5426811780346002938D002F117
:108D18000C014160147B2CB9C2680168FFF7E0FFC1
:108D2800204638BD5078117900F03005302D14D127
:108D3800547B04F03004302C0FD190781969091A4B
:108D480019610021907B084419690144196192F95D
:108D58000F20114459610120E3E700F0F004202CB2
:108D680008D1507910FB01F1002DEBD19868013042
:108D78009860E7E700F0C000802808BF0421F3E707
:108D88000846CEE770B5456804460E4663681A780B
:108D9800B24204D15B7803F00F03082B07D12046B9
:108DA800FFF7AFFF6368AB42F0D1002070BD012030
:108DB800FCE743681A44426011B101399A4201D173
:108DC8000120704713F8010B01F8010FF6E78368DB
:108DD80010B504460BB9002010BD0368012298475E
:108DE8000028F8D0A368013BA360F5E72DE9F3411B
:108DF8000F460DF107018046FFF7E9FF064620B947
:108E08000026304602B0BDE8F0819DF807402206F2
:108E180013D504F07F0407250DF107014046FFF73D
:108E2800D6FF0028ECD09DF8072002F07F03AB4066
:108E38001C43130605F1070501D43C60E1E7232D27
:108E4800EAD1DDE770B545686A7802F00F06082EAA
:108E580086B003461FD103691C6800260CB906B00A
:108E680070BD236862689D68267329466846FFF7C7
:108E780037FF6368049304F10C0305936B7803F0E0
:108E8800C003802B08BF231D684608BF0493FFF763
:108E9800D9FFA468E2E712F0C0011CD102F030004B
:108EA80010280AD15A691170072EAC68186909D1BF
:108EB8000146204600F017F8D1E79006F4D55B6923
:108EC8001970CCE72A79214614B104F055FBC6E79E
:108ED80004F07BFBC3E78029C1D100690021920619
:108EE8000160BCD5EBE77FB50A4601466846FFF747
:108EF800F7FE30B16846FFF7A5FF6846FFF701FFA8
:108F0800F7E707B05DF804FB30B5044685B01546B1
:108F1800A9B90268114B9A4211D0102D06D82A46D9
:108F280069462046FFF7F0FF05B030BD10226946BC
:108F38002046FFF7E9FF0028F6D0103DEDE7A368CB
:108F4800AB4201D20020EFE723682A462046984723
:108F58000028F7D0A3685D1BA560E5E7BB8D0F006F
:108F6800F7B50E4601A907461546FFF73FFFA8B11A
:108F7800019A0123D3184FF0000404D2717801F04C
:108F8800C001802901D1204608E031799942FAD3FD
:108F980029463846FFF7B8FF019BEC5403B0F0BDF3
:108FA80073B50D4601A906461446FFF71FFF88B1A1
:108FB800019AFF2A10D86B7803F0C003802B0BD0DE
:108FC8002979531C994207D32146304601F8012BD1
:108FD800FFF79AFF02B070BD0020FBE710B5034C05
:108FE80082600022C0E90041C26010BDBB8D0F0045
:108FF8002DE9F04F824685B00D464FF000084FF03E
:10900800000900240DF10F015046FFF7E0FEF8B10A
:109018009DF80F1001F07F025FFA82FB4FF0000C01
:10902800CDE900BC009AA4F1200CC4F1200322FA77
:1090380003F302FA0CF71F431346A34048EA030858
:109048000B0649EA070904F1070404D4C5E90089B5
:1090580005B0BDE8F08F462CD4D10020F8E773B5F1
:109068000D4669461446FFF7C3FF68B12B79082BF4
:109078000CD1DDE90056C4E90056DDE90023B3420E
:1090880006BFAA420120002002B070BD042B05D102
:10909800DDE90001206005460026EEE7022B03D13A
:1090A8000098208085B2F7E7012B05D1DDE90001A2
:1090B800207000F0FF05EFE70020E5E737B50D4623
:1090C80069461446FFF794FF30B12A79082ADDE98A
:1090D800003103D1C4E9003103B030BD042A184679
:1090E8004FEAE37108D123601A460B468B4206BF4C
:1090F800824201200020EFE7022A04D11BB223801C
:109108001AB2D317F2E7012A03D15BB223705AB21D
:10911800F7E70020E0E7F7B50C4600211970217049
:10912800116001A9074615461E46FFF75FFE30B9D4
:10913800BB6813B901233370002003B0F0BD019957
:109148000029F7D0CB0801F007012B602170F4E764
:1091580013B5044605291FD8DFE801F0030F151ED3
:109168001E1C012201A92046FFF7CEFE18B19DF969
:109178000430002BF5DB02B010BD08220021204688
:10918800FFF7C2FEF7E701A9FFF730FE0028F2D08B
:10919800019AF3E70422F1E70020ECE773B50D46E6
:1091A80001A90446FFF722FE064618B900263046F4
:1091B80002B070BD94E80F0085E80F0001998A425B
:1091C800F4D3A960A3685B1AA360F0E72DE9F04126
:1091D80055686B7813F0C00E88B006468C46144666
:1091E80004D0BEF1400F68D0002544E003F00F0220
:1091F8005C4903F03003102B51F822701DD006D8BB
:10920800002BF1D122692946B847054633E0202BC7
:1092180017D0302BE8D1636929781970072A0AD149
:10922800636820691A79714604F0CFF96368216987
:109238009868FFF758FE22693CE0636901221A70BA
:10924800E0E7BCF1020FD4F8148027D1042A25D80E
:1092580004A9FFF7A3FF05460028C5D0069B2BB13C
:10926800616898F800304A799A4208D8059B73607B
:10927800069B002BB8D1284608B0BDE8F0810879D4
:10928800226900FB032204A8B84728B198F80030E7
:10929800013388F80030E1E70546E7E798F8003041
:1092A80021692A7902FB0312697999429CD9013311
:1092B80088F8003061683046A6E717693B6807F10F
:1092C800040813B9FFF744FF9FE7022913D104A943
:1092D800FFF764FF002887D03B686168424604A80E
:1092E8009847054600283FF47FAF069B002BF3D133
:1092F800059B7360BFE701292BD009D305297FF4AB
:1093080073AF04220DEB0201FFF7FEFD042525E0F3
:10931800002501AB591901350B2D3FF465AF01222A
:109328003046FFF7F1FD00283FF45EAF01AB2B4458
:1093380013F9013C002BECDB0B4B049301ABCDE99B
:1093480005350023079342463B68616804A898479F
:109358005BE7082201A9FFF7D7FD08250028EBD114
:1093680042E700BF64D70F00BB8D0F002DE9F04F17
:1093780091B00446002604A8CDE90266FFF7B0FCC8
:10938800A3683BBBDDE9053404A85D78FFF7B9FCA9
:109398000028F7D115F0300F03D1059B1B7803B1D6
:1093A8000134002C00F0A9806309002202A993422D
:1093B80040F09C8010AA02EB830304F01F04C4F160
:1093C80020044FF0FF3053F8383CE040C31A5842AD
:1093D80058410DE00DF1030301AA0DF102012046E9
:1093E800FFF799FE38B99DF80330002BCAD1002049
:1093F80011B0BDE8F08F019904A8FFF7C3FC00285D
:1094080050D1019BB3427FD3059D059A537803F051
:109418000F03082B73D004A8FFF773FC059B9D422C
:10942800F3D14FF0FF36019FB7426DD3089B9DF8EB
:109438000290D4F808801D684FF0010AA368002D37
:109448005FD098459CD12B68D3F800B0BBF1000FD2
:1094580008D04B463A4629462046D8470028C6D069
:10946800AD68EBE7D3F808B09BF800309F42F7D11E
:109478006A6859460AA8FFF733FC6B680E9305F132
:109488000C030F939BF8013003F0C003802B04BF3B
:109498002B1D0E930AAA85F80CA049462046FFF713
:1094A80095FEDBE7059B5B7813F0300F0FD1069A2A
:1094B8003F2A0CD8510910AB03EB810102F01F02BF
:1094C8000123934051F8382C134341F8383CE568A0
:1094D8009DF802201DB104AB01992046A84704AAB3
:1094E8009DF802102046FFF771FE12E051F8225055
:1094F80001357FF47DAF013259E7012078E716780E
:1095080091E798457FF43CAF9DF802102046FFF79D
:109518001FFE00287FF434AF69E770B50C46064695
:10952800154611462046FFF7DEFC2A4621463046FE
:10953800BDE87040FFF71ABFF0B585B00C468D68DE
:10954800694607461646FFF729FE68B1A06858B174
:10955800637803F03003202B32462946684605D14C
:10956800FFF7DBFF019B7B6005B0F0BDFFF7FEFE58
:10957800F8E72DE977480E466946FFF739FD88B1C7
:10958800DDE90023002502F001045FEA530C4FEAED
:10959800320B54EA050308D06FEA0B026FEA0C039A
:1095A800C6E9002303B0BDE87088C6E900BCF9E746
:1095B80037B50D4669461446FFF7DBFF68B12B79CE
:1095C800082B0CD1DDE90001C4E90001DDE9002325
:1095D8008B4206BF82420120002003B030BD042B1D
:1095E80003D100982060C117F0E7022B04D1BDF920
:1095F8000000208000B2F6E7012B04D19DF900009D
:10960800207040B2EFE70020E7E713B504220C46CC
:109618000DEB0201FFF778FC08B1019B236002B053
:1096280010BD1146FFF7F1BF13B508220C46694675
:10963800FFF76AFC18B1DDE90023C4E9002302B092
:1096480010BD1146FFF7F0BF38B520220446083098
:109658000D4603F091FF2022A91804F1280003F019
:109668008BFF002038BD00002DE9F743184D9946BF
:10967800184B036004460F46284601219046FFF721
:1096880065F80646BFF35F8FE0B900F0D9F84346A6
:109698000A9ACDF8009007F10801204602F0CAFDA9
:1096A800044600F0DBF8BFF35F8F2E606CB10A4A06
:1096B80048F2425348F21650944208BF184603B085
:1096C800BDE8F08348F20450F9E72046F7E700BF09
:1096D80028010320DD55AABB8408F0000C4B9842F2
:1096E8000DD006D820B1013B98420BD048F2165055
:1096F8007047084B984208D00D339842F6D148F28B
:109708000350704748F20150704748F202507047C2
:109718000102F0000202F00008B5083002F0F4FD82
:10972800BDE80840FFF7DABF13681F2B2DE9F041A9
:109738000746884614461DD9114D01212846FFF7D2
:1097480005F80646BFF35F8FB8B900F079F84146CF
:1097580007F1080002F04AFE074600F07FF8BFF361
:109768005F8F38462E60FFF7B9FF08B920232360C2
:10977800BDE8F08148F21450FAE748F20450F7E7E0
:10978800280103202DE9F04107460E46194801211A
:109798001446FEF7DBFFBFF35F8F30BB00F050F8D5
:1097A800DFF854800837B4F5805F254628BF4FF4AA
:1097B80080552A463146404603F0DEFE2A46414699
:1097C800384602F0BBFD641B2E44054608B9002C40
:1097D800E9D100F043F8BFF35F8F064B002228461B
:1097E800BDE8F0411A60FFF779BF48F20450BDE8C0
:1097F800F08100BF2801032028F10220024B00203D
:10980800C3F80005704700BF00A0025038B50A4BE6
:1098180000251D60BFF35F8F084C0123C4F8003595
:1098280002F014FEC4F8005520B1052848F2035090
:1098380018BF032038BD00BF2801032000A0025034
:10984800044B0122C3F80025034B4FF480625A6091
:10985800704700BF00A0025000E100E0044B002266
:10986800C3F80025034B4FF48062C3F88420704787
:1098780000A0025000E100E0074B1B5C1F2B86BFD5
:1098880003F01F0305494FF0A041012202FA03F338
:10989800C1F80C35704700BFACD70F00000300506B
:1098A800074B1B5C1F2B86BF03F01F0305494FF0B6
:1098B800A041012202FA03F3C1F80835704700BF3E
:1098C800ACD70F000003005008B50020FFF7E8FFF1
:1098D8000120FFF7E5FF0220FFF7E2FF0320BDE8C4
:1098E8000840FFF7DDBFC20710B504460CD54FF09E
:1098F800A0430322C3F83427C3F83827C3F83C270A
:10990800C3F84027FFF7E0FFA3070AD54FF0A043AD
:109918000C22C3F82C27C3F83027C3F86027C3F8F4
:10992800642710BD10DF704711DF704713B5044678
:1099380009496846FFF7BEF9019808B902B010BD99
:10994800D0E900312046984718B16846FFF7BCF9BE
:10995800F2E71120F2E700BFB4D70F0013B50446B1
:1099680007496846FFF7A6F9019B0BB902B010BD7D
:109978002046D3E9002190476846FFF7A5F9F3E7A9
:10998800CCD70F00064B9A6822B11A6822F48002DD
:109998001A607047034B4FF48002C3F88020704769
:1099A80010EF022000E100E00B4991F816335A0944
:1099B800EC231341DB0706D5084B9A683AB94FF4F4
:1099C80080030B60704742F2020000F002BB1A6885
:1099D80042F480021A60704700E100E010EF0220B4
:1099E800F7B5184F3C785CBB174E012520463570FB
:1099F800FFF79CFF112820D02046FFF7AFFF134B3D
:109A08001868019002A800F8054DFEF79DFD104961
:109A180001A8FFF787FF0446B0FA80F040093870C4
:109A28009DF80300FEF7B4FD3CB90A4B34701C7076
:109A3800FFF7BAFF2846FFF791FF204603B0F0BDB5
:109A48000824FAE72D0103202C010320B0D70F00CA
:109A5800D59F0F002E010320F7B5154F3B7813B3A0
:109A6800144E01203070FFF761FF11284FF00005F8
:109A78001BD00220FFF772FF02A800F8015DFEF775
:109A880063FDFFF751FF04469DF807003D70FEF7A0
:109A98007FFD2CB93470FFF775FF0320FFF75EFFD9
:109AA800204603B0F0BD0824FAE72C46F8E700BFCB
:109AB8002D0103202C010320054B1B7833B1054BE6
:109AC8001B780BB1FFF7C8BFFFF78ABF08207047A4
:109AD8002C0103202D010320014B1878704700BF8B
:109AE8002D01032007B508496846FFF7E3F8019BF5
:109AF80013B903B05DF804FBD3E90020904768462A
:109B0800FFF7E2F8F3E700BFC0D70F00FFF7EABF9F
:109B180060DF704769DF704761DF704730B5114D0E
:109B2800ADF5017D4FF4FA740DF1020103A8ADF80B
:109B38000240FFF7F1FF70B9294601A8FFF7BAF80C
:109B4800029B002BF0D003A8D3E90021904701A87D
:109B5800FFF7BAF8F4E7052801D000F03AFA0DF556
:109B6800017D30BDD8D70F00024B1B780BB1FFF732
:109B7800D5BF70472F01032018B1034B03600020A5
:109B880070470E20704700BFB0EE0220F0B50746C0
:109B980085B00D4600295FD0304B0B600C220021A8
:109BA80001A803F012FD012606232A68ADF8083043
:109BB80001A920208DF804708DF80660FFF7AAFF30
:109BC8000C22002101A803F000FD00242A688DF86A
:109BD800056001A940208DF806408DF80740FFF781
:109BE80099FF0C22214601A803F0EFFCF7232A680D
:109BF800ADF8063001A923208DF80470FFF78AFF1D
:109C08000C22214601A803F0E0FC2A688DF80460C4
:109C180001A93046FFF77EFF0C22214601A803F078
:109C2800D4FC4FF4B0632A68019301A9A120FFF77F
:109C380071FF0C22214601A803F0C7FC9DF80430EF
:109C48002A6864F3000301A9A0208DF80430FFF707
:109C580061FF204605B0F0BD0E20FBE7B0EE022004
:109C680008B5FFF755FF10B9014B01221A7008BD5E
:109C78002F0103204BDF70471FB50D4C01A8FFF7DC
:109C8800F9FF70B9214602A8FFF714F8039B002BCF
:109C9800F4D00198D3E90021904702A8FFF714F8FF
:109CA800F4E7052801D000F094F904B010BD00BF16
:109CB800E4D70F00024AD2F80034002BFBD07047DB
:109CC80000E001400A4908B50223C1F80435BFF392
:109CD8006F8FBFF34F8FC1F80805FFF7EBFF002325
:109CE800C1F80435BFF36F8FBFF34F8F08BD00BFB6
:109CF80000E001400E4B10B50124C3F80445BFF342
:109D08006F8FBFF34F8F01EB8204401AA14208D135
:109D1800074B0022C3F80425BFF36F8FBFF34F8FA3
:109D280010BD431851F8042B1A60FFF7C3FFEDE785
:109D380000E0014028B139B10023C1E900301846DC
:109D4800704748F21050704748F21350704730B1CE
:109D5800036848F240508B4208BF0020704748F221
:109D68001050704728B148F21150914208BF0020A6
:109D7800704748F21050704770B506460C461D46AD
:109D8800FFF7D8FF50B9B3794AB1AB420AD11146AF
:109D98002046FFF759FC08B9044B236070BD48F210
:109DA8001050FBE748F21150F8E700BF7052464DDB
:109DB8002DE9F04383B00D4602AF04461149D7F8A8
:109DC8002080284616469946FFF7C1FF98B96B6868
:109DD800796A5A7940465200FFF7C4FF58B976B1FC
:109DE8000CB9ACB002ACCDF800804B4632462946DF
:109DF8002046FFF739FC0437BD46BDE8F08348F23A
:109E08001050F8E77052464D10B5044638B149B1C4
:109E180041600B68984708B9044B236010BD48F2AD
:109E28000150FBE748F21050F8E700BF6E52464871
:109E3800F0B448B107680A4EB74209D159B16AB1BE
:109E48004368F0BC5B68184748F20150F0BC7047A3
:109E580048F20250FAE748F21050F7E71046F5E7E3
:109E68006E524648F0B460B107680C4EB7420CD148
:109E780071B143681568DC68A5420CD39B68F0BCD7
:109E8800184748F20150F0BC704748F20250FAE710
:109E980048F21350F7E748F21450F4E76E52464878
:109EA8002DE9F041044617469846DDE90656FFF7C6
:109EB800ABFF60B9424639462046FFF7B9FF30B9D3
:109EC800324629462046BDE8F041FFF7CBBFBDE842
:109ED800F0810000F8B50A4F0A4C0B4DE41B012134
:109EE800E40829700026A64203D102232B70002023
:109EF800F8BD57F8363098470028F9D10136F2E70F
:109F080098D60F00A0D60F00300103200139014474
:109F1800884200D9704703780A7800F8012B01F8C5
:109F28000139F5E7013A02440139824200D270470B
:109F380011F8013F02F80139F7E770B516460D46EA
:109F4800FFF7F0FF3246A9193044BDE87040FFF72B
:109F5800E9BF38B50D460446FFF7D8FF2946601912
:109F6800BDE83840FFF7D2BFBFF34F8F0549064B16
:109F7800CA6802F4E0621343CB60BFF34F8F00BF9F
:109F8800FDE700BF00ED00E00400FA0508B507286A
:109F98001BD8DFE800F004121A1A1A041A04012068
:109FA800FFF7A1FC0020FFF767FC0120FFF764FC26
:109FB8000220BDE80840FFF773BC0120FFF770FCE2
:109FC8000220BDE80840FFF757BC08BD08B5FFF7F9
:109FD800CBFF08B5FFF7C8FF0022104610B54FF4B5
:109FE800805100F087F9024608B1FFF7BDFF084825
:109FF800C0F57E2100F07EF90028F6D1054800F072
:10A00800D5F804460028F0D100F062F9204610BDCA
:10A0180000800F00959F0F0038B1054B0360054B7A
:10A02800436001230372002070470E20704700BF71
:10A0380067A00F0041A00F0069B10B78022B0CD16B
:10A04800022804D003280CBF1120082070470323DE
:10A058000B70002070470E2070470820704710B51D
:10A068000C4681B10B78042B04D8DFE803F00E0509
:10A07800030E0E00112010BD01F03AFC0028FAD1A1
:10A0880002232370F7E70E20F5E70820F3E7000026
:10A09800F8B5044680691649164A10F8025C521A47
:10A0A8000C230E46B2FBF3F23DB92069534300225C
:10A0B8009A4205D10123236013E04FF0FF30F5E702
:10A0C800B758AF4201EB020E06EB020C0ED1471C4B
:10A0D80008D1DEF80850D4E90223D4E90001A847E2
:10A0E8002060F8BDDCF804708742F2D00C32DFE75C
:10A0F800A8D60F00B4D60F001EF0040F0CBFEFF364
:10A108000880EFF30980FFF7C3BF00BF007800F0B5
:10A118000100704741DF7047014B01221A707047F8
:10A1280054050320BFF34F8F0549064BCA6802F454
:10A13800E0621343CB60BFF34F8F00BFFDE700BF62
:10A1480000ED00E00400FA05024B034800221A70F3
:10A1580001F0B6BB540503202DA10F00C31E10B596
:10A168000446042B09D8DFE803F00303080F0F00A7
:10A1780009494FF4701000F00BFA084B1B6853B1F3
:10A188002046BDE810401847054B064800221A70C3
:10A1980001F096FBF1E710BD51A10F00580503200F
:10A1A800540503202DA10F0000207047404B414A61
:10A1B80010B518604FF0A0430020C3F8642701F0E1
:10A1C8000DFB044630B900F0AFFA01283AD003D3AA
:10A1D80002283DD0032010BD4FF08043D3F800047F
:10A1E80010F4803021D04FF48032C3F80024204688
:10A1F80001F036FC002858D04FF0A043D3F81035B2
:10A208009B0152D54FF08043D3F81C3513F0B10FA2
:10A218004BD101F0A5FB0028DCD1274B187027484B
:10A2280001F04EFB00F054F8D4E7D3F8202512F0E3
:10A23800A90F1DBFD3F8202502F05602C3F8202528
:10A248000120D5E71C4B1E481C7001F039FBC1E703
:10A258004FF4A02400F0E6FA1A4A20211820FEF74D
:10A26800B7F808B1FFF7B5FE4FF08043D3F81C25C7
:10A2780012F0B10F1EBFD3F81C2502F04E02C3F82E
:10A288001C25FFF791FF0028A4D120460E4900F0B5
:10A298007FF90E4800F0F4FB00289BD100F0E8FAA3
:10A2A800FEF720F9FFF736FFF8E74FF47014D1E70F
:10A2B800580503200C0003005405032021A10F00BA
:10A2C8002DA10F003401032051A10F0065A10F003B
:10A2D80008B5074B4FF0FF32C3F88020C3F8802140
:10A2E80001F021F84FF48050BDE8084000F03EB876
:10A2F80000E100E0F0B5C1F30B048CBBB0F57F2F93
:10A308002ED8184D184F2B68002A08BF022622465F
:10A3180018BF06262C46072B05D902B12360042056
:10A32800F0BD0122F7E71D0105F1804202F5F03288
:10A338003D44C2F80008C2F80418C5F80868D2F805
:10A3480000C8604503F10103EBD1D2F8042891421B
:10A35800E7D1D5F808289642E3D123600020DFE74B
:10A368000720DDE75C05032000E0014030B5054625
:10A378001B4889B00022C0F57F21FFF7BBFFEFF330
:10A3880005820023D5E9004183F3148883F31088FC
:10A3980083F3118883F31388C2F308023AB984F36C
:10A3A80008884FF0FF339E46084709B030BD4FF08C
:10A3B800FF35203CCDE90033CDE902330493CDE9E4
:10A3C80005514FF08073202269462046079303F019
:10A3D800D3F884F30888AE466FF006031847E4E71D
:10A3E80000800F0037B56FF07F42154C057BD4F81D
:10A3F80004358A4228BF0A46891A13444A1E942AF9
:10A4080023F07F4305F5A8729BBF963B96314160C8
:10A41800416044F822300B4B4FF4F86043F00103DD
:10A428009847094BAA00134400221A601B6801933D
:10A43800019B4FF48033AB40C4F8043303B030BD04
:10A448000040024030D80F004041024019480278CD
:10A4580084B0002A2BD14FF08043A021D3F81834C0
:10A46800DB035EBF144B01221A60144A00231360F9
:10A4780012680392039A124A136012680292029AAF
:10A48800104A136012680192019A0F4A82F8241345
:10A498001021C2F8841151600C4A0D49C2F80835E0
:10A4A80001230B6002211360C2F80413037004B087
:10A4B800704700BF640503200800004000410240C7
:10A4C800404102404441024000E100E000400240B7
:10A4D80008400240284B1A6813B542B127490A6858
:10A4E80001320A6000221A601B680093009B244B0B
:10A4F8001A68A2B100221A6022481B68027B0193E5
:10A50800019B4FF4803393401F4AC2F808334168D7
:10A51800044601BB8168D9B9236803B198471B4B2E
:10A528001A6832B300221A6016481B68027F01932A
:10A53800019B4FF480339340134AC2F808334169B2
:10A54800044659B1103002B0BDE81040FFF74ABFC9
:10A55800FFF748FFE0E7FFF745FFE0E7816911B142
:10A568001030FFF73FFF23691BB102B0BDE8104070
:10A57800184702B010BD00BF044102406005032027
:10A5880040410240C4EE02200040024044410240E3
:10A5980070B50B4B1C68227B4FF480339340094AFB
:10A5A8000E46C2F80833054640B1FFF74FFF266054
:10A5B80029462046BDE87040FFF714BF70BD00BFB4
:10A5C800E4EE02200040024070B5074B1C680546C7
:10A5D8000E46A060FFF73AFF266029462046BDE8F0
:10A5E8007040FFF7FFBE00BFE8EE0220014B0122DA
:10A5F8001A7070476505032038B50F4BDA6A5D6A33
:10A608009C6CAC2A10D15B6B1C44ED1A2A4621467F
:10A618000A4802F07BFF68B100F02AF92946204673
:10A62800BDE8384000F060BE002CEFD101F002FA1E
:10A638000446EBE738BD00BF9819032000800F00DF
:10A648002DE9F74F80468946A9EB0804240B02F64A
:10A65800FF76154600F0E6F8082C28BF08242303E7
:10A66800DFF860B00193360B0DB92B4626E0B442F3
:10A678002CBFB246A2464FF00002514640462CBFBE
:10A688002F46019F00F018FE0346B8B9FA1C22F0C5
:10A6980003024946404600F001FE034670B9DBF864
:10A6A8003030ED1BB844B9441F44CBF8307001F08A
:10A6B8000DF9A6EB0A0603460028D5D0184603B0C4
:10A6C800BDE8F08F9819032010B501F0C5F9154AB7
:10A6D80042F20403916CCC5803F1A34303F54713EA
:10A6E80003F2D7539C4218D1D2E90C32934216D0C8
:10A6F80018441944884204D10020BDE8104001F0F4
:10A70800E5B8D21A02F6FF7222F47F6222F00F0235
:10A71800FFF796FF0028EFD010BD0320FCE70020CC
:10A72800FAE700BF9819032070B5264CE36AA52BF9
:10A7380032D003D8012B0BD000202CE0AA2B2FD02D
:10A74800AC2BF9D1FFF7C0FF40BBFFF755FF25E061
:10A75800A56C666A01F058F9226B1044A918884262
:10A768002AD101F051F900223146FDF727FFA36AEB
:10A77800984202BF0123C4E90703A66100241248D6
:10A7880001F036F9114B124800221A7001F09EF8B8
:10A7980080B944B9012070BDFFF796FF0124EEE7A8
:10A7A800FFF72AFFEAE7012001F05AF90028F1D063
:10A7B8000220F0E70320EEE7B21AFFF741FF002876
:10A7C800DCD1CEE798190320BC19032065050320C6
:10A7D800F5A50F000A4AD2F800347BB109480023D6
:10A7E800D2F80815D940C90748BF03F5C07103F16D
:10A7F800010348BF42F82100072BF1D1704700BF81
:10A80800000001403546526EFFF7E4BF044B0022BA
:10A8180082B01A601B680193019B02B0704700BFA9
:10A828000001014038B50E4C2278BAB90D4BD3F867
:10A8380000248AB1D3F80455FFF7CCFF40F6165030
:10A84800A842B8BF28460849A0F54860FFF7BCFEF3
:10A85800064B4FF480321A600123237038BD00BFC5
:10A86800660503200000014011A80F0000E100E088
:10A87800034BD3F800340BB1FFF7ACBF704700BFF0
:10A8880000000140054B1B68082B01BF044B1868EA
:10A89800B0FA80F0400918BF00207047300100105E
:10A8A8003401001008B54FF080430022C3F80C2192
:10A8B800C3F81021C3F838254FF0805203F5404300
:10A8C800D2F80414C3F82015D2F80814C3F82415D4
:10A8D800D2F80C14C3F82815D2F81014C3F82C15A4
:10A8E800D2F81414C3F83015D2F81814C3F8341574
:10A8F800D2F81C14C3F84015D2F82014C3F8441534
:10A90800D2F82414C3F84815D2F82814C3F84C1503
:10A91800D2F82C14C3F85015D2F83014C3F85415D3
:10A92800D2F83414C3F86015D2F83814C3F8641593
:10A93800D2F83C14C3F86815D2F84014C3F86C1563
:10A94800D2F84424C3F87025FFF79CFF10B1384BA8
:10A95800384A1A60FFF796FF18B1374BFB22C3F845
:10A968001825FFF78FFF48B13449354B0A681B6833
:10A9780022F00F0203F00F0313430B60FFF782FF6F
:10A9880018B1304B4FF400721A604FF08043D3F87F
:10A998000024D20744BF6FF00102C3F800242A4AFA
:10A9A800D2F8883043F47003C2F88830BFF34F8F71
:10A9B800BFF36F8F4FF01023D3F80022002A03DB78
:10A9C800D3F80432002B2FDA204B0122C3F80425D8
:10A9D800D3F80024002AFBD04FF010221221C2F82D
:10A9E8000012D3F80024002AFBD04FF010231222C3
:10A9F800C3F80422154B1A46D3F800140029FBD0DB
:10AA08000021C3F80415D2F80034002BFBD0BFF3A3
:10AA18004F8F0D490E4BCA6802F4E0621343CB60B6
:10AA2800BFF34F8F00BFFDE70A4B0B4A1A6008BD02
:10AA38008C5600404881030000F00040E40E0040BE
:10AA4800580200104096024000ED00E000E001408E
:10AA58000400FA05ECEE02200090D003062810B599
:10AA6800044602D1002000F0ABFF044B1B681BB169
:10AA78002046BDE81040184710BD00BF68050320F8
:10AA880008B5074B18600020FFF7E8FF054800F0FD
:10AA98007FFF20B90348BDE8084000F03BBE08BD71
:10AAA8006805032065AA0F006CDF70476DDF7047EB
:10AAB80072DF704773DF704774DF704775DF704768
:10AAC80076DF70477ADF70477CDF70477DDF70473D
:10AAD8007FDF704786DF70478FDF704790DF7047F2
:10AAE800A8DF7047AADF7047ADDF7047AEDF704759
:10AAF800B0DF7047B1DF7047B5DF704762DF70477E
:10AB080066DF704713DF70477FB50023CDF80A3042
:10AB1800ADF80E300A4BADF806109B89ADF8083039
:10AB280001238DF80A300DF10603CDE90430054BF9
:10AB380002A91888FFF7DAFF07B05DF804FB00BF29
:10AB4800D6150320F2EE022001460148FDF75EBE4D
:10AB5800B4D60F0030B518228DB000210DEB0200DD
:10AB680002F033FD282308931623ADF8063000239E
:10AB7800CDF80E30CDF81230ADF816301A4B0293DE
:10AB88000222062109251A7099701A710321592287
:10AB98000124D9705A710DF10601FE2258198DF859
:10ABA80018408DF82D40ADF80C505C709A71FFF785
:10ABB8008DFFB8B9BDF806201D721119D971BDF8FD
:10ABC8000C301A44094BADF80C2002A906AA184605
:10ABD800FFF76EFF30B91878FFF76EFF2146187837
:10ABE800FFF768FF0DB030BDEA150320F0EE022034
:10ABF800F0B503881F2B8BB0044600F0C28029D81B
:10AC0800112B56D006D8012B00F0CC80102B42D047
:10AC18000BB0F0BD142B00F040811A2B34D0132B4D
:10AC2800F6D10023A04CADF812300223ADF8103055
:10AC380004AA02AB42F6052120880593FFF754FFCA
:10AC480008B1FFF7C6F900231A4685212088FFF7C7
:10AC58003FFF86E0512B00F0AB800ED8232B00F08D
:10AC68008880502B39D0212BD2D10AA9002321F872
:10AC7800183D8088FFF730FF73E0552B59D0562BCD
:10AC880000F08680522BC3D100231A461946A088AB
:10AC9800FFF730FF65E0844B82881A80834A126888
:10ACA8001C460AB10120904781492088FFF706FF1A
:10ACB800AEE77D4B4FF6FF721A807E4B1B685A0732
:10ACC80004D4FFF747FF08B1FFF783F9774B1B68F8
:10ACD800002B9DD0022098479AE7774EC288B38808
:10ACE8009A4295D17548FDF76EFD054600288FD02C
:10ACF800228A04F1120102F03FFC1822002104A864
:10AD080002F063FC08238DF810306D4B06936D4BF1
:10AD18000596CDE9073504A8238AADF8243000F05C
:10AD2800EFFC00283FF474AF29466448FDF76EFD38
:10AD38006EE7C188F6291AD8CB1E9B070DD0CB1F0A
:10AD48009BB2013B5A4202F0030203F0030301F1F4
:10AD5800FF3158BF5342C91A89B2534B1888FFF7BD
:10AD6800CBFE00283FF454AFFFF733F950E7F72143
:10AD7800F3E7002204A98088CDE90422FFF7AEFE9C
:10AD8800EFE7494B00F108011888FFF797FEE8E75D
:10AD98008379002B7FF43CAF434B13211888FFF7CE
:10ADA8008FFEDEE7404B00211888FFF7A9FED8E7A1
:10ADB8008379002B3FF42CAF022B7FF429AF3E4957
:10ADC80000898A8990420E467FF422AFA27B012A2D
:10ADD8007FF41EAF00220120CDE904228DF8160071
:10ADE800208AADF81800304D608AADF81A0004F1D9
:10ADF80014008DF810300790ADF80A20ADF808302F
:10AE0800098A288801AB02AA0393FFF76DFE2F4633
:10AE180060B91846FFF77AF940B940F2FD1304A962
:10AE28002888ADF81430FFF763FEF1E6002304A983
:10AE38003888ADF81430FFF75BFE014600287FF430
:10AE4800E7AE182204A802F0C0FB237D1C4A8DF847
:10AE58001030022B0596069216D0062B0ED0012B29
:10AE68000ED1194800F0ACFD184B1A88184B1A80FF
:10AE7800637D0893D4F81630099301E0637D089345
:10AE880004A800F03DFCC3E6A27D637D43EA0223EB
:10AE98000E4A13800E4A1380F2E700231A46194619
:10AEA8008088FFF717FE5CE7F2EE022010160320F9
:10AEB80076D90F000C160320D6150320B4D60F0040
:10AEC80045AF0F0051AB0F00A0D60F00141603209A
:10AED8001616032014490A6838B512F0010321D068
:10AEE800124B98421ED0124B18884FF6FF739842A7
:10AEF80013D042F004020A601321FFF7E1FD90B974
:10AF08000C4DC82445F001054FF47A40A847013C90
:10AF1800FAD1BDE83840FEF79FBD074B1878FFF718
:10AF2800CBFDF6E7002038BD0C160320A0D60F0095
:10AF3800F2EE022070D90F00F0EE022010B50446A0
:10AF480086B01122002101A802F03FFB2378082BCC
:10AF58000BD1374A374913880988013B9BB21380C4
:10AF6800D9B1D3B9032311802370627823788DF87F
:10AF780005306021012A8DF804108DF806200ED0C6
:10AF88000B2A52D100F0A6F98DF80700002000F036
:10AF98009BF9042101A8FFF7B7FD06B010BD062BE9
:10AFA8001DD0082B01D0032B3FD1D4E90123110A6E
:10AFB8008DF807208DF80810110C120E8DF80A2054
:10AFC8001A0A8DF80B308DF80C201A0C1B0E8DF810
:10AFD80009108DF80D208DF80E300B21DAE7E168A5
:10AFE8008DF80710D4E90123080A8DF80800080C29
:10AFF800090E8DF80A10110A8DF80B208DF80C1027
:10B00800110C120E8DF80E201A0A8DF80F308DF8DB
:10B0180010201A0C1B0E8DF80D108DF809008DF8F4
:10B0280011208DF812300F21B4E70321B2E700BFD9
:10B0380016160320141603202DE9F0434E4B95B045
:10B048004FF6FF7214A91A8080464FF65963012003
:10B0580021F8483D42468DF80A00FFF741FD0446B5
:10B06800002840F08580454B04AA03F110061546D8
:10B0780018685968144603C40833B3422246F7D106
:10B0880008F102012846FFF739FD044600286FD170
:10B0980001461C220DA802F098FA9DF83430ADF84C
:10B0A800044043F004038DF834300223ADF80C302B
:10B0B80098F802308DF80E304FF00109C4F30723D9
:10B0C80069F3030369F307138DF80530E3B243EA24
:10B0D800090369F342038DF80630F423CDE90A44E5
:10B0E80001ADADF82C3003AE08F1040308AA0DA990
:10B0F800B8F800000C94CDE90865FFF7F3FC274683
:10B108000446A8BB01461C220DA802F05EFA9DF871
:10B118003430ADF8044043F018038DF8343098F813
:10B1280002308DF80E30C4F3072369F3030369F383
:10B1380007138DF80530FBB243EA090369F34203AC
:10B14800DBB243F010038DF806301723CDE90A442B
:10B1580008AAADF82C300DA908F10C03B8F80000C6
:10B168000C94ADF80C90CDE90865FFF7BBFC0446DC
:10B17800204615B0BDE8F083F2EE022050D90F004A
:10B1880030B5334C236813F0010585B05DD1314BE0
:10B1980018603148FDF700FB029500F0B6F800286A
:10B1A8004CD12E48FFF7AEFC002847D1FEF718FC1B
:10B1B800002843D102A8FEF7DFFC00283ED102A9EF
:10B1C8000120FEF7E3FC002838D102A8FEF748FD6D
:10B1D800002833D100F0B4FB30B1214800F0A4FBC3
:10B1E800236843F002032360112302A88DF804307A
:10B1F800FFF75CFC10BB9DF8093002A801338DF8FD
:10B208000930FFF751FCC8B923689B0718D51449C2
:10B218008869043182B201A8FFF756FC70B9114859
:10B22800FFF750FC50B91048FFF706FF30B9FFF799
:10B2380091FC18B9236843F00103236005B030BDC1
:10B248000A4802F0F5F90949E4E70020F6E700BFEB
:10B258000C16032010160320B4D60F0000800F0030
:10B268006C05032076D90F00D615032060D90F008E
:10B2780043690BB1C0681847704700000449054B83
:10B288000022904208BF19460348FDF7D8BA00BF0C
:10B2980044D70F0018D70F00B0EE022007B500936F
:10B2A80013460A4601460348FDF7CDFA03B05DF898
:10B2B80004FB00BFB0EE022013460A4601460148CF
:10B2C800FDF7C8BAB0EE0220014B18700B2070478A
:10B2D80018160320024B002218781A70704700BF16
:10B2E8001816032018DF704730B585B005461022C0
:10B2F8000C466846002102F068F9A40868460195E2
:10B308000294FFF7EFFF05B030BD1FB5002304A876
:10B31800CDE901330393022340F8103DFFF7E2FF24
:10B3280005B05DF804FB4FF000534FF480521A60EB
:10B3380000207047014B06201B681847241603207D
:10B348000A2803D90B38C0B2FFF7BEBF7047000008
:10B3580010B5044686B00020FDF784FA014630B1E6
:10B36800164A18212046FDF757F806B010BD1822D6
:10B37800684602F02AF904238DF80030104B196D45
:10B38800104B1B68994211D10F4B186800F042FD11
:10B398008DF80100FFF7D4FFD4E901138DF80100FF
:10B3A80068469847094800F091FADEE701238DF8CE
:10B3B80001306846D4E901139847D6E759B30F001E
:10B3C800981903201C160320201603203DB30F00F4
:10B3D80070B5044686B0162200210DF1020002F075
:10B3E800F4F823788DF8003001228DF801200C2B19
:10B3F80000F28181DFE813F00D0079000F00790079
:10B4080079007F017900700079006E001C002F0020
:10B4180074008DF80420D4E90113684698479DF814
:10B428000130012B00F04D81A74B05201B6847E137
:10B438004FF08053D3F800210192D3F804210292EF
:10B44800D3F80C2192020492D3F8102192020392AD
:10B458001B690593DFE743F204039C4D18689C4978
:10B468002E6A227C884214BF01230223012E08BFC2
:10B47800013352B902238DF80430EB680293954BDF
:10B488000393C3F57E230493C5E7012A12D18842AA
:10B4980010D14FF440531B78142B8ABF43F2140386
:10B4A80000231B6802934FF48053039343F208036D
:10B4B8001B68E8E79A4209D201238DF80430AB688B
:10B4C800029300F0C7FAAB690390DCE7FF238DF81D
:10B4D8000430A0E7237CFAE7238AADF804309AE722
:10B4E800794B07201B68984795E7062B7A4A01D0C5
:10B4F800012B01D1216911701178012904D0022989
:10B5080056D00023137099E0013B072B83D801A282
:10B5180052F823F03DB50F001FB40F00ADB50F0072
:10B528007DB50F001FB40F00A7B50F001FB40F00A3
:10B5380055B50F00644B03201B689847606900F0FD
:10B548006BFBFFF7FDFE8DF8010064E7A18A206917
:10B5580000F07EFBFFF7F4FE5C4B8DF80100DA6B20
:10B568001B6C0293E3680192002B3FF454AF2069EF
:10B57800984750E759495A4800F090FBFFF7E0FE1A
:10B5880001288DF801007FF446AF002000F09EF9F5
:10B5980000283FF440AF0A238DF801303BE74FF411
:10B5A80080730393494BDA6B1B6C0192029332E769
:10B5B800013B072B3FF62FAF01A252F823F000BF43
:10B5C800E9B50F001FB40F009BB60F00A5B60F001A
:10B5D8001FB40F00EDB60F001FB40F0049B60F00DF
:10B5E80000F056FB08B90823D6E762690AB90323B5
:10B5F800D2E7C2F30B0333B1344B38495B6D0968AA
:10B6080013448B42F3D1B2F5805F01D90423C3E719
:10B618002E4B3249586D096815188D42E3D85A6483
:10B62800DA6C9A64186518632D4B1B680022012197
:10B638001844FFF741FE00283FF4EDAE0523ABE7C1
:10B6480000F026FB0028CED0204DA28AD5E914317F
:10B658005B1A696C13448B42C9D8214B2E6B18684E
:10B66800D4E903313044FFF719FE08B1E3687EE7F7
:10B67800A18A2B6B20690B442B632B6D05F14802C3
:10B688000B442B65FCF79AFF2B6DA864029001937D
:10B69800C1E60E4B9A6C02921B6DF8E70B4BD3E98F
:10B6A8001402596C821A8A429DD19A6C58650021FD
:10B6B80020465964DA64FFF74BFE034B1B680420ED
:10B6C800984706B070BD00BF2416032098190320C0
:10B6D800DBE5B15100800F00F4EE02201C160320B8
:10B6E80020160320054B9A6C1B6D01934FF4805371
:10B6F800029203938FE602234EE700BF98190320B6
:10B7080083681BB1024A1821FCF786BE07207047E0
:10B71800D9B30F0038B50546C0B10120FFF7AEFD1B
:10B72800044648B900F050FA00F0B2FA30B9084BB4
:10B7380000201D60FFF7C8FD204638BD05490648B2
:10B7480000F0ACFA0128F2D00324F5E70724F3E768
:10B75800241603201C160320201603202DE9F0418F
:10B7680015464FF4DC72064688461F4601F0CEFEA9
:10B7780018B905B1A847002006E00022012130468B
:10B78800FFF79AFD10B10320BDE8F0814FF4DC7299
:10B798004146384601F0F0FE2B464FF4DC7239463C
:10B7A8003046FFF77BFD0028E5D0ECE770B5084C84
:10B7B800054600225821201DFCF700FF2A4620607C
:10B7C8002146044B0448BDE87040FFF7C7BF00BFDF
:10B7D800981903202816032000F00F002DE9F041E6
:10B7E800FFF74CFD044618B103242046BDE8F0815C
:10B7F800294D2B6801331CD002465821281DFCF71F
:10B80800DDFE2D682B1A5D425D41244E37683B688A
:10B818000133B04634D000225821381DFCF7CEFE43
:10B828003B6883422CD130682DB94FF4DC72014655
:10B838001CE00546E9E754221949043001F066FE88
:10B848000546D8F8000017494FF480725C3001F0C3
:10B858005DFE3DB930B94FF4DC720F49124801F072
:10B868008BFEC2E7D8F800104FF4DC720E4801F0E6
:10B8780083FE0020FFF79AFF04460028B5D0B3E7FF
:10B88800002DE8D1084C4FF4DC722946204601F01F
:10B898009CFE01236360ECE700F00F00F8EE022045
:10B8A80004F00F005CF00F009819032002460248CC
:10B8B800024B0068FFF752BFF8EE0220E0170320A2
:10B8C8000149FFF7F3BF00BF00F00F0038B5054688
:10B8D8000020FFF76BFF044618B903492846FFF715
:10B8E800E5FF204638BD00BF9819032029DF7047BF
:10B8F80038B50C4D0446D5F89C3178B101330FD1D9
:10B90800002218210430FCF759FE21462060072246
:10B9180005F5CE70BDE83840FFF7E8BF0E2038BD0A
:10B928000820FCE700F00F0008B528B11C220349E5
:10B9380001F022FE002008BD0E20FCE79CF10F005C
:10B9480010B5064C002218212046FCF737FE54F8A3
:10B95800043C1B1A5842584110BD00BFA0F10F000B
:10B9680008B50A4BD3F85C21013203D1D3F89C31D6
:10B97800013309D04FF47F20FEF7A4F95722034979
:10B988004FF47F20FEF7B6F9002008BD9819032070
:10B99800F8B5094E094CA41B0746E4080025A54242
:10B9A80001D10020F8BD56F83530384698470028B0
:10B9B800F8D10135F3E700BFA0D60F00A8D60F00D5
:10B9C800F8B5094E094CA41B0746E4080025A54212
:10B9D80001D10020F8BD06EBC50338465B689847DF
:10B9E8000028F7D10135F2E7A0D60F00A8D60F003E
:10B9F80008B50C22002101F0E8FD024B00221A6371
:10BA080008BD00BF9819032043F204031A68084BC5
:10BA18009A4201BF43F20803186800F6FF7020F449
:10BA28007F600CBF20F00F004FF48050704700BFBC
:10BA3800DBE5B15108B5FFF7E7FF054B9B691844F3
:10BA480000F6FF7020F47F6020F00F0008BD00BFF3
:10BA580098190320FFF7D8BF4FF4805070470000B3
:10BA680010B50B4C236A012B0DD170B1E3694BB1B2
:10BA7800FFF7CAFF0022A169FCF7A0FDE3691B1AC2
:10BA88005842584110BD0020FCE71846FAE700BFAD
:10BA9800981903202DE9F74F264CDFF8A4B0DFF8FA
:10BAA800A4909846236A019305461646002743F258
:10BAB800040A012F15D0022F21D0FFF7BBFF76B162
:10BAC800019B5A1E53425341A9EB0000A84200D3E0
:10BAD800D9B1C3B9022F28D07A1CD7B2E9E73346C7
:10BAE800F2E7FFF791FFB8F1000F06D1DAF800305E
:10BAF800B3EB0B0318BF0123E6E73B46E4E701235A
:10BB08004FF48050E0E7A84211D317B10A48FFF775
:10BB18006FFF002601230948C4E90463FFF768FFA3
:10BB28006562304603B0BDE8F08FA842EED204202B
:10BB3800F8E700BF98190320B0190320BC190320A7
:10BB4800DBE5B15100500F0030B50E490E4C8A6B41
:10BB580085B06D4628465C31FDF740FA95E80F0040
:10BB680084E80F00094B0A4AE36000231360094A7E
:10BB780009491360094A204605B0BDE83040FDF781
:10BB8800CCBC00BF98190320901D0320A9BB0F004F
:10BB9800F01B0320EC1B0320FCD80F00141C03200F
:10BBA8005B689A68054B9A4207D1D0E9012304499A
:10BBB80001320A60034A013B1360704780D80F00C6
:10BBC800F01B0320EC1B032030B50E4D0E4CAB6B65
:10BBD80091B0ABB1FFF7B8FF90B16B6A83B10123A5
:10BBE8002370FEF777F9684620220849FEF7A5F981
:10BBF80040236A4606490748FEF7BEF811B030BD33
:10BC08000023EDE798190320281E0320F0D70F0022
:10BC1800A01D032088D70F0038B5054678B1B0F5C8
:10BC2800807F0ED8084C094B0021202204F13800EF
:10BC38001970216301F0C9FCA563012038BD0320F8
:10BC4800FCE70420FAE700BF98190320281E032008
:10BC580070B50E4C0646E06BA36B42189A420D462F
:10BC680011D85C300A462044314601F085FCE36B6C
:10BC780004F140022B4429463046E363FCF79EFC5E
:10BC88002064012070BD0320FCE700BF9819032041
:10BC9800014B1878704700BF281E03202DE9F04F8C
:10BCA8004E4CD4E90E329A4287B006460F4640F011
:10BCB8008E804B4B1A7898464AB1FFF7BBFE30602E
:10BCC800636A3B600124204607B0BDE8F08FFFF7A8
:10BCD8003BFF00287DD0434B93F89C401A4614B98B
:10BCE8001B78002B75D0002333603B605CB13E4C61
:10BCF80092F83831A4F199054FF0200BCDF814B023
:10BD080024B91324DFE72346384DF5E7002B45D146
:10BD180005AB0193DFF8F4A0354B364ACDF800A007
:10BD28001B68126834493548FEF7BAF8A0BB237877
:10BD3800402B31D1DFF8D89003931A46611C48464E
:10BD480001F01AFC59464846FEF703F9039B2C49B3
:10BD58002C48CDE900935246059BFEF729F80028A8
:10BD680037D1281D00F016F901280446ABD195F803
:10BD7800593088F800009BB995F8682082B1E86EC0
:10BD880048B30022386001231146FFF783FED0B97B
:10BD9800FFF750FE306096E70A2494E7162492E7EE
:10BDA80013F0010003D095F85A0000B1E86D9B0725
:10BDB800E6D595F86030002BE2D0134B6A6EC3F5D8
:10BDC8007E239A4201D904247DE71044D8E7082449
:10BDD80079E7052477E70F2475E700BF9819032052
:10BDE800281E0320141C03204D1D0320181C0320AB
:10BDF800EC1B0320F01B032094D70F00701B0320BB
:10BE0800A01D03202C1E032000800F00F41B03201C
:10BE1800E81D03202DE9F043544BDFF8749193F8A3
:10BE28009C20534C03F1A40508338DB0002A08BFA9
:10BE38001D464FF0200806460F46424605F16F01A1
:10BE480004A8CDF80C80FEF76DF803AB0193CDF88C
:10BE580000903B46324647494748FEF721F820B153
:10BE680017254648FFF7C4FD12E0424604A9484694
:10BE780001F04CFB0028F3D195F85530CBB96A682E
:10BE880023620121E162A260A36CC4E90973012560
:10BE9800202200213A4801F098FBF422FF2139487A
:10BEA80001F093FB002328462363A6640DB0BDE888
:10BEB800F08303F00208DB0752D542F20403F1587D
:10BEC80003F1A34303F5471303F2D75399424AD129
:10BED800AB6D03F5FF5203F6FF731F32C3F30B0379
:10BEE800D31A42F20802B2589A423CD343F20403EE
:10BEF8001B688B4214BF012300231AD14FF440530F
:10BF08001B78142B81BF43F2140318681E4BB0FB37
:10BF1800F3F006F500531B78142B89BF42F2140383
:10BF28000023F358184A88BFB3FBF2F3C31A18BFAB
:10BF380001237BB1B8F1000F15D01448FFF758FD65
:10BF4800AC23E362AB6D6363B8F1000F9CD06B6800
:10BF5800E36099E7B8F1000F14BFAC23A523F0E71D
:10BF6800AA23E362F0E705257BE700BF141C032042
:10BF78009819032094D70F00701B0320BC190320C5
:10BF8800D0190320F419032040420F00B0190320F0
:10BF9800501B032090F85430F0B5002B57D090F880
:10BFA8005530032B53D890F86D20032A4DD1027ACF
:10BFB800002A4CD0C268342A4BD143F20401027CD7
:10BFC8000C6825498C422FD112B3416901B300F1A5
:10BFD8001405002143F20C06CCB2A24201D812206B
:10BFE80015E055F821703488A74201F10101F3D119
:10BFF80002782AB3012B4268184B1BD89B689A42D7
:10C0080034BF00230123002B14BF01201020F0BDF2
:10C018002BB9012AECD94269002AE9D1DFE713F1EB
:10C02800FF3218BF0122F7E712B14269002AD6D1C0
:10C038000278F1E7DB689A4294BF00230123E2E724
:10C04800012B14BF0F200120E1E71420DFE70F20A8
:10C05800DDE71120DBE700BFDBE5B15198190320CC
:10C0680030B10268034B04489A4208BF0020704769
:10C0780002487047DD55AABB8208F0007108F0003D
:10C0880038B50D460446B0B1A0220021043000F0B6
:10C0980045FD95B12946082204F1640000F044FDED
:10C0A800082205F1200104F1840000F03DFD044B55
:10C0B8002360002038BD034838BD034838BD00BFA1
:10C0C800DD55AABB7108F0008308F0002DE9F7439D
:10C0D80005460E4699461146FFF7C2FF044600285A
:10C0E80040F08480002E00F08580002900F08480D4
:10C0F800B9F1200F40F0828005F14404082205F1CF
:10C108000408204600F010FD05F1240708223146F6
:10C11800404600F009FD06F120010822384600F0EB
:10C1280003FD02A94FF4807041F8049D00F0A6FABF
:10C13800002865D1334A4FF480731360012193605E
:10C148000823314A00F04AFB0121084605232F4AFB
:10C1580000F044FB0823424601211C2000F03EFB6E
:10C1680008233A460121032000F038FB2246082321
:10C178000121022000F032FB0823254A01211A2060
:10C1880000F02CFB0523234A01211B2000F026FB8D
:10C198000823214A0121142000F020FB08231F4A0C
:10C1A8000121152000F01AFB082305F16402012182
:10C1B800162000F013FB082305F184020121172043
:10C1C80000F00CFB0823164A01210B2000F006FBA7
:10C1D80000F060FB0446019800F0EEFA114B002CC9
:10C1E80018BF1C46A421284600F09AFC204603B03C
:10C1F800BDE8F0830C4CF9E70C4CF7E70C4CF5E77D
:10C20800084CEFE790B00250C0D90F0038DA0F00A1
:10C2180080D90F0024DA0F00E4D90F0004DA0F00E8
:10C22800A0D90F008408F0007608F0008008F0001C
:10C238008108F0002DE9F041069F044615461E4688
:10C24800FFF71EFF38B93B46324629462046BDE86F
:10C25800F041FFF73BBFBDE8F08100000C4BC2691D
:10C268001A60826943F8042C426943F8082C026971
:10C2780043F80C2CC26843F8102C826843F8142C3D
:10C28800426843F8182C026843F81C2C704700BF1A
:10C298005CB602500C4B1B68C3610C4B1B68836176
:10C2A8000B4B1B6843610B4B1B6803610A4B1B68F4
:10C2B800C3600A4B1B688360094B1B684360094BCA
:10C2C8001B680360704700BF5CB6025058B6025046
:10C2D80054B6025050B602504CB6025048B60250FE
:10C2E80044B6025040B6025030B10268034B0448CD
:10C2F8009A4208BF0020704702487047DD55AABB24
:10C308000202F0000002F00038B5044668B1051DCD
:10C318002846702100F004FC28462022044900F039
:10C32800FBFB044B2360002038BD034838BD00BF29
:10C338005CDA0F00DD55AABB0002F000294B2DE99D
:10C34800F04304460E4615460FCB85B06F468DE880
:10C358000F002DB94FF00009484605B0BDE8F0833D
:10C368002046FFF7C1FF81460028F5D1231D019320
:10C37800636AA3BB236F8BB1C3F14008A84528BFEC
:10C38800A84604F1300031461844424600F0C4FB88
:10C39800236F434446442367A5EB0805226F402AD0
:10C3A80006D104F13001384600F0CCFB00232367A6
:10C3B80005F03F0835F03F0505D031462A46384696
:10C3C80000F0C0FB2E44B8F1000FC3D042463146FE
:10C3D80004F1300000F0A0FBC4F87080BCE7DFF87F
:10C3E8000890B9E74CDA0F000C02F0002DE9FF4184
:10C3F800144B04460E460FCB8DE80F002046FFF77E
:10C4080073FF8046B0B9CEB1636A251D01953BB96B
:10C4180001236362226F04F13001684600F092FB49
:10C428002B46043E243453F8042B12BAA34246F890
:10C43800042FF8D1404604B0BDE8F081DFF8088049
:10C44800F8E700BF4CDA0F000502F000084B1B6844
:10C458001B0EF02B08D1074B1A68074B9A4205D1DF
:10C46800064B00201860704705207047062070476B
:10C4780028B9025024BA02500000E0200CBA025039
:10C4880030B500220C4C49001346023840F6FC75C2
:10C49800904202F10102CABF236025605B181E2A80
:10C4A80004F10404F4D1054A19441360044B054A05
:10C4B80019609A6030BD00BF00B0025078B00250D9
:10C4C8007CB0025020F80F0030B51E4B85B01A46DC
:10C4D800196800910099CC07FAD500F1A05000F531
:10C4E8002C408000016813680193019BD807FAD596
:10C4F800154B164C1868164D1F30202390FBF3F08F
:10C508000138002810DA00230130400153B1A0F1AE
:10C5180020014FF00042134204D1013881424FEA12
:10C528005202F8D105B030BD13680393039BDB07B3
:10C53800FAD5431823602B680293029B002BE3D1A2
:10C548000138DEE7B4B00250ACB00250E4B002509B
:10C55800DCB002507FB51C681CB901F01F041F2C09
:10C5680027D1174C254626680196019EF607FAD56D
:10C5780000F1A05000F52C40800000682C6803945E
:10C58800039CE407FAD50F4C00EB611020600E48BD
:10C5980001F01F04006802901F2C18BFC9430298BD
:10C5A8000FBF106001F01F0100FA01F111600021B6
:10C5B800196010684300C00F136004B070BD00BF5D
:10C5C800B4B00250E4B00250DCB002500C4B18601A
:10C5D8003F3020F03F008901403058609960D960B1
:10C5E8001961596199611C330648196082B0026863
:10C5F8000192019AD207FAD5196002B0704700BFBC
:10C6080090B00250B4B0025038B5A0F12003B3F591
:10C61800426F05462CD88F2826D800F1470300F131
:10C628006604DB064FEA541400D0013464013F3439
:10C63800A409013411B1A1421AD30C46E3004FF406
:10C648008050B0FBF3F0202828BF202002B11060F2
:10C65800084B01221A602146FFF712FF284621469F
:10C66800FFF7B4FF002038BD00F11F046409DDE7BF
:10C67800014838BD1CB802502221F0000A460021AA
:10C68800FFF7C2BFF0B5464B89B01D461C68019440
:10C69800019CE407FAD5434BDFF810C1DFF810E13D
:10C6A80013449B000A181B681E2A88BFC0F11E018C
:10C6B8001F330A185B095A43B2F5806F88BF4FF4DD
:10C6C80080614FF0000484BFB1FBF3F1091A00F157
:10C6D800A05000F52C402746A14233DC2A6804927A
:10C6E800049AD207FAD5304A126829680591059943
:10C6F800CF07FAD52D482E4C0260002216469A42E2
:10C7080002F1010140D12A4C134621F00101002613
:10C718008B423CD32B680693069BDE07FAD5254B44
:10C728001B682C680794079CE407FAD5036000236C
:10C738001F481C469A422DD11D4A00208B422CD3FB
:10C7480009B0F0BD2A680292029AD207FAD50219F6
:10C75800920012682E680396039EF607FAD5CCF865
:10C76800002000229A4202F1010206D11E4622F060
:10C778000102964204D30134AEE7CEF80070F1E727
:10C78800CEF800700136F4E726600A46B7E726605F
:10C798000133BDE704600133CCE710600133CDE716
:10C7A800B4B0025024AC00147CB00250D4B0025093
:10C7B800D8B0025078B0025008B540B120280146E0
:10C7C8004FF0070228BF20210020FFF75BFF024B34
:10C7D80000221A6008BD00BF1CB80250F0B5294DF0
:10C7E80085B02C462E680096009EF607FAD500F113
:10C7F800A05000F52C408000056820680190019841
:10C80800C707FAD52048214F056002EB8306B242DC
:10C8180029D15A1C1D4E22F001020027934227D32A
:10C8280023680293029BDE07FAD5194B0B449B0041
:10C838001B681F335B099A4213D22168039103993D
:10C84800C907FAD5154400219B1A104A0560084605
:10C85800994210D35A1C0D4922F00102002093423C
:10C868000CD305B0F0BD52F804EBC7F800E0CEE7F2
:10C8780037600133D2E710600131E9E7086001331E
:10C88800EDE700BFB4B00250D4B00250D8B00250A7
:10C8980024AC00142DE9F041814B1D6898682033C1
:10C8A800A0B01E461A680192019AD707FAD57D4BA7
:10C8B8007D4A1A6032680292029AD407FAD57B4AF6
:10C8C8001A607B4A1446116803910399C907FAD57F
:10C8D800784A1168C1F3402137680497049FFF071D
:10C8E800FAD5754F1F6027680597059FFF07FAD58A
:10C8F8001768002900F0CF80B90540F1CC80316875
:10C9080006910699CF07FAD56C49196021680791F5
:10C918000799C907FAD51168C1F340213768089704
:10C92800089FFF07FAD5664F1F6027680997099F78
:10C93800FF07FAD51268002900F0AF80910540F191
:10C94800AC8032680A920A9AD207FAD5564A1A6017
:10C9580032680B920B9AD707FAD55A4A1A6031688F
:10C968000C910C99CC07FAD55749196031680D918B
:10C978000D99C907FAD55549196031680E910E9974
:10C98800CF07FAD55249196031680F910F99CC0732
:10C99800FAD550491960504B1E46196810911099E4
:10C9A800C907FAD53F4C4D4B236033681193119B4F
:10C9B800DB07FAD54A4B236033681293129BDF07D3
:10C9C800FAD5484B23603A4B984619681391139946
:10C9D800C907FAD5324F386033681493149BDB07C4
:10C9E800FAD5226033681593159BD807FAD53E4BC4
:10C9F800236033681693169BD907FAD53B4B2360FF
:10CA080033681793179BDA07FAD5394B23603368D5
:10CA18001893189BDB07FAD5364B236033681993B4
:10CA2800199BD807FAD5344B236033681A931A9B9D
:10CA3800D907FAD5314B236033681B931B9BDA0760
:10CA4800FAD52F4B236000F037FC08BBD8F800302C
:10CA58001C931C9BDB07F9D53D6033681D931D9B18
:10CA6800D907FAD5274B236033681E931E9BDA0734
:10CA7800FAD5254B2360D8F800301F931F9BDB079E
:10CA8800F9D50C4B1B6813F4805F204B08BF184680
:10CA980020B0BDE8F0811E48FAE71E48F8E700BF5D
:10CAA80090B0025080B0025000100251C01F72298D
:10CAB800B4B0025088B00250C0CF0129C01F0E295F
:10CAC800C03F002940010249003184A800001649EE
:10CAD800400108A180440888B0B00250C044708862
:10CAE80080077A41C0077E4100006A4980061649DE
:10CAF80040006E490002002100822021408220214E
:10CB08008082242140A161A100C861510308F1007D
:10CB18000108F1000208F10000F02EBD00F055BD3B
:10CB28000A46002100F051BD01EB820204388A4216
:10CB380001D10020704752F8043D1BBA40F8043F69
:10CB4800F5E700002DE9F74F314B446880469246DF
:10CB580099461A68002AFCD12E4B9B461A68002A6F
:10CB6800FCD14FF0FF30019100F098FC802000F0DC
:10CB78009BFC294D294A2A4F2A4E012307202B6066
:10CB8800A2F59E72C2F83C011360636A3B60A36A17
:10CB98003360D8F8003042F8043CD8F80830204612
:10CBA80098470199D9F80030002BFBD1BAF1000F52
:10CBB80020D11D4B04221A60D9F80030002BFBD17C
:10CBC800DBF800A0BAF1000FFAD1D8F80C302046F3
:10CBD80098473B6863623368A362144BC3F800A0AC
:10CBE800C3F844A1D9F80030002BFBD12B6003B067
:10CBF800BDE8F08F236A012B04BF0C4A13600C4B6D
:10CC080040201960C3F804A000F054FCD4E700BF2A
:10CC180010B9025020BC025018B8025000B9025096
:10CC2800CCB70250D0B70250C8B7025084B60250F1
:10CC380028BC025010B5544B98B019461A68019296
:10CC4800019AD207FAD5514B514A1A600A680292E2
:10CC5800029AD407FAD54F4A1A600A680392039ACF
:10CC6800D007FAD54C4818600A680492049AD2078B
:10CC7800FAD54A4A1A600A680592059AD407FAD57D
:10CC8800474A1A600A680692069AD207FAD5454AB0
:10CC98001A600A680792079AD407FAD5424A1A60B6
:10CCA8000A680892089AD207FAD5404A1A600A68B0
:10CCB8000992099AD407FAD53D4A1A600A680A9275
:10CCC8000A9AD207FAD53B4A1A600A680B920B9A5D
:10CCD800D407FAD5384A1A600A680C920C9AD20717
:10CCE800FAD5364A1A600A680D920D9AD407FAD511
:10CCF800334A1A600A680E920E9AD207FAD5314A58
:10CD08001A600A680F920F9AD407FAD52E4A1A6049
:10CD18000A681092109AD207FAD52C4A1A601A4B50
:10CD280019461C681194119CE407FAD5174B186032
:10CD3800086812901298C407FAD51A600A68139204
:10CD4800139AD007FAD5124A1A600A681492149AEC
:10CD5800D207FAD51E4A1A600A681592159AD4079E
:10CD6800FAD51C4A1A600A681692169AD007FAD59C
:10CD7800194A1A600A681792179AD207FAD5174AF9
:10CD88001A6018B010BD00BFB0B0025080B0025099
:10CD980000936521000431904096659000836121DD
:10CDA80000C3302100C364900081619000461021C7
:10CDB800008111210041442100C320290C4610C8DC
:10CDC8000086312100C3602140C128294096652191
:10CDD8000013319040962529594614C84004324919
:10CDE80010B5494B94B019461A680092009AD207B8
:10CDF800FAD5464B464A1A600A680192019AD40746
:10CE0800FAD5444A1A600A680292029AD007FAD5FB
:10CE1800414818600A680392039AD207FAD53F4A34
:10CE28001A600A680492049AD407FAD53C4A1A6030
:10CE38000A680592059AD207FAD53A4A1A600A682A
:10CE48000692069AD407FAD5374A1A600A680792F2
:10CE5800079AD207FAD5354A1A600A680892089ADA
:10CE6800D407FAD5324A1A600A680992099AD20791
:10CE7800FAD5304A1A600A680A920A9AD407FAD58B
:10CE88002D4A1A600A680B920B9AD207FAD52B4AD8
:10CE98001A600A680C920C9AD407FAD5284A1A60C4
:10CEA8000A680D920D9AD207FAD5264A1A600A68BE
:10CEB8000E920E9AD407FAD5234A1A600A680F927E
:10CEC8000F9AD207FAD5214A1A600F4B19461C68E7
:10CED8001094109CE407FAD50C4B18600868119060
:10CEE8001198C407FAD51A600A681292129AD007E4
:10CEF800FAD5174A1A600A681392139AD207FAD514
:10CF0800144A1A6014B010BDB0B0025080B002507C
:10CF18008090652100040990409665908080612189
:10CF280080200821802064900081619000461021B3
:10CF3800008111210041442180202029024610C887
:10CF480000860921802060214021282940966521FA
:10CF580040962529594614C810B5504B96B01C4622
:10CF68001A680192019AD207FAD54D4B4D4A1A60B8
:10CF780022680292029AD207FAD54B4A1A604B4AA3
:10CF880042EA804022680392039AD207FAD51860D1
:10CF980022680492049AD007FAD5454A1A60A2F585
:10CFA800800242EA814122680592059AD207FAD5A1
:10CFB800196022680692069AD007FAD53D4A1A6087
:10CFC80022680792079AD107FAD53B4A1A60226865
:10CFD8000892089AD207FAD5384A1A602268099244
:10CFE800099AD007FAD5364A1A6022680A920A9A2C
:10CFF800D107FAD5334A1A6022680B920B9AD207E6
:10D00800FAD5314A1A6022680C920C9AD007FAD5E0
:10D018002E4A1A6022680D920D9AD107FAD52C4A29
:10D028001A6022680E920E9AD207FAD5294A1A6017
:10D0380022680F920F9AD007FAD5274A1A602168FA
:10D0480010911099C907FAD51A60144B1A46196835
:10D0580011911199C807FAD5114B20491960116827
:10D0680012911299C907FAD51D49196011681391CF
:10D078001399CC07FAD50B491960116814911499C2
:10D08800C807FAD517491960116815911599C90784
:10D09800FAD5154A1A6016B010BD00BFB0B00250DC
:10D0A80080B002504004419000862929D81001C858
:10D0B80040144190401421294014652100344090C7
:10D0C80000310C90C0400C90C030202940960D9043
:10D0D80000416090031645C8008611210041602177
:10D0E800594644C84014459040142D9070B52648C0
:10D0F80088B0054604680094009CE607FAD52348E2
:10D10800234C0460234C44EA83432C680194019C1B
:10D11800E407FAD50360930143EA824242F01044DF
:10D1280044F4C0442B680293029BDE07FAD50460DE
:10D138002B680393039BDB07FAD5174B03608B011E
:10D1480043EA814141F0104343F4C0432E680496FA
:10D15800049EF607FAD503602B680593059BDE0746
:10D16800FAD5046041F058412B680693069BDC070A
:10D17800FAD5016042F058422B680793079BDB07FA
:10D18800FAD5026008B070BDB0B0025080B002504D
:10D19800C0210229807100988061189000B5374B32
:10D1A8008FB019461A680092009AD207FAD5344B04
:10D1B800344A1A600A680192019AD007FAD5324AAD
:10D1C8001A600A680292029AD207FAD52F4A1A60A0
:10D1D8000A680392039AD007FAD52D4A1A600A689A
:10D1E8000492049AD207FAD52A4A1A600A68059264
:10D1F800059AD007FAD5284A1A600A680692069A4C
:10D20800D207FAD5254A1A600A680792079AD00702
:10D21800FAD5234A1A600A680892089AD207FAD5FA
:10D22800204A1A600A680992099AD007FAD51E4A54
:10D238001A600A680A920A9AD207FAD51B4A1A6033
:10D2480008680B900B98C007FAD51A600A680C9208
:10D258000C9AD007FAD5164A1A600A680D920D9AE8
:10D26800D207FAD5134A1A600E210D230F22002087
:10D27800FFF73CFF0FB05DF804FB00BFB0B00250F1
:10D2880080B0025080430129406339218070012910
:10D298008020542100D13490C0403490C0302029DF
:10D2A800C0530D9000413890832308C880E31021B3
:10D2B80000413821CF4308C82DE9F04192B001233D
:10D2C80003930493624B1D461A680592059AD20788
:10D2D800FAD5604C604B2360604B19461A68069279
:10D2E800069AD707FAD55E4B1A68D60400F1A880CB
:10D2F8002A680792079AD007FAD55A4A22600A681C
:10D308000892089AD207FAD51E68C6F30036002E8E
:10D3180040F098801220FFF7D7F807461320FFF750
:10D32800D3F887428CBF12201320FFF7CDF8471E91
:10D33800FFF734FF03AB01AA39461220FFF70AF9B9
:10D3480004AB804602AA39461320FFF703F900EB25
:10D358004800022832D003283ED0012874D12B6817
:10D368000993099BDB07FAD53F4B23602B680A9387
:10D378000A9BD807FAD53D4B23602B680F930F9B68
:10D38800D907FAD53A4B23602B681093109BDA071C
:10D39800FAD5384B23602B681193119BDB07FAD51C
:10D3A800354B2360013F25D5102319221821002071
:10D3B800FFF79CFE304612B0BDE8F0812B680B9356
:10D3C8000B9BD907FAD52D4B23602B680C930C9B2C
:10D3D800DA07FAD52A4BCFE72B680D930D9BDB07AD
:10D3E800FAD5284B23602B680E930E9BD807FAD5E5
:10D3F800254BC1E703AB01AA39461220FFF7AAF86B
:10D4080004AB044602AA39461320FFF7A3F810EB31
:10D41800440402D1FFF70EFCC4E7FFF7E1FC022C3D
:10D4280008D0032C09D0012C10D117211620FFF7A2
:10D4380093FDB7E715211420F9E70F210E20F6E731
:10D44800124EB7E7124EB5E7124EB3E7124EB1E7E8
:10D45800B0B0025080B0025000084A51B4B0025037
:10D4680088B0025000084E5100065A4940065E49ED
:10D47800000442410014424940042E490006524922
:10D488004006564900063A4940063E490608F1005A
:10D498000708F1000408F1000508F100014B1860C5
:10D4A800704700BF08BA0250014B1860704700BFB0
:10D4B80004BA0250094BC2431A60043B82B01B688D
:10D4C8000193074B019A104204D0064A106018686D
:10D4D80002B0704720BF1A680192F3E704BA0250FD
:10D4E800D01E032008BA0250054B4FF0FF321A60D5
:10D4F80053F8042C034B1A601A68034B1A607047E0
:10D5080004BA0250D01E032008BA025092B370B475
:10D51800134640EA010212F0030F17D05A1E10D02A
:10D5280004780B789C420CD1431C4C1C02441846CE
:10D538002146934205D00133013406780D78AE4276
:10D54800F5D000780B78C01A70BC70470F2BE5D95E
:10D5580004680A689442E1D1041D0A1D2046114658
:10D56800043B042BDAD90434043206680D68AE4251
:10D57800F4D0D3E700207047844640EA010313F053
:10D58800030F18D18446202A0BD32DE9F007B1E800
:10D59800F807A0E8F807A2F12002202AF7D2BDE890
:10D5A800F007042A07D351F8043B40F8043BA2F1E2
:10D5B8000402042AF7D2002A05D011F8013B00F82A
:10D5C800013B013AF9D1604670478446002A2DD0C4
:10D5D80010F0030F04D000F8011B013A26D0F7E73A
:10D5E800C9B241EA012141EA0141202A12D3A2F13C
:10D5F80020022DE9F0030B460C460D460E460F4659
:10D6080088468946A0E8FA03203AFBD2BDE8F00331
:10D6180020320BD0042A05D340F8041B043A05D065
:10D62800042AF9D200F8011B013AFBD16046704781
:10D6380000F1010110F0030F11D010F8012B002A9E
:10D6480023D010F0030F0AD010F8012B002A1CD0A9
:10D6580010F0030F03D010F8012B002A15D02DE984
:10D6680070004FF001324FF0803350F8044BA4EBB8
:10D67800020525EA04051D4000D1F6E7A0F10400E3
:10D6880070BC10F8012B002AFBD1A0EB01007047F9
:08D6980015980F0005980F0022
:08D6A00089B10F00DDAE0F009F
:0CD6A800000000000300000021A00F00A3
:10D6B40088050320C4150320D515032090050320F5
:04D6C400F40000006E
:08D6C800F9AB0F0000000000A7
:10D6D000719B0F0000000000819C0F000000000003
:08D6E000218A0F000000000088
:08D6E800E18B0F0000000000BF
:08D6F0003D8B0F00000000005B
:10D6F800000000000000000079B20F0000100000D8
:04D70800000010000D
:10D70C00001000000400000001000000B9880F00A8
:10D71C00DD880F00ED880F0059890F00FD880F0080
:10D72C00C5880F00C9880F00CD880F0000100000BD
:10D73C000400000001000000658A0F00458A0F00FC
:10D74C00358A0F006D8C0F00218C0F00098A0F0099
:10D75C000D8A0F00118A0F00C5900F0067900F0003
:10D76C00B9950F002B960F004B960F00A98F0F0049
:10D77C00698F0F0041950F00000000004800000069
:10D78C00002040000000000021970F008D970F0033
:10D79C0031970F0020000000000000000000000086
:10D7AC000D0E0F1001000007E0D60F00E8D60F0099
:10D7BC0008000000D0D60F00E0D60F0008000000D3
:10D7CC00E8D60F00F0D60F0008000000C8D60F00F6
:10D7DC00D0D60F0008000000F0D60F00F8D60F00CE
:10D7EC0008000000E9C958D315F927B3B49C6FA8F9
:10D7FC0010BCDF917694F72A849ED39E8C62AAB8D3
:10D80C00BF4BE9190232CF9AC9A614F8330E94C64D
:10D81C00E21662938D03E405EC3ED07B33696E49CE
:10D82C007ACD66870338FDD870470000011101FFDF
:10D83C000100000000000000021702FE940000002E
:10D84C0080D80F0000000000000000000000000065
:10D85C0001010000010000000000000002050000B2
:10D86C00210000000000000000000000000000008B
:10D87C0000000000011104FC040000000000000086
:10D88C00021104FC0400000000000000032104FC51
:10D89C000410000000000000041101FF0100000052
:10D8AC0000000000051102FE040000000000000052
:10D8BC00061104FC0400000000000000071104FC29
:10D8CC000400000000000000081701FF2200000007
:10D8DC005CD80F00091001FF01000000F8D80F0000
:10D8EC00000000000000000000000000000000002C
:10D8FC00011704FC9800000038D80F00021704FC34
:10D90C00DC00000020D90F00000000000000000027
:10D91C0000000000010700009800000038D80F003C
:10D92C0002010000010000000000000003050000DF
:10D93C00410000000000000000000000000000009A
:10D94C000000000050EADA308883B89F604F15F36E
:10D95C000000C98E446675546172670000000000B7
:10D96C00000000000338FDD870470C000C000000CC
:10D97C0058020000FFFFFFFFFFFFFFFFFFFFFFFF4D
:10D98C00000000000000000000000000010000008A
:10D99C00FFFFFFFFFCFFFFFFFFFFFFFFFFFFFFFF8E
:10D9AC00000000000000000000000000010000006A
:10D9BC00FFFFFFFF512563FCC2CAB9F3849E17A772
:10D9CC00ADFAE6BCFFFFFFFFFFFFFFFF000000000A
:10D9DC00FFFFFFFF0000000096C298D84539A1F464
:10D9EC00A033EB2D817D0377F240A463E5E6BCF810
:10D9FC0047422CE1F2D1176BF551BF376840B6CBDB
:10DA0C00CE5E316B5733CE2B169E0F7C4AEBE78ED6
:10DA1C009B7F1AFEE242E34FFFFFFFFF7F000000F7
:10DA2C00800000000000000000000000FFFFFFFF6E
:10DA3C007F000000800000000000000000000000DB
:10DA4C00020000000000000065C20F009DC20F0024
:10DA5C0067E6096A85AE67BB72F36E3C3AF54FA573
:10DA6C007F520E518C68059BABD9831F19CDE05B9F
:10DA7C00000000000000000000000000000000009A
:10DA8C000000000000000000000000000100000089
:10DA9C00C4EE0220D4EE02200090D003FF00FFFF62
:08DAAC000100000000E00F0082
:020000020000FC
:020000041000EA
:0410140000800F0049
