:10000000E02400204536000047170000E7170000F5
:1000100017180000531900008F190000000000009D
:10002000000000000000000000000000B319000004
:10003000971A000000000000DF1C00002B1D0000CC
:10004000971E00007F2C00001D2400004335000097
:10005000ED350000133600006736000069360000F9
:100060006B3600006D3600006F3600007136000000
:1000700073360000753600007736000079360000D0
:100080007B3600007D3600007F36000081360000A0
:100090008336000085360000873600008936000070
:1000A0008B3600008D3600008F3600009136000040
:1000B00093360000953600000000000000000000AC
:1000C00097360000993600009B3600009D360000F0
:1000D0009F360000A1360000A3360000A5360000C0
:1000E000A7360000A9360000AB3600000000000073
:1000F00000000000AD36000000000000AF36000038
:1001000000000000000000000000000000000000EF
:1001100000000000000000000000000000000000DF
:1001200000000000000000000000000000000000CF
:1001300000000000000000000000000000000000BF
:1001400000000000000000000000000000000000AF
:10015000000000000000000000000000000000009F
:10016000000000000000000000000000000000008F
:10017000000000000000000000000000000000007F
:10018000000000000000000000000000000000006F
:10019000000000000000000000000000000000005F
:1001A000000000000000000000000000000000004F
:1001B000000000000000000000000000000000003F
:1001C000000000000000000000000000000000002F
:1001D000000000000000000000000000000000001F
:1001E000000000000000000000000000000000000F
:1001F00000000000000000000000000000000000FF
:100200002DE9F04F0FF2A41CA1B0DCE90089CDE983
:1002100000892A9DDFF8DC9B049100248DF843506F
:100220000D944FF0FF38824616461F460FE0B34646
:100230002C461BF8011B0498D0470028049000F0BE
:10024000A2800D98401C641E0D90F2D17619307872
:10025000252808D1002100220791089209910A92CD
:100260000B910C920DE06A464146304600F0DAFFF1
:10027000050001D10D98A1E0D9D50125E6E741F0AF
:10028000010116F8010F2028F9D023280CD02B28C3
:1002900004D02D2805D0302809D076E041F00201A5
:1002A000EFE741F00401ECE741F00801E9E741F034
:1002B0001001E6E70F9209E00F98484505DA00EBD8
:1002C000800402EB4402303A0F92761C3278A2F19D
:1002D00030000A28F0D330782E2818BFCDF83880A7
:1002E00022D116F8010F2A2807D138683860761C09
:1002F00050F8042B38600E9216E02D280CBF761CA7
:10030000002000220E920AE040B90E9A4A4505DA12
:1003100002EB820403EB4403303B0E93761C3378EC
:10032000A3F130020A2AEFD3ADF8401021A03178B2
:1003300000F082FF08B116F8010B8DF842009DF81D
:100340004200682804D1307868280AD1622105E08B
:100350006C2804BF30786C2803D171218DF84210CD
:10036000761C12A806903A4616F8013B02A95046A0
:1003700000F064F838B912AA02A9504600F0C8F992
:1003800000287FF564AF404618E02A2892D13A68E9
:100390003A6052F8040B3A6000280F9003D54042AF
:1003A0000F9041F00401761C95E70000000000006A
:1003B00000000000686A6C747A4C000021B0BDE84F
:1003C000F08F622820D0682811D06A2803D06C28CA
:1003D00027D0712825D10868C01D20F007000860CB
:1003E000D0E9002308300860194610467047002AFB
:1003F0000A680A60106803D0121D0A6000B217E094
:10040000121D0A6080B217E0002A0A680A601068AC
:1004100003D0121D0A6040B20AE0121D0A60C0B289
:100420000AE0002A0A680A60106803D0121D0A60F8
:10043000C1177047121D0A60002170477CB50D4638
:1004400011461C462E69B4F1250200F04F811C3A7A
:1004500000F08480121F022A40F280800E3A00F0E1
:100460000981521F59D0093A78D0921E16D0521ED7
:1004700035D0521E022A71D9121F30D0521F00F0FF
:100480009880521E49D0521E00F0E280D21E00F029
:10049000FF80921E41D0D21E3FD02DE195F83A4008
:1004A0006C2C09D06869421C6A610A680A6052F8BB
:1004B000043B0A60335429E10A680A6052F8043B9D
:1004C0000A600093002201924FF0FF332B636A46CB
:1004D000294600F098F9002840F1188103E195F8C9
:1004E0003A000122FFF76DFFC5E90001002904D59C
:1004F0006869411C69612D220DE0288F810704D5B0
:100500006869411C69612B2205E0C00721D5686933
:10051000411C6961202232541BE095F83A00002208
:10052000FFF74FFFC5E9000195F83800010710D526
:10053000D5E90023002B08BF002A0AD044F0200090
:10054000782806D1686930213154401C421C6A6108
:100550003454214668693044E86087E00868C01D6B
:1005600020F007000860D0E9002308300860C5E9E2
:100570000023D5E90001C80F04D06869411C6961F6
:100580002D220DE0288F810704D56869411C69611F
:100590002B2205E0C00704D56869411C696120224F
:1005A000325468693044E8602146284600F036FA43
:1005B000ACE005F13A02507820B14FF0FF340FF66D
:1005C000043074E01078622808D0682824D06A28A3
:1005D00012D06C282ED071280ED02BE00A680A6049
:1005E00052F8040B0A6020B94FF0FF340FF6EC20EC
:1005F0005DE0E96A017089E00A680A6052F8040B5C
:100600000A6020B94FF0FF340FF6D0204FE0EA6ABD
:10061000D317C0E9002379E00A680A6052F8040B96
:100620000A6020B94FF0FF340FF6B0203FE0E96ACE
:1006300001806BE00A680A6052F8040B0A6020B976
:100640004FF0FF340FF6942031E0E96A01605DE07D
:100650000A680A6052F8040B0A60002120F00002C8
:1006600021F0FF33C5E90023EE607821284600F031
:100670002DF94BE06C2285F83A200B680B6053F89B
:10068000042B0B6052BB4FF0FF340FF684200EE0BA
:1006900095F83A206C2AF0D00868086050F8044BAE
:1006A0000860EC603CB94FF0FF340FF6482000F0D2
:1006B000EBFD201A76BD2E6B002E04D5204600F0EF
:1006C00003FE044608E032460021204600F006FE04
:1006D000002814BF041B3446AC6117E0294600F023
:1006E00092F8002812D54FF0FF3076BD6869411CA2
:1006F00069612522325409E06969481C6861252234
:100700007254210002D0431C6B613454002076BD2A
:100710002DE9F0410E4605469046726B7069316ACC
:10072000B46A121AB069521A716A121AF069521A2E
:10073000121A96F83800141B41070DD4002C0BDD5B
:100740002746B0682021A8470028B06057D0F06A3B
:10075000401C7F1EF062F4D1736942463146284640
:1007600000F098FC00284AD1376A002F0ADDB068F3
:100770003021A8470028B06041D0F06A401C7F1E9D
:10078000F062F4D1B369F2683146284600F082FC89
:10079000A8BB776A002F09DDB0683021A847B06098
:1007A00068B3F06A401C7F1EF062F5D1F068B16951
:1007B000F36942183146284600F06CFCF8B9B76A74
:1007C000002F09DDB0683021A847B060B8B1F06AE9
:1007D000401C7F1EF062F5D196F8380041070BD51A
:1007E000002C09DDB0682021A847B06038B1F06A5C
:1007F000401C641EF062F5D10020BDE8F0814FF08E
:10080000FF30BDE8F0812DE9F8470D46A3B02F6B0E
:10081000002F0646904648BF6FF000470FF60C14B5
:1008200000F088FDD4E90023696B4018CDE901236D
:10083000812828BF4FF0FF3042D20024002F33DD43
:10084000D8F8001001AA684600F0EEFC8146B9F124
:10085000000F38D4D8F8000010B9B9F1010932D42A
:100860004F4521DB6869484481280AD30021696328
:1008700003AA29463046FFF74BFF040014D400209A
:10088000686103ABD5F814A04A46694603EB0A0039
:1008900000F064FDCA44C5F814A058F8040B002801
:1008A00018BFA7EB0907C9D14CB903AA294630469E
:1008B000FFF72EFF044614B90020686168632046E4
:1008C00024B0BDE8F0874FF0FF34F8E72DE9FC4392
:1008D00007466F293E6908BF082405D041F0200073
:1008E000782814BF0A2410243C25D7E90023642962
:1008F00018BF69299046994605D1002B03D5D8F138
:10090000000869EB4909B9F1000F08BFB8F1000F01
:100910001FD1386BE8B9082C4CD197F83800010783
:1009200048D530203B2586F83B0043E000280ED513
:1009300097F8380000F01400102808D17B6B796913
:10094000386A5B1A1B1A9A1A002AC8BF3A62BDE8B5
:10095000F3838DF80010404649462246E31700F025
:1009600009FD3032D0B26D1E3A28019504DB9DF8A6
:100970000000A0F151018A187255404649462246AE
:10098000E31700F0F7FC80465FEA010908BFB8F101
:10099000000F03D0F86871198842DCD3082C09D104
:1009A00097F83800010705D5705D302802D06D1E1C
:1009B00030207055C5F13C02BA617119F960386B8D
:1009C0008242B3DA821A3A624FF6EF70398F0140F1
:1009D0003987BDE8F3832DE9D04306460F46144618
:1009E0004FF00008DFF8109412E0E00707D5424608
:1009F0004B463046394600F0D5FD06460F46404688
:100A0000494642464B4600F0CDFD6410804689467B
:100A1000002CEAD130463946BDE8D0832DE9F84FA5
:100A200005468A464AF020048EB0D5E90089612C3B
:100A300002AE09D0286B002848BF062003D408BFA7
:100A4000672C01D101202863D5E900014A00521525
:100A5000521C0DD10B030BD0AAF1610103201A29FE
:100A6000A86102D20FF2CC6110E00FF2CC610DE070
:100A70004A005215521C0ED10B030CD1AAF1610190
:100A800003201A29A86116D30FF2B461E868032283
:100A900000F064FCC0E1CDE90C01DDE90C2323F09A
:100AA0000043B3F5801F0DD20027002B08BF002A9A
:100AB000019703D111E00FF28461E7E701AA00F08A
:100AC00043FE0AE0CD48CE4900EB1350DDE90C238C
:100AD00001900B40CB4910461943C5E90001612C38
:100AE0000DD1E86830210170821CBAF1610FEA6013
:100AF0000CBF7821582141706869801C6861D5E974
:100B00000001CDE90C01DDE90C2333F0004104BF05
:100B10000028002300F04881612C40F0A080286B61
:100B2000494600284CBF4FF0210B00F1010B404615
:100B300000220023DDE90C8900F03EFE01990BF153
:100B4000010738BF89F00049091F002F01918DF876
:100B500008200DF1090040F33581A94900910646AE
:100B6000404649460022002300F03EFE80F02981E5
:100B70004800400D00F11C0211D0002A0FDD40F2A8
:100B8000FF739A4205DBA04909F0004001430020B1
:100B900011E0009B194041EA025140460BE028F069
:100BA000000039F0004108BF00280FBF49461C2251
:100BB000494600F031FE8046894600F0CBFEFF1F1B
:100BC000002F044609DD00F0E3FE02460B464046D6
:100BD000494600F0EFFE80468946F01D072104E0FB
:100BE00004F00F0200F8012D2411002C01DD491E34
:100BF000F6D5491E5CBF002200F8012DF9D5DCE0D6
:100C00000020194602AA0A4400E05B1E12F80149BE
:100C1000491E8442F9D00F2804D10DF10900425C2D
:100C2000521C4254002904D50198001D02AE5B1CE1
:100C30000190581E0CD43118AAF13A040A783032C7
:100C4000D7B23A2FA8BFA218401E01F80129F5D546
:100C5000286B002840F1A780591E2963A3E0019961
:100C60006A4A47F29750414391FBF2F2019229F010
:100C70000046D2F1070204DD40463146FFF7ABFEE5
:100C80000AE0524200206249FFF7A5FE02460B46E9
:100C90004046314600F000FF8046662C286B06BFB8
:100CA000019F0A3706273F18142FC8BF142730208A
:100CB0008DF8080089460DF1090000E03046002F4C
:100CC00034DD06464046494601F00AF801460A4628
:100CD00006F1080304200A26B2FBF6F606EB860EA0
:100CE000A2EB4E02303203F8012C0A22B6FBF2F2DC
:100CF00002EB820EA6EB4E063036401E03F8026D64
:100D0000E9D1083F002F03F10806D7DD084600F0BF
:100D1000FBFF02460B464046494600F04BFE0022D0
:100D20003C4B00F03FFC80468946CBE70DF10901C2
:100D3000401A0DF1090604E00199491E401E019177
:100D4000761C31783029F7D0662C02D10199491CE4
:100D500003E0652C0CBF012100212B6BCB189842BE
:100D6000B8BF431E002B1ED4834204DAF05C352842
:100D7000A8BF392000DA30201946721E02EB0108A4
:100D800000E05B1E18F80199491E8145F9D0392809
:100D900002D1705C401C7054002904D50198401C9D
:100DA00016465B1C0190019800B200901BB23246BF
:100DB0005146284600F034F82EE0C61D002F3FF7BC
:100DC000CFAE30460DF10901401A03465845C8BF61
:100DD0005B46002B0DF109063FF53AAF8342BFF6A3
:100DE0000FAF0DF10900C15C07297FF709AF0F2094
:100DF00007E70000CBCCCC0C0000244002FCFFFF36
:100E0000FFFF0F800000E03F0000F07FA0860100A0
:100E10000000F03F84D797410FB0BDE8F08F00008D
:100E20002DE9F84783B006468A461746984600F0F3
:100E3000FDF9B8F1000F406A356B90F8009002DCC4
:100E40004FF00108BFA74AF02000BDF930406628E6
:100E500008BF641C15D0672840F0848014F1040F8B
:100E6000C0F28680AC4280F2838096F83800641C21
:100E7000010702D4A845B8BF454620B22D1A48BF85
:100E800000250FFA84FAF068B169BAF1000F25DC89
:100E90004A1C30234354002D03DC96F83800010728
:100EA00003D5F06800F80290521C15EB0A0FB8BF8A
:100EB0006C4220B2441941424445B8BFA046B261D9
:100EC00071620FFA88F5F561F068B3692A46394610
:100ED000184400F043FA641BB462C4E022B29045A7
:100EE000084417DA4246394600F038FAB0694044FF
:100EF000B061AAEB0801002D716203DC96F838108E
:100F00000A0705D5F16801F80090F069401CF0610E
:100F1000B562A8E0394600F021FAB069002D5044CE
:100F2000A8EB040803DC96F838100A0703D5F1682B
:100F300001F80090401CB0610FFA88F08542F36818
:100F4000B069B8BFA8460FFA88F207EB0A01184447
:100F500000F004FAB1690FFA88F00144B161281A6F
:100F6000706280E0BAF1610F14D14FF0700A16E0A0
:100F7000A84504DA96F838100A0758BF45466D1E92
:100F800048BF0025BAF1670F14BF4FF0450A4FF074
:100F9000650A04E0BAF1410F08BF4FF0500AB16989
:100FA000F368481CB061002D17F8012B5A5403DC7C
:100FB00096F838100A071BD5F168431CB36101F895
:100FC0000090002D14DDA8F101080FFA88F03946D1
:100FD0008542F768B8BFA8460FFA88F2F81800F003
:100FE000BDF9B0690FFA88F108446D1AB0617562F5
:100FF000F068B1690844002C80F800A003D42B22CB
:101000004270811C03E02D2141706442811C00204C
:101010006A460AE023460A2493FBF4F404EB8405B1
:10102000A3EB450302F8013B401C24B2002CF1DC89
:10103000012806DC4AF02002652A04BF302201F8AC
:10104000012B48B9302001F8010B07E0401E1DF8C4
:101050000030303301F8013B0028F7DCF268B0695A
:101060001044091AF16196F8380000F014001028B5
:101070000DD17269B169706A8A18F1698218B06A13
:101080008A188218706B8242BCBF821A326204B026
:10109000BDE8F087F8B505460E4617461C46002009
:1010A00074B117F8011BB068A847B06030B1F06A9E
:1010B000401CF0620020641EF3D1F2BD4FF0FF30FF
:1010C000F2BD00007072696E74665F733A20256E1F
:1010D00020646973616C6C6F776564007072696E0F
:1010E00074663A2062616420256E20617267756DB6
:1010F000656E74007072696E74665F733A20626127
:101100006420257320617267756D656E7400000040
:101110007072696E74665F733A2062616420256C38
:101120007320617267756D656E74000000000000C9
:10113000000000006E616E004E414E00696E660058
:10114000494E46003000F0B4024610689568131806
:10115000506803EB5004C0071DD54D441BE013F845
:10116000017B05F8017B491EF9D1A0B1B60813F83F
:10117000011B06F00306032E08BF13F8016B01EBF9
:1011800006214942801C294405D011F8016B05F85D
:10119000016B401EF9D1A3420ED013F8016B16F07B
:1011A000030104BF13F8011BC91C30090F28DAD151
:1011B00013F8010B0F30D6E7F0BC02F10C007047BA
:1011C0001B48704770B45368D418042B09DA41B136
:1011D000057804F8015B10F8016B16B15B1C491E21
:1011E000F3E7536070BC704738B514461D4661B1D3
:1011F000FFF7E8FF61686A6B204690476FF00102D5
:10120000811A02D0491E01D001E003E005E000216F
:10121000616032BD6FF0010032BD4FF0FF3032BD72
:10122000DA6B1047024BDFE7014BF9E701487047E3
:101230007C00002044000020C9B202788A421AB122
:101240001CBF10F8012FF9E718BF0020704730B419
:10125000002513E050F8042BD30744BFA9F1010384
:101260009A18091F042942F8045BFAD213468C0726
:1012700044BF15809B1CC90748BF1D7050F8041B54
:101280000029E7D130BC704780B500B906A00549F8
:101290000B681BB122220021984701E000F041FDBC
:1012A000222002BDD4040020636F6E7374726169E2
:1012B0006E742068616E646C65723A2062616420AD
:1012C0006D6573736167650000F1010310F8011B20
:1012D00011B110F8011BFBE7C01A7047C9B28307B0
:1012E00006D0521E22D310F8013B9942F7D11FE0DD
:1012F000083A13D302F1040241EA012141EA014113
:1013000050F8043B121F21BF4B40A3F1013C2CEAD3
:10131000030C1CF0803FF3D0C9B2001F083210F854
:10132000013B521E28BF91EA030FF8D818BF0120D5
:10133000401E704780B5FFF743FF006C02BDB1F55A
:10134000807F02D34FF0FF3070470170012070475B
:101350000078401E8041C043C00F70474AB1000072
:1013600011F8013B521E00F8013B1CBF11F8013B74
:10137000F8E77047BBBBE1B1B2F5803F80F07E80FB
:10138000022A1ED98C46B1FBF2F102FB11C31B04E9
:1013900043EA1043B3FBF2FC02FB1C3380B240EA89
:1013A0000343B3FBF2F002FB103240EA0C4000238F
:1013B0007047022A05D98446B0FBF2F002FB10C246
:1013C00070474AB105D100F0010249085FEA3000D8
:1013D000704700220023704700F0A6BC0B000200FB
:1013E000002100207047904271EB030CF6D3B3F557
:1013F000803F2FD2F0B5B3FA83F7B1FA81F4A7F1A9
:101400000F0E3D1B5340CEF1200602FA0EF2F341BF
:101410005340B5F10F0746D80F3C2C444140C4F16E
:101420002006A040F1414140B1FBF3F603FB161149
:10143000A2FB0645001BA94102D2761E8018594125
:1014400080EA010221FA0EF362FA0EF200215A40FC
:101450003046F0BD30B4B1FBF3FC03FB1C11A2FB22
:101460000C45001BA94103D2ACF1010C8018594175
:1014700030BC02460B46604600217047B2F1807FC7
:1014800065D3F0B5B2FA82F7B1FA81F4C7F10F066D
:101490003D1B22FA06F307F1110EF24120355A40A6
:1014A000B5F10F07B8D94140C4F12006A040F14181
:1014B0004140B1FBF3FC03FB1C11A2FB0C45001BDC
:1014C000A94103D2BCF1010C801859410F2F12D34E
:1014D0000F3FC90341EA5041B1FBF3F603FB16117C
:1014E000A2FB0645D4EBC030A94102D2761E80187B
:1014F000594146EACC3C07B34140C7F12006B84009
:10150000F1414140B1FBF3F603FB1611A2FB064586
:10151000001BA94102D2761E8018594180EA0102BF
:1015200021FA0EF3C7F1200462FA0EF20CFA07F06A
:101530005A402CFA04F13043F0BD80EA010221FA4E
:101540000EF3002162FA0EF260465A40F0BD8C465E
:10155000B1FBF2F102FB11C31B0243EA1063B3FBC0
:10156000F2FC02FB1C331B024CEA002043EA10632E
:10157000B3FBF2FC02FB1C331B024CEA002043EAE3
:101580001063B3FBF2FC02FB1C331B024CEA00208D
:1015900043EA1063B3FBF2FC02FB1C324CEA00206E
:1015A00000237047B0B581EA030C0CF0004C40F208
:1015B000FF7515EA11541DBF15EA1357AC42AF422F
:1015C00039E0E41923EA455343F48013C90241F09A
:1015D000004141EA505EC7021100A7FB0202002849
:1015E0004FF00000EEFB01204FF00001E3FB07216C
:1015F00018BF42F00102401800214941E3FB0E01EF
:10160000A4F580640F0302D252004041494154F1D5
:1016100001046CDD470872F1004250F1000051EB0B
:101620000451A1F580115CBF41EA0C01B0BD4CEA48
:1016300005510020B0BD05EA1357AC4214BFAF42BC
:1016400041E050EA410E1CBF52EA430E02E06146FF
:101650000020B0BD24423C441BD15FEA070EF6D007
:10166000090302BF01460020AEF1140EB1FA81F762
:10167000AEEB070401FA07FE0C37C7F1200100FAB0
:1016800007F7C8404EEA000E23EA455343F480139F
:10169000A2E733F00043B3FA83F704BFB2FA82FE45
:1016A00077440B3FE41BB7F1200E2FBF02FA0EF375
:1016B000BB40C7F1200E22FA0EFE38BF43EA0E03EC
:1016C000BA40641C82E750EA410E14BF52EA430E4E
:1016D0006FF000014FF4001717EB430F8ABF194654
:1016E00017EB410FB5E74CEA05510020B0BDD4F12E
:1016F0000104B4F120070FDAC4F12007520828BF13
:1017000042F0010210FA07F501FA07F7E1BF2A4398
:10171000E0403843E1400FE0352C98DCC7F120046D
:1017200052EA400220FA07F218BF42F0010231FAF1
:1017300007F0A1400A43002172F1004250F100007D
:1017400051EB0C01B0BDFEE710B5144600F002F8F5
:10175000226010BDC1F30A5343B14A0012F5001FC5
:1017600028D2A3F2FE32A1EB0251704750EA410C9D
:1017700020D001F0004C31EA0C01B1FA81F204BF33
:10178000B0FA80F3D2180B3AB2F120032CBF00FA62
:1017900003F1914041EA0C013EBFC2F1200C20FA56
:1017A0000CF319439040524240F2FD33D21A01EB40
:1017B00003517047002270474FF4001C1CEB410F8F
:1017C00094BF1CEB430F09E041EA030C50EA4C0CB8
:1017D00052EA0C0C03D2994208BF9042704714BFE2
:1017E0008B4282427047FEE74FF4001C1CEB410F16
:1017F00094BF1CEB430F09E041EA030C50EA4C0C88
:1018000052EA0C0C03D28B4208BF8242704714BFCD
:10181000994290427047FEE7124254D440F2FF7C56
:101820001CEA11530FD0634531D09B1863453CBF70
:1018300001EB0251704701F0004141EA0C510020D8
:10184000AFF30080704750EA410320D001F0004C14
:1018500091EA0C011CD0B1FA81F30B3B9A420DD9ED
:10186000D21A994051EA0C01C3F1200C20FA0CFC69
:1018700061449840531C40F2FF7CD7E7914041EA15
:101880000C01C2F1200C20FA0CF319439040704770
:10189000B0FA80F31533202BE0D3202AEED3203A80
:1018A000203B9A4209D9D21A00FA03F141EA0C010D
:1018B0000020531C40F2FF7CB8E700FA02F141EA35
:1018C0000C0100207047524240F2FF7C1CEA115389
:1018D0000DD06345DBD0B2EB030C3CBFA1EB025152
:1018E00070470CF1010221EA035141F4801150EAE2
:1018F000410CCCD001F0004C352A27DC30B481EA11
:101900000C01B2F1200309DAC2F12003044601FA06
:1019100003F5D0402843D1409C400CE0C3F12002A5
:10192000450020FA03F418BF44F0010421FA03F043
:1019300091400C43002174F1004550F1000051EB3F
:101940000C01244230BC7FF47BAF7047614600201D
:1019500076E7FEE7C1F30A5340F2FE329B1A14DD2C
:10196000D3F120034FEAE17208DDC90241EA505188
:1019700041F00040D84080185040704703F2E130F9
:1019800010B1D24382F00040704700207047FEE75C
:10199000C11768B14840401AB0FA80F29040D21C9A
:1019A000C907C2F5846241EA025202EBD021400528
:1019B0007047FEE770B44FF0004591EA030F40F125
:1019C000B5816B40841A71EB030603D2001BB14151
:1019D000121973414FF4001C1CEB410F34BF7CEB18
:1019E000430442E00C0DA4EB1356352E4FDC45EAC0
:1019F000C323DB0A45EAC121C912B6F120050DDD7A
:101A000063FA05F6EB4086EA0305124218BF45F07B
:101A10000105C01851F100010CD213E062FA06F57D
:101A2000F2405540F3415A40B340F3405A408018C9
:101A3000594107D349085FEA30005FEA350528BFFE
:101A400045F0010501F58011420875F1004250F1A1
:101A5000000041EB04514E0016F5001F70BC38BF6A
:101A600070470020090D090570471CEB410F10D28B
:101A700052EA43060BD0BCEB410F05D80C0DAB432B
:101A8000661E342EB6DD02E0AB438018594170BCAF
:101A9000704770BC7047FEE7F0B540F2FF7581EA11
:101AA000030C0CF0004C15EA11541DBF15EA135736
:101AB000AC42AF42E5E0BC41C1F31301C3F31303F1
:101AC000801A994143F4801304D2641E40004941B6
:101AD00080185941C90241EA5051B1FBF3F603FBAA
:101AE0001611A2FB0675D7EBC020A94102D2761EC3
:101AF00080185941C90241EA5051B1FBF3FE03FB82
:101B00001E11A2FB0E75D7EBC020A94103D2AEF186
:101B1000010E80185941890241EA9051760546EA42
:101B20008E2EB1FBF3F603FB1611A2FB0675D7EB65
:101B30008020A94102D2761E80185941C90241EA8B
:101B400050514EEA060EB1FBF3F603FB1611A2FB51
:101B50000675D7EBC020A94102D2761E80185941E4
:101B6000C90241EA5051B1FBF3F703FB1711A2FB85
:101B70000735D3EBC020A94167F100070CBF004235
:101B800047F0010766F3D5274FEA1E31B80814F570
:101B9000806412DDBD0775F1004250EB0E5051EB31
:101BA000045111F5801F5CBF41EA0C01F0BD4CF0FF
:101BB0007F6141F0E0410020F0BDBD076D0840EAC3
:101BC0000E5041F48011D4F10104B4F120060ADA78
:101BD000C4F120060200E04001FA06F3E140184398
:101BE000B24015430EE0342C13DCC6F1200445EA64
:101BF00040056D0820FA06F2154321FA06F0A140CF
:101C00000D43002175F1004250F1000051EB0C0131
:101C1000F0BD00205FEA0C01F0BDCFB992185B4126
:101C2000B3FA83F704BFB2FA82F6BF190B3FB7F1DC
:101C300020062FBF02FA06F3BB40C7F1200622FAA6
:101C400006F638BF3343BA401CB1E419641E33E7CB
:101C50007F4231F00041B1FA81F404BFB0FA80F65E
:101C6000A4190B3CB4F120062FBF00FA06F1A140E5
:101C7000C4F1200620FA06F638BF3143A0403C1BD1
:101C80001AE7AC421ABF05EA1357AF4212E050EA16
:101C900041061CBF52EA4306BFE750EA41073046FF
:101CA00061461CBF41EA0551F0BD52EA430C08BF32
:101CB000C143F0BD00204FF4001616EB410F98BF52
:101CC00016EB430F08BF16EB410F24BFC14305E0DD
:101CD00016EB430F0CBF61464CEA0551F0BDFEE721
:101CE000400D491840EA81200CD2490DA1F58061D0
:101CF000491C40F0004005DBD1F11F0154BFC84032
:101D0000C017704700207047014648B1B0FA80F113
:101D10008840C91CC1F58461090501EBD02140054B
:101D20007047012000F0B8B87047FEE7841A71EBE5
:101D3000030604D26E40001BB141121973414FF4E7
:101D4000001C1CEB410F34BF7CEB430683E00C0D01
:101D5000A4EB1356362E00F37C80012E45EAC323F4
:101D600041DC43EA525312BFD20292025B082405BF
:101D700045EAC12141EA5051D2EBC020994125D416
:101D800007D1B0FA80F610FA06F162D000202036B2
:101D900008E0B1FA81F6B140C6F1200220FA02F261
:101DA0001143B0404FEAF474B4EB465434F00106EA
:101DB0004FEA74040AD8D6F50016760D04F00044F4
:101DC000F04061FA06F25040F1404840C00A40EA53
:101DD000415021F0004128BF5FEA500550F100005A
:101DE00044EBD12135E0DB0A45EAC121C90AB6F14D
:101DF00020050EDD42EA0242120CC5F1200603FA6C
:101E000006F6EB4042EA06056D42984161F1000199
:101E10000DE062FA06F5F240554063FA06FC82EAEC
:101E20000C02F3405A406D42904161EB030111F402
:101E3000801F05D1641E620502D06D0040414941FA
:101E400021F48011430875F1004350F1000041EB8B
:101E5000045170BC70471CEB410F15D223F00043B6
:101E600052EA43060BD04FEA4C0CBCEB410F04D8AE
:101E70000C0D661E342EB7DDEBE7801A994150EA4F
:101E8000410608BF0021E4E708BF1CEB430F28BF51
:101E90006FF00001DDE7FEE720210903263118205D
:101EA000ABBEF9E781B00022425040580090009943
:101EB00001B0704740584FE1D0F80403084018BF04
:101EC0000120C0B2704700F20C5082600160704780
:101ED00000F5A16001608260704770B51F28049D05
:101EE000059C41EA420192BF4FF0A04600F01F005E
:101EF000DFF8FC6441EA830141EA052106EB80003A
:101F000041EA0441C0F8001770BDE0B500F00BF8DD
:101F1000012105E0E0B50B4600210022019100926D
:101F2000FFF7DBFF07BD0021019100910023012293
:101F300070471F2892BFDFF8BC1400F01F00DFF8C5
:101F4000B814012202FA00F00860704738B50C4658
:101F50000546206810F1010F04D0FFF7EAFF206862
:101F6000FFF7D3FF606810F1010F1CBF0021FFF7DE
:101F7000D1FF2868A16900F224521160637D217DA0
:101F80000B43936462682168FFF79DFF207D012861
:101F900015D1A06810F1010F1CBF0021FFF7BAFF97
:101FA000E06810F1010F04D0FFF7C3FFE068FFF70E
:101FB000ACFFA268E1682868BDE8384088E731BD19
:101FC00038B504460D4620684FF48E71FFF76AFF5E
:101FD00020684FF4A271FFF765FF2068DFF81C143A
:101FE000C0F80413000B690142B2002A07D5DFF8DC
:101FF000102400F00F00104400F8041C02E0DFF889
:102000000434995401222068DFF8FC33000B41B2FC
:1020100000F01F00490902FA00F043F82100DFF840
:10202000EC2342F8210031BD2DE9F04104460D4674
:1020300090462179DFF8D8032C2212FB01F2871891
:1020400007F12906707808B1082023E00FF2C830A4
:1020500050F82110206800F0E4F908B1112019E0CF
:1020600029462046FFF772FFC7F80480296978687F
:10207000396018B1297F2046FFF7A2FF21680420AC
:10208000C1F800050022BA61FA6132707A6101205C
:1020900070700020BDE8F08138B50D4604464FF45D
:1020A0008E71FFF7FFFEA868296A405C2A6A521CFD
:1020B0002A62C4F81C0531BDF8B5054617462A79D1
:1020C0000E462C20DFF8481342438C18284600F0B7
:1020D0003CF808B11120F2BD6761A66020620021C2
:1020E00084F828104FF48E712868FFF7DBFE28680B
:1020F0000121816000262146FFF7CEFF606868B9A4
:102100002F6811E028684FF48E71FFF7D3FE002886
:10211000F8D029680120C860002060613046F2BD17
:1021200021463846FFF7B8FF206A61698842E9D244
:102130004FF48E713846FFF7BDFE0028F0D194F8B9
:1021400028000028F4D00F26E6E70279DFF8C01255
:102150002C2042438818406900B10120C0B270476A
:1021600010B500F090F820684FF48471FFF79AFEE4
:1021700021680120086010BD38B50D460446A869E5
:1021800000284FF48471204604D1FFF78BFED4F869
:10219000180531BDFFF786FE686AD4F81815EA689D
:1021A0001154686A401C686231BD2DE9F041074650
:1021B0002C203C79964B44431E19002370684FF441
:1021C000017418B13D6805F541704460B06960B1B3
:1021D000F06930B1706810B13968C1F8044311205A
:1021E0004FE031610123F26103E0B261F16070629E
:1021F000F36196F82900034304BF3846FFF7B0FFA8
:1022000070683A68002839D14FF4A2711046FFF780
:1022100049FE38684FF49271FFF74CFE0546386866
:102220004FF48471FFF746FE044638684FF4A271FC
:10223000FFF740FE804648EA04042C43E9D058EA00
:10224000050007D138683146FFF796FF706AB1691B
:102250008842DED30020B0610DB1032011E0B8F157
:10226000000F18BF0F200CD196F8290039680028FC
:1022700007BF0120486001220A6001E0C2F8044360
:102280000020BDE8F08104464FF49271206809E611
:102290001FB50346012402918DF800400192684663
:1022A00019685A6890471FBDF8B5024600238DF89B
:1022B000003002919068019053616846116852683D
:1022C000904705B000BDF8B584B005460C464FF404
:1022D0000071FFF7F1FD04F128064FF4017718B300
:1022E0004FF4927100F07DF8F0B14FF492712846EE
:1022F000FFF7D8FDC5F80873707808B90121696047
:1023000002208DF800000021D5F88004C5F8800473
:102310000390A0690290E0680190A161E1616846C4
:1023200021686268904729E004212846FFF7C4FD30
:1023300020B34FF4847100F054F8F8B121462846D8
:10234000FFF71AFFA069616A884217D1E06940B1BE
:10235000E268616AA06100232069E060E361636272
:1023600009E0707808B901216960C5F80873002098
:10237000E268A061616A2046FFF78AFF4FF48E7120
:1023800000F02FF8A0B1206A6169884206D2307847
:1023900020B921462846FFF77FFE09E04FF48E71F1
:1023A0002846FFF77FFD616911B12046FFF77CFFEA
:1023B0004FF4A27100F015F888B14FF4A2712846CD
:1023C000FFF770FD707808B101212960A06930B174
:1023D0000021A1612046E268616AFFF759FF05B05C
:1023E000F0BD284666E50A490A486CE7000000008F
:1023F000000300500805005008080050800002004B
:1024000018ED00E000E400E080E200E000E100E020
:102410005C04002000200040E72300000D48016814
:10242000084738B50D460C49884211D1002000F00C
:102430001DF8084908790024002811BF01240D6007
:1024400001200871002000F018F80CB1112032BDF5
:10245000002032BDC0040020002000400749086869
:10246000401E086000D162B67047000000BF72B61F
:1024700002480168491C01607047EFE7D004002062
:1024800081B00022425040580090009901B070473E
:10249000405833E100F20C5001E000F5A16001600A
:1024A0008260704770B51F28049D059C41EA420177
:1024B00092BF4FF0A04600F01F00DFF8486441EAE9
:1024C000830141EA052106EB800041EA0441C0F89E
:1024D000001770BDE0B500F00BF8012105E0E0B594
:1024E0000B460021002201910092FFF7DBFF07BDA0
:1024F0000021019100910023012270471F2892BF03
:10250000DFF8041400F01F00DFF80014012202FAC3
:1025100000F00860704738B50C460546206810F199
:10252000010F04D0FFF7EAFF2068FFF7D3FF6068D0
:1025300010F1010F1CBF0021FFF7D1FF2868A1692E
:1025400000F224521160637D217D0B439364626825
:102550002168FFF79FFF207D012815D1A06810F1A9
:10256000010F1CBF0021FFF7BAFFE06810F1010F57
:1025700004D0FFF7C3FFE068FFF7ACFFA268E16893
:102580002868BDE8384088E731BD38B504460D46B7
:1025900020684FF48871FFF773FF20684FF4907143
:1025A000FFF76EFF20684FF49271FFF769FF206814
:1025B0004FF4A271FFF764FF2068DFF85413C0F8EE
:1025C0000413000B690142B2002A07D5DFF8442347
:1025D00000F00F00104400F8041C02E0DFF838336C
:1025E000995401222068DFF83433000B41B200F027
:1025F0001F00490902FA00F043F82100DFF8202308
:1026000042F8210031BDF8B504460D462179164641
:102610002423DFF8102313FB01F3D71897F82000C9
:1026200008B10820F2BD0FF2043050F821102068E4
:10263000FFF7F7FE08B11120F2BD29462046FFF74B
:102640006AFF7E6029697868396018B1297F204661
:10265000FFF79BFF21680820C1F800050022012038
:1026600087F82000BA61FA617A610020F2BDF8B5FE
:10267000054617462A790C462420AA4942438E185B
:1026800004F06041B1F1005F2ED1284600F030F82F
:1026900060BBB4604FF49071776100272868FFF742
:1026A000EFFE28684FF4AC71FFF7EAFE2968706905
:1026B000B36801F244521360506001228A6070686E
:1026C00080B928684FF49071FFF7E2FE044628684D
:1026D0004FF4AC71FFF7DCFE0443F2D000B10F27DA
:1026E000002070613846F2BD1020F2BD1120F2BD0D
:1026F00002798C49242042438818406900B10120A6
:10270000C0B270472DE9F84F05460E4628794FF0C4
:10271000240806F06044DFF80C9218FB00F0B4F1D6
:10272000005F09EB000314D1586800244FF4047AC9
:1027300020B12F6807F54177C7F804A093469A693E
:102740006AB1DA693AB110B12868C0F804A311205F
:1027500050E010204EE001241961584603E0C3F810
:1027600018B0D9600020D8614FF488712868FFF74D
:1027700087FE28684FF4A271FFF782FE296801F2F4
:10278000345000270660C0F804B014B90120086076
:1027900005E0D1F8002242F02002C1F8002209F140
:1027A00004022B7918FB03F3D05800BB2E46306887
:1027B0004FF48871FFF76CFE044630684FF4A27145
:1027C000FFF766FE054630684FF49271FFF760FE32
:1027D0002C430443EBD0327909F1180118FB02F8BD
:1027E00041F8087000B103271DB10F2701E0C1F8BF
:1027F00004A33846BDE8F28F1FB5034601248DF8C7
:1028000008108DF800400192684619685A68904790
:102810001FBD7FB50C464FF492710646FFF738FE98
:1028200006F23C55C0B14FF4927100F064F80220FA
:102830008DF80000D6F88014C6F88014039129683A
:102840008DF808100021E0680190A161E1616846FF
:1028500021686268904721E04FF488713046FFF7A5
:1028600017FED8B14FF4887100F045F82968A069C7
:10287000814213D1E268E06960B1D6F8000220F02D
:102880002000C6F80002E0692369A061E36000202F
:10289000E06100E0A0612046FFF7AEFF4FF4A271B7
:1028A0003046FFF7F5FD60B14FF4A27100F023F858
:1028B000A06930B10021A16120462968E268FFF7D4
:1028C0009BFF4FF490713046FFF7E2FD90B14FF45B
:1028D000907100F010F8606960B129698DF80810F6
:1028E00000228DF80020A06801906261684621688E
:1028F000626890477FBD3046C2E50A490A4888E7CA
:1029000000000000000300500805005008080050B7
:102910001003020018ED00E000E400E080E200E0B7
:1029200000E100E08804002000200040FB280000B7
:1029300038B50578754C635D23B1BDE83840001D9E
:10294000FFF795BEBDE838400C30FFF7B5BB38B592
:1029500005786E4C635D23B1BDE83840001DFFF77C
:10296000D1BEBDE838400C30FFF71FBC1CB5017864
:10297000674C00292CD0022922D03DD24268117820
:1029800004F1180000F008F9A26A20B101238DF8C3
:102990000030019006E0206A616A081A04D0002025
:1029A0008DF8000068469047206AA18B626A101A71
:1029B000814202D300F07EF813BD0120207013BDC8
:1029C0008DF800100122C068019000F074F810E04A
:1029D00004F12C0104F1300000F0EBF830B90122D1
:1029E00004F12C01201DFFF7A3FF13BD03208DF878
:1029F00000006846A16A884713BD0000F8B5444E40
:102A000005460C0088B01F46B26208BF07203CD0C4
:102A10006268216892B206F1180000F0AAF8A0BB23
:102A2000E268A16892B206F1300000F0A2F860BB43
:102A30004FEA0D0038A12022FEF790FC686906904D
:102A4000297C01B101218DF814108DF81C70687C6F
:102A500000B10E208DF815002E4AE8680290A86893
:102A60000390301D2968019169680091694600F062
:102A7000C7F850B93070296811F1010F05D0012253
:102A800006F12D01301DFFF762FF09B0F0BD70B5F2
:102A90001F4C2678014604F1180000F08AF805461C
:102AA00036B10020207000F005F808B100F0D8F829
:102AB000284670BD012204F12D01201D47E738B5DD
:102AC0000146134D05F1300000F066F804001BD1FB
:102AD0002A790E49885C20B105F10800FFF708FE4D
:102AE00003E005F11000FFF730FB68B905F12C0198
:102AF00005F1300000F05DF830B9012205F12C013C
:102B0000281DFFF715FF0446204632BDAC04002007
:102B1000000000206D290000FFFFFFFFFFFFFFFF07
:102B2000FFFFFFFFFFFFFFFF0000000000000000AD
:102B30000000D6010601000010B50368C468828851
:102B400014401955C168491CC16010BD10B5036817
:102B500084688088611801405B5C137010BD10B5FB
:102B60000A4604460021FFF7F1FFA068401CA06060
:102B700010BD10B509B90E2010BD130002D0541EAF
:102B8000144201D0092010BD0160511E8180002235
:102B90008260C260002010BD10B58268C36884885E
:102BA0009A1A944203D3FFF7C7FF002010BD0420F8
:102BB00010BD80B58268C3689A1A03D0FFF7CFFFB3
:102BC000002002BD052002BDF8B500F013F8027A1E
:102BD00003E0F8B500F00EF882688DF80820C068B0
:102BE0001C4A039002EB81026846D1685268904704
:102BF00005B000BD02788DF800204368019370474E
:102C0000F8B5044688B02678124F07EB86001546C3
:102C100045600A69C2602022487FB8556846FEF7C1
:102C20009DFB04962678B85D40B1002D14BF0A4A7A
:102C300000226946201DFFF7E6FC08E0002D14BFC6
:102C4000064A0022694604F10C00FFF7EDF909B0CD
:102C5000F0BD0000AC040020C92B0000D32B000005
:102C60001FB5694600220023002481E81C00029061
:102C70006A46002144F2010000F002F81FBDFEE7A1
:102C800072B609480168CA0700D500BEBFF34F8F6E
:102C9000064907480A6802F4E06202430A60BFF38B
:102CA0004F8F00BFFDE700BFF0ED00E00CED00E04E
:102CB0000400FA0530B54A48002101604160002057
:102CC00048490860484949480A6802604B684360BF
:102CD0008A688260CB68C3600A6902614B6943619C
:102CE0008A690262CB6943620A6A82624B6AC36282
:102CF0008A6A0263CB6A43630A6B02644B6B436468
:102D00008A6B8264CB6BC364096C016538490868BF
:102D1000082804BF4868002802D13648364A0260B5
:102D20000B68082B04BF4868002802D13348FB22F7
:102D300002600B68082B04BF4868002809D130489E
:102D4000304B02681C78120904F00F0444EA0212A6
:102D500002600868082804BF4868002803D12A4890
:102D60004FF40071016029480168CA0744BF6FF041
:102D7000010101602649C86F40F47000C867BFF3C5
:102D80004F8FBFF36F8F234A106800285CBF5068D5
:102D900000281CD5204B01241C60204C00F042F878
:102DA0001225156000F03EF8556000F03BF8002257
:102DB0001A6000F037F8BFF34F8F0A68184802F422
:102DC000E06202430A60BFF34F8F00BFFDE7024A93
:102DD0000249116030BD0000400000200090D00387
:102DE0000C010040380500400404001020C50040DC
:102DF000300100108C5600404881030018F5004057
:102E0000E40E0040580200104096024000040040CA
:102E10000CED00E00012001004E5014000E4014068
:102E20000400FA0520680028FCD0704710B504465D
:102E3000AFF30080204600F005F80446AFF30080B1
:102E4000204610BD70B500F10F06F608F600B0423E
:102E500040D2082E04D2082602E0083000F047F8DD
:102E6000DFF804512C68210005D1002007E002683A
:102E7000B24221D2011D08680028F8D12068291D1E
:102E80000A68824222D01368B34238BF111DF7D3BB
:102E900012E093190B60801B54685C600B6818602B
:102EA0001660096800291DBF48680028081D002019
:102EB000286002F1080070BD61B10A681068A0F1D5
:102EC0000803B342E5D250680860EAE700F04EF824
:102ED0000028C2D1002070BD10B5040006D0AFF3A9
:102EE0000080204600F003F8AFF3008010BD0028FA
:102EF00000D1704770B4A0F108021368072B2BD9DA
:102F000013F0070F28D1184C616809B18A4202D228
:102F10005160626013E0486800B3904238BF0146D8
:102F2000F9D31BE0964203D11B180B600A4606E05A
:102F3000486810B1134498420ED350604A605068FC
:102F400050B11368D518854206D100262660016865
:102F5000CB1813604068506070BC704708680E184A
:102F6000B242DFD270BC7047C8040020074908682D
:102F700008B1002070470648C008C0000860054935
:102F8000C908C900091A0160704700BFD8040020B1
:102F9000E7240020E044002070B51F28049D059C14
:102FA00041EA420192BF4FF0A04600F01F00194EC7
:102FB00041EA830141EA052106EB800041EA044130
:102FC000C0F8001770BD10B5134A144B012449B95D
:102FD0001F2892BF191D00F01F00111D04FA00F0F8
:102FE000086010BD1F2894BF1A4600F01F0004FAA5
:102FF00000F0106010BD00001CA2105C0121E2E78F
:1030000010B500242046FFF7F7FF641C042CF9D309
:1030100010BD0000000300500808005008050050D3
:10302000FEB50446E00710D55FF000050FA60027A7
:10303000019700970023705D01220121FFF7ACFF8B
:103040006D1C042DF4D3FFF7DBFFA0070DD5002482
:1030500007A500200190002100910323285D002294
:10306000FFF79AFF641C042CF3D3F7BD0D0E0F106D
:103070000B0C18192DE9F04107468846387810F0F6
:10308000030F16461D4633D0384600F099F878BB3A
:10309000B8F1000F1CBFD8E900018619012D2ED10F
:1030A0003888C10415D5396A07F14402384600F062
:1030B000A3F83A6B044602B93A69F968384600F059
:1030C0009BF8361B341A7A69F968384600F094F890
:1030D000261A1EB94DB916F1010F09D097F9030050
:1030E0002A4631464FF0FF30064616F1010F09D14E
:1030F0002320AFF300804FF0FF30BDE8F081022DB8
:10310000E8D1EBE7388810F4405F0ED07868F860BB
:1031100038617861B86107F144017868F861396213
:1031200007F13000002178623963B8F1000F05D053
:10313000D8E9020107F13402C2E900013B884CF6EC
:10314000FF6003403B800020BDE8F08170B505467C
:10315000AFF300802888810415D56E680024EA68E2
:1031600095F903003146914212D2521A00F04AF802
:1031700010F1010F1CBF00283618F0D10FE04DF6FA
:10318000FF70014029802846AFF30080002070BD09
:103190000022002100F036F810F1010F00D10124C7
:1031A0006868E860A861E861002C2988E7D041F4EC
:1031B000007129802846AFF300804FF0FF3070BDCA
:1031C000F8B5A0B9AFF3008000250A4E08244FF0EF
:1031D000FF37306820B1FFF7B9FF002848BF3D46F0
:1031E000361D641EF5D1AFF300802846F2BDBDE860
:1031F000F240ABE79C010020914234BF511A0021FC
:103200000846704770B50C461546002604E014F8D1
:10321000010BFFF754FC761CAE42F8D3284670BD74
:103220000178022912BF01294068FFF719BD7047D4
:1032300080B58AB00120FFF7F3FE04A818A1182278
:10324000FEF78CF8144900914FF4807201F58071FB
:103250000192029103920723104A694604A8FFF7DE
:10326000CDFB08B1FFF7FCFC13A000F039F868466D
:10327000FFF70DFC0028FAD19DF80000FFF71FFCB6
:103280000028F9D19DF80000712818BF5128EED10F
:1032900010A000F025F8FEE7BC010020213200005C
:1032A0000800000006000000050000000700000004
:1032B0000000000000E0D7010D0A5541525420657E
:1032C00078616D706C6520737461727465642E0D25
:1032D0000A000000200D0A45786974210D0A0000DB
:1032E0000EB4C0B5024603A800210190009101ABC5
:1032F0000121044878440C30FCF782FF06BC5DF8DD
:1033000010FB00BF1F03000010B50446E068A16970
:10331000884251D3218849F202030B40022B08D086
:1033200008044CBF4FF400704FF4844001432180E7
:103330003BE001F4C042B2F5C04F06D1A16888421B
:1033400003D32046FFF73CFF78BB208810F4406F82
:1033500002BF606804F14401884217D14FF4007045
:10336000FFF764FD606030B904F144006060E06024
:10337000401CA0600AE0218841F040012180E0600B
:10338000606100F500726068A260E0616068A16839
:103390002061A161207841070AD502220021204640
:1033A00000F00CF810F1010F02D14FF0FF3010BD0A
:1033B000208840F4C0402080002010BD70B5044635
:1033C0000D461646AFF3008033462A4600212046BC
:1033D000FFF750FE05462046AFF30080284670BD3B
:1033E00018B401780A0627D51F4A136800218342C2
:1033F00003D1002442F821401BE05368012183429D
:103400001EBF022193688342F3D0D3680321834215
:103410001EBF042113698342EBD053690521834207
:103420001EBF0621936983421EBF0721D3698342D1
:10343000DFD012BC00F01AB8002101804FF0FF323B
:1034400000F14401C270C1604161C16100F14403F7
:1034500000F1440200F130014360026182610262C6
:10346000416211BC704700009C010020FFF734BD91
:1034700038B504000ED0207810F0030F03D094F973
:103480000300002809D5AFF300802046FFF7A8FF0E
:10349000AFF300804FF0FF3032BD2046FFF790FEC3
:1034A0000546AFF300802078410644BF6068FFF70F
:1034B000DDFF0020606094F90300022804D9002099
:1034C000C04608B14FF0FF35E06B48B10020C04660
:1034D00008B14FF0FF35E06BFFF7C8FF0020E06355
:1034E0002046FFF77DFFAFF30080284632BD38B598
:1034F0000C46C5B22046AFF30080E068A16988425F
:1035000004D32046FFF700FF00280FD4E068401CDA
:10351000E06000F8015D2088010503D440050BD56B
:103520000A2D09D12046FFF74BFE28B12046AFF304
:1035300000804FF0FF3032BD2046AFF300802846B8
:1035400032BDFEE738B50D4D0824286800281CBFA1
:10355000017811F0030F05D090F90310002958BF2E
:10356000FFF786FF2D1D641EEFD1BDE83840002215
:1035700000214FF0FF30FFF745BE00BF9C01002047
:1035800010B5074979441831064C7C44163404E0E0
:103590000A68081D114488470146A142F8D110BDB0
:1035A0002C000000480000004EF68851CEF20001C9
:1035B000086840F470000860BFF34F8FBFF36F8F4F
:1035C0004FF00070E1EE100A7047000083DCFFFF4F
:1035D00020030000BC010020000000006BDBFFFFA7
:1035E000D00000001801000000000020FEE70000ED
:1035F0000120C046002801D0FFF7C2FFAFF30080D2
:103600000020AFF30080FFF713FE00F000F800F099
:1036100001B8FEE70746FFF795FF3846FEF73CFC8A
:10362000FBE738B504460D46284600F005F8A842E9
:1036300018BF0024204632BD0149FFF758BF00BF24
:103640000C0100200148804701480047B52C0000CC
:1036500055360000AFF30080FFF7A6FFFFF7C8FF65
:1036600000002E004300FEE7FEE7FEE7FEE7FEE770
:10367000FEE7FEE7FEE7FEE7FEE7FEE7FEE7FEE722
:10368000FEE7FEE7FEE7FEE7FEE7FEE7FEE7FEE712
:10369000FEE7FEE7FEE7FEE7FEE7FEE7FEE7FEE702
:1036A000FEE7FEE7FEE7FEE7FEE7FEE7FEE7FEE7F2
:1036B00062000130012000400C6108F11701F005A3
:1036C0000790D003603600000452FF01F20062143C
:1036D00010010000640C12016D224476F1160143C2
:1036E00051132A433F133C21011007010400000835
:1036F0000100200904520804211BA108F212F464FD
:103700001007020401010C0400205C04520C042187
:10371000346108125048F3123C0148400308020289
:10372000BC03402108210421346108129844F2129C
:0C373000844812C4B4120C28F206542C79
:04000005000036556C
:00000001FF
