:1000000080290020912700004F2100001B240000C0
:100010004F240000ED260000332700000000000000
:100020000000000000000000000000003F2700006A
:10003000E327000000000000E5270000E72700009C
:10004000E9270000EB27000005100000ED27000065
:10005000EF270000F1270000F3270000F52700003C
:10006000F7270000F9270000FB270000FD2700000C
:10007000FF270000012800000328000005280000D9
:1000800007280000092800000B2800000D280000A8
:100090000F28000011280000132800001528000078
:1000A00017280000192800001B2800001D28000048
:1000B0001F280000212800000000000000000000B0
:1000C00023280000252800002728000029280000F8
:1000D0002B2800002D2800002F28000031280000C8
:1000E00033280000F51A0000352800000000000049
:1000F0000000000037280000000000003928000040
:1001000000000000000000000000000000000000EF
:1001100000000000000000000000000000000000DF
:1001200000000000000000000000000000000000CF
:1001300000000000000000000000000000000000BF
:1001400000000000000000000000000000000000AF
:10015000000000000000000000000000000000009F
:10016000000000000000000000000000000000008F
:10017000000000000000000000000000000000007F
:10018000000000000000000000000000000000006F
:10019000000000000000000000000000000000005F
:1001A000000000000000000000000000000000004F
:1001B000000000000000000000000000000000003F
:1001C000000000000000000000000000000000002F
:1001D000000000000000000000000000000000001F
:1001E000000000000000000000000000000000000F
:1001F00000000000000000000000000000000000FF
:1002000080B5DFF84405FF21002281600260426072
:1002100000F214400123426002600373DFF82C05F2
:1002200000F0B4FA20B90FF2585000F059FB00204A
:1002300002BD30B591B1DFF81825DFF81815056853
:10024000DFF81435511A002200E0521CB2EBD10F36
:1002500006D233F82240AC42F7D10260002030BD14
:10026000052030BD01B56846FFF7E3FF28B9DFF888
:10027000EC04009950F8310002BD002002BD0000DE
:10028000491EDFF8D824032902EBC0000BD8DFE8B1
:1002900001F002040608022070470420704700792C
:1002A000704740797047002070470246002013686D
:1002B000C3F380029AB103F00300012802D00228A0
:1002C00007D00BE00A68C3F38310801C82180A6011
:1002D00004E008689B0D9B1C1B180B6001207047F5
:1002E000F8B5DFF8644484B004F5836000F07AFB6D
:1002F00004F21445284600F075FB6068A76800907A
:100300000026009904F10C00394000EB8100694699
:10031000FFF7CBFF0028F4D101AB009A04F10C01E8
:100320003A4000F0CBF9F8D90199BDF80A0001F084
:10033000030101290AD002290FD10199064600982C
:10034000890DC91C00EB9100009006E0064601985B
:100350000099C0F3831041180091284600F044FB37
:1003600008B100986060304605B0F0BD80B500214E
:10037000DFF8EC0300F0FAFA80F3100002BD2DE97B
:10038000F84F0446884693461F460A9DDFF8B89307
:10039000FFF7ECFF09F10C0A7E1C00042E4040EA36
:1003A0001440E4004AF8260004F0380444EA8B14B0
:1003B000C4F3090409F10C0044EA88242F4044F0F6
:1003C000010440F82740BDE8F18F2DE9F04188464F
:1003D0001746DFF874630446002000F00FFB306816
:1003E000C8F80000A51CB26831687068521C511A28
:1003F000411806F21C480FE00121404600F0DAFAED
:10040000FFF76EFF0146404600F0D4FAB06831684D
:10041000401C411A70684118A942EDD32FB1A401C4
:1004200004F4707444F0050402E0A40544F00604EA
:100430003168B068014006EB81020020D460316869
:100440006D18356000F0E1FA0120BDE8F0812DE97A
:10045000FE43DFF8F46204460D4690469946B768BD
:10046000012201A94846FFF7B0FFA8B10198801CFE
:10047000002108E007EA000206EB820258F821306A
:10048000D360401C491C4945F4D300974A46019B60
:1004900029462046FFF773FF96F8200418B100F0B4
:1004A00007F80028FBD1BDE8F78300230022CEE740
:1004B0002DE9FF47A44E70683168884224D006F5C4
:1004C00082670020B860BFF34F8F7068B4680090F7
:1004D00006F10C000099214000EB810005E006F1D7
:1004E0000C0004EA010200EB82006946FFF7DDFE22
:1004F000002800F0C680B868002840F0C28030684C
:1005000000998142EBD370600020B7E0019965F358
:100510009F51019105F1080100F03AF95FEA000AE4
:100520004ED000F07CF900F0C3F800982040641C25
:10053000241AA40006F10C01AC4201EB800119D28F
:1005400034B9284606F10C014FF00008002503E0FD
:10055000204606F10C082D1BC4B208232246504643
:1005600000F0B2F9B8F1000F09D004F10803EAB2C3
:10057000414601E008232A46504600F0A5F90098BC
:1005800009F1030100EB9100009039E0019901F0BD
:100590000301012956D10199019AC1F3831105295B
:1005A000C8BF062122F4707242EA811201920199B9
:1005B000C1F38311891C890000F0EAF85FEA000AA0
:1005C00040D000F02CF900F073F84FF008094FF01C
:1005D000000810E00098411C009106F10C05204035
:1005E00005EB80014B460422504600F06DF909F1FD
:1005F000040908F101080198C0F383108045E9D38C
:100600003C68B86870B1504600F00DF92EE0E06823
:100610004179012904D12268136851462046984740
:10062000E0680468002CF2D1504600F0FCF800208D
:1006300000F0E4F9B86808B900987060002000F094
:10064000E4F913E03C6805E021688A682046904799
:10065000E0680468002CF7D142483E4A43A1801A62
:10066000C008000440F00200FFF71FFF7068316807
:1006700088420CBF0120002080F0010004B0BDE8DA
:10068000F087002001AB009A06F10C01224000F037
:1006900015F8F8D901992D4801F0030102297FF4DA
:1006A00075AF019DAD0DA946502DA8BF50252DE772
:1006B0000023082201A9504600F006B951F8221083
:1006C00043F82010401C0099491C012800917047F4
:1006D00030B5024600201C4BD3F8101400E0096826
:1006E00089B1C9680C798442F9D1401C0A28F3DB2E
:1006F0004FF0FF3030BDC9680D682560D3F8103465
:10070000D9680A6030BD10F1010FFBD0D1680871C3
:10071000D3F81014D4680029EDD1C3F81024216057
:1007200030BD10B5104804680121017408E0E1688B
:1007300001224A712046226851688847E0680468AF
:10074000002CF4D110BD0000AC0000207C2700007C
:1007500010270000F026000000000000F026000036
:10076000C8040020F0260000BC0400204261636B36
:10077000656E647320666C757368656400000000C4
:10078000180800207F0000002809002000F040B970
:100790002DE9F04105460F462E8A00F050F9361F2C
:1007A000040021D0F71900200121FF1C2071617184
:1007B000A046B7FBF6F7E680FFB27F1EC8F80050F0
:1007C000002607E06179491C6171C8F800000560E6
:1007D0008046761CBE4209D2284600F030F9002837
:1007E000F0D1204600F005F8002000E02046BDE8EA
:1007F000F081F8B501460D464C79601E002200E0FC
:10080000521C2D688242FBD3002605E00F68284663
:1008100000F035F93946761CA642F7D3F1BD012127
:10082000001D00F0C7B81CB504460121201D00F0D2
:10083000CDF800909DF8000018B92046BDE816409C
:10084000D7E713BD2DE9F0471446B0F8068042798A
:10085000256846465643361F5F1903F1040CBE4215
:10086000BCFBF8F234BFF31A2B4608FB12CC236012
:10087000002A01E00068521EFCD1A8EB0C029A4647
:100880009342089F4FF0000988BF92460E460546E6
:100890001C46BCB105EB0C00001D06EB090339003A
:1008A00052460EBF19460146184600F0FDF82D6865
:1008B000A4EB0A04D14444454FF0000CA246E8D909
:1008C000C246E6E7BDE8F0871CB50192002402E0CD
:1008D0001CB501920124009401AAFFF7B3FF13BDD8
:1008E00080680021816001614161C16041600160F7
:1008F0007047F0B40246106895681318506803EB0F
:100900005004C0071DD54D441BE013F8017B05F8CA
:10091000017B491EF9D1A0B1B60813F8011B06F0FE
:100920000306032E08BF13F8016B01EB06214942B1
:10093000801C294405D011F8016B05F8016B401E9D
:10094000F9D1A3420ED013F8016B16F0030104BFD6
:1009500013F8011BC91C30090F28DAD113F8010B59
:100960000F30D6E7F0BC02F10C00704710B502461C
:1009700052E8000F0C4642E8004393F0000FF7D115
:1009800010BD000010B5024652E8004F44EA0100D5
:1009900042E8000393F0000FF6D110BD10B50246F7
:1009A00052E8000F00EA010442E8004393F0000F10
:1009B000F6D110BD10B5024652E8004F04EB01001D
:1009C00042E8000393F0000FF6D110BD10B50246C7
:1009D00052E8004FA4EB010042E8000393F0000F3F
:1009E000F6D110BD0121CDE70021D7E707490868FE
:1009F000401E086000D162B67047000000BF72B6AA
:100A000002480168491C01607047EFE7780900203F
:100A100010B508B90E2010BD0368426881681A60DD
:100A2000891A03E013685C1C146019700B46591E88
:100A3000DBB20268002BF5D10020107110BD38B573
:100A400004460020FFF7DAFF216862680868002585
:100A500082420FD2421E0A601578208AE36845431D
:100A60001D44A36820689A1A0379D2B29A4238BF0B
:100A70001A460A710020FFF7C8FF284632BD38B574
:100A800004460D460020FFF7B9FF206801684A1CA4
:100A90000260E068228A2D1AB5FBF2F20A7000208B
:100AA000BDE83240FFF7B1BF4AB1000011F8013B89
:100AB000521E00F8013B1CBF11F8013BF8E77047DC
:100AC00081B00022425040580090009901B0704718
:100AD0004058B1E1D0F80403084018BF0120C0B26B
:100AE000704700F20C5082600160704700F5A16011
:100AF00001608260704770B51F28049D059C41EA23
:100B0000420192BF4FF0A04600F01F00DFF8C06422
:100B100041EA830141EA052106EB800041EA0441F4
:100B2000C0F8001770BDE0B500F00FF8012105E036
:100B3000E0B50B460021002201910092FFF7DBFF98
:100B400007BDE0B500F001F8F8E700210191009140
:100B50000023012270471F2892BFDFF8781400F0AD
:100B60001F00DFF87414012202FA00F008607047D9
:100B700038B50C460546206810F1010F04D0FFF788
:100B8000EAFF2068FFF7CFFF606810F1010F1CBF7C
:100B90000021FFF7CDFF2868A16900F224521160FF
:100BA000637D217D0B43936462682168FFF799FFA1
:100BB000207D012815D1A06810F1010F1CBF002174
:100BC000FFF7B6FFE06810F1010F04D0FFF7C3FF95
:100BD000E068FFF7A8FFA268E1682868BDE8384030
:100BE00084E731BD38B504460D4620684FF48E7158
:100BF000FFF766FF20684FF4A271FFF761FF2068DE
:100C0000DFF8D813C0F80413000B690142B2002AC0
:100C100007D5DFF8CC2300F00F00104400F8041CC7
:100C200002E0DFF8C033995401222068DFF8B833BE
:100C3000000B41B200F01F00490902FA00F043F82E
:100C40002100DFF8A82342F8210031BD0168DFF858
:100C5000A003DFF8A033C1F80803090B012201F05B
:100C60001F0049B28240490943F8212070472DE90D
:100C7000F04104464FF0FF32206800F5A1614D6855
:100C8000CE680F68D1F808801146FFF72AFF4FF0B1
:100C9000FF3220681146FFF729FF15F1010F1CBF35
:100CA0002846FFF74EFF16F1010F1CBF3046FFF735
:100CB00048FF18F1010F1CBF4046FFF742FF17F134
:100CC000010F03D03846BDE8F0413AE7BDE8F081B6
:100CD0002DE9F04104460D4690462179DFF81803CE
:100CE0002C2212FB01F2871807F12906707808B14F
:100CF000082023E00FF2083050F82110206800F09F
:100D000084F908B1112019E029462046FFF730FF89
:100D1000C7F8048029697868396018B1297F2046AE
:100D2000FFF760FF21680420C1F800050022BA61C6
:100D3000FA6132707A61012070700020BDE8F081A4
:100D400038B504462C202279DFF8AC1223684243E0
:100D50008D180021C3F80015686810B12046FFF710
:100D600075FF2046FFF783FF206800F067F9002039
:100D700085F82A00686031BD38B50D4604464FF449
:100D80008E71FFF79DFEA868296A405C2A6A521C92
:100D90002A62C4F81C0531BDF8B5054617462A7904
:100DA0000E462C20DFF8501242438C18284600F0E3
:100DB0003CF808B11120F2BD6761A66020620021F5
:100DC00084F828104FF48E712868FFF779FE2868A0
:100DD0000121816000262146FFF7CEFF606868B9D7
:100DE0002F6811E028684FF48E71FFF771FE00281C
:100DF000F8D029680120C860002060613046F2BD4B
:100E000021463846FFF7B8FF206A61698842E9D277
:100E10004FF48E713846FFF75BFE0028F0D194F84E
:100E200028000028F4D00F26E6E70279DFF8C81181
:100E30002C2042438818406900B10120C0B270479D
:100E400038B50D460446A86900284FF48471204641
:100E500004D1FFF735FED4F8180531BDFFF730FE99
:100E6000686AD4F81815EA681154686A401C686208
:100E700031BD1FB50346012402918DF80040019257
:100E8000684619685A6890471FBDF8B502460023A6
:100E90008DF80030029190680190536168461168A6
:100EA0005268904705B000BDF8B584B005460C46C1
:100EB0004FF40071FFF70EFE04F128064FF401779E
:100EC00018B34FF4927100F07DF8F0B14FF49271C5
:100ED0002846FFF7F5FDC5F80873707808B90121B9
:100EE000696002208DF800000021D5F88004C5F863
:100EF00080040390A0690290E0680190A161E16123
:100F0000684621686268904729E004212846FFF777
:100F1000E1FD20B34FF4847100F054F8F8B121469C
:100F20002846FFF78DFFA069616A884217D1E06902
:100F300040B1E268616AA06100232069E060E3617A
:100F4000636209E0707808B901216960C5F8087327
:100F50000020E268A061616A2046FFF78AFF4FF433
:100F60008E7100F02FF8A0B1206A6169884206D224
:100F7000307820B921462846FFF7FEFE09E04FF4FD
:100F80008E712846FFF79CFD616911B12046FFF77D
:100F90007CFF4FF4A27100F015F888B14FF4A271F4
:100FA0002846FFF78DFD707808B101212960A069FE
:100FB00030B10021A1612046E268616AFFF759FF64
:100FC00005B0F0BD284683E50B490C486CE70000EE
:100FD000000300500805005008080050800002007F
:100FE00018ED00E000E400E080E200E000E100E055
:100FF0008402020080E100E0D808002000200040C8
:10100000C90F000011480168084738B50D4610495E
:10101000884211D10020FFF7F1FC0C490879002427
:10102000002811BF01240D60012008710020FFF786
:10103000ECFC0CB1112032BD002032BD04498842C5
:1010400003D102480022026002717047700900203B
:101050000020004081B0002242504058009000998A
:1010600001B07047405894E100F20C5001E000F5E7
:10107000A16001608260704770B51F28049D059CC7
:1010800041EA420192BF4FF0A04600F01F00DFF896
:10109000146441EA830141EA052106EB800041EA3C
:1010A0000441C0F8001770BDE0B500F00FF8012151
:1010B00005E0E0B50B460021002201910092FFF708
:1010C000DBFF07BDE0B500F001F8F8E70021019172
:1010D00000910023012270471F2892BFDFF8C81338
:1010E00000F01F00DFF8C413012202FA00F00860CC
:1010F000704738B50C460546206810F1010F04D042
:10110000FFF7EAFF2068FFF7CFFF606810F1010FDB
:101110001CBF0021FFF7CDFF2868A16900F224520F
:101120001160637D217D0B43936462682168FFF742
:101130009BFF207D012815D1A06810F1010F1CBF75
:101140000021FFF7B6FFE06810F1010F04D0FFF7B0
:10115000C3FFE068FFF7A8FFA268E1682868BDE860
:10116000384084E731BD38B504460D4620684FF459
:101170008871FFF76FFF20684FF49071FFF76AFFE7
:1011800020684FF49271FFF765FF20684FF4A27159
:10119000FFF760FF2068DFF81813C0F80413000B96
:1011A000690142B2002A07D5DFF8082300F00F00DA
:1011B000104400F8041C02E0DFF8FC3299540122CC
:1011C0002068DFF8F832000B41B200F01F00490937
:1011D00002FA00F043F82100DFF8E42242F821008F
:1011E00031BD0168DFF8C802DFF8D832C1F8080362
:1011F000090B012201F01F0049B28240490943F85E
:10120000212070472DE9F04104464FF0FF3220685D
:1012100000F5A1614D68CE680F68D1F808801146CD
:10122000FFF722FF4FF0FF3220681146FFF71FFF44
:1012300015F1010F1CBF2846FFF744FF16F1010FFF
:101240001CBF3046FFF73EFF18F1010F1CBF4046A0
:10125000FFF738FF17F1010F03D03846BDE8F04122
:1012600030E7BDE8F081F8B504460D462179164611
:101270002423DFF8542213FB01F3D71897F820003A
:1012800008B10820F2BD0FF2482050F82110206864
:10129000FFF7BBFE08B11120F2BD29462046FFF73B
:1012A00028FF7E6029697868396018B1297F204657
:1012B000FFF759FF21680820C1F80005002201202E
:1012C00087F82000BA61FA617A610020F2BD38B572
:1012D0000446242022797C49236842438D1800214A
:1012E000C3F80015686810B12046FFF77AFF204662
:1012F000FFF788FF2068FFF7A1FE002085F8200097
:10130000686031BDF8B5054617462A790C46242099
:101310006D4942438E1804F06041B1F1005F2ED157
:10132000284600F030F860BBB4604FF490717761EC
:1013300000272868FFF78EFE28684FF4AC71FFF78E
:1013400089FE29687069B36801F2445213605060E5
:1013500001228A60706880B928684FF49071FFF7A5
:1013600081FE044628684FF4AC71FFF77BFE04430E
:10137000F2D000B10F27002070613846F2BD102076
:10138000F2BD1120F2BD02794F4924204243881852
:10139000406900B10120C0B270471FB50346012467
:1013A0008DF808108DF800400192684619685A6857
:1013B00090471FBD7FB50C464FF492710646FFF76C
:1013C00051FE06F23C55C0B14FF4927100F064F842
:1013D00002208DF80000D6F88014C6F8801403911E
:1013E00029688DF808100021E0680190A161E16191
:1013F000684621686268904721E04FF48871304662
:10140000FFF730FED8B14FF4887100F045F8296835
:10141000A069814213D1E268E06960B1D6F80002A8
:1014200020F02000C6F80002E0692369A061E360B3
:101430000020E06100E0A0612046FFF7AEFF4FF41E
:10144000A2713046FFF70EFE60B14FF4A27100F0BA
:1014500023F8A06930B10021A16120462968E26823
:10146000FFF79BFF4FF490713046FFF7FBFD90B103
:101470004FF4907100F010F8606960B129698DF83F
:10148000081000228DF80020A06801906261684673
:101490002168626890477FBD3046DBE50A490B480A
:1014A00088E70000000300500805005008080050BD
:1014B0001003020018ED00E000E400E080E200E02C
:1014C00000E100E080E100E004090020002000408D
:1014D0009D14000010B58268531C83600468A154F9
:1014E00041688B4203D3BDE8104000F087B910BDBE
:1014F0002DE9F84F8B460124154602E0B1FBF5F1CA
:10150000641CA942FAD29A460B9FD146A24538BF25
:10151000A14680460A9CF8070BD454B1B8070BD4F7
:101520002026A14505D2314600F05EF9641E002C4C
:10153000F7D12E46012507E0BAF1000FF0D1302691
:10154000EFE7AAF1010A7543BAF1010FF9D8BBFB25
:10155000F5F0B04228BF7543F9D200BFA3A1BBFB91
:10156000F5F005FB10BB095C00F03EF9B5FBF6F5A4
:10157000002DF2D1F80707D534B1A14504D200F00F
:1015800032F9641E002CF8D1BDE8F18F2DE9FC473B
:101590000E0048BF49420125904602E091FBF8F158
:1015A0006D1C4145FADA9A460A9C0B9FD146AA4522
:1015B00038BFA94624B1002E01D4790700D5641E96
:1015C0000546B80702D5BAF1000F0BD0F80709D4C9
:1015D00044B1A14506D220212846FFF77BFF641EB7
:1015E000002CF6D1002E02D576422D2102E078079C
:1015F00003D52B212846FFF76DFF07F003000228D3
:1016000008BFBAF1000F09D144B1A14506D230217B
:101610002846FFF75FFF641E002CF6D10197009467
:101620005346424631462846FFF762FFBDE8F3873E
:101630002DE9FE430D008046174600F0C78015F8DF
:10164000011B002900F0BA80252940F0B180002656
:1016500002E046F001066D1C29782B2907D02D29C0
:10166000F7D0302908BF46F00206F4D0B0E046F0CB
:101670000406F0E72978A1F130020A2A0CD200FB17
:1016800004146D1C303C2A29F4D1396839606D1C72
:1016900051F8042B39601419297800232E290BD115
:1016A0006D1C04E000FB03116D1CA1F130032978CF
:1016B000A1F130020A2AF5D3287801E015F8010FCC
:1016C0006C2818BF6828F9D025286CD0582822D05B
:1016D00063280CD0642818BF69280FD070284CD01C
:1016E00073281ED0752812D0782814D05EE0386890
:1016F000386050F8041B3860C9B255E0386838606B
:101700000A2200F06AF84046FFF740FF4EE03868D2
:1017100038600A2202E038683860102200F05DF874
:101720003DE03868386050F8049B38600020F107CD
:1017300051D4B9F1000F1CBF484600F07FF80646AF
:1017400010E000F051F8761C19F8011B0800F8D1E0
:10175000A6422BD254B300F046F8641EF8E700F01E
:1017600042F8641EA64201D2002CF8D119F8011BE0
:1017700008001BD000F038F8F8E7386838603021EE
:1017800050F8044B386000F02FF8782100F02CF866
:101790000821009100200190082310222146404694
:1017A000FFF7A6FE02E0252100F01EF86D1C01E007
:1017B00000F01AF8287800287FF441AF98F80C0060
:1017C00020B14046BDE8FE4300F018B8BDE8F783FD
:1017D00000240A2057E70026B6E750F8041B3860BB
:1017E0000196009470472021404673E63031323331
:1017F00034353637383941424344454610B50446FE
:10180000A2682AB121682069636998470020A06016
:1018100010BD0000002900D170470CB438B500BFDE
:1018200005A31C68009404AD00956A46FFF700FF0D
:1018300031BC5DF80CFB00000000000000F101036A
:1018400010F8011B11B110F8011BFBE7C01A70471B
:1018500028B10FF21C31800141F0010108477047A7
:10186000405800B10120C0B2704710B5AB4A517961
:1018700009B1112010BDAA4B1960116819B10123DB
:10188000A84C537123600122A74C225031B94FF468
:1018900080712046FFF7E4FF0028F8D0002010BD3B
:1018A000F8B59E4D2B790BB10820F2BD0379FF2BC3
:1018B0001CBF4479FF2C6ED08479FF2C1CBFC479E7
:1018C000FF2C68D0994E73624FF0FF344379FF2BA1
:1018D00008BF2346B3628379FF2B08BF23463363D7
:1018E000C379FF2B08BF23467363037AFF2B08BF1E
:1018F0002346B363437AFF2B18BF1C46F463036887
:101900003364C47A837A077B43EAC403447B43EAA3
:10191000871304B1012443EAC4137364844F854CD4
:101920003B681C40837B1C43C37B03B1012344EA17
:101930000364037C44EA4363447C43EA04733B60EE
:1019400000236B71AA60296001227B4B1A6049B1A8
:10195000807C7A497A4A7B4B400108704FF40070D2
:10196000106018600120287101216D486E4D3160B2
:1019700000220260296064244FF480712846FFF73A
:101980006FFF30B90A20FFF763FF641EF4D10D200A
:10199000F2BD0020F2BD0720F2BD00002DE9F843A2
:1019A00015465E4A0646507908B111206EE0DFF810
:1019B0007081654FC8F8000001B370780022801E66
:1019C00007281BD8DFE800F01714110F0C090604D4
:1019D000CA791206887942EA0042487942EA00222E
:1019E00008790243BA60C8780206887842EA004261
:1019F0004B7842EA0322087802437A600120DFF83C
:101A00002491C9F8040031787078B27841EA002155
:101A1000F07841EA0231327941EA4031707941EAA5
:101A2000823141EAC0313960642400F072F830B983
:101A30000A20FFF70DFF641EF7D10D2026E00020DD
:101A4000C8F800000121C9F80010F5B17078B96834
:101A5000821F032A0AD8DFE802F0080604020B0EF0
:101A6000EB710A0CAA710B0A6B712971801E7968DF
:101A700003280AD8DFE800F008060402080EE87020
:101A80000A0CAA70080A687029700020BDE8F28369
:101A900029492E4B0120086001222D48234902606C
:101AA0004264002008604FF400721D491A6008600B
:101AB0001A4B1871704700F06043B3F1005F05D115
:101AC000244B1A60586099600820CEE610207047B9
:101AD00000F06043B3F1005F05D11F4B1A605860FE
:101AE00099600420C1E6102070471C4A11605060C4
:101AF0000C20BAE680B500F00CF848B1074A084B54
:101B000000205071186091681268BDE808401047C5
:101B100001BD4FF480710448A2E600005409002082
:101B20000091024004930240009002400095024060
:101B30000096024000FFFF000893024029E400E005
:101B400084E200E004E100E03496024084E100E039
:101B50001090024010950240049502401C950240EE
:101B60000000000000000000000000000000000075
:101B70000338FDD8704700007CB504460D46E38865
:101B80004BB100BF0FF2D4160FF2D81277A1009616
:101B90002846FFF73FFE217A05291CD0607A6E4E59
:101BA00048B1A088FEF76CFB06EB800064A1426997
:101BB0002846FFF72FFEA0880021FEF753FB0346BF
:101BC000207A56F8202028460DF1080DBDE8704017
:101BD0006CA1FFF71FBE73BD38B50C46017A05290D
:101BE00058A507D0407A30B15CA255A12046FFF736
:101BF00011FE00E01AB129462046FFF70BFE2046F1
:101C0000BDE83240FFF7FABD2DE9F84384B017462E
:101C10000C9D2E7B002281460C4698462A7329464D
:101C20004046FFF7A9FF062F2CD8DFE807F004098C
:101C30000F1A21161D0049462846FFF7EBFD21E04B
:101C4000226849462846FFF7E5FD1BE063682268E5
:101C500049462846FFF7DEFD14E020690290E1685E
:101C60000191A068009007E06069039021690291EA
:101C7000E0680190A168009163682268494628469F
:101C8000FFF7C8FD002229464046FFF7A5FF2E7347
:101C900005B0BDE8F08300002DE9FC4B8946B9F1A1
:101CA000080F0546984648D80092002298F80CB0D4
:101CB00037A688F80C2041460098FFF75DFF002703
:101CC00021A44F4505D2EA5D31464046FFF7A2FD0B
:101CD00003E021464046FFF79DFD7F1C082FF0D30F
:101CE0001AA14046FFF796FD002619A719A40195F1
:101CF0004E4514D20198855DA5F120015F2908D3D6
:101D0000284600F049F820B9284600F04FF800B9FD
:101D10002E252A4621464046FFF77CFD03E0394642
:101D20004046FFF777FD761C082EE1D3012200988C
:101D30004146FFF751FF88F80CB0BDE8F38B000077
:101D4000257300000D0A0000202020007C00000008
:101D50002000000025630000200000201B5B306D88
:101D6000000000001B5B313B33316D0025734C6F6D
:101D700067732064726F707065642028256429255C
:101D8000730D0A003C25733E2025733A20000000A5
:101D9000202530327800000010B5044600F02FF8FE
:101DA000014620460969BDE81040084710B50446C1
:101DB00000F025F801462046C969BDE810400847F3
:101DC000613807E005E0A0F161011A2901D2012084
:101DD000704741381A288041C00F7047A0F1210197
:101DE0000F290AD3A0F13A02062A06D9A0F15B0115
:101DF000062902D37B380428EDE70120704701480B
:101E000070470000640000204E49012008707047B0
:101E10002DE9F84388B000210020FEF7F1F908B160
:101E200000F0F2F800F01CF94748484C484E454D88
:101E3000041BE408240444F00304314600F091F844
:101E4000002000F067F9002700F01AF9291DC85595
:101E50007F1CB7F5807FF7D30DF10C0065A114222C
:101E6000FEF722FE00223B4903A8FFF719FD08B147
:101E700000F0CAF840A100F074F800BF5BA2402156
:101E8000D2E900898DF80010CDE9018900F064F8ED
:101E900008B100F0B9F899208DF8040000F05CF862
:101EA00008B100F0B1F8012102228DF804108DF87C
:101EB00005206946002201A8FFF770FD08B100F077
:101EC000A3F80020287000210120FFF70EFE08B1C2
:101ED00000F09AF800F048F806F13801FEF7E5FA4C
:101EE00000224FF48071281DFFF7E5FD08B100F0D6
:101EF0008BF800F039F800BF25A1FEF7D6FA05F5FA
:101F0000827600224FF480714FEA0600FFF7E0FD71
:101F100000F02AF826A1FEF7C8FA00BF27A100F0BA
:101F200020F84FF480723146281D00F001F9002896
:101F30000CBF0FF294010FF2A00100F012F8FFF7AE
:101F4000A7FDFEE7D0040020F0260000F0260000E8
:101F5000C8250000091E00000022002101A8FFF78B
:101F60001DBD2046FEF7A1BA28780028FCD000212C
:101F70002970204670470000515350492065786110
:101F80006D706C6520737461727465642E0000005E
:101F900050726F63657373206F662077726974691E
:101FA0006E67206461746120737461727400000054
:101FB000446174612072656164000000436F6D705C
:101FC0006172652E2E2E00004461746120636F6E75
:101FD00073697374656E74004461746120696E6323
:101FE0006F6E73697374656E7400000066010101A1
:101FF000010100000000000013111415161704035E
:1020000000000100000106001FB569460022002300
:10201000002481E81C0002906A46002144F201007D
:1020200000F096F81FBD30B4002513E050F8042BE3
:10203000D30744BFA9F101039A18091F042942F8E4
:10204000045BFAD213468C0744BF15809B1CC9075A
:1020500048BF1D7050F8041B0029E7D130BC704701
:1020600080B500F0D2F804210348FEF731FB0349A4
:102070000120487101BD0000A027000018000020C9
:10208000F0B5274C274A2078274B6FF0004150BB12
:102090000820656803FB05250E46B5FBF6F601FB37
:1020A0001655401E6560F4D1204D2E4610206768FD
:1020B00003FB07278C46B7FBFCFC01FB1C77676022
:1020C00046F8047B8E4603FB0727B7FBFEFE01FBA9
:1020D0001E776760401E46F8047BE8D1E86FC5F8BC
:1020E000800001252570606803FB00220B46B2FBCF
:1020F000F3F301FB13210D4A616092F8803003F085
:102100001F0352F82300C2F8800042F8231020F089
:102110004040F0BD024900220A704860704700004C
:102120005C0000205FF36E3C0D66190094070020F0
:1021300003000020521E22BF13F8010B11F801CB3F
:10214000B0EB0C00F6D0521C08BF10467047FEE7FB
:1021500010B572B6FEF7E5FAFEF7AAF90028FBD132
:102160001048114C1149041BE408240444F00100F8
:10217000FEF79BF90E480168CA0700D500BE0D495D
:1021800044F00200FEF791F9BFF34F8F0A490B4864
:102190000A6802F4E06202430A60BFF34F8F00BF97
:1021A000FDE700BFF0260000F02600004C270000ED
:1021B000F0ED00E0582700000CED00E00400FA0507
:1021C0002E4901200870704738B588B0044668462B
:1021D0002FA12022FEF768FC4FF0FF310191029100
:1021E0000391062500954FF0EB710691220014BF74
:1021F000234A0022214D6946281D00F075F808B1D8
:10220000FFF702FF6C7009B030BD34E070B51B4CB5
:102210001C4D00202070D2B22679AB5D23B104F1B1
:102220000800FFF76FF803E004F11000FEF7B4FDBB
:1022300008B1FFF7E9FE617811B120780028FCD0E1
:1022400070BD80B5104A00924023104A00F07CF81F
:1022500001BD704780B509490A4A0B79D05C20B1AD
:1022600001F10800FFF733F803E001F11000FEF779
:1022700067FDBDE802400020A6E700000000002046
:10228000C1210000400900200D2200009808002014
:10229000FFFFFFFFFFFFFFFFFFFFFFFFFFFFFFFF4E
:1022A00000000000000000000000D6010601000050
:1022B000F8B500F013F8027A03E0F8B500F00EF874
:1022C00082688DF80820C0681C4A039002EB8102E6
:1022D0006846D1685268904705B000BD02788DF815
:1022E0000020436801937047F8B5044688B026780B
:1022F000124F07EB8600154645600A69C26020222E
:10230000487FB8556846FEF7CFFB04962678B85D3F
:1023100040B1002D14BF0A4A00226946201DFEF775
:10232000A2FF08E0002D14BF064A0022694604F10E
:102330000C00FEF7CDFC09B0F0BD00004009002004
:10234000B1220000BB220000F0B595B00D461A9CEA
:1023500016461F462846FEF762FA09A8182100F023
:1023600059F809960A970E940023082201A92846D5
:10237000FEF7AEFA0398BDF80A1004900826BDF8DF
:102380000800ADF8140000220198ADF8161000F016
:10239000030001288DF8192017D10198019CC0F382
:1023A000C2008DF8180008230198C0F38316B2000C
:1023B0000FA92846FEF78CFA09A8009004AB324614
:1023C0000FA9A00AFFF720FC1FE0019800F003000E
:1023D00002281AD10198019CC0F3C200A40D8DF807
:1023E00018000827082C98BF274633463A4607A905
:1023F0002846FEF76DFA09AB04AA394607A8FFF78D
:102400004BFCBE19E41B002CEBD12846FEF70BFA5F
:1024100015B0F0BD002200F001B8FEE700B500BF26
:10242000130096469446103928BFA0E80C50FAD8FD
:102430005FEA417C28BF0CC048BF40F8042BC907A5
:1024400028BF20F8022B48BF00F8012B00BDFEE793
:1024500030B54A48002101604160002048490860C9
:10246000484949480A6802604B6843608A6882604C
:10247000CB68C3600A6902614B6943618A69026281
:10248000CB6943620A6A82624B6AC3628A6A0263E8
:10249000CB6A43630A6B02644B6B43648A6B82644E
:1024A000CB6BC364096C016538490868082804BF10
:1024B0004868002802D13648364A02600B68082B6B
:1024C00004BF4868002802D13348FB2202600B6831
:1024D000082B04BF4868002809D13048304B0268F7
:1024E0001C78120904F00F0444EA02120260086822
:1024F000082804BF4868002803D12A484FF4007117
:10250000016029480168CA0744BF6FF001010160FA
:102510002649C86F40F47000C867BFF34F8FBFF300
:102520006F8F234A106800285CBF506800281CD5B4
:10253000204B01241C60204C00F042F8122515604D
:1025400000F03EF8556000F03BF800221A6000F001
:1025500037F8BFF34F8F0A68184802F4E06202436D
:102560000A60BFF34F8F00BFFDE7024A02491160C6
:1025700030BD0000580000200090D0030C01004046
:10258000380500400404001020C500403001001050
:102590008C5600404881030018F50040E40E0040CE
:1025A0005802001040960240000400400CED00E08C
:1025B0000012001004E5014000E401400400FA05A7
:1025C00020680028FCD07047515350492077726929
:1025D000746520616E642072656164206578616D48
:1025E000706C65207573696E67203234626974207F
:1025F00061646472657373696E67206D6F646500F2
:1026000050726F63657373206F66206572617369C2
:102610006E6720666972737420626C6F636B2073DF
:1026200074617274000000006572726F72000000C5
:102630007761726E696E6700696E666F00000000F8
:1026400064656275670000001B5B313B33306D00D1
:102650001B5B313B33326D001B5B313B33336D0011
:102660001B5B313B33346D001B5B313B33356D00FD
:102670001B5B313B33366D001B5B313B33376D00E9
:1026800010B5074979441831064C7C44163404E0EF
:102690000A68081D114488470146A142F8D110BDBF
:1026A0002C000000480000004EF68851CEF20001D8
:1026B000086840F470000860BFF34F8FBFF36F8F5E
:1026C0004FF00070E1EE100A704700005BF9FFFF69
:1026D000D0080000AC0000200000000017E2FFFF5F
:1026E0005A010000BC00000000000020FEE70000CE
:1026F000D827000000000303DC27000000000000D2
:10270000C827000000000000D027000000000000E3
:102710000120C046002801D0FFF7B2FFAFF30080D0
:102720000020AFF30080FFF773FB00F000F800F02B
:1027300001B8FEE70746384600F002F8FBE7FEE77F
:102740002021090326311820ABBEF9E746617461E8
:102750006C206572726F720053797374656D2072AC
:102760006573657400000000756172745F6C6F675B
:102770005F6261636B656E640000000068090020A1
:102780006009002068090020D4060020180000001D
:10279000014880470148004751240000BD27000040
:1027A000B02700000000000068270000180000208B
:1027B000432200005522000053220000AFF30080A6
:1027C000FFF772FFFFF7A4FF5541525400000000CD
:1027D0005541525445000000617070005052530042
:1027E0004300FEE7FEE7FEE7FEE7FEE7FEE7FEE763
:1027F000FEE7FEE7FEE7FEE7FEE7FEE7FEE7FEE7B1
:10280000FEE7FEE7FEE7FEE7FEE7FEE7FEE7FEE7A0
:10281000FEE7FEE7FEE7FEE7FEE7FEE7FEE7FEE790
:10282000FEE7FEE7FEE7FEE7FEE7FEE7FEE7FEE780
:10283000FEE7FEE7FEE7FEE7FEE76200013001206B
:1028400000400C6108110152FF0910032826000006
:10285000300412380412400410035C1D00004808C4
:10286000126408125008125804126004126804120C
:10287000700412780420020090D0033F1201054337
:10288000E02708610143C71D0D12C10852DD0CF09D
:082890000108C51D0001613CB7
:04000005000027BD13
:00000001FF
