:020000040002F8
:10600000304D0020A5B20200B3760200E38002000A
:1060100073890200938902002398020000000000A7
:106020000000000000000000000000000B9A0200C9
:10603000439B020000000000F5B102001BB2020009
:1060400099AC020027B20200F97B02005FB30200A4
:1060500061B3020063B302007374020065B302000F
:1060600067B3020069B302006BB302006DB30200B4
:106070006FB3020071B3020073B3020075B3020084
:1060800077B30200696F020079B302007BB30200AC
:10609000D56F02007DB30200879002007FB302003B
:1060A00081B3020083B3020085B3020087B302000C
:1060B00089B302008BB30200000000000000000062
:1060C0008DB302008FB3020091B3020093B30200BC
:1060D00095B3020097B3020099B302009BB302008C
:1060E0009DB302009FB30200A1B3020000000000B4
:1060F00000000000A3B3020000000000A5B30200EE
:10610000000000000000000000000000000000008F
:10611000000000000000000000000000000000007F
:10612000000000000000000000000000000000006F
:10613000000000000000000000000000000000005F
:10614000000000000000000000000000000000004F
:10615000000000000000000000000000000000003F
:10616000000000000000000000000000000000002F
:10617000000000000000000000000000000000001F
:10618000000000000000000000000000000000000F
:1061900000000000000000000000000000000000FF
:1061A00000000000000000000000000000000000EF
:1061B00000000000000000000000000000000000DF
:1061C00000000000000000000000000000000000CF
:1061D00000000000000000000000000000000000BF
:1061E00000000000000000000000000000000000AF
:1061F000000000000000000000000000000000009F
:1062000080B5DFF87805FF210022816002604260DE
:1062100000F21440426002600273DFF8640500F08F
:10622000CFFA20B90FF28C5000F074FB002002BDB1
:1062300030B591B1DFF84C25DFF84C150568DFF873
:106240004C35511A002200E0521CB2EBD10F06D29D
:1062500033F82240AC42F7D10260002030BD052067
:1062600030BD01B56846FFF7E3FF28B9DFF8200528
:10627000009950F8310002BD002002BD000000006E
:10628000491EDFF80C25032902EBC0000BD8DFE81C
:1062900001F00204060802207047042070470079CC
:1062A000704740797047002070470246002013680D
:1062B000C3F380029AB103F00300012802D0022840
:1062C00007D00BE00A68C3F38310801C82180A60B1
:1062D00004E008689B0D9B1C1B180B600120704795
:1062E000F8B5DFF8984484B004F5836000F0A0FBB3
:1062F00004F21445284600F09BFB6068A7680090F4
:106300000026009904F10C00394000EB8100694639
:10631000FFF7CBFF0028F4D101AB009A04F10C0188
:106320003A4000F0E5F9F8D90199BDF80A0001F00A
:10633000030101290AD002290FD1019906460098CC
:10634000890DC91C00EB9100009006E006460198FB
:106350000099C0F3831041180091284600F06AFBB1
:1063600008B100986060304605B0F0BD80B50021EE
:10637000DFF8200400F014FB80F3100002BD2DE9CB
:10638000F84F0446884693461F460A9DDFF8EC9373
:10639000FFF7ECFF09F10C0A7E1C00042E4040EAD6
:1063A0001440E4004AF8260004F0380444EA8B1450
:1063B000C4F3090409F10C0044EA88242F4044F096
:1063C000010440F82740BDE8F18F2DE9FC418846E3
:1063D00000218DF800101646DFF8A07304466846C9
:1063E00000F030FB3868C8F80000A51CBA683968AE
:1063F0007868521C511A411807F21C480FE001211D
:10640000404600F0FDFAFFF76BFF0146404600F002
:10641000F7FAB8683968401C411A78684118A942EF
:10642000EDD32EB1A40104F4707444F0050402E02D
:10643000A40544F006043968B868014007EB8102FE
:10644000D46039689DF800006D183D6000F017FBBE
:106450000120BDE8F6812DE9FE43DFF82063044604
:106460000D4690469946B768012201A94846FFF7B4
:10647000ACFFA8B10198801C002108E007EA0002E7
:1064800006EB820258F82130D360401C491C494574
:10649000F4D300974A46019B29462046FFF76FFF39
:1064A00096F8200418B100F017F80028FBD1BDE8D9
:1064B000F78300230022CEE780B50092012300F08D
:1064C00009F801BDE0B5009201936A460223FFF787
:1064D000C2FF07BD6A46BEE72DE9F847A74E7068C0
:1064E0003168884285B024D006F582670020B86004
:1064F000BFF34F8F7068B468009006F10C000099EC
:10650000214000EB810005E006F10C0004EA0102E5
:1065100000EB82006946FFF7C8FE002800F0CB8040
:10652000B868002840F0C780306800998142EBD3FA
:1065300070600020BCE0029965F39F51029105F163
:10654000080100F03FF95FEA000A4ED000F081F93F
:1065500000F0C8F800982040641C241AA40006F13A
:106560000C01AC4201EB800119D234B9284606F186
:106570000C014FF00008002503E0204606F10C084E
:106580002D1BC4B208232246504600F0B7F9B8F1DB
:10659000000F09D004F10803EAB2414601E00823E4
:1065A0002A46504600F0AAF9009809F1030100EBD1
:1065B0009100009039E0029901F0030101295AD1BC
:1065C0000299029AC1F383110529C8BF062122F45A
:1065D000707242EA811202920299C1F38311891CFE
:1065E000890000F0EFF85FEA000A44D000F031F9CA
:1065F00000F078F84FF008094FF0000810E000981C
:10660000411C009106F10C05204005EB80014B4632
:106610000422504600F072F909F1040908F101085A
:106620000298C0F383108045E9D33C68B86870B124
:10663000504600F012F933E0E0684179012904D1B5
:1066400022681368514620469847E0680468002C89
:10665000F2D1504600F001F900208DF8040001A8A5
:1066600000F0F0F9B86808B9009870609DF804006F
:1066700000F005FA14E03C6805E021688A682046CD
:106680009047E0680468002CF7D14348DFF8F82011
:1066900043A1801AC008000440F00200FFF709FF80
:1066A0007068316888420CBF0120002080F0010032
:1066B00006B0BDE8F087002002AB009A06F10C019D
:1066C000224000F015F8F8D902992D4801F0030195
:1066D00002297FF470AF029DAD0DA946502DA8BFD1
:1066E000502528E70023082202A9504600F006B9E9
:1066F00051F8221043F82010401C0099491C012831
:106700000091704730B5024600201C4BD3F810149E
:1067100000E0096889B1C9680C798442F9D1401C4C
:106720000A28F3DB4FF0FF3030BDC9680D682560E3
:10673000D3F81034D9680A6030BD10F1010FFBD0D6
:10674000D1680871D3F81014D4680029EDD1C3F8CA
:106750001024216030BD10B5104804680121017477
:1067600008E0E16801224A712046226851688847A2
:10677000E0680468002CF4D110BD0000D82300208C
:1067800080B2020034AF0200D4AE0200000000006C
:10679000D4AE0200F4270020E4AE0200E827002077
:1067A0004261636B656E647320666C7573686564C3
:1067B00000000000C82900207F000000942C002069
:1067C00000F078B92DE9F04105460F462E8A00F019
:1067D00088F9361F040021D0F71900200121FF1C81
:1067E00020716171A046B7FBF6F7E680FFB27F1E0D
:1067F000C8F80050002607E06179491C6171C8F8AB
:10680000000005608046761CBE4209D2284600F092
:1068100068F90028F0D1204600F005F8002000E0DB
:106820002046BDE8F081F8B501460D464C79601E62
:10683000002200E0521C2D688242FBD3002605E0B6
:106840000F68284600F070F93946761CA642F7D347
:10685000F1BD0121001D00F0D3B81CB50446012193
:10686000201D00F0D9F800909DF8000018B92046CE
:10687000BDE81640D7E713BD2DE9F0471446B0F840
:1068800006804279256846465643361F5F1903F154
:10689000040CBE42BCFBF8F234BFF31A2B4608FBD3
:1068A00012CC2360002A01E00068521EFCD1A8EB44
:1068B0000C029A469342089F4FF0000988BF924607
:1068C0000E4605461C46BCB105EB0C00001D06EB50
:1068D0000903390052460EBF19460146184600F01A
:1068E0003BF92D68A4EB0A04D14444454FF0000C59
:1068F000A246E8D9C246E6E7BDE8F0871CB501929A
:10690000002402E01CB501920124009401AAFFF7C3
:10691000B3FF13BD80680021816001614161C160E6
:10692000416001607047F0B4024610689568131822
:10693000506803EB5004C0071DD54D441BE013F80D
:10694000017B05F8017B491EF9D1A0B1B60813F807
:10695000011B06F00306032E08BF13F8016B01EBC1
:1069600006214942801C294405D011F8016B05F825
:10697000016B401EF9D1A3420ED013F8016B16F043
:10698000030104BF13F8011BC91C30090F28DAD119
:1069900013F8010B0F30D6E7F0BC02F10C00704782
:1069A00010B5024652E8000F0C4642E8004393F04F
:1069B000000FF7D110BD000010B5024652E8004F9D
:1069C00044EA010042E8000393F0000FF6D110BD45
:1069D00010B5024652E8000F00EA010442E8004305
:1069E00093F0000FF6D110BD10B5024652E8004FEB
:1069F00004EA010042E8000393F0000FF6D110BD55
:106A000010B5024652E8004F04EB010042E80003D3
:106A100093F0000FF6D110BD10B5024652E8004FBA
:106A2000A4EB010042E8000393F0000FF6D110BD83
:106A30000121C1E70021CBE7EFF3108072B6704768
:106A400062B6704738B50446FFF7F6FF154A9168FD
:106A500071B9012393601449144B1D680D401560F2
:106A60001960596851604FF0FF325A60002100E010
:106A70000121217010B9BDE83140E1E731BD10B509
:106A8000084CA16869B160B9FFF7D6FF08492268D0
:106A90000A6063684B600021A16010B9BDE8104036
:106AA000CEE710BDFC2C0020FC06FFBD80E100E01D
:106AB00000E100E010B508B90E2010BD036842687F
:106AC00081681A60891A03E013685C1C14601970ED
:106AD0000B46591EDBB20268002BF5D10020107165
:106AE00010BD38B5044600258DF800506846FFF704
:106AF000A9FF21686268086882420FD2421E0A60BC
:106B00001578208AE36845431D44A36820689A1AD3
:106B10000379D2B29A4238BF1A460A719DF8000032
:106B2000FFF7ADFF284632BD38B50C4600210546BB
:106B30008DF800106846FFF785FF286801684A1C39
:106B40000260E8682A8A241AB4FBF2F20A709DF8FF
:106B50000000FFF794FF31BD4AB1000011F8013B7E
:106B6000521E00F8013B1CBF11F8013BF8E77047CB
:106B7000012200F01F01DFF8143504E0012200F0CB
:106B80001F01DFF80C358A40400943F82020704788
:106B9000012200F01F01DFF8FC34F4E74901020094
:106BA00007D5DFF8F42400F00F00104400F8041CAF
:106BB0007047DFF8E8341954704728B10FF22051BC
:106BC000800141F001010847704710B5DFF8D0148B
:106BD000DFF8D0444FF4003008604FF48031DFF824
:106BE000C804016401602F2001212160FFF7E5FF47
:106BF000012161600020DFF8B444A06000F0B8F823
:106C00000020A07010BD1420B8E72DE9F84FDFF880
:106C10009C74DFF89C548046786800904FF000091F
:106C200000E07E60B8F1000F7DD04646D6F81C80AB
:106C300031E0A346E469002C73D08442F9D1A34526
:106C400002BFC8697860002808D1DFF86814012005
:106C500008600022F870BA6000F08AF82168E069E4
:106C6000CBF81C0010B10268891801607868824571
:106C700057D04FF0010954E0307C002853D1886888
:106C80007060CA68B2600869F0604969B161F878FB
:106C900008B100217160B8687168DFF81C340A1A05
:106CA00022F07F429A4203D2B0688218326008E034
:106CB000401AB16820F07F40884234BF081A002093
:106CC0003060002171600020B06001213174F061FA
:106CD00079680029A5D008683268904203D3801AE9
:106CE0000860F1619DE70846036893423AD2014685
:106CF000C069D21A0028F7D136E0B9F1000F02BFFF
:106D000078680099884214BF01200020BDE8F28F06
:106D1000786800281FBF00210174C0697860F7D12E
:106D200001E000213174287869788842E5D0024674
:106D3000144618202B1D44431919521CAB78D0B2AD
:106D4000984208BF00222A700A784868012A06463D
:106D500092D00CD3032ADBD009D279688B468A46BD
:106D60005C4668E79B1A03603260F061CE6159E7C8
:106D70002F2022E72DE9F843DFF830436068002830
:106D800039D00568DFF834633768D4F80880A7EB9A
:106D9000080020F07F4000F10309A07890B9DFF8E7
:106DA00020034FF48031016401601120FFF7F0FEF1
:106DB0001120FFF7DDFEC34901200860FFF7D8FF6F
:106DC0000120A0704D4538BF4D46454425F07F4514
:106DD000F563ED1B3068C71B27F07F4725F07F4523
:106DE000FF1CBD420AD23068F063FFF7C1FFBDE867
:106DF000F2431120C2E6BDE8F143E6E6BDE8F183C7
:106E00002DE9F041A94C94F800C06378A16860684E
:106E1000002200269C450F46804612D00CF1010C42
:106E20005FFA8CF3022B08BF944604F10C035FFA5F
:106E30008CFE53F82E30591821F07F41A1600121BA
:106E400001E00023002184F800C0F9B114E05B1ACE
:106E50008E190021CCF800108646DCF81C00DCF806
:106E60000C1049B1F519CCF81C2025F07F45CCF861
:106E70000450CCF80810724638B18446DCF8001093
:106E80008B42E4D2CB1ACCF8003001266060104669
:106E9000FFF7BBFE00280EBF002E4046FFF76AFF3B
:106EA0000020E070BDE8F08110B581494A788C7807
:106EB000521CD3B2A34208BF00220C78D3B2A34223
:106EC00001D1002010BD027018204A784243881872
:106ED000001D10BD2DE9FC41804600240D461646DC
:106EE0001F4600F03CF80DF10100FFF7DDFF08B987
:106EF00004240BE001210170C0F804806F4A11687E
:106F00008160C5600661476100F024F89DF80000CB
:106F1000FFF7B5FD0CB9FFF776FE2046BDE8F68118
:106F20007CB5054600240E4600F019F80DF101006D
:106F3000FFF7BAFF08B9042403E00670456000F0CB
:106F400009F89DF80000FFF79AFD0CB9FFF75BFE0A
:106F5000204676BD9DF801005549487070478DF870
:106F600000406846FFF76EBDF8B557484F4D002109
:106F7000016441648164C164016041606C6844B330
:106F80004E480068AF68C71B002627F07F4720687F
:106F900087420CD33F1A86192146E469087C20B148
:106FA000002288690A7449698847002CEFD1687803
:106FB0002978814201BF401C6870C0B2022804BF1A
:106FC00000206870687805EB8001CE60BDE8F14074
:106FD00019E6F1BD14E738B5FFF7F7FD3448334C37
:106FE00000210B2301808370616021706170142087
:106FF000FFF7CEFD06211420FFF7D0FD1420FFF788
:10700000B7FD2E4D0020686006211120FFF7C6FD58
:107010002868A060002032BD10B5254CA37843B18C
:10702000130018BF002801D1072010BD0368187C89
:1070300008B1082010BD187459745A6110BD10B5FC
:107040001B4C1346A278002A18BF002805D005293A
:1070500001D2072010BD42690AB9082010BD427C48
:10706000BDE81040012A0CBF0A46002232E7104A50
:107070009178002918BF002801D0416909B908207A
:1070800070470021017402214AE7000000E100E09E
:1070900000E200E080E200E018ED00E000E400E043
:1070A00080E100E00410014008130140AC2C0020F6
:1070B000FC27002008100140FFFF7F00041501405D
:1070C00004130140001001400011014000000000C5
:1070D00000000000000000000000000000000000B0
:1070E0000338FDD87047000000F1804000F5C04033
:1070F0000068012818BF0020704700F1804000F5AB
:10710000C04081B00021016000680090009901B08A
:10711000704770B51F28049D059C41EA420192BF4B
:107120004FF0A04600F01F00DFF8CC6441EA830175
:1071300041EA052106EB800041EA0441C0F800174E
:1071400070BD1F2892BFDFF8B42400F01F00DFF8E5
:10715000B02452F8203023F4403342F8203052F863
:10716000203043EA014342F82030704701461F298E
:1071700092BFDFF8900401F01F01DFF88C04006873
:10718000C84000F0010070477CB50FF2A4440346EC
:10719000D4E90056CDE9005606E05DF82340D4F866
:1071A000104542F8044B5B1C0C18A342F5D373BD89
:1071B0000246012002F00703D2089840895C08408B
:1071C000704710B5C20801248B5C00F0070004FA78
:1071D00000F01843885410BDDFF83014084490F9CB
:1071E0003020082A8041C00F7047DFF8201408447F
:1071F00090F93020082A01DB0120704700207047F9
:10720000DFF80814084490F93020D043C00F7047CD
:10721000DFF8FC13D5E7F0B5034614004FF0FF305C
:1072200007BF08240C2500240825DFF8E06300E0F0
:10723000641CAC420ED256F8247017F1010FF7D13E
:10724000F01880F8304046F8241012B9301980F850
:107250005830204640B2F0BDDFF8B0134FF0FF3297
:1072600041F820200828A4BF081880F8582070474B
:1072700038B5DFF8984394F86A0008B1082032BDA9
:10728000FF22302104F1300000F0D6F90025E8B2E9
:10729000FFF7E2FF6D1CE8B20C28F8DB062104F1D1
:1072A000640000F003FADFF86C13DFF86C33C020E1
:1072B00008704022DFF864131A600A604FF4BE7051
:1072C000FFF71BFFDFF858134FF000400860012262
:1072D00084F86A20002032BDDFF8300390F86A009D
:1072E00000B101207047FEB505460F461646FFF770
:1072F00087FF002408B1082453E0BA78520802F04E
:10730000010231462846FFF786FF064616F1010FB7
:1073100046D0B87841071ED4C00711D528461F288B
:1073200092BF4FF0A04100F01F00DFF8CC1201EB3C
:107330008000D0F8001721F00201C0F8001707E024
:1073400000210194009100227B782846FFF7E1FE9E
:107350002846FFF75DFFB878810716D53978DFF842
:10736000C422DFF8C40252F82630034042F8263027
:107370002D02090452F8263005F47C5501F4403101
:107380000D431D4342F826500BE0A0483B5781199E
:10739000304491F8582042EA831280F8582000E0E7
:1073A00004242046FEBDF8B50E460546974CFFF76F
:1073B0001CFF6719B0B197F93000204490F95800CC
:1073C0000006800F032804D12846FFF7CFFE10B136
:1073D00003E0012801D1022100E003212846BDE895
:1073E000F440AEE62846FFF7F7FED8B197F93050E3
:1073F0008C4850F8251041F0010140F82510A800F4
:1074000000F5807000B2FFF778FE002E1EBF97F9DE
:10741000301054F82100002804D00121804801FADE
:1074200005F50560F1BD10B50446FFF7DEFE20B19D
:107430002046BDE81040002183E62046FFF7CCFE41
:1074400078B172487749204490F9300051F82020F3
:107450005208520041F820200121744A01FA00F03C
:10746000106010BD80B5FFF781FE00B10120C0B2F1
:1074700002BD2DE9F84F88B00025CDE900554FF445
:10748000807601274FF0080A30B2FFF72DFE002862
:107490001EBF63480068384203D030B2FFF72DFEAC
:1074A0003D437F00361DBAF1010AEDD14FF4BE70A5
:1074B000FFF71AFE50B14FF4BE70FFF71EFE6A468A
:1074C00002210020FFF760FE45F0004528064F4FDF
:1074D00019D001264FF00008524C2E420DD054F81E
:1074E000280054F8281057F82820130005D0090C5C
:1074F00001F00301C0F305209047760008F1010870
:10750000B8F1080FE9D3002D72D504A90022C1E912
:1075100000224FF0FF310291039106E0069A049B8E
:10752000059800920293019103900024A14607EB75
:10753000090090F96000C6B210F1010F26F0C00AF0
:1075400042D002A95046FFF733FE00283CD007EB9B
:107550000A00B60990F9301057F82150280002D1DE
:10756000032E31D101E0032E03D104A95046FFF7C9
:1075700028FE50461F2892BF4FF0A04100F01F0088
:107580001D4901EB80006946D0F80007000C00F0AF
:10759000030B5046FFF70CFE18B1BBF1020F13D1DD
:1075A00002E0BBF1030F0FD1032E08D1BBF1020F94
:1075B0000CBF032102215046FFF7C3FD641C2800C5
:1075C00002D031465046A84709F10109B9F1040F2C
:1075D000ADD3E4B264B106AA02210020FFF7D4FDC6
:1075E0000698009A0799904204BF0198814295D16C
:1075F00009B0BDE8F08F0000000300500007005004
:10760000000A00501005005010080050C02A002049
:10761000242B002006E400E080E200E000E100E02E
:107620000463004010650040FFC0FCFF0863004099
:10763000000000500003005062F30F2262F31F426B
:1076400000B500BF130096469446103928BFA0E845
:107650000C50FAD85FEA417C28BF0CC048BF40F804
:10766000042BC90728BF20F8022B48BF00F8012BC4
:1076700000BD30B4002513E050F8042BD30744BFFD
:10768000A9F101039A18091F042942F8045BFAD2F0
:1076900013468C0744BF15809B1CC90748BF1D704B
:1076A00050F8041B0029E7D130BC70470022FFF7D7
:1076B000C7BFFEE781B000224250405800900099B9
:1076C00001B070474058B1E1D0F80403084018BF3A
:1076D0000120C0B2704700F20C5082600160704718
:1076E00000F5A16001608260704770B51F28049D9D
:1076F000059C41EA420192BF4FF0A04600F01F00F6
:10770000DFF8C06441EA830141EA052106EB80000D
:1077100041EA0441C0F8001770BDE0B500F00FF871
:10772000012105E0E0B50B46002100220191009205
:10773000FFF7DBFF07BDE0B500F001F8F8E7002137
:10774000019100910023012270471F2892BFDFF8AA
:10775000781400F01F00DFF87414012202FA00F020
:107760000860704738B50C460546206810F1010FD7
:1077700004D0FFF7EAFF2068FFF7CFFF606810F141
:10778000010F1CBF0021FFF7CDFF2868A16900F29F
:1077900024521160637D217D0B43936462682168EC
:1077A000FFF799FF207D012815D1A06810F1010F86
:1077B0001CBF0021FFF7B6FFE06810F1010F04D0F5
:1077C000FFF7C3FFE068FFF7A8FFA268E168286839
:1077D000BDE8384084E731BD38B504460D46206821
:1077E0004FF48E71FFF766FF20684FF4A271FFF728
:1077F00061FF2068DFF8D813C0F80413000B69019B
:1078000042B2002A07D5DFF8CC2300F00F00104465
:1078100000F8041C02E0DFF8C0339954012220680C
:10782000DFF8B833000B41B200F01F00490902FA3B
:1078300000F043F82100DFF8A82342F8210031BD11
:107840000168DFF8A003DFF8A033C1F80803090BD3
:10785000012201F01F0049B28240490943F821206A
:1078600070472DE9F04104464FF0FF32206800F5E3
:10787000A1614D68CE680F68D1F808801146FFF706
:107880002AFF4FF0FF3220681146FFF729FF15F15C
:10789000010F1CBF2846FFF74EFF16F1010F1CBF5A
:1078A0003046FFF748FF18F1010F1CBF4046FFF7B5
:1078B00042FF17F1010F03D03846BDE8F0413AE727
:1078C000BDE8F0812DE9F04104460D46904621794E
:1078D000DFF818032C2212FB01F2871807F12906A2
:1078E000707808B1082023E00FF2083050F821101A
:1078F000206800F084F908B1112019E029462046DB
:10790000FFF730FFC7F8048029697868396018B13B
:10791000297F2046FFF760FF21680420C1F8000599
:107920000022BA61FA6132707A6101207070002021
:10793000BDE8F08138B504462C202279DFF8AC127E
:10794000236842438D180021C3F80015686810B100
:107950002046FFF775FF2046FFF783FF206800F001
:107960006AF9002085F82A00686031BD38B50D46F7
:1079700004464FF48E71FFF79DFEA868296A405CAB
:107980002A6A521C2A62C4F81C0531BDF8B50546A6
:1079900017462A790E462C20DFF8501242438C18E5
:1079A000284600F03CF808B11120F2BD6761A660DE
:1079B0002062002184F828104FF48E712868FFF7A8
:1079C00079FE28680121816000262146FFF7CEFF5D
:1079D000606868B92F6811E028684FF48E71FFF76E
:1079E00071FE0028F8D029680120C860002060617D
:1079F0003046F2BD21463846FFF7B8FF206A61697C
:107A00008842E9D24FF48E713846FFF75BFE0028BA
:107A1000F0D194F828000028F4D00F26E6E7027988
:107A2000DFF8C8112C2042438818406900B10120BA
:107A3000C0B2704738B50D460446A86900284FF417
:107A40008471204604D1FFF735FED4F8180531BD06
:107A5000FFF730FE686AD4F81815EA681154686AAE
:107A6000401C686231BD1FB50346012402918DF8A8
:107A700000400192684619685A6890471FBDF8B5E2
:107A8000024600238DF80030029190680190536106
:107A9000684611685268904705B000BDF8B584B0DB
:107AA00005460C464FF40071FFF70EFE04F1280660
:107AB0004FF4017718B34FF4927100F07DF8F0B1F4
:107AC0004FF492712846FFF7F5FDC5F808737078FA
:107AD00008B90121696002208DF800000021D5F865
:107AE0008004C5F880040390A0690290E0680190CA
:107AF000A161E161684621686268904729E004213C
:107B00002846FFF7E1FD20B34FF4847100F054F8EC
:107B1000F8B121462846FFF78DFFA069616A8842C7
:107B200017D1E06940B1E268616AA0610023206971
:107B3000E060E361636209E0707808B9012169607F
:107B4000C5F808730020E268A061616A2046FFF76B
:107B50008AFF4FF48E7100F02FF8A0B1206A61699E
:107B6000884206D2307820B921462846FFF7FEFE2B
:107B700009E04FF48E712846FFF79CFD616911B151
:107B80002046FFF77CFF4FF4A27100F015F888B192
:107B90004FF4A2712846FFF78DFD707808B10121DE
:107BA0002960A06930B10021A1612046E268616AC4
:107BB000FFF759FF05B0F0BD284683E50B490C4897
:107BC0006CE7000000030050080500500808005052
:107BD0008000020018ED00E000E400E080E200E038
:107BE00000E100E08402020080E100E0E82B0020D8
:107BF00000200040BD7B020013480168084738B5EB
:107C00000D461249884214D100248DF80040684680
:107C1000FEF718FF0C490879002811BF01240D60F8
:107C2000012008719DF80000FEF729FF0CB111201A
:107C300032BD002032BD0549884203D102480022EE
:107C40000260027170470000202D002000200040DB
:107C50000870000A4870022070473EB50C46054681
:107C600020880930824201D20C203EBD68466DDF7B
:107C7000F0B92188082068541B232088401C2080EC
:107C8000062280B20DF101012B5400F004F92844C2
:107C9000FEF762FF2088801D208080B29DF80010D2
:107CA000490818BF012129542088401C2080002049
:107CB0003EBD7CB505460C462978012904BF68788D
:107CC000002801D1072076BD1088861CB3422ED330
:107CD000012904D169784118891C8B4227D31B1ACA
:107CE0009B1E9BB2ADF80030694616882644B01C36
:107CF0007DDF70BB2878022804D06978BDF8006069
:107D0000B14205D3BDF800108B42A8BF09210ADAA1
:107D10000821012805D16D78AB42A8BFADF800500D
:107D200001DAADF80030BDF80000FF2801D30C20C7
:107D300076BD1388401CE0541088401C108080B22F
:107D400021541188491C1180BDF800004118118090
:107D5000002076BD2DE9FC470A9CDDF82C90258893
:107D60009846002706468A46964600231BE0208850
:107D70009DF800C084446244914536DB43B9401C01
:107D80002080012380B208F800A02088401C2080B9
:107D900001A82288424464DFE0B920889DF80010E1
:107DA000411821807F1C3088874215DA716851F8AC
:107DB000270001900022694601A864DF50B99DF8B0
:107DC00000007045EED1002B08BF0222CFE708F873
:107DD00005000020BDE8F687002BFAD02088401B64
:107DE000401E81B2B1F5807FF1DB0C20F2E72DE976
:107DF000FC41089F099C0194164605469846009749
:107E00000222FFF7A7FF38B90194009743461022DA
:107E100031462846FFF79EFFBDE8F681F8B51446C7
:107E2000064620880D46811D8B4201D20C20F2BDF2
:107E3000318806290EDB40F68147B9424FF6FF73C1
:107E400001DB994206D17288062A03DBBA4203DBC2
:107E50009A4207D00720F2BD994218BF9A4201D03A
:107E60008A42F7D305212954122200F014F82A542B
:107E700000F011F829183088FFF7EAFE2188081869
:107E8000208080B229187088FFF7E2FE2188081848
:107E900020800020F2BD2088401C208080B27047E6
:107EA00070B5054614460E46A8882188801C4218E5
:107EB000921C934201D3FF2801D30C2070BD401CBB
:107EC0007054FF22FFF7E7FF3254FFF7E4FF311849
:107ED0002888FFF7BDFE218808182080AA885AB19B
:107EE000A96809B9072070BD80B23044FEF734FE9E
:107EF0002188A88841182180002070BD2DE9F0411B
:107F000000F128080D46D8F80000164698B300275F
:107F100020E03188401C685416223088401C308094
:107F200080B22A543088401C308080B229182088C2
:107F3000FFF78EFE318808183080A2884AB1A16808
:107F4000C9B180B22844FEF707FE3088A18808181E
:107F500030807F1CF8B298F8041088420DD2D8F80F
:107F60000000FAB20C235A438418A088801CFF2812
:107F7000CFD30C2002E0072000E00020BDE8F08114
:107F80002DE9FE4317460546B7F80080002005F1AD
:107F90002C090E46388099F8011031B14246394615
:107FA0003046FFF75AFE002808D1A978B1B13888C9
:107FB000001D80452BD3684679DF00287CD13988A5
:107FC00003207054192200F082F83118BDF8000027
:107FD000FFF73EFE3988081838800020E97871B133
:107FE0003888C21C904549B211D302233354012270
:107FF00000F06DF831543888401C388000206968E2
:10800000C1B191F900003988CA1C904501D20C20F9
:1080100052E0022272540A233988491C398089B2FD
:1080200073543988491C398089B270543888401C8F
:1080300038800020298949B100F040F80622022149
:1080400005F10800FFF7D3FE002835D1298A41B198
:1080500000F034F80722032105F11000FFF7C7FEF6
:1080600050BB298B41B100F029F81522142105F1EC
:108070001800FFF7BCFEF8B92C6A2CB100F023F809
:108080002046FFF7CBFEB8B96C6A2CB100F01BF8A4
:108090002046FFF705FF78B999F8001029B100F0E4
:1080A00012F82846FFF72AFF30B9297821B100F0ED
:1080B0000AF82846FFF7FDFDBDE8FE83CDF80480F1
:1080C00000973346704743463A46314670473888F2
:1080D000401C388080B232543888401C388080B2CE
:1080E0007047FEE781B0002242504058009000994E
:1080F00001B07047405894E100F20C5001E000F5E7
:10810000A16001608260704770B51F28049D059CC6
:1081100041EA420192BF4FF0A04600F01F00DFF895
:10812000146441EA830141EA052106EB800041EA3B
:108130000441C0F8001770BDE0B500F00FF8012150
:1081400005E0E0B50B460021002201910092FFF707
:10815000DBFF07BDE0B500F001F8F8E70021019171
:1081600000910023012270471F2892BFDFF8C81337
:1081700000F01F00DFF8C413012202FA00F00860CB
:10818000704738B50C460546206810F1010F04D041
:10819000FFF7EAFF2068FFF7CFFF606810F1010FDB
:1081A0001CBF0021FFF7CDFF2868A16900F224520F
:1081B0001160637D217D0B43936462682168FFF742
:1081C0009BFF207D012815D1A06810F1010F1CBF75
:1081D0000021FFF7B6FFE06810F1010F04D0FFF7B0
:1081E000C3FFE068FFF7A8FFA268E1682868BDE860
:1081F000384084E731BD38B504460D4620684FF459
:108200008871FFF76FFF20684FF49071FFF76AFFE6
:1082100020684FF49271FFF765FF20684FF4A27158
:10822000FFF760FF2068DFF81813C0F80413000B95
:10823000690142B2002A07D5DFF8082300F00F00D9
:10824000104400F8041C02E0DFF8FC3299540122CB
:108250002068DFF8F832000B41B200F01F00490936
:1082600002FA00F043F82100DFF8E42242F821008E
:1082700031BD0168DFF8C802DFF8D832C1F8080361
:10828000090B012201F01F0049B28240490943F85D
:10829000212070472DE9F04104464FF0FF3220685D
:1082A00000F5A1614D68CE680F68D1F808801146CD
:1082B000FFF722FF4FF0FF3220681146FFF71FFF44
:1082C00015F1010F1CBF2846FFF744FF16F1010FFF
:1082D0001CBF3046FFF73EFF18F1010F1CBF4046A0
:1082E000FFF738FF17F1010F03D03846BDE8F04122
:1082F00030E7BDE8F081F8B504460D462179164611
:108300002423DFF8542213FB01F3D71897F8200039
:1083100008B10820F2BD0FF2482050F82110206863
:10832000FFF76DFC08B11120F2BD29462046FFF78A
:1083300028FF7E6029697868396018B1297F204656
:10834000FFF759FF21680820C1F80005002201202D
:1083500087F82000BA61FA617A610020F2BD38B571
:108360000446242022797C49236842438D18002149
:10837000C3F80015686810B12046FFF77AFF204661
:10838000FFF788FF2068FFF756FC002085F82000E3
:10839000686031BDF8B5054617462A790C46242099
:1083A0006D4942438E1804F06041B1F1005F2ED157
:1083B000284600F030F860BBB4604FF490717761EC
:1083C00000272868FFF78EFE28684FF4AC71FFF78E
:1083D00089FE29687069B36801F2445213605060E5
:1083E00001228A60706880B928684FF49071FFF7A5
:1083F00081FE044628684FF4AC71FFF77BFE04430E
:10840000F2D000B10F27002070613846F2BD102075
:10841000F2BD1120F2BD02794F4924204243881851
:10842000406900B10120C0B270471FB50346012466
:108430008DF808108DF800400192684619685A6856
:1084400090471FBD7FB50C464FF492710646FFF76B
:1084500051FE06F23C55C0B14FF4927100F064F841
:1084600002208DF80000D6F88014C6F8801403911D
:1084700029688DF808100021E0680190A161E16190
:10848000684621686268904721E04FF48871304661
:10849000FFF730FED8B14FF4887100F045F8296835
:1084A000A069814213D1E268E06960B1D6F80002A8
:1084B00020F02000C6F80002E0692369A061E360B3
:1084C0000020E06100E0A0612046FFF7AEFF4FF41E
:1084D000A2713046FFF70EFE60B14FF4A27100F0BA
:1084E00023F8A06930B10021A16120462968E26823
:1084F000FFF79BFF4FF490713046FFF7FBFD90B103
:108500004FF4907100F010F8606960B129698DF83E
:10851000081000228DF80020A06801906261684672
:108520002168626890477FBD3046DBE50A490B4809
:1085300088E70000000300500805005008080050BC
:108540001003020018ED00E000E400E080E200E02B
:1085500000E100E080E100E0142C00200020004059
:108560002D85020018B50FF20041DFF848430A6874
:10857000A07CA5B03C2100928DF8020016A8FFF760
:1085800095F802228DF8582001218DF85A10062204
:108590008DF85B203C2107A8FFF788F80121ADF892
:1085A0002C10CDF830D004F12002E16916A8FFF7B5
:1085B000E7FC08B100F0DEF9616A04F1280207A8BF
:1085C000FFF7DEFC08B100F0D5F9182101A8FFF78C
:1085D0006DF80022ADF8102002928DF818200121CC
:1085E00040228DF819108DF80410039204F11C013B
:1085F00001AA04F1180072DF08B100F0BBF926B03F
:1086000010BD00F0B7B9000010B5AB48AB4C041B6F
:10861000E408240444F0030422B1022000F0EAF943
:10862000B3A104E0022000F0E9F900BFB5A12046A3
:10863000BDE81040FDF73DBF007838B99D4A508B2A
:108640003B2176DF002818BF00F094B9704700F096
:1086500091B980B5974A107E012173DF08B100F00F
:1086600089F9BDE80240002000F0C4B938B50446DD
:1086700000F079F88F4D2388821AD2081204688B93
:10868000102B42F003020CD0112B21D0132B31D030
:10869000212B34D03B2B40D0522B39D0562B3CD001
:1086A00031BD00BF9CA11046FDF703FF012000F083
:1086B000A1F9002000F0A2F9A188698305F140002A
:1086C00000F0EEF908B100F055F900F022FB27E0C8
:1086D00094A11046FDF7EDFE012000F08FF94FF652
:1086E000FF70688300F025FB08B100F043F9FFF745
:1086F000B0FF31BD0023002285217FDF10E000BFE5
:108700009BA00188ADF800106946A0888FDF07E0C4
:10871000002300220021B1DF02E0A088132176DFD0
:1087200008B100F027F931BD10B50B280C4615D162
:1087300000F019F87FA100F0CBF85E49488B224683
:1087400000F07DFB00281CBF43F20201884209D0E3
:1087500008281CBF43F20141884203D0BDE8104005
:1087600000F008B910BD5448544A704718B587B096
:108770004FF400410020FDF743FD08B100F0FAF886
:1087800000F080FB012000F04DF9FEF724FC08B159
:1087900000F0F0F8474C40F26662012104F14C0011
:1087A00000F082FA08B100F0E5F800F07BFB08B1B8
:1087B00000F0E0F800F012FC08B100F0DBF8002057
:1087C00000906946012000F073FC08B100F0D2F877
:1087D000684600F0E9FC08B100F0CCF811208DF8F3
:1087E00000000D223EA168467CDF08B100F0C2F80F
:1087F00001A90020C1E90000A021ADF80610ADF8E4
:10880000080050224FF4C871ADF80420ADF80A10EA
:1088100001A87ADF08B100F0ADF8002104F12C00C6
:1088200000F08FFD08B100F0A5F800BF4FA1244B68
:108830000A680092019301A904F1400000F01CF9BC
:1088400008B100F097F81F4800906946204600F0F4
:108850009DFA08B100F08EF8FFF784FE1C216846EF
:10886000FEF724FF002100914FF420224FF4203125
:1088700001920291032200218DF80C20ADF80E1018
:108880008DF8101068461049104A0591069200F0C4
:10889000BBFE08B100F06EF8FFF765FF2CA100F0F9
:1088A00017F8FFF7D6FEFDF717FE0028FBD100F002
:1088B00006FBF8E7E0220020E4AE0200D4AE02009E
:1088C0000386020009860200398602004F860200F4
:1088D000801AC008000440F00300FDF7EABD000064
:1088E0004E6F726469635F426C696E6B7900000061
:1088F0005265636569766564204C4544204F4E217E
:10890000000000005265636569766564204C45444B
:10891000204F464621000000436F6E6E656374650C
:1089200064000000446973636F6E6E656374656410
:108930000000000053656E6420627574746F6E20D1
:108940007374617465206368616E67652E00000052
:10895000426C696E6B79206578616D706C6520730F
:108960007461727465642E0023150000000000001D
:108970000000FEE71FB5694600220023002481E8BD
:108980001C0002906A46002144F2010000F000FF42
:108990001FBDFEE770B51F28049D059C41EA4201FA
:1089A00092BF4FF0A04600F01F001B4E41EA83012A
:1089B00041EA052106EB800041EA0441C0F80017B6
:1089C00070BD10B5154A164B012449B91F2892BF36
:1089D000191D00F01F00111D04FA00F0086010BD01
:1089E0001F2894BF1A4600F01F0004FA00F0106020
:1089F00010BD00001EA2105C0021E2E71CA2105C6A
:108A00000121DEE710B500242046FFF7F7FF641CC4
:108A1000042CF9D310BD00000003005008080050DA
:108A200008050050FEB50446E00710D55FF00005CC
:108A30000FA60027019700970023705D01220121F6
:108A4000FFF7A8FF6D1C042DF4D3FFF7DBFFA00791
:108A50000DD5002407A500200190002100910323DB
:108A6000285D0022FFF796FF641C042CF3D3F7BDAA
:108A70000D0E0F100B0C1819002818BF002901D17A
:108A80000E2070470278DE2A01D10820704709685D
:108A90004160DE2202704FF6FF7343800020704772
:108AA00008B90E2070470278DE2A01D008207047EE
:108AB0004180002070470246107A50B15088002152
:108AC00066DF10B1112802D1012010727047516881
:108AD000084770477FB505460C0018BF002D4AD0E7
:108AE0002078DE2847D1A8886188884204BF2046C4
:108AF000FFF7E1FF2888012804D0112834D051283D
:108B00000DD07FBD297A012902BFA88861888842DB
:108B100031D1012020722046FFF7CDFF7FBDA8880C
:108B20006188884204BFA879022824D1A87B042840
:108B30001CBF062805281ED168461021FEF7B6FD89
:108B400002214FF4C0768DF80010ADF80460A87BC8
:108B5000052804BF0021ADF80410A8886946B0DFDD
:108B600048B1616888477FBDA8886188884204BF92
:108B70004FF6FF7060807FBD2DE9FE4600267649E6
:108B80000A78F0B290424AD20F46F1B2B86900EBCF
:108B9000C1040120257800212A4600F031FECDE9EC
:108BA0000001DDE90023D7E9040102400B4008BFC2
:108BB000002A32D0DDE9002320EA020221EA030381
:108BC000C7E904232846FEF74DFC8246D7E9020197
:108BD0002578CDE900012A460120002100F010FE91
:108BE000DDE9002302EA000703EA010950460021FB
:108BF0002A4600F005FE894508BF87420DD16778F7
:108C00006268012F14BF0020012080EA0A00411E83
:108C10008941C90F0AB128469047761CAFE7BDE8E5
:108C2000F7862DE9F843804601200021424600F0F6
:108C3000E7FD0446DFF820910D4609F12000FEF71C
:108C400016FA70BBD9E90401E643EF4300EA0402D7
:108C500011EA050308BF002A1FD14046FEF702FCB7
:108C6000D9E90223002819BF42EA040043EA0501BA
:108C700002EA060003EA0701C9E902010022D9E974
:108C8000040120432943C9E90401D9F81C1009F162
:108C90002000BDE8F843FEF7D2B930403940C9E9B9
:108CA0000401BDE8F1830000F8B51646052E044620
:108CB0000D4601D20720F2BDFEF70EFB10B9FEF7FC
:108CC000D7FA28BB00222448C661C0E90222C0E9C5
:108CD000042284610570214E23A72846451EC0B298
:108CE00080B138680090E8B204EBC0018A788DF852
:108CF0000120324614F830006946FEF7F4FA0028E5
:108D0000EBD0F2BDDFF8582016A00021FEF784F961
:108D1000F2BD38B50024104D06E0AA6912F83400FF
:108D20000121FEF740FB641C28788442F5D3002023
:108D300032BD38B50024084D05E0A96911F83400AA
:108D4000FEF771FB641C28788442F6D305F12000FD
:108D5000BDE83240FEF78BB9682B0020238C02005F
:108D6000798B0200882B0020030000000288502A23
:108D700002BFC2884B889A4204BF028A012A04D1EA
:108D80004B6913B1827C80881847704730B58DB02D
:108D900004460D6837A1656109A81022FDF7DCFEC5
:108DA00004F1120109A862DF002834D1A17C8DF8FA
:108DB000021041F22352ADF80020694622460120FC
:108DC000A8DF002827D1202101A8FEF76FFC41F27F
:108DD000245000F02BF840F0120000F01EF88DF83F
:108DE000172004F10A02208801A900F03FFD90B984
:108DF000202101A8FEF75AFC41F2255000F016F898
:108E000040F00A0000F009F88DF81620A21C208816
:108E100001A900F02BFD0DB030BD8DF81100ADF8AB
:108E20000A20ADF808208DF815207047ADF8040031
:108E300001229DF81100A17C8DF80610704774B5D1
:108E400085B00122ADF80020002301AA00240025EE
:108E5000002682E8780001238DF8063005AB4989A9
:108E6000ADF804100493CDF80CD001A9AEDF06B024
:108E700070BD000023D1BCEA5F782315DEEF12122B
:108E80000000000080B500F0E6FD04210348FDF776
:108E900039FC03490120487101BD0000B4B2020051
:108EA0004C23002080B51548002141700161BFF3BB
:108EB0005F8F001D13A100F032FE002002BD80B5BF
:108EC00000218DF800106846FDF7BCFDF1EE100A98
:108ED00020F09F00E1EE100ABFF35F8F08494020A9
:108EE00008609DF80000FDF7CAFD00F0ABF808B17E
:108EF00041DF01BD20BF40BF20BF01BDE82C0020E5
:108F000084E200E0E4B00200FCB0020004000000D3
:108F10002028014604DA4D48C84000F0010070479F
:108F2000402808DA0122A1F1200012FA00F018BF4F
:108F30000120C0B270470120704700001FB50446F1
:108F400051A1684600F0EBFD02E0684600F0EBFD41
:108F5000029A3AB151681268204690470028F4D12D
:108F6000112000E0002004B010BD00001FB5044631
:108F700048A1684600F0D3FD06E05168126820461B
:108F80009047684600F0CFFD029A002AF5D11FBD38
:108F900080B51620FFF7BCFF28B942F20100BDE8FA
:108FA0000240FFF7E7BC2A4800784009082803D2AE
:108FB000EC21C140C80702D442F20200EFE7254984
:108FC000886820B10A6842F480020A6001BD224923
:108FD000FFE74FF48000086001BD00003EB51F4D63
:108FE000287808B108203EBD0120A8700020FFF7B6
:108FF000A5FF11281FD00020FFF7B8FF2BA10A689A
:10900000019200238DF800306846FDF71BFD1449DE
:1090100001A810DF0446401E8041C00F00F00DF88B
:109020000CB120463EBD0020A8706870FFF7B0FF6D
:109030000120FFF79BFF00203EBD28709DF8000037
:10904000FDF71DBD0548007870470000FC06FFBD18
:1090500016E400E0FC2C002000E100E0282D0020B8
:1090600091970200E0B500BF0DA1684600F057FDE2
:1090700005E0486809688847684600F054FD029991
:109080000029F6D107BDEDE7D8AF0200E8AF020036
:1090900008000000E8AF0200F8AF0200080000007E
:1090A000F8AF020008B0020008000000010000074D
:1090B0007FB50C0008BF0E2068D06A496A4E216057
:1090C0006A4600210023002582E82A0001210623A8
:1090D0008DF800008DF80210ADF804306946226862
:1090E000624D202069DF62494D1BED082D0445F0DB
:1090F000010528B100F026FD0246314600F048F88F
:1091000000F049F80121ADF802208DF80110694600
:109110002268402069DF30B100F014FD024606F1FC
:10912000480100F035F800F036F80A218DF80010FB
:1091300069462268012069DF30B100F003FD024674
:1091400006F1940100F024F800F025F84FF4B06126
:10915000009169462268A12069DF30B100F0F2FC7D
:10916000024606F1E00100F013F800F014F88DF863
:10917000001069462268A02069DF30B100F0E2FCEF
:10918000024606F59A7100F003F8002004B070BDA5
:109190002846FDF791B9684600210022002380E8A7
:1091A0000E007047000000002DE9F84306463049E4
:1091B00037682E4D60DF04464D1BED0830682D04E6
:1091C00087421AD245F00208DFF8A8904946404687
:1091D000FDF76FF933683A4609F130014046FDF773
:1091E00071F9254802683068920202F10052121AA1
:1091F00009F164014046FDF75FF91CB91F490120E0
:10920000087008E0204600F09DFC02461CA145F0D5
:109210000100FDF751F92046BDE8F283174900B57A
:10922000087891B080B903E0052818BFFFF7A2FBCA
:1092300011B000BD5168126804A8904701A800F061
:1092400072FC039A002AF5D13420ADF8000069467B
:1092500004A861DF0028E7D111A101A800F05FFC9C
:10926000EFE70000E0220020CCA50200D4AE02000F
:10927000FCAE0200E0AD02000C0100102B2D00201E
:1092800073645F626C655F656E61626C652829203E
:1092900072657475726E65642025732E000000007F
:1092A00014B0020034B00200080000001721018051
:1092B00000231B224180037143718271C271704788
:1092C000F8B500BF96A384B0D3E90067CDE9026783
:1092D000ADF80810ADF80A10054600BF8EA16A4629
:1092E000D1E90067CDE9006702A990DF040025D02D
:1092F00000F028FC03467D487D4E7E4F861BF60815
:10930000360446F001062A4639463046FDF7DAF8BB
:10931000BDF80000BDF80230002808BF002B05D0C2
:10932000024607F14C013046FDF7CCF8BDF80420A9
:1093300022B107F18C013046FDF7BEF8204605B09A
:10934000F0BD80B508B90E2002BD01611B231721B5
:10935000018041800371801DFFF7A8FF002002BD3E
:1093600002469088002800D07047F0B58BB05F4B64
:109370005F4C1088604D1C1BE4082404102844F046
:1093800001040E460BD011282ED0232800F0918026
:10939000242870D03A282BD0552849D093E0B71D07
:1093A0003079B871D17B012904D0022904D17088A9
:1093B000388001E03188398039887A888A420ED233
:1093C0000020A5DF10B90120787108E0112802D132
:1093D0000120387103E000F0B5FB00F08FF8B97997
:1093E000F87988426FD26BE0B01DFFF75FFF6AE04B
:1093F000B71D50893988884228BF08467880788808
:109400001728B8BF17207880306900281CBF7879EA
:10941000002809D044A100F076F869467888ADF8B4
:1094200004003046326990470020787138714AE074
:10943000D088B71D17283988B8BF1720884228BFA1
:109440000846788000203871B5DF38B100F07AFB2B
:10945000024605F134012046FDF72EF87879002800
:1094600031D1306900282ED031A100F04CF8788835
:10947000ADF8040018E0111D68462C22FDF76CFBC6
:10948000BDF80010BDF8042006EBC1077A73D6F8CA
:109490001000C0B128A0D0E90023CDE90023ADF829
:1094A0000210787B8DF80400694632693046904797
:1094B00009E0B01D12898179D2B2914288BF11466C
:1094C0000020FFF7FDFEB07A68B1F1880020A5DF2B
:1094D00018B90121B072F17205E0112803D000F033
:1094E00031FB00F00BF80BB0F0BD0000D4AE020071
:1094F000D4AE0200FCAC020070AE02000246294667
:109500002046FCF7D9BF0020D1E90023CDE9002394
:10951000ADF80200704700000000000000000000ED
:109520000000000000000000770A000000000000BA
:10953000770A0000000000007ADA00000000000056
:1095400090490A89824202D101F108007047002047
:109550007047F0B586881746BC19B24228BF374617
:10956000F51BC2881F4607EB020C934228BF174623
:10957000D61B4A8803889A4224BF4088904209D368
:109580008888A84228BF844204D3C888B04228BF34
:10959000844501D20020F0BD0120F0BD7A498969DF
:1095A000002918BF0847704738B5044680B2FFF756
:1095B000C7FF020027D0744D107A297B88420DD254
:1095C00002F10A01A0B275DF20B111281BD0FFF70C
:1095D000E5FF31BD107A401C107231BD00211172BF
:1095E000287C38B13B21A0B276DF00281CBF0828B8
:1095F000FFF7D4FF696931B100228DF80020ADF882
:1096000002406846884731BD70B5040001D10E2084
:1096100070BD5D4E304621461C22FDF79DFA594D26
:1096200035602068A8B17ADFB8B9216828460822D9
:10963000FDF792FA4FF6FF7005F11C012881E960F1
:1096400005F10C00514A0021FDF7E6FC28B103208A
:1096500070BD28467BDF0028ECD070BD80B5024687
:109660000B464949587A58B9187A002858680CBFEF
:1096700049688968FDF7E3FC68B1FFF78FFF01BD1A
:1096800000201872496931B101238DF80030ADF81E
:1096900002206846884701BD2DE9F84306463A4F47
:1096A0003088102840F2F3184FF6FF7506D01128C5
:1096B00029D0122850D0502832D061E0F07BB6F883
:1096C000049001285CD12846FFF73AFF040008BF48
:1096D00004203ED0A4F8009000202072082204F15B
:1096E0000A002849FDF738FA2B46424606F11001D8
:1096F00004F10A00FFF72DFF6072F88900283FD1BE
:109700002146484639E0B088FFF71AFF040037D0F9
:109710006068FDF7ACFC08B1FFF740FF25802FE043
:10972000F088F989884204BF308A022828D1B58898
:109730002846FFF705FF040022D006F1120000F0D2
:1097400077F810B12146284617E06068FDF78FFCD6
:10975000B0B1BDE8F24321E7B7883846FFF7F0FE25
:1097600004000DD02B46424606F1080104F10A0020
:10977000FFF7EFFE607221463846BDE8F4436DE71F
:10978000BDE8F1832C2B0020782C0020A995020045
:1097900010B572B6FCF7DFFFFCF79EFE0028FBD188
:1097A0001048114C1149041BE408240444F0010042
:1097B000FCF77FFE0E480168CA0700D500BE0D49C0
:1097C00044F00200FCF775FEBFF34F8F0A490B48C7
:1097D0000A6802F4E06202430A60BFF34F8F00BFE1
:1097E000FDE700BFE4AE0200D4AE020034B20200D6
:1097F000F0ED00E040B202000CED00E00400FA05DC
:10980000D2B2203A22BF00FA02F100207047524241
:10981000D041D2F1200291404140D040904041409F
:109820007047FEE701460878497840EA0120704712
:1098300080B5FFF7F7FFFFE700F0010002BD000071
:10984000401E002204280A700FD8DFE800F003054C
:1098500007090C00112007E0212202E0312003E07B
:1098600012220A707047222008707047F8B50F4620
:1098700090B00546B878002806BF01218DF80E107B
:109880008DF80E003888ADF80C001646032101A8AB
:10989000FDF70CFF787C01A9FFF7D2FFB87C0DF132
:1098A0000501FFF7CDFF9DF80610FA7B00F0A6F842
:1098B0008DF8061001F0EF013A7C02B1012241EA75
:1098C00002118DF8061001F0FE01387B00B1012075
:1098D00001438DF8061001F0F901387D002814BF0E
:1098E0000220012041EA40018DF8061009A81C2140
:1098F000FDF7DCFE787B10F0300F15D0032102A8B5
:10990000FDF7D4FEF87C0DF10901FFF799FF9DF8F2
:109910000A1001F0F90141F002018DF80A1011203E
:1099200002A98DF808000E91787B8DF8240004A818
:10993000B97B8DF825101421FDF7B8FE03A901AA03
:1099400004910592B888ADF81C00B86818B1FA887F
:10995000ADF818200890BC69002C3FD00321684660
:10996000FDF7A4FE2088ADF82C006088ADF82E002D
:1099700061680A91CDF834D06946207BFFF760FF1B
:10998000B869407B0DF10101FFF75AFFB869807A91
:1099900000B101209DF8021001F0F70141EAC00179
:1099A0008DF80210B869C07A00B1012001F0EF0112
:1099B00041EA00118DF80210B869007A00B1012067
:1099C00001F0FE0100F014F8BA69907B002814BF82
:1099D0000220012041EA40018DF80210F86900B12F
:1099E0000C90334604AA09A92846AADF11B0F0BD9D
:1099F00001438DF8021001F0F901704701F0F70101
:109A000002B1012241EAC2017047FEE72E4901205E
:109A10000870704738B588B0044668462FA12022E8
:109A2000FDF79AF84FF0FF3101910291039106255D
:109A300000954FF0EB710691220014BF234A0022DB
:109A4000214D6946281D00F0C7F808B1FEF792FFC6
:109A50006C7009B030BD0120DCE770B51A4C1C4DAC
:109A600000202070D2B22679AB5D23B104F108004A
:109A7000FEF790FC03E004F11000FDF787FF08B14A
:109A8000FEF778FF617811B120780028FCD070BD16
:109A900080B5104A009240230F4A00F0CDF801BD76
:109AA000704780B508490A4A0B79D05C20B101F1B2
:109AB0000800FEF754FC03E001F11000FDF73AFF47
:109AC000BDE802400020A5E7342300200D9A0200E3
:109AD000D42C00205B9A0200A82B0020FFFFFFFF80
:109AE000FFFFFFFFFFFFFFFFFFFFFFFF0000000082
:109AF000000000000000D6010601000005E00A6831
:109B00004B689A4209D10831416002684168536844
:109B10009942F4D1002181607047826070470160F2
:109B200009684160EAE7816851B103689A68511891
:109B3000426881605368994202D102F10801F0E75E
:109B40007047FEE780B500F003F800B90FA002BD32
:109B500010B50D4901F5947200E01A4691420FD2FA
:109B6000531ADB1003EBD3735B1001EBC3031C68C8
:109B7000A042F2D3844238BF03F10801EED301E0E2
:109B8000002010BD586810BDCCA80200556E6B6E49
:109B90006F776E206572726F7220636F646500006C
:109BA000F8B500F013F8027A03E0F8B500F00EF80B
:109BB00082688DF80820C0681C4A039002EB81027D
:109BC0006846D1685268904705B000BD02788DF8AC
:109BD0000020436801937047F8B5044688B02678A2
:109BE000124F07EB8600154645600A69C2602022C5
:109BF000487FB8556846FCF7AFFF04962678B85DF5
:109C000040B1002D14BF0A4A00226946201DFEF70C
:109C100072FB08E0002D14BF064A0022694604F1D9
:109C20000C00FDF74FFE09B0F0BD0000D42C002061
:109C3000A19B0200AB9B0200F0B595B00D461A9CAB
:109C400016461F462846FCF704FE09A81821FDF712
:109C50002DFD09960A970E940023082201A9284693
:109C6000FCF750FE0398BDF80A1004900826BDF8D2
:109C70000800ADF8140000220198ADF8161000F0AD
:109C8000030001288DF8192017D10198019CC0F319
:109C9000C2008DF8180008230198C0F38316B200A3
:109CA0000FA92846FCF72EFE09A8009004AB324607
:109CB0000FA9A00A00F06EF81FE0019800F0030061
:109CC00002281AD10198019CC0F3C200A40D8DF89E
:109CD00018000827082C98BF274633463A4607A99C
:109CE0002846FCF70FFE09AB04AA394607A800F086
:109CF00099F8BE19E41B002CEBD12846FCF7ADFD0A
:109D000015B0F0BD7CB504460D46E3884BB100BFED
:109D10000FF2D4160FF2D81277A10096284600F061
:109D20000DF9217A05291CD0607A6E4E48B1A088C1
:109D3000FCF7A6FA06EB800064A14269284600F011
:109D4000FDF8A0880021FCF78CFA0346207A56F82B
:109D5000202028460DF1080DBDE870406CA100F0F0
:109D6000EDB873BD38B50C46017A052958A507D062
:109D7000407A30B15CA255A1204600F0DFF800E047
:109D80001AB12946204600F0D9F82046BDE83240F5
:109D900000F0C8B82DE9F84384B017460C9D2E7B1F
:109DA000002281460C4698462A7329464046FFF712
:109DB000A9FF062F2CD8DFE807F004090F1A211697
:109DC0001D004946284600F0B9F821E022684946BE
:109DD000284600F0B3F81BE063682268494628462D
:109DE00000F0ACF814E020690290E1680191A068ED
:109DF000009007E06069039021690291E06801909A
:109E0000A1680091636822684946284600F096F8E8
:109E1000002229464046FFF7A5FF2E7305B0BDE896
:109E2000F08300002DE9FC4B8946B9F1080F054687
:109E3000984648D80092002298F80CB037A688F8C7
:109E40000C2041460098FFF75DFF002721A44F45F5
:109E500005D2EA5D3146404600F070F803E0214645
:109E6000404600F06BF87F1C082FF0D31AA1404643
:109E700000F064F8002619A719A401954E4514D2E4
:109E80000198855DA5F120015F2908D3284600F0DF
:109E900069F820B9284600F06FF800B92E252A4647
:109EA0002146404600F04AF803E03946404600F0BB
:109EB00045F8761C082EE1D3012200984146FFF7B1
:109EC00051FF88F80CB0BDE8F38B0000257300004B
:109ED0000D0A0000202020007C000000200000006F
:109EE00025630000542300201B5B306D0000000040
:109EF0001B5B313B33316D0025734C6F67732064FE
:109F0000726F70706564202825642925730D0A001E
:109F10003C25733E2025733A200000002025303276
:109F20007800000010B50446A2682AB121682069B3
:109F3000636998470020A06010BD0000002900D18F
:109F400070470CB438B500BF05A31C68009404AD7D
:109F500000956A4600F0C8F831BC5DF80CFB0000C3
:109F60000000000010B5044600F0C3F90146204689
:109F70000969BDE81040084710B5044600F0B9F97A
:109F800001462046C969BDE81040084710B58268FF
:109F9000531C83600468A15441688B4203D3BDE81D
:109FA0001040FFF7BFBF10BD2DE9F84F8B460124CD
:109FB000154602E0B1FBF5F1641CA942FAD29A46BB
:109FC0000B9FD146A24538BFA14680460A9CF807A0
:109FD0000BD454B1B8070BD42026A14505D2314685
:109FE00000F05EF9641E002CF7D12E46012507E033
:109FF000BAF1000FF0D13026EFE7AAF1010A75435C
:10A00000BAF1010FF9D8BBFBF5F0B04228BF754398
:10A01000F9D200BFA3A1BBFBF5F005FB10BB095CA7
:10A0200000F03EF9B5FBF6F5002DF2D1F80707D5A3
:10A0300034B1A14504D200F032F9641E002CF8D1ED
:10A04000BDE8F18F2DE9FC470E0048BF49420125CC
:10A05000904602E091FBF8F16D1C4145FADA9A4610
:10A060000A9C0B9FD146AA4538BFA94624B1002EB1
:10A0700001D4790700D5641E0546B80702D5BAF1A8
:10A08000000F0BD0F80709D444B1A14506D2202116
:10A090002846FFF77BFF641E002CF6D1002E02D568
:10A0A00076422D2102E0780703D52B212846FFF7C1
:10A0B0006DFF07F00300022808BFBAF1000F09D1B5
:10A0C00044B1A14506D230212846FFF75FFF641E48
:10A0D000002CF6D10197009453464246314628465B
:10A0E000FFF762FFBDE8F3872DE9FE430D008046D0
:10A0F000174600F0C78015F8011B002900F0BA8050
:10A10000252940F0B180002602E046F001066D1CD2
:10A1100029782B2907D02D29F7D0302908BF46F000
:10A120000206F4D0B0E046F00406F0E72978A1F189
:10A1300030020A2A0CD200FB04146D1C303C2A2980
:10A14000F4D1396839606D1C51F8042B3960141949
:10A15000297800232E290BD16D1C04E000FB03118C
:10A160006D1CA1F130032978A1F130020A2AF5D340
:10A17000287801E015F8010F6C2818BF6828F9D07D
:10A1800025286CD0582822D063280CD0642818BF0A
:10A1900069280FD070284CD073281ED0752812D093
:10A1A000782814D05EE03868386050F8041B3860B6
:10A1B000C9B255E0386838600A2200F06AF84046B3
:10A1C000FFF740FF4EE0386838600A2202E0386846
:10A1D0003860102200F05DF83DE03868386050F8D3
:10A1E000049B38600020F10751D4B9F1000F1CBF67
:10A1F000484600F083F8064610E000F051F8761C5F
:10A2000019F8011B0800F8D1A6422BD254B300F074
:10A2100046F8641EF8E700F042F8641EA64201D238
:10A22000002CF8D119F8011B08001BD000F038F8F9
:10A23000F8E738683860302150F8044B386000F097
:10A240002FF8782100F02CF80821009100200190CF
:10A250000823102221464046FFF7A6FE02E02521F2
:10A2600000F01EF86D1C01E000F01AF828780028B4
:10A270007FF441AF98F80C0020B14046BDE8FE43A2
:10A28000FFF750BEBDE8F78300240A2057E70026F9
:10A29000B6E750F8041B38600196009470472021FF
:10A2A000404673E63031323334353637383941423F
:10A2B00043444546613807E005E0A0F161011A29F1
:10A2C00001D20120704741381A288041C00F7047E1
:10A2D000A0F121010F290AD3A0F13A02062A06D9DA
:10A2E000A0F15B01062902D37B380428EDE70120A9
:10A2F00070470148704700009023002000F10103DF
:10A3000010F8011B11B110F8011BFBE7C01A7047D0
:10A310004E52465F53554343455353004E52465F9A
:10A320004552524F525F5356435F48414E444C454D
:10A33000525F4D495353494E470000004E52465F0D
:10A340004552524F525F494E5445524E414C0000C7
:10A350004E52465F4552524F525F4E4F5F4D454DF4
:10A36000000000004E52465F4552524F525F4E4F22
:10A37000545F464F554E44004E52465F4552524F31
:10A38000525F4E4F545F535550504F525445440006
:10A390004E52465F4552524F525F494E56414C49CC
:10A3A000445F504152414D004E52465F4552524F1C
:10A3B000525F494E56414C49445F53544154450005
:10A3C0004E52465F4552524F525F494E56414C499C
:10A3D000445F4C454E475448000000004E52465FD3
:10A3E0004552524F525F494E56414C49445F464C8C
:10A3F000414753004E52465F4552524F525F494EBD
:10A4000056414C49445F4441544100004E52465F1E
:10A410004552524F525F444154415F53495A45009F
:10A420004E52465F4552524F525F54494D454F552B
:10A43000540000004E52465F4552524F525F4E55F7
:10A440004C4C00004E52465F4552524F525F464FB1
:10A450005242494444454E004E52465F4552524F87
:10A46000525F494E56414C49445F414444520000BA
:10A470004E52465F4552524F525F4255535900006B
:10A480004E52465F4552524F525F434F4E4E5F43CE
:10A490004F554E54000000004E52465F4552524FF9
:10A4A000525F5245534F5552434553004E52465FFB
:10A4B0004552524F525F4D555445585F494E49548D
:10A4C0005F4641494C4544004E52465F4552524F0B
:10A4D000525F4D555445585F4C4F434B5F46414981
:10A4E0004C4544004E52465F4552524F525F4D55C7
:10A4F0005445585F554E4C4F434B5F4641494C4580
:10A50000440000004E52465F4552524F525F535432
:10A510004F524147455F46554C4C00004E52465FF6
:10A520004552524F525F4150495F4E4F545F494D23
:10A53000504C454D454E5445440000004E52465F38
:10A540004552524F525F464541545552455F4E4F1A
:10A55000545F454E41424C45440000004E52465F18
:10A560004552524F525F494F5F50454E44494E4706
:10A57000000000004E52465F4552524F525F445217
:10A58000565F5457495F4552525F4F564552525598
:10A590004E0000004E52465F4552524F525F4452A9
:10A5A000565F5457495F4552525F414E41434B00FD
:10A5B0004E52465F4552524F525F4452565F545777
:10A5C000495F4552525F444E41434B0073645F62A2
:10A5D0006C655F6366675F736574282920726574B4
:10A5E00075726E6564202573207768656E206174CE
:10A5F00074656D7074696E6720746F207365742064
:10A60000424C455F434F4E4E5F4346475F47415084
:10A610002E00000073645F626C655F6366675F7342
:10A62000657428292072657475726E6564202573BF
:10A63000207768656E20617474656D7074696E67EB
:10A6400020746F2073657420424C455F4741505F12
:10A650004346475F524F4C455F434F554E542E0083
:10A6600073645F626C655F6366675F7365742829F6
:10A670002072657475726E65642025732077686535
:10A680006E20617474656D7074696E6720746F20DC
:10A6900073657420424C455F434F4D4D4F4E5F43B1
:10A6A00046475F56535F555549442E0073645F62B9
:10A6B0006C655F6366675F736574282920726574D3
:10A6C00075726E6564202573207768656E206174ED
:10A6D00074656D7074696E6720746F207365742083
:10A6E000424C455F47415454535F4346475F415492
:10A6F00054525F5441425F53495A452E00000000B6
:10A7000073645F626C655F6366675F736574282955
:10A710002072657475726E65642025732077686594
:10A720006E20617474656D7074696E6720746F203B
:10A7300073657420424C455F47415454535F434610
:10A74000475F534552564943455F4348414E47454D
:10A75000442E000030B54A480021016041600020CD
:10A7600048490860484949480A6802604B684360A4
:10A770008A688260CB68C3600A6902614B69436181
:10A780008A690262CB6943620A6A82624B6AC36267
:10A790008A6A0263CB6A43630A6B02644B6B43644D
:10A7A0008A6B8264CB6BC364096C016538490868A5
:10A7B000082804BF4868002802D13648364A02609B
:10A7C0000B68082B04BF4868002802D13348FB22DD
:10A7D00002600B68082B04BF4868002809D1304884
:10A7E000304B02681C78120904F00F0444EA02128C
:10A7F00002600868082804BF4868002803D12A4876
:10A800004FF40071016029480168CA0744BF6FF026
:10A81000010101602649C86F40F47000C867BFF3AA
:10A820004F8FBFF36F8F234A106800285CBF5068BA
:10A8300000281CD5204B01241C60204C00F042F85D
:10A840001225156000F03EF8556000F03BF800223C
:10A850001A6000F037F8BFF34F8F0A68184802F407
:10A86000E06202430A60BFF34F8F00BFFDE7024A78
:10A870000249116030BD00008C2300200090D003FD
:10A880000C010040380500400404001020C50040C1
:10A89000300100108C5600404881030018F500403C
:10A8A000E40E0040580200104096024000040040B0
:10A8B0000CED00E00012001004E5014000E401404E
:10A8C0000400FA0520680028FCD070470000000052
:10A8D00010A30200010000001CA3020002000000FF
:10A8E000FCB00200030000003CA3020004000000D2
:10A8F00050A302000500000064A30200060000004F
:10A9000078A302000700000090A3020008000000E6
:10A91000A8A3020009000000C0A302000A00000072
:10A92000DCA302000B000000F4A302000C000000F6
:10A930000CA402000D00000020A402000E00000084
:10A9400034A402000F00000044A402001000000024
:10A9500058A402001100000070A4020012000000C0
:10A9600080A402001300000098A4020080000000F0
:10A9700020B1020081000000ACA4020082000000AF
:10A98000C8A4020083000000E4A4020084000000C8
:10A9900044B102008500000060B0020086000000A3
:10A9A00004A50200900000001CA502009100000018
:10A9B0003CA50200920000005CA50200008200009D
:10A9C00074A502000182000094A50200028200002A
:10A9D000B0A502000084000068B1020001840000FC
:10A9E00034B002000284000088B00200038400003A
:10A9F0008CB1020033B58BB00021044600910C9855
:10AA000080B1002529460CA800F093F838B10099D0
:10AA1000684600EB410295800098401C00906D1C38
:10AA2000142DEFD3204669462C22FCF795F80DB083
:10AA300030BD2DE9F84306468CB03088B488314DDE
:10AA4000102804D0112838D01A283AD057E0AA6824
:10AA5000D243009268466968FBF7C6FF009901A8D7
:10AA6000FFF7C8FF4FF000090EE002A8002730F8FA
:10AA70001980281D414600EB870000F04FF87F1C2D
:10AA80001D2FF6D309F1010901988145EDD3142C4E
:10AA900003DB0420FDF76EFF31E0214605F10800DD
:10AAA00000F032F82146281D00F02EF8F07B012836
:10AAB00025D0214605F10C0014E0214605F10800DF
:10AAC0001BE0307A000902280FDBCCBF01260026EC
:10AAD000214605F1100000F017F8002E214605F17F
:10AAE00014000AD000F010F809E0214605F110002A
:10AAF00000F014F8214605F1140000F00FF80DB035
:10AB0000BDE8F083482A00200B46012103F01F0214
:10AB10005B09914000EB8300FBF74EBF0B46012120
:10AB200003F01F0291405B09C94300EB8300FBF770
:10AB30005BBF4A0950F8220001F01F01C84000F035
:10AB40000100704738B53B4C207808B1852510E0EE
:10AB5000A060002161602061E1600FF2710000F0EF
:10AB600077F80546FEF76EFA08B900F07DF8012087
:10AB70002070284632BD1CB500F010F82D4CE0685E
:10AB8000401EE060E06818B900F07EF80020A07078
:10AB9000FFE79DF80000FBF772FF13BD00218DF861
:10ABA00000106846FBF74EBF38B50400214814BFBB
:10ABB00000F1100500F1080504E00868286020464F
:10ABC0004968884729680029F7D131BD0200194931
:10ABD00003D101234B70002002E0012801D18870CD
:10ABE000E2E7704718B9134A01215170DCE770475A
:10ABF0001CB520B1012806D0032815D013BD0E497D
:10AC00000120086013BD00228DF800206846FBF784
:10AC100019FF084C207808B9FFF794FFE068401C42
:10AC2000E0600121A170B4E700F01EF8FFF7A3FF78
:10AC300013BD0000C02C002080E100E04FF08041F7
:10AC400081B000220A5008580090009901B0704766
:10AC5000214B19790246002009B185207047012156
:10AC60001A6019715871704710B51C480168C907FE
:10AC700006D41B4B1B4CC0221A70012121600160BD
:10AC800001201949086010BD19491A4A01200860BD
:10AC90001068C003FCD4704770B5174E0E4C306876
:10ACA000124D50B14FF48070FFF7C8FF01212960A9
:10ACB000607910B9617122689047706850B14FF4A3
:10ACC0008270FFF7BBFF0220286001202168BDE8E9
:10ACD0007040084770BD0000182D002000E100E022
:10ACE00000E400E080E200E01805004008030040B6
:10ACF0000C000040180400400001004073645F62D3
:10AD00006C655F6761705F646174615F6C656E67DD
:10AD100074685F7570646174652829202872657194
:10AD20007565737429206F6E20636F6E6E65637432
:10AD3000696F6E20307825782072657475726E6543
:10AD4000642025732E0000005468652072657175BB
:10AD500065737465642054582F5258207061636B7A
:10AD60006574206C656E67746820697320746F6FFA
:10AD7000206C6F6E672062792025752F2575206FF6
:10AD800063746574732E0000546865207265717574
:10AD9000657374656420636F6D62696E6174696F59
:10ADA0006E206F6620545820616E642052582070C7
:10ADB00061636B6574206C656E677468732069737A
:10ADC00020746F6F206C6F6E67206279202575206C
:10ADD0006D6963726F7365636F6E64732E0000003C
:10ADE000496E73756666696369656E742052414D7C
:10ADF00020616C6C6F636174656420666F7220748F
:10AE0000686520536F66744465766963652E00003B
:10AE10004368616E6765207468652052414D2073F8
:10AE200074617274206C6F636174696F6E206672F6
:10AE30006F6D203078257820746F20307825782E3B
:10AE4000000000004D6178696D756D2052414D2004
:10AE500073697A6520666F72206170706C696361D6
:10AE600074696F6E20697320307825782E00000099
:10AE700073645F626C655F67617474635F65786358
:10AE800068616E67655F6D74755F72657175657316
:10AE90007428292072657475726E65642025732E7E
:10AEA0000000000073645F626C655F6761747473B7
:10AEB0005F65786368616E67655F6D74755F726505
:10AEC000706C7928292072657475726E656420250E
:10AED000732E000094B20200000003030CB30200C2
:10AEE0000000000054B3020000000303D8B00200C9
:10AEF00000000000D0AF02000000030308B0020011
:10AF00000000030350B202000000030314B3020068
:10AF1000000000001CB302000000000058B3020053
:10AF20000000000024B30200000000002CB3020067
:10AF3000000000006572726F720000007761726E2F
:10AF4000696E6700696E666F000000006465627577
:10AF5000670000001B5B313B33306D001B5B313BF6
:10AF600033326D001B5B313B33336D001B5B313B78
:10AF700033346D001B5B313B33356D001B5B313B64
:10AF800033366D001B5B313B33376D001FB500BF9F
:10AF90000CA40EE0052818BFFDF7ECFC1FBD51689E
:10AFA00000981268904701A8FEF7BDFD039A002A99
:10AFB000F5D168464BDF0028ECD1214601A8FEF709
:10AFC000AEFDF3E75CB202006CB2020008000000C4
:10AFD0006E72665F7364680000000000000000008D
:10AFE00000000000000000004CB3020054B3020057
:10AFF0000000000000000000E4B20200F4B2020011
:10B0000000000000000000006E72665F7364685FFD
:10B01000626C650034B302003CB30200C4B20200AB
:10B02000D4B20200D4B20200E4B202003CB3020087
:10B0300044B302004E52465F4552524F525F424C5B
:10B04000455F495053505F4348414E4E454C5F4128
:10B050004C52454144595F455849535453000000F0
:10B060004E52465F4552524F525F4D4F44554C45EC
:10B070005F414C52454144595F494E495449414C06
:10B08000495A4544000000004E52465F4552524F17
:10B09000525F424C455F495053505F4C494E4B5FA5
:10B0A000444953434F4E4E4543544544000000002D
:10B0B00010B5074979441831064C7C44163404E035
:10B0C0000A68081D114488470146A142F8D110BD05
:10B0D00004010000200100007077725F6D676D74DD
:10B0E0000000000000000000000000000000000060
:10B0F0000000000000000000000000004E52465F0B
:10B100004552524F525F534F46544445564943456A
:10B110005F4E4F545F454E41424C45440000000095
:10B120004E52465F4552524F525F4D4F44554C452B
:10B130005F4E4F545F494E495449414C495A45442A
:10B14000000000004E52465F4552524F525F4D552F
:10B150005445585F434F4E445F494E49545F464102
:10B16000494C4544000000004E52465F4552524F44
:10B17000525F424C455F495053505F52585F504BAD
:10B18000545F5452554E4341544544004E52465F1D
:10B190004552524F525F424C455F495053505F50A9
:10B1A0004545525F52454A4543544544000000001E
:10B1B0004EF68851CEF20001086840F47000086035
:10B1C000BFF34F8FBFF36F8F4FF00070E1EE100AA7
:10B1D000704700009FC4FFFF54090000D8230020DF
:10B1E0000000000043B7FFFFBE010000EC000000BC
:10B1F000E0220020FEE700000120C046002801D028
:10B20000FFF756FFAFF300800020AFF30080FDF79B
:10B21000ADFA00F000F800F001B8FEE70746384646
:10B2200000F002F8FBE7FEE7202109032631182091
:10B23000ABBEF9E7466174616C206572726F720093
:10B2400053797374656D2072657365740000000036
:10B250006E72665F7364685F736F630044B302006D
:10B260004CB3020000000000000000007561727421
:10B270005F6C6F675F6261636B656E640000000006
:10B28000102D0020082D0020102D0020082900205E
:10B29000180000006E72665F626C655F67617474AF
:10B2A00000000000014880470148004755A7020000
:10B2B00001B30200F4B20200000000006CB2020010
:10B2C0004C230020999602000000000061930200C8
:10B2D0000C2300206D8D0200E0220020D58A0200A0
:10B2E000202300201D920200000000008DAF02000C
:10B2F00000000000919A0200A39A0200A19A0200A5
:10B30000AFF30080FFF754FFFFF776FF636C6F63C6
:10B310006B000000434C4F434B0000004750494F27
:10B32000544500005541525400000000554152540C
:10B330004500000033AA0200000000006D860200F4
:10B3400000000000E5AB020000000000F1AB0200CD
:10B350000000000061707000505253004300FEE78F
:10B36000FEE7FEE7FEE7FEE7FEE7FEE7FEE7FEE7B5
:10B37000FEE7FEE7FEE7FEE7FEE7FEE7FEE7FEE7A5
:10B38000FEE7FEE7FEE7FEE7FEE7FEE7FEE7FEE795
:10B39000FEE7FEE7FEE7FEE7FEE7FEE7FEE7FEE785
:10B3A000FEE7FEE7FEE7F20600011007FF00FFFFE1
:10B3B000382C00201F21525808F10F0180050B0086
:10B3C00003002987022A30012000400D6108110185
:10B3D00052FF09100334AF02003C04124404124C23
:10B3E000041003E89E0200540812F008125C0812D0
:10B3F0006404126C04127404127C04128404900716
:10B400000090D0035CB30200018C43BBA27012B564
:0CB410000852D10C93B9A284D101613C18
:040000050002B30141
:00000001FF
