:020000040002F8
:1060000040550020E11E03009B74020063840200DF
:10601000D3910200B79C02003BB7020000000000D1
:106020000000000000000000000000004BC1020062
:10603000E3DE02000000000007DF020037E4020098
:10604000E50A03004D1D030071F10200931D0300DA
:106050009F1D0300A31F030055E20200A51F0300BC
:10606000A71F0300A91F0300AB1F0300AD1F030000
:10607000AF1F0300B11F0300B31F0300B51F0300D0
:10608000B71F030049A60200B91F0300BB1F03008E
:10609000B5A60200BD1F030037AA0200BF1F030000
:1060A000C11F0300C31F0300C51F0300C71F030058
:1060B000C91F0300CB1F0300000000000000000008
:1060C000CD1F0300CF1F0300D11F0300D31F030008
:1060D000D51F0300D71F0300D91F0300DB1F0300D8
:1060E000DD1F0300DF1F0300E11F030000000000AD
:1060F00000000000E31F030000000000E51F030094
:10610000000000000000000000000000000000008F
:10611000000000000000000000000000000000007F
:10612000000000000000000000000000000000006F
:10613000000000000000000000000000000000005F
:10614000000000000000000000000000000000004F
:10615000000000000000000000000000000000003F
:10616000000000000000000000000000000000002F
:10617000000000000000000000000000000000001F
:10618000000000000000000000000000000000000F
:1061900000000000000000000000000000000000FF
:1061A00000000000000000000000000000000000EF
:1061B00000000000000000000000000000000000DF
:1061C00000000000000000000000000000000000CF
:1061D00000000000000000000000000000000000BF
:1061E00000000000000000000000000000000000AF
:1061F000000000000000000000000000000000009F
:1062000070B504460025DFF88C6B301D50F8251062
:1062100009B1204688476D1C042DF6D370BD884215
:1062200005D2006810F1010F01D001207047002055
:106230007047418800EB81000C30704738B5044648
:106240000D46FFF7F6FF854201D2022032BDA1883C
:106250004FF6FF7291421CBF2088002801D1012017
:1062600032BD002032BD68B10168DFF82C2B9142AD
:1062700008D14068DFF8241B401A04D0401E01D129
:1062800001207047032070472DE9F04203460E4677
:1062900002201446308003F10805DFF81C7B03F56B
:1062A00080590DE0A868B96A814238BFB8626A882F
:1062B0003188D21C511831802846FFF7BAFF0546B5
:1062C00049462846FFF7ABFF68B149462846FFF725
:1062D000B5FF0028E6D00CB1012121700228E6D1DB
:1062E0004FF480603080BDE8F0828A7D032A04DBB1
:1062F000CB880289DB1C9A1802814289C988521A0C
:10630000D31E43817047000080B50020DFF8A81A33
:1063100002A28969009008230BE00000DEC0ADDE18
:10632000FF011EF180B50146002000905FF00803D8
:1063300001A200F0B1F902BDDEC0ADDEFE011EF12A
:1063400030B5C01C80B240F2FE32904201DB092021
:1063500030BD00231425DFF8D04A5D432C44227859
:106360003AB9228965891218AA1892B2B2F5806FDB
:1063700004DB5B1C022BEDDB072030BD0B80618949
:1063800040186081002030BD142210B5DFF8983A23
:10639000514319444C89201AC01E488110BD70B564
:1063A0000C4600F0A4F84168206801F5805518B942
:1063B00001F1080603E03046FFF73BFF0646294699
:1063C0003046FFF72CFF58B129463046FFF736FF1D
:1063D00018B1022804D0F2D2EDE72660012070BD8A
:1063E000002070BDF8B506460C467268DFF8C85943
:1063F000100024D0DFF8343ADF681146B94224BFD8
:106400001B698B421BD312F0030F02BF30892B890B
:10641000984202BF30689368984210D10020DFF89C
:10642000542A1425131D45435B598B423CBF03F589
:106430008053994215D3401C0228F2DB1AE0002059
:1064400020800022009220886946FFF7A8FF58B1FB
:106450000098326881689142F5D170602989318154
:1064600000E020800120F2BD2088401C208080B206
:106470000228E6DB0020F2BD2DE9F04100F0C8FB68
:1064800017461E4608B902202FE0002F18BF002E25
:1064900005D1052029E03060B188491CB180B08861
:1064A000022821DA1421DFF8CC294843105C0028A7
:1064B000F2D1B0883146FFF772FF0028EBD0306888
:1064C000002C1EBF828823889A42F2D1002D1EBF65
:1064D00002882B889A42ECD1816839607860B8F8DC
:1064E00008003881002000E00A20BDE8F081142176
:1064F000DFF8802948431044704710B50146DFF8A3
:10650000780900F00BFD04461C2100F075FD2046C3
:1065100010BD0146DFF8600900F022BD2DE9F84FFB
:106520004FF0000900254FF0030ACB46C846DFF8BC
:106530008848DFF8F808C1684FEA084201EB1217F3
:106540006B1C14209BB2DFF82C19009368430E18C3
:106550003846FFF788FEF0B1012828D003283DD146
:10656000002057F8201011F1010F47D1401CB0F561
:10657000806FF6D3A06930B102213170776031812C
:106580006580009D04E0A7610220A0834FF0010B0D
:1065900049F0010922E03070776006F1100206F13F
:1065A00008013846FFF770FE49F002092BE05FEA68
:1065B0000B0005D002203070A16971603081009D10
:1065C000A761002204F11C013846FFF75DFEA08B95
:1065D00002280CBF0420082040EA090908F101083C
:1065E0001FFA88F00228A4DD1FFA8AF00228B8BF3B
:1065F0004FF000095FFA89F0BDE8F28F7760032061
:10660000AAF1010A3070009DE8E738B50C46002574
:106610000146009504230FF6740200F03DF808B11E
:106620000E2032BD1420DFF84C28444310190121FC
:106630000174002032BD70B5DFF87C47DFF8E82731
:106640006188142041435518DFF8E007E96821B953
:10665000042626700023696805E002210522A18333
:1066600022700023A1690122BDE8704000F0AEBD98
:106670001CB5DFF84407416842684B88032101706C
:10668000DB1C8169808B00241B0401EB80010094DA
:106690009B0B00F001F816BDDFF8900700F018BD65
:1066A00080B5DFF81407011D4088FFF778FE10B1B0
:1066B000BDE80140DCE7BDE80140BCE7DFF8F806D3
:1066C000DFF8B02703781421072B00D9704730B5C5
:1066D000DFE803F0043131171F2C2C2F0489641CD0
:1066E000002304814380037301FB03F4145D641EE3
:1066F000A441C5185B1CE40F022BAC72F4DB012132
:1067000015E041684B88828BDB1C9A18828302213A
:106710000DE044888369614311444A6882614B609B
:10672000828B0A8102218183062203E00721017006
:1067300030BD0122027030BDF8B502460F20DFF8EF
:1067400078461AB1002060610120F2BD0A79DFF8B5
:1067500024571426032A3DD8DFE802F002071C283C
:1067600001200871FFF7D0FD34E0297800200229CC
:1067700008D116FB00F60020A855291D8859FFF7FF
:10678000D1FD27E0297D01200229F2D020740021CB
:106790006161EFE0002008710221A1830023A1695B
:1067A000DFF88806012200F011FD13E000200871D7
:1067B0002F1DA069FFF7B6FD6188A2694E43291D10
:1067C0008B59A361BA51A919A28B0A810223A38311
:1067D00000220A7010B1002060610E20F2BD00009E
:1067E000F8B50D461421AB8ADFF888264B43D6183E
:1067F00028B129463046FFF778FD0120F2BD7068C8
:106800003189DFF8287600EB8104A87D06285BD863
:10681000DFE800F011411E31044E570000211163E2
:1068200002F12801A869D06202F12C00FFF7DAFD1D
:1068300008B90A20F2BD0220A875002100910423A6
:106840002A1D2146384600F043FC10B30E243CE0DC
:106850002869002814BF03200120A8750423002004
:10686000009005F10C0204F10801384600F030FCFC
:106870000028EBD10DE00120A8750021009104F162
:106880000C01EB882A699B00384600F021FC0028A7
:10689000DCD100241DE0287803280CBF0520062049
:1068A000A87504230020009005F10802211DDCE7F3
:1068B0000620A875118D106BFFF7A7FE040004D108
:1068C00007E041F61D5400E00F2429463046FFF74B
:1068D0000CFD2046F2BD0000F8B508B10120F2BD64
:1068E000DFF8D444207B00281ABF00212173FFF772
:1068F000E5FE20781421401E0628DFF8782533D8DD
:10690000DFE800F004351C1F32222B000023002694
:1069100002F10C07E518A87A48B1AE7201FB03F545
:106920007859002802BF5019007C01281ED05B1C3A
:10693000022BEFDB2670668066601BE0BDE8F1404D
:1069400096E6BDE8F14076E6638806202070121DC9
:1069500059435058BDE8F240E4E40720207000217C
:106960006160BDE8F140CFE40F20F2BD6380BDE877
:10697000F14095E641F61D50F2BD00002DE9F04FC3
:10698000DFF834540FF208580FF2105A85B004465D
:1069900005F1C00605F1D00741F61D59E86A20B996
:1069A0003946304600F0ECFAE862E96A0878401EA1
:1069B00005285ED8DFE800F00310101414592046B3
:1069C000FFF7BAFE0446002C00F0A48000F0A5F802
:1069D0004C4551D100244FE02046FFF701FFF1E77D
:1069E0008B460CB1012445E09BF80400E8B1022875
:1069F00001D002D337E04C46E5E705F120036A46B3
:106A000000210BF10600FFF737FD040005D1A98C2A
:106A10000198FFF7FAFD044604E005F1200000218B
:106A2000C0E900110A2CCED1E5E702208BF8040062
:106A300001A998E81C0081E81C00DBF80C0001901B
:106A4000694601A8FFF7CEFC58B102988188ABF8DF
:106A500006100288ABF80820BDF80010FFF7D5FD3E
:106A6000B0E70A24AFE70F24ADE72046FFF734FF75
:106A7000A8E70F2400F051F8E86A01940178491E54
:106A8000052935D8DFE801F031281D11070305225B
:106A90008DF800202CE004218DF800100021C28820
:106AA000ADF80C20ADF80E1009E003218DF80010B0
:106AB000C288ADF80C200189ADF80E10C1680291B2
:106AC00016E0022100F02EF8C1680291807D0628B0
:106AD00014BF0021012105E0012100F023F800216D
:106AE000C06802908DF8101002E000218DF80010AF
:106AF0006846FFF785FB0020E8623946304600F023
:106B00006BFA012105F1300000F05AFC0024002846
:106B10007FF444AF05B0BDE8F08F684651461422BB
:106B200000F060BC8DF800100289ADF80C2081885F
:106B3000ADF80E10704780B50121DFF8400300F07A
:106B400027FC10B9BDE8024018E701BD406815E711
:106B50002DE9FE4300F05CF8994608B9022055E0A3
:106B60000DB9052052E028884FF6FF7188421ABF00
:106B700068880028042049D0287910F0030F07D135
:106B800042B9AF686946B8B2FFF7DAFB30B13DE011
:106B900003203BE01088ADF80000578801A8FFF7FC
:106BA000ACFC060006D1BDF80010B8B2FFF7ECFB54
:106BB00008202BE086F800900020B075BDF800108A
:106BC000B18201216868306108F1280000F0ECFB17
:106BD000F060B9F1030F288830816988B180F780AF
:106BE00003D10420B0752168B1610020708101A833
:106BF000FFF78FFC3CB100206060F1682160A0725B
:106C0000B8F808102181FFF796FF0020BDE8FE8349
:106C1000DFF8A481044698F810000D46704710B5BF
:106C20005C4A1168042901D10C2010BD136802EBE5
:106C3000830401216060104600F0B6FB002010BD07
:106C400038B586B001A8142100F0D8FB5A4C207C3E
:106C5000A0BB04F1140000F0BFFB002855D1DFF801
:106C60002002DFF8202201681068526811F1010F3C
:106C700004BF114641436D480161A1F54051C16017
:106C80000022DFF8041200F0F7F900283ED11C239F
:106C90008C2204F1340104F1C00000F009F9FFF77F
:106CA0003DFC050018BF022802D0062802D009E0EA
:106CB0000B202BE0012020740021616101A8FFF767
:106CC0009FFA22E000F097F808B908201EE00121A1
:106CD000012D18BF032D01700AD0052D18BF072DF7
:106CE0000DD0092D06D00A2D06D00B2D02D007E0BD
:106CF000002202E0032102E00222027100E00171A1
:106D00006846FFF706FCFFF716FF002007B030BD0E
:106D10007CB504000D4618BF002D01D1052076BDBD
:106D20006946FFF75FFB98B1BDF80030514A6668CD
:106D300014204343D01801210C3000F035FB2E60A5
:106D40000122606800F10C016960A272002076BD2A
:106D50000A2076BD1CB5040001D1052016BD694688
:106D6000FFF740FBA0B1BDF80020424814214A4380
:106D70008118C86800281CBFA07A002806D0C868FF
:106D8000401EC8600021A172002016BD062016BD5D
:106D90000A2016BD9C340020DEC0ADDEFE011EF1CF
:106DA000022303E008B90520704703230022CFE641
:106DB0001F490446087C7047342D00201CB5FFF79E
:106DC000F7FF08B9022016BD4FF6FF718C4201D1C2
:106DD000042016BD00F00FF808B9082016BD0521E3
:106DE000017001220271C4806846FFF792FBFFF731
:106DF000A2FE002016BD6846FFF77FBB1CB50C4CF9
:106E0000207C08B9022016BDFFF7F5FF08B908205D
:106E100016BD062101706846FFF77BFB207808B19C
:106E200001212173E3E70000B03300206C2600202D
:106E3000342D002003B581B002A901A8FFF71CFB87
:106E40000EBD01B513460A466946002004E001B5AF
:106E500013460A4600216846FFF70EFB02BD0028D4
:106E600018BF002901D10520704700680860002084
:106E700070470000B0330020F42D0020642D002066
:106E80001410001010000010501D03000000FFFF40
:106E900000000000000000000000000000000000F2
:106EA00000000000000000000000000000000000E2
:106EB00050B509B90E2050BD144694FBF3F603FB00
:106EC00016440CB1092050BD01608460002141606E
:106ED0008281C381002050BD81B050E8022FC1885B
:106EE000B2EB324F4FF0000317BF92B241EA0141BB
:106EF00042EA014104E04268B2EB324F08BF01238D
:106F000040E80212002AE8D18DF800309DF8000018
:106F1000002814BF0020112001B070473CB550E894
:106F2000015FAAB2C3891A4483899A4228BFD21A40
:106F300003899A4202BFBFF32F8F002407E0C2EA01
:106F4000050240E80123002BE9D14FF0010400F0D5
:106F50003AF81AB100680988084436BD002036BDE9
:106F60000A8849888A4209D150E8011FC1EA0141D3
:106F700040E80112002AF7D1012070470020704735
:106F80003CB550E8025F1FFAA5F2C3889A4202BFDF
:106F9000BFF32F8F00240DE0C3891A4483899A42DE
:106FA00028BFD21AC5EA024240E80223002BE8D1EA
:106FB0004FF0010400F007F81AB10068498808444E
:106FC00036BD002036BD01958DF80040019B0B6059
:106FD0009DF80020704700000A8849888A4209D13C
:106FE00050E8021FC1EA214140E80212002AF7D10D
:106FF0000120704700207047002200F01FBAF0B453
:107000000246106895681318506803EB5004C007D7
:107010001DD54D441BE013F8017B05F8017B491E8B
:10702000F9D1A0B1B60813F8011B06F00306032E30
:1070300008BF13F8016B01EB06214942801C29446B
:1070400005D011F8016B05F8016B401EF9D1A34280
:107050000ED013F8016B16F0030104BF13F8011BE7
:10706000C91C30090F28DAD113F8010B0F30D6E70D
:10707000F0BC02F10C0070477CB5DFF8FC31DFF8A2
:10708000FC51DFF8FC415D1BED082D0445F00105C6
:107090000FF20C2328B90E26009621460FF2142277
:1070A00005E049B90E20009021460FF21022284633
:1070B00000F05EFB0E2076BD016011460268136889
:1070C00002B0BDE8704018475146384600F050BB4A
:1070D0002DE9FC4700F06BF80FF2F41900F060F8AE
:1070E00016461D4647F0010714B900F053F804E0B6
:1070F0003EB90E2000904B467AA2FFF7E5FF0E2026
:1071000041E0206818B900F057F808203BE025B9A5
:10711000092000904B4657A20BE060684068B5FB21
:10712000F0F100FB115040B1092000904B460AF1EC
:107130005402FFF7C9FF092025E018F0030F0DD115
:1071400016F003000ED12A464146204600F09AF878
:1071500080B900F01AF80AF1A40207E000F015F86F
:1071600062A203E000F011F80AF18002FFF7ACFF21
:10717000102008E00A9800902B4620462468E56815
:1071800032464146A847BDE8F687102000904B469E
:10719000704700000E2300934FEA090345A2704791
:1071A000DFF8DCA0C71BFF083F0488467047044691
:1071B0003148324F70470000082100914FEA09031F
:1071C00040A25146384600F0D3BA00002DE9FC47F2
:1071D000FFF7EDFF0FF22C18DFF8A490C71BFF0894
:1071E0003F040E4615469A4647F001074CB90E2358
:1071F000009349464FEA08032EA2FFF766FF0E20D0
:1072000036E0206840B90821009143462DA2494646
:10721000FFF75BFF08202BE045B9092000904346AB
:1072200014A24946FFF751FF092021E06068026877
:10723000511E0E420BD16A433146204600F022F81F
:1072400078B910200090434609F1F40204E01020C0
:107250000090434609F1CC024946FFF736FF102063
:1072600006E0204624682A46256953463146A84749
:10727000BDE8F6876C656E00000F0300D00E0300BA
:10728000D4030300C368994207D300695118491E0B
:1072900088428041C043C00F704700207047000003
:1072A0006E72665F6673746F726167655F696E693F
:1072B00074000000705F667300000000705F617012
:1072C00069000000705F66732D3E705F6170690039
:1072D0006E72665F6673746F726167655F777269FD
:1072E00074650000705F7372630000006164647213
:1072F0005F69735F616C69676E65643332286465CA
:10730000737429006E72665F6673746F726167656D
:107310005F6572617365000010B5024652E8000FA8
:107320000C4642E8004393F0000FF7D110BD000077
:1073300010B5024652E8000F40EA010442E800435B
:1073400093F0000FF6D110BD10B5024652E8004F81
:1073500044EA010042E8000393F0000FF6D110BDAB
:1073600010B5024652E8000F00EA010442E800436B
:1073700093F0000FF6D110BD10B5024652E8004F51
:1073800004EA010042E8000393F0000FF6D110BDBB
:1073900010B5024652E8000F00EB010442E800433A
:1073A00093F0000FF6D110BD10B5024652E8004F21
:1073B00004EB010042E8000393F0000FF6D110BD8A
:1073C00010B5024652E8004FA4EB010042E800036A
:1073D00093F0000FF6D110BD0121A9E70121B3E719
:1073E0000021BDE74AB1000011F8013B521E00F830
:1073F000013B1CBF11F8013BF8E77047002200F089
:1074000047BB30B4002513E050F8042BD30744BF2A
:10741000A9F101039A18091F042942F8045BFAD262
:1074200013468C0744BF15809B1CC90748BF1D70BD
:1074300050F8041B0029E7D130BC7047401810F009
:10744000030308D0C91A1FD3DB0748BF00F8012D7A
:1074500028BF20F8022D130030B414461546103909
:1074600028BF20E93C00FAD8490728BF20E90C00D2
:1074700048BF40F8042D890028BF20F8022D48BFDE
:1074800000F8012D30BC7047C91818BF00F8012D55
:10749000CB0728BF00F8012D7047FEE780B5DFF865
:1074A000A405FF21002281600260426000F21440C6
:1074B000426002600273DFF8900500F002FB20B921
:1074C0000FF2B85000F0A7FB002002BD30B591B11B
:1074D000DFF87825DFF878150568DFF87835511A78
:1074E000002200E0521CB2EBD10F06D233F822404A
:1074F000AC42F7D10260002030BD052030BD01B59F
:107500006846FFF7E3FF28B9DFF84C05009950F80B
:10751000310002BD002002BD00000000491EDFF85E
:107520003825032902EBC0000BD8DFE801F0020484
:1075300006080220704704207047007970474079A0
:10754000704700207047024600201368C3F3800292
:107550009AB103F00300012802D0022807D00BE003
:107560000A68C3F38310801C82180A6004E008686C
:107570009B0D9B1C1B180B6001207047F8B5DFF8B2
:10758000C44484B004F58360FFF728FF04F2144577
:107590002846FFF723FF6068A7680090002600993F
:1075A00004F10C00394000EB81006946FFF7CBFF86
:1075B0000028F4D101AB009A04F10C013A4000F02C
:1075C000FBF9F8D90199BDF80A0001F0030101297E
:1075D0000AD002290FD1019906460098890DC91CCD
:1075E00000EB9100009006E0064601980099C0F378
:1075F0008310411800912846FFF7F2FE08B1009869
:107600006060304605B0F0BD80B50021DFF84C0465
:10761000FFF782FE80F3100002BD2DE9F84F04460B
:10762000884693461F460A9DDFF81894FFF7ECFF43
:1076300009F10C0A7E1C00042E4040EA1440E400CC
:107640004AF8260004F0380444EA8B14C4F3090411
:1076500009F10C0044EA88242F4044F0010440F86A
:107660002740BDE8F18F2DE9FC41884600218DF8C7
:1076700000101646DFF8CC730446684600F0DAFACC
:107680003868C8F80000A51CBA6839687868521CC8
:10769000511A411807F21C480FE001214046FFF73C
:1076A00083FEFFF76BFF01464046FFF77DFEB8689B
:1076B0003968401C411A78684118A942EDD32EB1AF
:1076C000A40104F4707444F0050402E0A40544F03D
:1076D00006043968B868014007EB8102D460396854
:1076E0009DF800006D183D6000F0C1FA0120BDE872
:1076F000F6812DE9FE43DFF84C6304460D469046C3
:107700009946B768012201A94846FFF7ACFFA8B126
:107710000198801C002108E007EA000206EB8202C3
:1077200058F82130D360401C491C4945F4D30097D8
:107730004A46019B29462046FFF76FFF96F8200432
:1077400018B100F02DF80028FBD1BDE8F783002325
:107750000022CEE780B50092012300F012F801BDAF
:10776000E0B5009201936A460223FFF7C2FF07BD0E
:107770001FB5069C009201930294032300F001F8C8
:107780001FBD6A46B5E77FB5089D099E009201932B
:10779000029503960423FFF7F4FF05B060BD0000D7
:1077A0002DE9F847A74E70683168884285B024D02B
:1077B00006F582670020B860BFF34F8F7068B46829
:1077C000009006F10C000099214000EB810005E0DB
:1077D00006F10C0004EA010200EB82006946FFF7A3
:1077E000B2FE002800F0CB80B868002840F0C780C7
:1077F000306800998142EBD370600020BCE00299B0
:1078000065F39F51029105F1080100F05CF95FEA10
:10781000000A4ED000F09EF900F0C8F80098204011
:10782000641C241AA40006F10C01AC4201EB800197
:1078300019D234B9284606F10C014FF00008002592
:1078400003E0204606F10C082D1BC4B20823224693
:10785000504600F0D4F9B8F1000F09D004F1080344
:10786000EAB2414601E008232A46504600F0C7F933
:10787000009809F1030100EB9100009039E00299B2
:1078800001F0030101295AD10299029AC1F383112F
:107890000529C8BF062122F4707242EA81120292C1
:1078A0000299C1F38311891C890000F00CF95FEA89
:1078B000000A44D000F04EF900F078F84FF00809C3
:1078C0004FF0000810E00098411C009106F10C05F3
:1078D000204005EB80014B460422504600F08FF912
:1078E00009F1040908F101080298C0F383108045EA
:1078F000E9D33C68B86870B1504600F02FF933E026
:10790000E0684179012904D1226813685146204674
:107910009847E0680468002CF2D1504600F01EF948
:1079200000208DF8040001A800F084F9B86808B9B7
:10793000009870609DF8040000F099F914E03C682C
:1079400005E021688A6820469047E0680468002CBA
:10795000F7D14348DFF8F82043A1801AC00800049B
:1079600040F00200FFF7F3FE7068316888420CBFF8
:107970000120002080F0010006B0BDE8F087002063
:1079800002AB009A06F10C01224000F015F8F8D97C
:1079900002992D4801F0030102297FF470AF029D86
:1079A000AD0DA946502DA8BF502528E70023082279
:1079B00002A9504600F023B951F8221043F82010D4
:1079C000401C0099491C01280091704730B50246BF
:1079D00000201C4BD3F8101400E0096889B1C96875
:1079E0000C798442F9D1401C0A28F3DB4FF0FF30B8
:1079F00030BDC9680D682560D3F81034D9680A60B5
:107A000030BD10F1010FFBD0D1680871D3F810140C
:107A1000D4680029EDD1C3F81024216030BD10B521
:107A2000104804680121017408E0E16801224A71EC
:107A30002046226851688847E0680468002CF4D129
:107A400010BD0000802600207C1E0300880F03006C
:107A5000D00E030000000000D00E03009C2A00207E
:107A6000080F0300902A00204261636B656E647307
:107A700020666C7573686564000000004830002063
:107A80007F0000007034002062F30F2262F31F4277
:107A900000B500BF130096469446103928BFA0E8F1
:107AA0000C50FAD85FEA417C28BF0CC048BF40F8B0
:107AB000042BC90728BF20F8022B48BF00F8012B70
:107AC00000BD00F0EFB82DE9F04105460F462E8AC3
:107AD00000F0FFF8361F040021D0F7190020012123
:107AE000FF1C20716171A046B7FBF6F7E680FFB27C
:107AF0007F1EC8F80050002607E06179491C6171BB
:107B0000C8F8000005608046761CBE4209D22846AF
:107B100000F0DFF80028F0D1204600F005F8002042
:107B200000E02046BDE8F081F8B501460D464C79ED
:107B3000601E002200E0521C2D688242FBD300260A
:107B400005E00F68284600F0E7F83946761CA642A3
:107B5000F7D3F1BD0121001DFFF726BC1CB504467B
:107B60000121201DFFF72CFC00909DF8000018B9A2
:107B70002046BDE81640D7E713BD2DE9F04714466F
:107B8000B0F806804279256846465643361F5F198D
:107B900003F1040CBE42BCFBF8F234BFF31A2B46CF
:107BA00008FB12CC2360002A01E00068521EFCD1C1
:107BB000A8EB0C029A469342089F4FF0000988BF39
:107BC00092460E4605461C46BCB105EB0C00001D56
:107BD00006EB0903390052460EBF19460146184606
:107BE000FFF700FC2D68A4EB0A04D14444454FF094
:107BF000000CA246E8D9C246E6E7BDE8F0871CB50E
:107C00000192002402E01CB501920124009401AA13
:107C1000FFF7B3FF13BD80680021816001614161FE
:107C2000C160416001607047EFF3108072B6704729
:107C300062B6704738B50446FFF7F6FF154A9168FB
:107C400071B9012393601449144B1D680D401560F0
:107C50001960596851604FF0FF325A60002100E00E
:107C60000121217010B9BDE83140E1E731BD10B507
:107C7000084CA16869B160B9FFF7D6FF08492268CE
:107C80000A6063684B600021A16010B9BDE8104034
:107C9000CEE710BDEC340020FC06FFBD80E100E023
:107CA00000E100E010B508B90E2010BD036842687D
:107CB00081681A60891A03E013685C1C14601970EB
:107CC0000B46591EDBB20268002BF5D10020107163
:107CD00010BD38B5044600258DF800506846FFF702
:107CE000A9FF21686268086882420FD2421E0A60BA
:107CF0001578208AE36845431D44A36820689A1AD2
:107D00000379D2B29A4238BF1A460A719DF8000030
:107D1000FFF7ADFF284632BD38B50C4600210546B9
:107D20008DF800106846FFF785FF286801684A1C37
:107D30000260E8682A8A241AB4FBF2F20A709DF8FD
:107D40000000FFF794FF31BD1CB5044600F0E6FBD0
:107D5000204600F01BFC2078022802D00C280ED010
:107D600013BD6946DFF8200600F001FF08B100F0FE
:107D70001FFF9DF8000028B100F067F813BD002038
:107D800000F0DEF913BD10B5DFF80046214604F51A
:107D9000377000F026FFC1B24FF6FE7204F13400D6
:107DA00000F0DEFF002818BF082809D013281CBFE8
:107DB00043F20141884203D0BDE8104000F0F8BE14
:107DC00010BDF8B506460020DFF8C45530702C7A97
:107DD000002C14BF022C01207070002C16BF012C47
:107DE00001200020B07008220020F0703071DFF810
:107DF000A40500EB0417641C798831813878B071D0
:107E0000F988B1813879B072798931822946387A16
:107E1000B07306F11200FFF7E5FAF889B083E1B21A
:107E2000387BB0760429A879697908BF00241B3013
:107E3000C2B23C2AA1BF3C38491CCAB23C2A2C72AF
:107E4000A8BF0021A8716971F1BD10B58AB0DFF833
:107E50003C45694604F1480000F089FE08B100F095
:107E6000A7FE9DF8000098B1207C88B901A8FFF713
:107E7000A8FF01A904F1480000F04BFE010002D068
:107E8000082805D002E00120207401E000F090FEF7
:107E90000AB010BD087810B1022801D07047D4E7AD
:107EA000DFF8E81400200874704700F081BE38B590
:107EB0009CB0DFF8E404DFF8D444069006A904F18E
:107EC000780000F0ADFF08B100F072FE0020CDE9AF
:107ED00000001121DFF8C424ADF806100092012142
:107EE00002228DF805108DF80420694604F148003F
:107EF00000F0A9FD08B100F05BFE02A800210022FD
:107F00000023002580E82E0001218DF815108DF842
:107F100016108DF817108DF80C10029364218DF84F
:107F20001410049302A904F1340000F0F5FE08B126
:107F300000F03EFE40210CA8FFF760FA0FF29841D6
:107F40000CA801F005F80FF2A4410EA801F000F80A
:107F5000DFF84C24DFF84C140A911123CDE90823F3
:107F6000012108AA18928DF86C100CA801F064F990
:107F700008B100F01DFE1DB030BD80B5DFF80C1457
:107F800051200860642201234A608B600B7301F565
:107F9000377000F01CFE0022DFF8F8030270672241
:107FA000428175213C22C2814180792242824C2348
:107FB0005122C28200216A224283C3804822C283A6
:107FC00001718A22017201730174017501760177D2
:107FD000428480F8201024305822017042806921A8
:107FE000418178239121C181002264214182C38093
:107FF0008321C18202717D210272027302740275B3
:108000004183027601BD007840B9DFF88023508AB1
:108010003B2176DF002818BF00F0CABD704700F092
:10802000C7BD80B5002001F020FB08B100F0C0FD05
:1080300001F0E5FB08B100F0BBFD33DF00B111E05A
:1080400001BD80B560B103280BD100F08CF80FF2B0
:10805000AC3100F08BF8022001F007FB08B101E021
:108060006BE001BDBDE8024000F0A2BD38B504469A
:10807000DFF83413DFF834032288C44D081AC0082F
:108080000004102A40F0030008D0112A17D0212A3A
:108090001FD03B2A18BF562A24D031BD0FF27031B1
:1080A000FFF755FB072001F0E0FA08B100F080FD72
:1080B000A188698205F1780000F0C6FE15E00FF294
:1080C0005C31FFF744FB4FF6FF7068820021297492
:1080D00031BD0FF28C300188ADF800106946A088E0
:1080E0008FDF02E0A088132176DF08B100F060FD89
:1080F00031BD80B5A5494A8A04284FF6FF7307D0E1
:10810000072809D00A2802D00E2810D001BD14E09B
:108110001321104676DF05E09A420DD101F184006B
:1081200001F0ACFD082818BF002805D09AE79A4254
:1081300002D0BDE8014088E601BDBDE8014070E71E
:1081400080B5012840F0088000F00DF8B7A100F0DC
:108150000DF801F033FF03E00321954801F05CFCCA
:1081600000B17FE701BD9048904A7047801AC0086F
:10817000000440F00300FFF7EABA000078B5ABB0A6
:108180004FF400410020FFF789F908B100F010FD1D
:1081900002F04AF802F08FFA08B100F009FD854AB2
:1081A000AEA0012102F0A8FA08B100F001FD824959
:1081B000032001F065FA08B100F0FAFC69460020DE
:1081C00001F06DFB08B100F0F3FC9DF800000228FF
:1081D0000CBF0124002402F0F7FA08B100F0E8FC1B
:1081E00002F0A2FB08B100F0E3FC00200090694619
:1081F000012002F035FC08B100F0DAFC684602F01C
:10820000ADFC08B100F0D4FC11208DF800000A226A
:108210006EA168467CDF08B100F0CAFC4FF46070C4
:1082200078DF08B100F0C4FC01A90020C1E900001A
:10823000ADF808004FF4C8714FF44872ADF804105F
:10824000ADF80620ADF80A1001A87ADF08B100F0F9
:10825000AFFC4E4D002105F1640002F04CFD08B169
:1082600000F0A6FCAC216846FFF7C8F802218DF8A3
:108270000010012206218DF803108DF8022005F56B
:10828000397103220591ADF810201FA82821012281
:10829000C1608DF87C2044F25062484981620261DD
:1082A00005F184066946304601F038FB08B100F05C
:1082B0007FFC0121304601F02EFBFFF7F8FDFFF7B0
:1082C0005CFE1C216846FFF799F8002100914FF4ED
:1082D00020324FF4702101920291032200218DF887
:1082E0000C20ADF80E108DF8101068463449354A50
:1082F0000591069202F062FE08B100F059FC01F00F
:108300008FFD08B100F054FC05216846FFF776F8B0
:1083100031208DF8000007219DF803008DF8011031
:1083200040F003008DF8030010229DF804008DF842
:10833000022040F003008DF80400684601F0DCFDE7
:1083400008B100F035FC204801F0C4FD08B100F090
:108350002FFCFFF708FF00BF38A1FFF707FF00223F
:108360004FF4803105F1140002F0D9F908B100F0A2
:108370001FFC2046FFF7E4FEFFF712FA0028FBD1AE
:1083800002F02FFAF8E70000582200201022002007
:1083900000250020F0320020AB7E0200957E020016
:1083A0005544332288776600080F0300D00E03007F
:1083B00094220020877D0200F380020043800200A7
:1083C000078002001F800200497D02004E6F726428
:1083D00069635F42505300004E6F72646963536576
:1083E0006D69636F6E647563746F72004E532D42D6
:1083F00050532D4558414D504C4500004661737413
:10840000206164766572746973696E6700000000AC
:10841000436F6E6E65637465640000004469736346
:108420006F6E6E6563746564000000004572617371
:108430006520626F6E64732100000000426C6F6FF4
:1084400064205072657373757265206578616D7014
:108450006C6520737461727465642E0024220020A0
:108460000000FEE72DE9F845054643F2020669B92A
:10847000694601F057FDB0421CBF002800F098FB90
:108480009DF80000C0F34000002844D10021284698
:1084900001F03BFD040018BF112C3CD0DFF8900325
:1084A000DFF89073DFF89083C71BFF083F040D2CA3
:1084B00047F0020A12D12A4641465046FFF74AF9D0
:1084C0001321284676DF30B302F03CFE02462B46ED
:1084D00008F174015046FFF743F91CE00B2C03D15F
:1084E0002A4608F1AC0104E0B44206D12A4608F558
:1084F00086715046FFF72EF90DE0204602F022FE6D
:1085000002462B4608F5AC7147F00100FFF728F949
:10851000204600F04DFBBDE8F185A3E710B5044609
:1085200000F0E6F8207818B96088BDE810407DE1D9
:1085300007280FD1DFF8F802DFF8F8220FF20C312C
:10854000801AC008000440F00100FFF700F9A0689D
:1085500000B167E110BD80B586B068460FF280318A
:108560001822FEF73FFF684600F010F807B000BD84
:1085700010B586B0044668461821FEF73FFFADF8F7
:108580000440684600F002F806B010BD2DE9FC4139
:108590000446DFF8A852217869B1022927D00629BC
:1085A0002ED0082918BF0A2975D0132976D014298E
:1085B00000F0908099E0A08801F0AEFD862818BFF9
:1085C00011280DD16869A1882A1D22F81010401CBD
:1085D000811000EB5172D210A0EBC200686182E002
:1085E00006281CBF0728132809D000284FE0207A4E
:1085F000012818BF002878D1A088FFF7B9FF74E0E0
:108600002878002871D18A498A4E8E1BF6083604D4
:1086100046F003070FF240213846FFF798F86878D4
:10862000B0B900236A46002101F010FD0400DFF814
:10863000108217D1BDF8002041463846FFF78AF86E
:10864000BDF8000001F0B2FC040007D10120687001
:10865000FEF7D4FBD0B90120287046E000F0A8FA5C
:1086600001206870052C04D10FF2082146F00100AA
:1086700005E0062C06D108F12C0146F00200FFF7B8
:1086800066F832E0002CE3D0204601E008282CD028
:1086900000F08EFA29E00120687026E000216C6964
:1086A000297069700026A119881001EB5072D21050
:1086B000281DA1EBC20230F812004FF6FF7398425A
:1086C00004D0291D21F81230FFF752FF761C082E26
:1086D000E9DB0AE000212970207B30B1A0680E2878
:1086E00018BF012801D1FFF736FFBDE8F381000074
:1086F0002DE9FE4307464E484E4E3A78DFF8449146
:10870000514C861BF608360446F0030846F0010576
:10871000142A46F0020600F27980DFE802F07E7E3D
:108720000B1C7E7E2E327E384C5058607E677E7EDB
:108730007E7E7100788802F0C7FD09F10C013A7A5B
:1087400051F822100091214659F820207B8840469C
:10875000FFF70EF861E0788802F0B6FD79890191A3
:1087600009F10C023B7A52F82310009104F1400108
:1087700059F820207B8840461AE000BF45A13046CA
:1087800028E000F04CF8024604F194012CE038692E
:1087900002F0D8FC0190787A09EB80010A6C009213
:1087A000387ABA8809EB800130468B6904F1C00140
:1087B000FEF7E9FF31E0BA8804F5867114E000F0B5
:1087C0002EF80346BA8804F59A71284613E000BFD4
:1087D00036A1404603B0BDE8F043FEF7B8BF00F055
:1087E0001EF8024604F5B271284611E0BB887A886B
:1087F00004F5C471304603B0BDE8F043FEF7B0BFE6
:1088000000F00DF8024604F5E27100E02CA13046BC
:1088100003B0BDE8F043FEF79DBFBDE8F783B8683D
:1088200002F090BCBDE8104000F0C2B9002174E62F
:10883000700F0300D00E030040FF0200AC250020A3
:1088400010160300642500204CFD0200417373657F
:108850007274696E672E0000417474656D7074697E
:108860006E6720746F20636C65616E20666C617347
:10887000682E0000546865726520617265206E6F15
:1088800020706565727320746F2064656C65746513
:108890002E000000466C6173682073746F7261670C
:1088A000652069732066756C6C000000416C6C205B
:1088B00070656572732064656C657465642E000074
:1088C000556E657870656374656420504D206576DB
:1088D000656E742049443A20307825782E000000D7
:1088E0000600000000000000000000000000000082
:1088F00000000000000000000870000A487002201C
:1089000070471CB50C460188102906D0112907D0E4
:10891000502909D0532917D013BD8088E08213BD98
:108920004FF6FF71E18213BDC1886289914204BF95
:10893000038A022B13D1216889B1123000F0FAFAB0
:10894000401E8041C00F04E0C088E188884206D103
:1089500002208DF80000694622682046904713BD2A
:108960002DE9F0410C46164620784FF0000808B17A
:108970004FF00108208994F9062000F05FF8711C7F
:1089800000F05AF894F90A20471CA089C0F30B00A4
:10899000F9B240EA0230314400F04EF83F18F8B224
:1089A0003118208A94F90E2000F048F800F044F8BD
:1089B000C7196078FFB2D8B1F519608A2946FFF768
:1089C0009BFF217D2954401C637DC1B2401C6B5428
:1089D000C2B2A17DA954401CE37DC1B2401C6B54BE
:1089E000C2B2217EA954C7197F1C48F00208FFB209
:1089F000A07858B1A08B94F91A2000F01FF8F11953
:108A000000F01AF8C71948F00408FFB2E07828B15E
:108A1000A07FF0557F1C48F00808FFB2207930B1E4
:108A2000208CF119FFF768FF48F010083F1886F80E
:108A30000080F8B2BDE8F08180B25DE7C0F30B00C2
:108A400040EA0230704778B50D4697B00446286872
:108A500020604FF6FF71E1820121E88820838DF8C4
:108A6000021041F61003ADF80030221D69460120C6
:108A7000A8DF00284BD122210EA8FEF7BFFC202141
:108A800001A8FEF7BBFC42F6352014210122ADF807
:108A90000400ADF808108DF810200EA909AA204690
:108AA000FFF75EFF09A90391ADF80A00A21D9DF82A
:108AB000111041F020018DF8111001A928798DF8CD
:108AC0001700A08800F064FA08BBE88809A9FFF73E
:108AD00013FF0646202101A8FEF790FC42F649212B
:108AE0009DF81100ADF8041040F0020009A98DF8BE
:108AF0001100ADF80860ADF80A60039104F10E02B0
:108B000068798DF8150001A9A08800F041FA18B025
:108B100070BD70B504468AB0E38A4FF6FF75AB426C
:108B200022D00025002605AAFFF71AFF0021002306
:108B3000024601A8ADF8002080E86A00E188ADF89F
:108B40000410022305A98DF80630ADF80850CDF8C1
:108B50000CD0049101A9E08AAEDF30B9BDF8001055
:108B6000914202D00C2000E008200AB070BD3EB552
:108B70000D4601A900220023C1E90023ADF806300B
:108B8000CDF808D00222ADF8042001AA4189C08A9C
:108B9000ADDF040005D1684600F0CCF9287020460E
:108BA0003EBD43F201408442F9D12B7000203EBD0E
:108BB0001FB5694600220023002481E81C000290B2
:108BC0006A46002144F2010002F02CFC1FBD0A7B22
:108BD000002A19BF49680022096801220271016058
:108BE000704710B5044620790028204602D000F0D6
:108BF00005F801E000F00EF8206810BD10B54A68D5
:108C000003688968D41AA14232BFCA1800210171D1
:108C1000026010BD10B58A68096803685C1AA24238
:108C200031BF9A1A0A4601210171026010BD38B5A0
:108C300005460C0018BF002D1DD0288850281AD1D9
:108C4000607CC0B1E8886189884204BF288A022814
:108C500011D1216879B105F1120000F067F9401EC9
:108C60008041C00F8DF800002046A988ADF80210A1
:108C700069462268904731BD70B50D468EB00446F6
:108C8000287B8DF80000202106A8FEF7B7FB012005
:108C900042F61922ADF81C00ADF81E00ADF8182000
:108CA000CDF820D0A21D9DF82510607C01F0EF01C9
:108CB00041EA001141F002018DF8251006A9A87BB8
:108CC0008DF82B00687B8DF82900A08800F060F9F2
:108CD00000BBA968E9B10DF1020000F033F90646C6
:108CE000142101A8FEF78AFB42F60810ADF8040033
:108CF00004F10E02E97B8DF80A10ADF80E600DF15B
:108D00000201ADF81260059101A9E08800F002FAB5
:108D100000E0E0810EB070BD38B504000B4618BF0E
:108D2000002B01D10E2032BD18682060FF20197978
:108D30006174207401218DF8021041F60F05ADF821
:108D40000050221D69460120A8DF18B919462046A7
:108D5000FFF792FF32BD0A4601461046AEDF70476C
:108D6000F3B5030091B0154608BF0E2056D0084653
:108D7000197C0024884250D0CDE900440121ADF88F
:108D80000010ADF8024012A901916A46D9884FF649
:108D9000FF70ACDF040040D1587C9DF84810197476
:108DA000002839D002A8002100220026002780E8F0
:108DB000C600D9880198ADF808100122BDF802104C
:108DC0008DF80A20ADF80C104FF6FE72294691423C
:108DD000CDF810D005901AD106A802F0ABFA002504
:108DE0000698854219D207A931F81560304602F07D
:108DF0007AFA022809D1002C314602A802D0FFF7E6
:108E0000AAFF02E0FFF7A7FF04466D1CE8E702A8EF
:108E1000FFF7A1FF044600E00824204613B0F0BD90
:108E2000002818BF002901D10E2070470278DE2AE1
:108E300001D10820704709684160DE2202704FF6B8
:108E4000FF7343800020704708B90E2070470278F6
:108E5000DE2A01D00820704741800020704702467A
:108E6000107A50B15088002166DF10B1112802D16C
:108E70000120107270475168084770477FB505465A
:108E80000C0018BF002D4AD02078DE2847D1A888D2
:108E90006188884204BF2046FFF7E1FF2888012847
:108EA00004D0112834D051280DD07FBD297A012952
:108EB00002BFA8886188884231D1012020722046F3
:108EC000FFF7CDFF7FBDA8886188884204BFA879DD
:108ED000022824D1A87B04281CBF062805281ED1FF
:108EE00068461021FEF78AFA02214FF4C0768DF809
:108EF0000010ADF80460A87B052804BF0021ADF880
:108F00000410A8886946B0DF48B1616888477FBD12
:108F1000A8886188884204BF4FF6FF7060807FBDDB
:108F200001460878497840EA0120704780B5FFF78C
:108F3000F7FF04E080B5FFF7F3FF0006400E00F0F6
:108F4000010002BD0A780270497841700220704722
:108F500038B504460D46284602F09CFA208065602C
:108F600031BD0000401E002204280A700FD8DFE83F
:108F700000F0030507090C00112007E0212202E0A0
:108F8000312003E012220A707047222008707047D7
:108F9000F8B50F4690B00546B878002806BF012105
:108FA0008DF80E108DF80E003888ADF80C001646BE
:108FB000032101A8FEF722FA787C01A9FFF7D2FF6E
:108FC000B87C0DF10501FFF7CDFF9DF80610FA7B87
:108FD00000F0F8F88DF8061001F0EF013A7C02B1CC
:108FE000012241EA02118DF8061001F0FE01387BE2
:108FF00000B1012001438DF8061001F0F901387D20
:10900000002814BF0220012041EA40018DF806101B
:1090100009A81C21FEF7F2F9787B10F0300F15D06B
:10902000032102A8FEF7EAF9F87C0DF10901FFF728
:1090300099FF9DF80A1001F0F90141F002018DF845
:109040000A10112002A98DF808000E91787B8DF886
:10905000240004A8B97B8DF825101421FEF7CEF961
:1090600003A901AA04910592B888ADF81C00B8685C
:1090700018B1FA88ADF818200890BC69002C3FD0D0
:1090800003216846FEF7BAF92088ADF82C00608805
:10909000ADF82E0061680A91CDF834D06946207B86
:1090A000FFF760FFB869407B0DF10101FFF75AFF40
:1090B000B869807A00B101209DF8021001F0F70133
:1090C00041EAC0018DF80210B869C07A00B10120F0
:1090D00001F0EF0141EA00118DF80210B869007A41
:1090E00000B1012001F0FE0100F066F8BA69907B42
:1090F000002814BF0220012041EA40018DF802102F
:10910000F86900B10C90334604AA09A92846AADFE1
:1091100011B0F0BD78B587B005460C46164614214F
:1091200002A8FEF76BF9A078002806BF01218DF890
:1091300006108DF806002188ADF8041001AA0292ED
:109140006946A079FFF70EFFE0790DF10101FFF705
:1091500009FF9DF80210E27800F034F88DF8021053
:1091600001F0EF01227902B1012241EA02118DF8EA
:10917000021001F0FE01607900B1012000F01CF83E
:10918000207ACDF80CD0002814BF0220012041EA3B
:1091900040018DF8021032466089ADF8100002A936
:1091A000A089ADF81200E089ADF81400206906909E
:1091B0002846ABDF08B070BD01438DF8021001F006
:1091C000F901704701F0F70102B1012241EAC20141
:1091D0007047FEE70870000A4870022070472DE9CA
:1091E000F04188B080460C0017461E4604BF0020A0
:1091F000FFF7DEFC380004BF0020FFF7D9FC0E9D0E
:1092000020216846FEF7FAF89DF80D107248008894
:10921000ADF8008041F002018DF80D10ADF804703A
:10922000ADF8067002948DF811602A466946FFF782
:10923000AFFE08B0BDE8F0812DE9FF4101218DF8B6
:109240000610064641F60A03DFF88C81ADF80430BB
:10925000424601A90120A8DF00283FD1328852B13F
:1092600008F1040000F0BAF8716842F62920FFF70F
:10927000B6FF002832D1328952B108F10C0000F05B
:10928000ADF8F16842F62420FFF7A9FF002825D1A8
:10929000328A52B108F1140000F0A0F8716942F668
:1092A0002520FFF79CFF002818D1328B52B108F11E
:1092B0001C0000F093F8F16942F62720FFF78FFFBA
:1092C00000280BD1328C52B108F1240000F086F84E
:1092D000716A42F62620FFF782FF002879D1328D8D
:1092E00052B108F12C0000F079F8F16A42F628201A
:1092F000FFF775FF00286CD1306B58B3D0E90051EF
:109300008DF80850D0E9002302A91204120E4A7009
:10931000D0E900522D0C8D70D0E90023120E8DF88B
:109320000B20D0E900230B7182688DF80D20826834
:10933000120A8A7108228068000CC87108F1340191
:10934000009102A996F83C3042F62320FFF747FF30
:1093500000283ED1706B58B108F13C0100910279B0
:10936000016896F83C3042F62A20FFF738FF80BBB0
:10937000B46B002C2CD004BF0020FFF719FC207820
:109380008DF808000DF109016088FFF723FF471CE5
:1093900002A8F9B20144A088FFF71CFFC71902A870
:1093A000F9B20144E088FFF715FFC719FFB2072F94
:1093B0001CBF0020FFF7FCFB08F1440000900722CF
:1093C00096F83C3002A942F65020FFF708FF00B99A
:1093D000002004B0BDE8F08128320020009096F80B
:1093E0003C307047042838BF02F0C8B800207047EE
:1093F0002DE9F8438046894602F0DEF8002404286F
:109400002FD2DFF8706300EB400175183718B9F1FF
:10941000000F14D0B9F1020F1AD01AD22C78687844
:1094200050B106F10F024FF4004106F15C0001F06B
:1094300076F908B986F80F80A878387409E006F143
:109440005C0001F084F9AC78387CA04209D100E0DE
:109450006C7820001CBFB169002902D0BDE8F4433C
:109460000847BDE8F18300780221C1E710B5DFF8B5
:109470000413887B48B10024204602F053F8641C92
:10948000042C06D2022CFAD0F6E7BDE8104002F018
:109490004DB810BD2DE9FC41B64E0446707B002747
:1094A00010B17773FFF7E2FF8DF8004021461729CE
:1094B0000191B14DDFF8C482B14C00F2BF80DFE80A
:1094C00001F00C1515282F3A4F5559625962B86FA3
:1094D0006F6F6F6F9EA2A8AFB8B8FFF7C7FF06F116
:1094E0001C0001F034F907460020A6E000F0ACF8BB
:1094F00040B100F0ACF89DF80000022814BF4046CF
:10950000A04821E002F00AF89DF8000002281AD0D5
:109510000FE000F099F8A0B100F099F89A4813E034
:1095200000F092F818B100F092F840460CE001F01B
:10953000F5FF284608E000F087F810B100F087F842
:1095400001E000F07EF8204600214FF47A720023FB
:109550009DF80050357302F06DF80146002219E0C5
:10956000002001F0F5FF0620307308E000F069F8F4
:10957000072062E001217173012001F0E9FF002260
:1095800040F6CD4106E00120707301F0E1FF0022BA
:109590004FF4804106F11C0001F0C1F807464DE090
:1095A00006F13C0001F0D3F807460198D0F1110014
:1095B0001FD0F7B9012817D980B2C8214843C11775
:1095C000C90341EA5041C00310F5FA7041F10001AE
:1095D0004FF47A72002302F02DF80146002206F1C2
:1095E0003C0001F09CF80746022001F097FF0120A3
:1095F00003E0022001F096FF0020B0731EE0FFF7A9
:1096000035FF122019E0FFF731FF00F01AF81320A0
:1096100013E0FFF72BFF012001F080FF14200CE086
:10962000FFF724FF00F00DF8012001F077FF15206F
:1096300003E001F084FF9DF8000030733846BDE878
:10964000F681002001F06ABF002001F05DBF00201C
:1096500001F068BF4748017DCA0744BF007BFFF7A0
:1096600019BF7047022001F073BF80B5414A137DD6
:109670000021DA0702D5FFF70DFF0146084602BDBB
:1096800070B505463B48002445618161A8071ED599
:10969000002601220121304600F02FF8761C042E0E
:1096A000044601D2002CF4D08CB940F26662042149
:1096B0003FA002F0DBF804464CB902F00CF9044676
:1096C0002CB9324A39A0002101F016F80446E80707
:1096D00011D5012001F084FF6CB92D4A31A0002181
:1096E00001F00AF8044634B9DFF8A8202EA00121C1
:1096F00001F002F80446204670BD30B50346002054
:10970000042B15D21B4C03EB4305012A2C4405D135
:10971000012908BF03F10E0204D0002231B1022951
:1097200002D005D2227030BD627030BDA27030BD53
:10973000072030BD10B5042819D2002914BF032416
:10974000002401F049FF1F2892BF134900F01F00B9
:10975000124951F8202022F4403241F8202051F8DB
:10976000202042EA044241F82020002010BD0620BB
:1097700010BD0000C8300020F401C800F401D0077B
:10978000F4016400F4018403F40190016794020081
:10979000559602006596020000070050000A00502E
:1097A0000121C7E7E43000200431002024310020EB
:1097B0000B000300F19302000C000300F193020080
:1097C00018000300F193020019000300F193020056
:1097D00080B5012200F05AF8002818BF07280DD1E3
:1097E00000F058F8002818BF072807D10A220021E6
:1097F00000F04DF8002814BF0728002002BD80B5F6
:109800000020FFF7CDFF002818BF062806D1012051
:10981000FFF7C6FF002814BF0628002002BD10B5C0
:109820002C4C014609886068102902D011291FD0EC
:1098300010BDC8B901220021FFF75FFF002818BF43
:1098400007280CD100F026F8002818BF072806D1F9
:10985000042200F01BF8002818BF072804D00028B5
:109860001EBF2168002988476068401C606010BDE9
:10987000401E606009D1FFF7ABFF00281CBF2168C4
:10988000002902D0BDE81040084710BD0221002089
:10989000FFF733BF072202210120FFF72EBF70B56B
:1098A0000C4E0C460025306064B10120FFF79AFD94
:1098B00008B1022003E0FFF795FD10B10B202070E6
:1098C00000E02570706810B9FFF782FF0546284652
:1098D00070BD000004350020417939B100F25221F9
:1098E000087818B9887810B10120704700207047B7
:1098F00070B5044604F50D760D46B1883068012236
:1099000002F06CFA00B1057004F13C02314604F13A
:10991000540072DF70BD80F8301070472DE9F041BF
:1099200004465FEA010814BF002C0E2068D008F13D
:109930007A000178012902BF807F012807205FD0CB
:109940000020A07008F17801201D2C22FDF74AFDAF
:1099500004F124060020307304F50D7508F1A4000D
:1099600004F15007016831614FF6FF714068706182
:10997000A9822D61072104F24A20FDF73DFB2078E2
:1099800008B9FF21397104F15500286004F50E7201
:10999000317801290CBFEE201F20A88004F1550169
:1099A000404602F04BF958BB18F13C0010D004F2CD
:1099B0004311A96004F51072307801280CBFEE2025
:1099C0001F20A88108F13C0002F038F918B117E017
:1099D000A8600021A9810120787004F13C02A169EE
:1099E000B18430760021F1610020387004F1540018
:1099F00061693162002172DF10B9012020700020FE
:109A0000BDE8F081006801281CBF0228042801D1AC
:109A100001207047002070472DE9F84307460D46A6
:109A2000387808B90820E8E007F24A28BD70072115
:109A30004046FDF7E1FAB87907F5117607F12404FD
:109A400010B1B878012806D0F87968B1B878012843
:109A500018BF022808D1206928B10121717308209C
:109A60002169884700E070730021781890F84B0254
:109A7000002840F0C480491C0629F6D36D1E032D32
:109A800018D8DFE805F002090F13BA7922B121785E
:109A900011B938B101200EE0F97900291CBF002866
:109AA000022008D1387A08B1032004E0787A08B19E
:109AB000042000E00020B870206980B1B878032845
:109AC00018BF04280BD1787948B1B07B38B9002190
:109AD00031740120F07307202169884701E00020DC
:109AE000F073182107F13C00FDF788FC0120207677
:109AF00007F1500507F12C00FFF784FF002819BF7C
:109B0000A068687001216970207848B107F12C00C5
:109B1000FFF778FF002819BF6068A8700121A970BD
:109B20000020287007F50D79B978042953D8DFE8AB
:109B300001F051030F2137000120607300213160D3
:109B4000216280200221C4F81C802176A08442E09A
:109B5000022120786173002819BF07212176032094
:109B600020763869A08400213160C4F81C80F86830
:109B7000206230E078692062B9692078A1840028E9
:109B800019BF06212176012020763846FFF7A4FE72
:109B900020B100F036F8F0B9052014E0032115E0FB
:109BA000F8692062396A2078A184002819BF06214B
:109BB0002176012020763846FFF78EFE28B100F08E
:109BC00020F840B90620607301E004216173C6F8F3
:109BD000009000E06073B87850B1316807F13C0242
:109BE00007F1540072DF40B9217B287973DF20B977
:109BF000216909B1607B88470020BDE8F28301201C
:109C00003CE7022028700421384671E610B502882E
:109C10000C46102A04F5127104D0112A08D0262A05
:109C200011D010BDC37B012B26D18088088010BDC8
:109C300000228A7280880988884204BF2279002A1B
:109C40001AD101210DE0007A012818BF022813D192
:109C5000A078401C052190FBF1F101EB8101401A35
:109C6000C1B22046FFF7D8FE00281CBFA16B002917
:109C700002D0BDE81040084710BD704710B504463B
:109C800004F150010122087974DF04F2522000230C
:109C9000027083700B7006212046FFF729FE48B939
:109CA000A1782046FFF7B8FE00281EBFA16B00294F
:109CB0008847002010BDFEE770B504460025DFF898
:109CC000246506E006F11001204651F82520904752
:109CD0006D1CF0788542F5DB70BD10B5DFF80445EA
:109CE0000023002204F10C01201D00F0AFF9002830
:109CF00016BF052801200020607010BDF8B504468D
:109D000086B0A088DFF8DC5402F093F90127608068
:109D10004FF6FF762278A968A878083A032A49D82E
:109D2000DFE802F0021D2A4EAB886878627A4AB9F1
:109D300051B1E268914207D10020A860A188A980B2
:109D4000E06038E0012A36D1002834D0A08898425B
:109D500004BF217A06292ED1FFF7BFFF2BE0607ADE
:109D600048BB41B3E068814225D1E8680021401E2C
:109D7000A960E860E1601EE0A0B1304602F0ECFBB3
:109D8000B0420FD1304602F0E9FBB0420AD100F0F8
:109D900057F90C2100F026F82046FFF78DFF00F060
:109DA0004DF90027687828B1A088A988884208BFA3
:109DB000FFF793FF17B12046FFF77EFF07B0F0BD16
:109DC0000028F8D000F03CF90D2100F00BF8A06855
:109DD0000290207B8DF80C002046FFF76DFF00F00D
:109DE0002DF9EBE78DF80010ADF80460ADF80260D6
:109DF0007047002818BFFFF75FBF70475CE75BE75D
:109E000010B500F0CEF850B1204602F015F820460B
:109E100002F038FD2046BDE8104002F0B5BF10BD8D
:109E200070B502F086FADFF8C013DFF8C0430FF216
:109E3000D035DFF8BC630C1BE408240444F00104B3
:109E400028B101F07FF903462A46314630E003F09D
:109E5000B5F930B101F076F903462A4606F12C0136
:109E600026E002F0ECFC30B101F06CF903462A4622
:109E700006F158011CE003F094FC30B101F062F9E6
:109E800003462A4606F1840112E002F02AFF30B1AF
:109E900001F058F903462A4606F1B00108E003F044
:109EA00044FE50B101F04EF903462A4606F1DC01AA
:109EB0002046FDF755FC032070BDDFF828034FF660
:109EC000FF710022818082600021012241700270B6
:109ED000002070BDDFF80C23117809B90820704705
:109EE000D178032901DB0420704702EB8103491C70
:109EF0001861D17000207047DFF8E822117800293E
:109F000018BF02F009BD0820704780B5DFF8D432D1
:109F10001A780AB9082002BD02F026FD082808BFF9
:109F2000112002BD38B50C46DFF8B8120546087896
:109F300008B9082032BD0CB90E2032BD284601F008
:109F4000D2F910B943F2020032BD217802280CBFC9
:109F50000120002001F0FE0108432070284602F095
:109F600010F84FF6FF718842217814BF01200020BD
:109F700001F0F70141EAC0012170284601F0C2F961
:109F8000217801F0FD0141EA40012170284601F0ED
:109F9000C6F9217801F0FB0141EA8001217000201F
:109FA00032BDDFF840120446087870478D4A1178B8
:109FB000002918BF02F06BB80820704770B5894DB2
:109FC000287886B008B9082015E00120A8704FF65F
:109FD000FF74204602F0C0FAA042064615D100F0F8
:109FE0002FF80C218DF80010ADF80440ADF80240B8
:109FF00000F024F8002006B070BD304602F047F8AB
:10A0000048B9304602F0A8FA0646A642F2D02878AF
:10A010000028F2D1082001F095F803467248734CED
:10A0200079A27449009600F002F80320E3E7001BD0
:10A03000C008000440F00100FDF79ABB68463BE60B
:10A040000020A87018216846FDF7D8B92DE9F34F14
:10A050006449087885B014461D4608B9082053E0C5
:10A060004FF6FF780427404602F076FA002101916E
:10A07000ADF800700DF1040767A18346D1E9002314
:10A08000CDE90223039700F042F8002707284FF09C
:10A09000FF394646C24610D1052035E00198B84246
:10A0A00024BF07465E4648453CBF8146DA465846CF
:10A0B00002F052FA834600F02AF80028EED0052874
:10A0C000F5D0C34511D14645059916BFC2450520B7
:10A0D000002001B10E80069901B10F600CB1A4F807
:10A0E00000A08DB1C5F800900EE0404C01F02AF8B8
:10A0F00002463D484049001BC00800045B4640F052
:10A100000100FDF72DFB032007B0BDE8F08F6B4683
:10A1100002AA062102F04CB970B5324E05463078DD
:10A1200088B008B908205BE03DA0D0E90023CDE964
:10A130000623707808B9FFF7D0FD707808B1B068D1
:10A1400008B111244BE0B288F06895421ED110B3DB
:10A1500018216846FDF752F908208DF80000002408
:10A16000284601F066FFADF8020006219DF81000B8
:10A170008DF8081000F0FE008DF81000ADF80450C6
:10A180008DF809400394FFF759FF28E010F1010F03
:10A1900008BF132423D0401CF06006F1080206A972
:10A1A000284602F06AF9040019D0F1680020491E1F
:10A1B000112C1CBF862C072CB060F1600FD02046FC
:10A1C00000F0C0FF02460848084C0C49001BC008BC
:10A1D00000042B4640F00100FDF7C2FA032420469C
:10A1E00008B070BD54340020680F0300D00E030087
:10A1F00088080300AC190300F4190300C01A030017
:10A20000706D5F696E697400706D5F706565727303
:10A210005F64656C6574650000000000000000006C
:10A22000010006006034002080B503F08EFD04219B
:10A230000348FDF7CBFB03490120487101BD000035
:10A24000F01E030024250020000000000000000094
:10A25000012200F01F01DFF8143504E0012200F0B4
:10A260001F01DFF80C358A40400943F82020704771
:10A27000012200F01F01DFF8FC34F4E7490102007D
:10A2800007D5DFF8F42400F00F00104400F8041C98
:10A290007047DFF8E8341954704728B10FF22051A5
:10A2A000800141F001010847704710B5DFF8D01474
:10A2B000DFF8D0444FF4003008604FF48031DFF80D
:10A2C000C804016401602F2001212160FFF7E5FF30
:10A2D000012161600020DFF8B444A06000F0B8F80C
:10A2E0000020A07010BD1420B8E72DE9F84FDFF86A
:10A2F0009C74DFF89C548046786800904FF0000909
:10A3000000E07E60B8F1000F7DD04646D6F81C8094
:10A3100031E0A346E469002C73D08442F9D1A3450F
:10A3200002BFC8697860002808D1DFF868140120EE
:10A3300008600022F870BA6000F08AF82168E069CD
:10A34000CBF81C0010B1026889180160786882455A
:10A3500057D04FF0010954E0307C002853D1886871
:10A360007060CA68B2600869F0604969B161F878E4
:10A3700008B100217160B8687168DFF81C340A1AEE
:10A3800022F07F429A4203D2B0688218326008E01D
:10A39000401AB16820F07F40884234BF081A00207C
:10A3A0003060002171600020B06001213174F061E3
:10A3B00079680029A5D008683268904203D3801AD2
:10A3C0000860F1619DE70846036893423AD201466E
:10A3D000C069D21A0028F7D136E0B9F1000F02BFE8
:10A3E00078680099884214BF01200020BDE8F28FF0
:10A3F000786800281FBF00210174C0697860F7D118
:10A4000001E000213174287869788842E5D002465D
:10A41000144618202B1D44431919521CAB78D0B296
:10A42000984208BF00222A700A784868012A064626
:10A4300092D00CD3032ADBD009D279688B468A46A6
:10A440005C4668E79B1A03603260F061CE6159E7B1
:10A450002F2022E72DE9F843DFF830436068002819
:10A4600039D00568DFF834633768D4F80880A7EB83
:10A47000080020F07F4000F10309A07890B9DFF8D0
:10A4800020034FF48031016401601120FFF7F0FEDA
:10A490001120FFF7DDFEC34901200860FFF7D8FF58
:10A4A0000120A0704D4538BF4D46454425F07F45FD
:10A4B000F563ED1B3068C71B27F07F4725F07F450C
:10A4C000FF1CBD420AD23068F063FFF7C1FFBDE850
:10A4D000F2431120C2E6BDE8F143E6E6BDE8F183B0
:10A4E0002DE9F041A94C94F800C06378A168606838
:10A4F000002200269C450F46804612D00CF1010C2C
:10A500005FFA8CF3022B08BF944604F10C035FFA48
:10A510008CFE53F82E30591821F07F41A1600121A3
:10A5200001E00023002184F800C0F9B114E05B1AB7
:10A530008E190021CCF800108646DCF81C00DCF8EF
:10A540000C1049B1F519CCF81C2025F07F45CCF84A
:10A550000450CCF80810724638B18446DCF800107C
:10A560008B42E4D2CB1ACCF8003001266060104652
:10A57000FFF7BBFE00280EBF002E4046FFF76AFF24
:10A580000020E070BDE8F08110B581494A788C78F0
:10A59000521CD3B2A34208BF00220C78D3B2A3420C
:10A5A00001D1002010BD027018204A78424388185B
:10A5B000001D10BD2DE9FC41804600240D461646C5
:10A5C0001F4600F03CF80DF10100FFF7DDFF08B970
:10A5D00004240BE001210170C0F804806F4A116867
:10A5E0008160C5600661476100F024F89DF80000B5
:10A5F000FDF73DFB0CB9FFF776FE2046BDE8F6817E
:10A600007CB5054600240E4600F019F80DF1010056
:10A61000FFF7BAFF08B9042403E00670456000F0B4
:10A6200009F89DF80000FDF722FB0CB9FFF75BFE6F
:10A63000204676BD9DF801005549487070478DF859
:10A6400000406846FDF7F6BAF8B557484F4D00216F
:10A65000016441648164C164016041606C6844B319
:10A660004E480068AF68C71B002627F07F47206868
:10A6700087420CD33F1A86192146E469087C20B131
:10A68000002288690A7449698847002CEFD16878EC
:10A690002978814201BF401C6870C0B2022804BF03
:10A6A00000206870687805EB8001CE60BDE8F1405D
:10A6B00019E6F1BD14E738B5FFF7F7FD3448334C20
:10A6C00000210B2301808370616021706170142070
:10A6D000FFF7CEFD06211420FFF7D0FD1420FFF771
:10A6E000B7FD2E4D0020686006211120FFF7C6FD42
:10A6F0002868A060002032BD10B5254CA37843B176
:10A70000130018BF002801D1072010BD0368187C72
:10A7100008B1082010BD187459745A6110BD10B5E5
:10A720001B4C1346A278002A18BF002805D0052923
:10A7300001D2072010BD42690AB9082010BD427C31
:10A74000BDE81040012A0CBF0A46002232E7104A39
:10A750009178002918BF002801D0416909B9082063
:10A7600070470021017402214AE7000000E100E087
:10A7700000E200E080E200E018ED00E000E400E02C
:10A7800080E100E0041001400813014088340020FB
:10A79000282C002008100140FFFF7F000415014015
:10A7A00004130140001001400011014000000000AE
:10A7B0000000000000000000000000000000000099
:10A7C0000338FDD87047000080B51548002141705E
:10A7D0000161BFF35F8F001D13A103F01AFB00207E
:10A7E00002BD80B500218DF800106846FDF722FA01
:10A7F000F1EE100A20F09F00E1EE100ABFF35F8F28
:10A800000849402008609DF80000FDF730FA00F08C
:10A81000F0F808B141DF01BD20BF40BF20BF01BD3E
:10A82000D834002084E200E03C1C0300541C0300E8
:10A83000040000002028014604DA6F48C84000F0F8
:10A8400001007047402808DA0122A1F1200012FA25
:10A8500000F018BF0120C0B270470120704700000F
:10A860001FB5044674A1684603F0D3FA02E06846B7
:10A8700003F0D3FA029A3AB1516812682046904721
:10A880000028F4D1112000E0002004B010BD000029
:10A890001FB504466BA1684603F0BBFA06E0516899
:10A8A000126820469047684603F0B7FA029A002AD9
:10A8B000F5D11FBD80B51620FFF7BCFF28B942F2C5
:10A8C0000100BDE80240FEF773B94C48007840092A
:10A8D000082803D2EC21C140C80702D442F202008A
:10A8E000EFE74749886820B10A6842F480020A60AD
:10A8F00001BD444913E080B51620FFF79BFF28B93E
:10A90000BDE8024042F20100FEF752B93C498868B6
:10A9100020B10A6822F480020A6001BD3A494FF46E
:10A920008000086001BD00003EB5384D287808B1B0
:10A9300008203EBD0120A8700020FFF791FF1128DC
:10A940001FD00020FFF7A4FF44A10A680192002352
:10A950008DF800306846FDF76DF92D4901A810DF2C
:10A960000446401E8041C00F00F033F80CB1204671
:10A970003EBD0020A8706870FFF79CFF0120FFF724
:10A9800087FF00203EBD38B5204D287808B9082043
:10A9900032BD0120A870FFF763FF112817D00220F5
:10A9A000FFF776FF00208DF800006846FDF742F9BA
:10A9B00011DF0446002000F00CF80CB1204632BD37
:10A9C0000020A870FFF797FF0320FFF761FF00202A
:10A9D00032BD28709DF80000FDF749B90B49887811
:10A9E00008B9082070470878002818BFFFF7CBBFC8
:10A9F0009AE7064800787047FC06FFBD16E400E0C1
:10AA0000EC34002000E100E080E100E0343500207B
:10AA100025B40200E0B500BF0DA1684603F0F9F9C6
:10AA200005E0486809688847684603F0F6F9029926
:10AA30000029F6D107BDEDE7081B0300181B030032
:10AA400008000000181B0300281B0300080000007A
:10AA5000281B0300381B030008000000010000074A
:10AA60007FB50C0008BF0E205FD06B496B4E216094
:10AA70006A4600210023002582E82A0001210623DE
:10AA80008DF800008DF80210ADF804306946226898
:10AA9000634D202069DF63494D1BED082D0445F00F
:10AAA000010528B100F04EFB0246314600F046F8A1
:10AAB00000F03DF80121ADF802208DF80110694643
:10AAC0002268402069DF30B100F03CFB024606F10D
:10AAD000480100F033F800F034F8012069DF30B1AC
:10AAE00000F030FB024606F1940100F027F800F078
:10AAF0001EF84FF4B061009169462268A12069DF19
:10AB000030B100F01FFB024606F1E00100F016F83C
:10AB100000F017F8A02069DF30B100F013FB024607
:10AB200006F59A7100F00AF8002004B070BD68467E
:10AB300000210022002380E80E0070472846FCF721
:10AB400009BE684600210022002380E80E008DF82F
:10AB50000010694622687047000000002DE9F843A4
:10AB60000646304937682E4D60DF04464D1BED0820
:10AB700030682D0487421AD245F00208DFF8A89009
:10AB800049464046FCF7E3FD33683A4609F1300197
:10AB90004046FCF7E5FD254802683068920202F164
:10ABA0000052121A09F164014046FCF7D3FD1CB9AA
:10ABB0001F490120087008E0204600F0C3FA024651
:10ABC0001CA145F00100FCF7C5FD2046BDE8F2835D
:10ABD000174900B5087891B080B903E0052818BF7F
:10ABE000FDF7E6FF11B000BD5168126804A8904758
:10ABF00001A803F012F9039A002AF5D13420ADF828
:10AC00000000694604A861DF0028E7D111A101A86E
:10AC100003F0FFF8EFE7000010220020D40003004B
:10AC2000D00E0300200F0300E81003000C010010F9
:10AC30003735002073645F626C655F656E61626CBE
:10AC40006528292072657475726E65642025732EDF
:10AC500000000000441B0300641B03000800000008
:10AC60001721018000231B224180037143718271EF
:10AC7000C2717047F8B500BF96A384B0D3E90067EE
:10AC8000CDE90267ADF80810ADF80A10054600BF1F
:10AC90008EA16A46D1E90067CDE9006702A990DF7D
:10ACA000040025D000F04EFA03467D487D4E7E4FCD
:10ACB000861BF608360446F001062A463946304619
:10ACC000FCF74EFDBDF80000BDF80230002808BFBB
:10ACD000002B05D0024607F14C013046FCF740FD41
:10ACE000BDF8042022B107F18C013046FCF732FD9B
:10ACF000204605B0F0BD80B508B90E2002BD016147
:10AD00001B231721018041800371801DFFF7A8FFDD
:10AD1000002002BD02469088002800D07047F0B5A0
:10AD20008BB05F4B5F4C1088604D1C1BE408240403
:10AD3000102844F001040E460BD011282ED02328F1
:10AD400000F09180242870D03A282BD0552849D083
:10AD500093E0B71D3079B871D17B012904D0022965
:10AD600004D17088388001E03188398039887A8848
:10AD70008A420ED20020A5DF10B90120787108E0C8
:10AD8000112802D10120387103E000F0DBF900F056
:10AD90008FF8B979F87988426FD26BE0B01DFFF770
:10ADA0005FFF6AE0B71D50893988884228BF08468E
:10ADB000788078881728B8BF1720788030690028F5
:10ADC0001CBF7879002809D044A100F076F86946C4
:10ADD0007888ADF8040030463269904700207871D9
:10ADE00038714AE0D088B71D17283988B8BF1720B6
:10ADF000884228BF0846788000203871B5DF38B116
:10AE000000F0A0F9024605F134012046FCF7A2FC4F
:10AE10007879002831D1306900282ED031A100F096
:10AE20004CF87888ADF8040018E0111D68462C2213
:10AE3000FCF7D8FABDF80010BDF8042006EBC107F6
:10AE40007A73D6F81000C0B128A0D0E90023CDE96C
:10AE50000023ADF80210787B8DF804006946326952
:10AE60003046904709E0B01D12898179D2B29142F3
:10AE700088BF11460020FFF7FDFEB07A68B1F18867
:10AE80000020A5DF18B90121B072F17205E0112888
:10AE900003D000F057F900F00BF80BB0F0BD000044
:10AEA000F00E0300D00E0300180D0300E816030097
:10AEB000024629462046FCF74DBC0020D1E900237C
:10AEC000CDE90023ADF8020070470000000000004B
:10AED000000000000000000000000000770A0000F1
:10AEE00000000000770A0000000000007ADA00008D
:10AEF0000000000090490A89824202D101F1080055
:10AF0000704700207047F0B586881746BC19B242DA
:10AF100028BF3746F51BC2881F4607EB020C934239
:10AF200028BF1746D61B4A8803889A4224BF408808
:10AF3000904209D38888A84228BF844204D3C88895
:10AF4000B04228BF844501D20020F0BD0120F0BDF1
:10AF50007A498969002918BF0847704738B50446FF
:10AF600080B2FFF7C7FF020027D0744D107A297B0B
:10AF700088420DD202F10A01A0B275DF20B111287A
:10AF80001BD0FFF7E5FF31BD107A401C107231BDB8
:10AF900000211172287C38B13B21A0B276DF002855
:10AFA0001CBF0828FFF7D4FF696931B100228DF872
:10AFB0000020ADF802406846884731BD70B50400F6
:10AFC00001D10E2070BD5D4E304621461C22FCF79B
:10AFD00009FA594D35602068A8B17ADFB8B92168FF
:10AFE00028460822FCF7FEF94FF6FF7005F11C0118
:10AFF0002881E96005F10C00514A0021FFF77CFB34
:10B0000028B1032070BD28467BDF0028ECD070BD3E
:10B0100080B502460B464949587A58B9187A002833
:10B0200058680CBF49688968FFF779FB68B1FFF77A
:10B030008FFF01BD00201872496931B101238DF8DD
:10B040000030ADF802206846884701BD2DE9F8437D
:10B0500006463A4F3088102840F2F3184FF6FF7535
:10B0600006D0112829D0122850D0502832D061E0C3
:10B07000F07BB6F8049001285CD12846FFF73AFF30
:10B08000040008BF04203ED0A4F8009000202072E5
:10B09000082204F10A002849FCF7A4F92B4642468D
:10B0A00006F1100104F10A00FFF72DFF6072F88924
:10B0B00000283FD12146484639E0B088FFF71AFF03
:10B0C000040037D06068FFF742FB08B1FFF740FF8C
:10B0D00025802FE0F088F989884204BF308A022851
:10B0E00028D1B5882846FFF705FF040022D006F1D5
:10B0F0001200FDF71BFF10B12146284617E06068DB
:10B10000FFF725FBB0B1BDE8F24321E7B788384629
:10B11000FFF7F0FE04000DD02B46424606F1080171
:10B1200004F10A00FFF7EFFE607221463846BDE8E1
:10B13000F4436DE7BDE8F183743200203834002019
:10B140005DAF020080B500F003F800B90FA002BDAA
:10B1500010B50D4901F5947200E01A4691420FD2E4
:10B16000531ADB1003EBD3735B1001EBC3031C68B2
:10B17000A042F2D3844238BF03F10801EED301E0CC
:10B18000002010BD586810BD18050300556E6B6E89
:10B190006F776E206572726F7220636F6465000056
:10B1A00033B58BB00021044600910C9880B1002586
:10B1B00029460CA802F064FE38B10099684600EBFD
:10B1C000410295800098401C00906D1C142DEFD317
:10B1D000204669462C22FCF705F90DB030BD01462A
:10B1E0008A4802F04DBE2DE9F84306468CB03088FF
:10B1F000B488864D102804D0112838D01A283AD0A7
:10B2000057E0AA68D243009268466968FCF7B4F830
:10B21000009901A8FFF7C4FF4FF000090EE002A853
:10B22000002730F81980281D414600EB870002F006
:10B2300018FE7F1C1D2FF6D309F1010901988145E5
:10B24000EDD3142C03DB0420FDF7B2FC31E02146E2
:10B2500005F1080002F0EFFD2146281D02F0EBFD8C
:10B26000F07B012825D0214605F10C0014E0214691
:10B2700005F108001BE0307A000902280FDBCCBF83
:10B2800001260026214605F1100002F0D4FD002E13
:10B29000214605F114000AD002F0CDFD09E0214657
:10B2A00005F1100002F0DDFD214605F1140002F069
:10B2B000D8FD0DB0BDE8F08301461429BCBF544849
:10B2C00002F0DEBD0020704738B500F026F80025FA
:10B2D00038B121464F4802F0D3FD002814BF0225A3
:10B2E0000125284632BD38B500F017F8002538B1E1
:10B2F0002146494802F0C4FD002814BF022501255B
:10B30000284632BD10B500F008F828B12146BDE846
:10B310001040424802F0B4BD10BD0446CCE710B561
:10B32000FFF7FBFF28B12146BDE810403C4802F082
:10B33000A7BD10BD3549496832E780B518213348AB
:10B3400002F0A7FD182818BFC0B202BD38B50446E8
:10B350000D462846FFF743FF68B12046FFF7ACFFD4
:10B3600048B12A4800EB8502214602F11800BDE8E9
:10B37000344002F085BD002032BD70B504460D4654
:10B3800016462846FFF72BFF98B12046FFF794FF9B
:10B3900078B11E48002E00EB8500214604D0BDE8A0
:10B3A0007040183002F047BDBDE87040183002F020
:10B3B00058BD70BDF1B50C462000154601D10020E6
:10B3C000F2BD0098002660B100273946684602F0B9
:10B3D00057FD18B12946B8B2A047761C7F1C142F20
:10B3E000F3D33046F2BD70B504460D461646FFF75E
:10B3F000F6FE40B1054800EB8403324698692946C1
:10B40000BDE87040D6E770BD000000004431002068
:10B4100048310020503100204C31002054310020B0
:10B420005831002010B572B6FCF7F9FAFCF7B8F9FC
:10B430000028FBD11048114C1149041BE4082404D6
:10B4400044F00100FCF783F90E480168CA0700D5F3
:10B4500000BE0D4944F00200FCF779F9BFF34F8FAD
:10B460000A490B480A6802F4E06202430A60BFF32B
:10B470004F8F00BFFDE700BF080F0300D00E030091
:10B48000AC1D0300F0ED00E0B81D03000CED00E082
:10B490000400FA0500F1010310F8011B11B110F8C6
:10B4A000011BFBE7C01A704770B51F28049D059C5F
:10B4B00041EA420192BF4FF0A04600F01F00374E14
:10B4C00041EA830141EA052106EB800041EA04419B
:10B4D000C0F8001770BD10B5314A324B012449B98C
:10B4E0001F2892BF191D00F01F00111D04FA00F063
:10B4F000086010BD1F2894BF1A4600F01F0004FA10
:10B5000000F0106010BD000048A1085C1F2892BF29
:10B51000254900F01F00254938E0000043A2105CD7
:10B520000021D8E741A2105C0121D4E710B5002426
:10B530002046FFF7F7FF641C042CF9D310BD10B5AB
:10B5400000242046FFF7EAFF641C042CF9D310BD49
:10B5500036A1085C1F2892BF4FF0A04100F01F00E9
:10B560000E4901F2045101230A6803FA00F020EAAF
:10B5700002034B6010408860704700002CA1085CFB
:10B580001F2892BF0A4900F01F000A490968C140FC
:10B5900001F00101481E8041C00F704700030050B8
:10B5A0000808005008050050040500500408005029
:10B5B000100500501008005010B501464FF0FF3044
:10B5C0005FF000021AA39C5C8C4203D0521C042A38
:10B5D000F9D310BD104610BD15A1085C70470000DE
:10B5E000FEB50446E00710D55FF000050FA6002762
:10B5F000019700970023705D01220121FFF754FF9E
:10B600006D1C042DF4D3FFF791FFA0070DD5002486
:10B6100007A500200190002100910323285D00224E
:10B62000FFF742FF641C042CF3D3F7BD0D0E0F107F
:10B630000B0C1819D3BBD9B1B2F5803F5BD2022AEB
:10B640001ED98C46B1FBF2F102FB11C31B0443EA85
:10B650001043B3FBF2FC02FB1C3380B240EA03430D
:10B66000B3FBF2F002FB103240EA0C4000237047BB
:10B67000022A05D98446B0FBF2F002FB10C27047E3
:10B680004AB105D100F0010249085FEA3000704775
:10B6900000220023704702F023BC0B0002000021AF
:10B6A00000207047F7D3002200237047904271EBCF
:10B6B000030CF2D370B5B1FA81F4B3FA83F52C1B05
:10B6C000A340C4F1200532FA05F63343A2405FF0EF
:10B6D0000046E64002E05B085FEA3202841A71EB42
:10B6E000030524BF204629467641F4D302000B000F
:10B6F0003000002170BD70B5B1FA81F4B2FA82F564
:10B70000C4F120046419B4F12006DAD3B2405FF02A
:10B710000044F440002502E052085FEA3303C61AF1
:10B7200071EB020E24BF3046714664416D41F3D384
:10B7300002000B002000290070BDFEE72DE9FE4647
:10B7400000266D490A78F0B290424AD20F46F1B213
:10B75000B86900EBC1040120257800212A4602F0D7
:10B76000C1FBCDE90001DDE90023D7E90401024076
:10B770000B4008BF002A32D0DDE9002320EA020294
:10B7800021EA0303C7E90423284602F05CFD824650
:10B79000D7E902012578CDE900012A4601200021E0
:10B7A00002F0A0FBDDE9002302EA000703EA010939
:10B7B000504600212A4602F095FB894508BF874282
:10B7C0000DD167786268012F14BF0020012080EA44
:10B7D0000A00411E8941C90F0AB128469047761CCC
:10B7E000AFE7BDE8F7862DE9F84380460120002148
:10B7F000424602F077FB0446DFF8FC900D4609F163
:10B800002000FEF7A4FF70BBD9E90401E643EF4333
:10B8100000EA040211EA050308BF002A1FD14046CE
:10B8200002F011FDD9E90223002819BF42EA040001
:10B8300043EA050102EA060003EA0701C9E9020139
:10B840000022D9E9040120432943C9E90401D9F8B8
:10B850001C1009F12000BDE8F843FEF760BF30403E
:10B860003940C9E90401BDE8F1830000F8B5164686
:10B87000052E04460D4601D20720F2BD02F03CFC25
:10B8800010B902F005FC28BB00221B48C661C0E9C4
:10B890000222C0E9042284610570184E1AA72846C6
:10B8A000451EC0B280B138680090E8B204EBC00118
:10B8B0008A788DF80120324614F83000694602F08B
:10B8C00022FC0028EBD0F2BDDFF834200DA00021CF
:10B8D000FEF712FFF2BD38B50024074D06E0AA6955
:10B8E00012F83400012102F06EFC641C28788442B6
:10B8F000F5D3002032BD0000B0320020E7B70200CF
:10B900003DB70200D0320020030000000870000A9A
:10B910004870022070473EB50C4605462088093025
:10B92000824201D20C203EBD68466DDFF0B921880D
:10B93000082068541B232088401C2080062280B2E7
:10B940000DF101012B5400F004F92844FBF74AFDE6
:10B950002088801D208080B29DF80010490818BF03
:10B96000012129542088401C208000203EBD7CB548
:10B9700005460C462978012904BF6878002801D1C2
:10B98000072076BD1088861CB3422ED3012904D12E
:10B9900069784118891C8B4227D31B1A9B1E9BB2C6
:10B9A000ADF80030694616882644B01C7DDF70BBB8
:10B9B0002878022804D06978BDF80060B14205D328
:10B9C000BDF800108B42A8BF09210ADA082101281E
:10B9D00005D16D78AB42A8BFADF8005001DAADF8E3
:10B9E0000030BDF80000FF2801D30C2076BD13887D
:10B9F000401CE0541088401C108080B221541188F3
:10BA0000491C1180BDF8000041181180002076BD4E
:10BA10002DE9FC470A9CDDF82C90258898460027E4
:10BA200006468A46964600231BE020889DF800C003
:10BA300084446244914536DB43B9401C2080012395
:10BA400080B208F800A02088401C208001A822882D
:10BA5000424464DFE0B920889DF80010411821803D
:10BA60007F1C3088874215DA716851F827000190F1
:10BA70000022694601A864DF50B99DF800007045B6
:10BA8000EED1002B08BF0222CFE708F80500002006
:10BA9000BDE8F687002BFAD02088401B401E81B2FB
:10BAA000B1F5807FF1DB0C20F2E72DE9FC41089F26
:10BAB000099C019416460546984600970222FFF716
:10BAC000A7FF38B901940097434610223146284613
:10BAD000FFF79EFFBDE8F681F8B5144606462088BC
