:1000000018230020193500005F100000693300003C
:100010009B1F00003F2900005B290000000000003A
:10002000000000000000000000000000CB330000D2
:1000300061340000000000008734000093340000A9
:100040002935000043350000B9080000453500009F
:100050004735000049350000852000004B35000081
:100060004D3500004F35000051350000533500007C
:100070005535000057350000593500005B3500004C
:100080005D350000191E00005F350000613500007D
:10009000851E0000633500006535000067350000EF
:1000A000693500006B3500006D3500006F350000CC
:1000B00071350000733500000000000000000000F2
:1000C0007535000077350000793500007B3500007C
:1000D0007D3500007F35000081350000833500004C
:1000E00085350000873500008935000000000000DC
:1000F000000000008B350000000000008D3500007E
:1001000000000000000000000000000000000000EF
:1001100000000000000000000000000000000000DF
:1001200000000000000000000000000000000000CF
:1001300000000000000000000000000000000000BF
:1001400000000000000000000000000000000000AF
:10015000000000000000000000000000000000009F
:10016000000000000000000000000000000000008F
:10017000000000000000000000000000000000007F
:10018000000000000000000000000000000000006F
:10019000000000000000000000000000000000005F
:1001A000000000000000000000000000000000004F
:1001B000000000000000000000000000000000003F
:1001C000000000000000000000000000000000002F
:1001D000000000000000000000000000000000001F
:1001E000000000000000000000000000000000000F
:1001F00000000000000000000000000000000000FF
:1002000081B00022425040580090009901B07047E0
:1002100040588EE1D0F80403084018BF0120C0B256
:10022000704700F20C5082600160704700F5A160D9
:1002300001608260704710B504462068302805D3FD
:10024000DFF8F4154FF4E87000F00EFB20681F286B
:1002500002D84FF0A04010BD00F01F002060DFF872
:10026000DC0510BD2DE9F14181B0089D099C0E46C9
:100270001746984601A8FFF7DEFF46EA47060199B0
:1002800046EA880646EA052600EB810046EA04466F
:10029000C0F80067BDE8F381E0B500F00BF801217C
:1002A00005E0E0B50B460021002201910092FFF726
:1002B000D9FF07BD00210191009100230122704761
:1002C00001B56846FFF7B7FF009901228A40C0F8E0
:1002D000082501BD38B50C460546206810F1010F10
:1002E00004D0FFF7EDFF2068FFF7D6FF606810F13C
:1002F000010F1CBF0021FFF7D4FF2868A16900F29D
:1003000024521160637D217D0B43936462682168F0
:10031000FFF787FF207D012815D1A06810F1010F9C
:100320001CBF0021FFF7BDFFE06810F1010F04D0F2
:10033000FFF7C6FFE068FFF7AFFFA268E168286833
:10034000BDE8384072E731BD70B504460D462068FF
:100350004FF48E71FFF754FF20684FF4A271FFF73E
:100360004FFF2668DFF8D804C6F80403360B082DC3
:1003700004DBDFF8D0146B2000F076FA680171B26C
:10038000002907D5DFF8C01406F00F068A1902F815
:10039000040C02E0DFF8B434585401222068DFF87E
:1003A000B034000B41B200F01F00490902FA00F01E
:1003B00043F82100DFF89C2442F8210070BD2DE9AC
:1003C000F0410C000546904604D1DFF88C14AA20B9
:1003D00000F04AFA2979DFF884042C2212FB01F29A
:1003E000871807F12906707808B1082023E00FF27A
:1003F000744050F82110286800F06AFA08B1112002
:1004000019E021462846FFF765FFC7F804802169F7
:100410007868396018B1217F2846FFF795FF296871
:100420000420C1F800050022BA61FA6132707A61D5
:10043000012070700020BDE8F08138B50D460446FB
:100440004FF48E71FFF7DCFEA868296A405C2A6AC7
:10045000521C2A62C4F81C0531BD2DE9F84306463A
:10046000154632790C462C20DFF8F013DFF8E893BC
:1004700042438F1807F1280898F80210012904D088
:10048000494640F2151000F0EFF924B949464FF4FF
:100490008B7000F0E9F925B9494640F2171000F0D9
:1004A000E3F9304600F03EF808B1112022E07D610A
:1004B000BC603862002188F800104FF48E713068FB
:1004C000FFF79EFE30680121816000243946FFF766
:1004D000B4FF786868B9356812E030684FF48E71FF
:1004E000FFF796FE0028F8D031680120C860002090
:1004F00078612046BDE8F28339462846FFF79DFF24
:10050000386A79698842E8D200F008F80028F3D107
:1005100098F800000028F7D00F24E8E74FF48E7118
:10052000284675E60279DFF834132C2042438818F8
:10053000406900B10120C0B2704710B500F0C5F8A5
:1005400020684FF48471FFF75BFE2168012008608A
:1005500010BD38B50D460446A86900284FF48471D3
:10056000204604D1FFF74CFED4F8180531BDFFF743
:1005700047FE686AD4F81815EA681154686A401C86
:10058000686231BD2DE9F843074615463A790C46B5
:100590002C20B249B04E424301EB020999F82A10CF
:1005A000012904D0314640F2691000F05DF924B908
:1005B00031464FF4B57000F057F925B9314640F295
:1005C0006B1000F051F909F10406002130684FF476
:1005D000017820B13A6802F54170C0F80480706972
:1005E00060B1B06930B1316811B13868C0F80483C6
:1005F00011204FE0F4600121B56103E07561B46042
:100600003062B16199F82900014304BF3846FFF711
:1006100094FF30683A68002839D14FF4A27110462F
:10062000FFF7EEFD38684FF49271FFF7F1FD0546D4
:1006300038684FF48471FFF7EBFD044638684FF4D7
:10064000A271FFF7E5FD804648EA04042C43E9D097
:1006500058EA050007D138684946FFF77AFF306A43
:1006600071698842DED3002070610DB1032011E072
:10067000B8F1000F18BF0F200CD199F82900396884
:10068000002807BF0120486001220A6001E0C2F88B
:1006900004830020BDE8F28300684FF48471B7E55D
:1006A00070B505462C242A796C4E06F12901624367
:1006B000885C48B92846FFF740FF297906F12900F0
:1006C00014FB01F40122025570BD04464FF49271EF
:1006D000206895E51FB50346012402918DF800407E
:1006E0000192684619685A6890471FBDF8B50246DE
:1006F00000238DF8003002919068019053616846A4
:1007000011685268904705B000BD00684FF4017150
:10071000C0F80813012242607047F8B584B005465E
:100720000C464FF40071FFF775FD04F128064FF4F5
:10073000017718B34FF49271FFF7F2FEF0B14FF466
:1007400092712846FFF75CFDC5F80873707808B908
:100750000121696002208DF800000021D5F8800495
:10076000C5F880040390A0690290E0680190A1613F
:10077000E161684621686268904729E004212846C3
:10078000FFF748FD20B34FF48471FFF7C9FEF8B1BD
:1007900021462846FFF7DDFEA069616A884217D12D
:1007A000E06940B1E268616AA06100232069E0600D
:1007B000E361636209E0707808B901216960C5F8F6
:1007C00008730020E268A061616A2046FFF782FF9B
:1007D000FFF7A4FEA0B1206A6169884206D2307892
:1007E00020B921462846FFF728FE09E04FF48E7114
:1007F0002846FFF705FD616911B12046FFF776FF36
:100800004FF4A271FFF78CFE88B14FF4A271284615
:10081000FFF7F6FC707808B101212960A06930B1BA
:100820000021A1612046E268616AFFF753FF05B02D
:10083000F0BD0A490A4870E7F02C000000030050A0
:1008400080000200502C000018ED00E000E400E001
:1008500080E200E000E100E0A03200009001002012
:100860000020004033080000E0B5ADF80000019121
:100870006A46002144F2020000F050F807BD30B48F
:10088000002513E050F8042BD30744BFA9F101035E
:100890009A18091F042942F8045BFAD213468C0700
:1008A00044BF15809B1CC90748BF1D7050F8041B2E
:1008B0000029E7D130BC704710B5154C206818B935
:1008C00014495120FFF7D0FF2168BDE810400847C8
:1008D00038B50D4628B90F497720FFF7C5FF00202E
:1008E00032BD0D498842FAD1002000F02CF80849A9
:1008F00008790024002811BF01240D60012008712F
:10090000002000F02FF8002CE9D0112032BD0000AB
:1009100008030020603100000020004038B572B6A6
:10092000044B1C68E50700D500BEBDE8384000F068
:1009300037B800BFF0ED00E017490868401E0860B6
:1009400000D162B6704780B500F018F8012803D0D6
:1009500012494320FFF788FF72B60F480168491C0F
:10096000016001BD80B500F009F8012803D00B49F2
:100970005120FFF779FFBDE80140DDE7EFF3058087
:10098000C00506D1EFF3148000F0010080F00100F3
:10099000704701207047000010030020D02E000097
:1009A00018B589B00B4601218DF800109DF8004064
:1009B000144908604B608A6044F20103C01A09D0F0
:1009C000401E11D1CA60C86802888A61C86842683E
:1009D000CA6109E00A61086982684A6108690268B7
:1009E0008A6108694368CB6101A8202200F00CF8F5
:1009F00072B69DF800000028FBD162B60AB010BDA7
:100A000000000000280200204AB1000011F8013B5C
:100A1000521E00F8013B1CBF11F8013BF8E770477C
:100A200038B50578DFF81446635D23B1BDE838407A
:100A3000001D00F02FBCBDE838400C30FFF70DBDA5
:100A40000378DFF8F825D15C00291CBF001D00F0F9
:100A500086BC0C30FFF766BD38B50578DFF8DC459D
:100A6000635D23B1BDE83840001D00F082BCBDE8E5
:100A700038400C30FFF786BD10B5040004D1DFF814
:100A8000C0157220FFF7F0FE00212160BFF35F8FD9
:100A900010BD10B5040004D1DFF8A4158520FFF7C0
:100AA000E3FE0121204600F0A5FDBFF35F8F401E4D
:100AB0008041C00F10BD38B50400DFF8845503D164
:100AC00029469220FFF7D0FE2168012903D029464C
:100AD0009320FFF7C9FEBFF35F8F0020206031BD78
:100AE00042691368DA68002A18BF104770474169E5
:100AF0000968087818B10869002818BF00477047CE
:100B00002DE9F04105460E4669690B6818781746CD
:100B1000E8B9FF2F88BFFF273C46DFF820850DE0AE
:100B200005F10C00FFF7B8FDD0B1CCB10122314680
:100B30002846FFF791FF98B9761C641E297818F8AB
:100B400001000028ECD0281D00F0AFFCECE758684D
:100B500000683146BDE8F04100F014BEBDE8F08108
:100B6000381BFBE72DE9F843054614466869DFF8B2
:100B7000D4840268107868B9FF2C28BFFF24E2B241
:100B80002846FFF74DFF18B141466920FFF76CFE7C
:100B900020461EE05068966847682246384600F0B6
:100BA00099FD81462846FFF74BFF88B900F053F8BE
:100BB000040003D141467820FFF756FE3168E2B2C7
:100BC0002846FFF72DFF18B141467A20FFF74CFE6B
:100BD0004846BDE8F283F8B506460C463078DFF8A3
:100BE0006454F0B1022817D034D2606903685F689A
:100BF000327A7168386800F06DFD317A884238BF0A
:100C000003210AD301212046FFF76AFF00F0A8F86C
:100C100000B329469B2019E002212046BDE8F4409C
:100C20005EE760690068416886684F680021204679
:100C3000FFF756FF00F00FF802000BD0C2B2316888
:100C40002046FFF7EDFE28B12946B220BDE8F4406A
:100C5000FFF70ABEF1BD327A3168384600F092BD26
:100C60002DE9F04104000E46DFF8DC7318BF002EBA
:100C700088B0154607F1AC0800D01DB94146BF2029
:100C8000FFF7F2FD6169086808B1852065E0287802
:100C900048B1686800281CBFA868002803D14146F5
:100CA000C920FFF7E1FD202231466846FFF7ACFE80
:100CB00004946946287802280CBF012000208DF892
:100CC0001D00287800280CBF0022DFF88023204672
:100CD00000F0E8FD002840D160690560686820B137
:100CE000406800F07BFD00F042F860690830FFF7D3
:100CF000C3FE6069001DFFF7BFFE61690320087332
:100D0000009810F1010F04D16069017B01F0FD0131
:100D100001730199606911F1010F05D1017B01F0A7
:100D2000FE010173002018E000680178022912D04A
:100D30002178DFF80823505C28B1394640F25A2068
:100D4000FFF792FD03E004F10C00FFF7A9FC6169D5
:100D50000A68107808B100F003F808B0BDE8F08127
:100D6000606901688868427A4168204674E6606973
:100D700001684A68106800F031BD012101707047B8
:100D800070B51D46530CD2030C4612F5FA7043F1B0
:100D900000014FF47A72002300F0C6FD0646052ECE
:100DA00003D201242C70002070BDDFF8A4220021A2
:100DB000204601F089F830B920682A463146BDE85E
:100DC000704001F094B870BD2DE9F84306008946E3
:100DD00015461F4605D1DFF86C124FF4A670FFF7D9
:100DE00043FD7169086808B980204BE00A7B9307CE
:100DF00058BF082046D5002D43D009F06042B2F11B
:100E0000005F04D00078022808BF10203AD000F01C
:100E100010F908B9112035E00FF2382000F0A7F8DA
:100E20000AD0B16900F09FF8040005D07069001D78
:100E3000FFF741FE204625E02C4622464946304633
:100E4000FFF790FE241A814406D03046FFF74FFE8C
:100E50009DF800000028F0D000F07CF830B918F1BF
:100E6000010F03D0B069006801F059F87069001DE6
:100E7000FFF721FE002C1EBF9DF8000000280D206A
:100E800000D10020BDE8F283000000002DE9F84306
:100E90000600894615461F4604D16A4940F2A31050
:100EA000FFF7E2FC7169086808B9802050E0087B10
:100EB000C20758BF08204BD5002D48D001F10800CB
:100EC000FFF7E7FD08B9112042E000BF62A000F083
:100ED0004EF808D0F16900F046F8040003D000F0A5
:100EE0003FF8204634E02C4602E03046FFF7FFFD95
:100EF000224649463046FFF703FE241A814413D0A8
:100F00009DF800000028F0D071690A68107858B187
:100F100032784A49885C18B1301D00F0D7FA03E0F6
:100F200006F10C00FFF7F1FB00F014F830B918F1EE
:100F3000010F03D0F069006800F0F1FF00F010F835
:100F4000002C1EBF9DF8000000280D2000D10020BD
:100F5000BDE8F2830FB12D1B3D609DF80000704786
:100F600070690830A7E56B464246304608E7DDF871
:100F7000208001788DF8001018F1010F70470000F3
:100F80007CB504000E4604D12E494FF4FD70FFF7E6
:100F90006BFC6169086808B9802076BD0A7B9307FD
:100FA00001D4082076BD0078C8B100F042F808B935
:100FB000112076BD29A001788DF8001016F1010FDF
:100FC0000FD0A1696B4632462046FFF7D9FE0500D7
:100FD00007D000F030F8284676BD012515E0002046
:100FE00076BD606901684A68506800F01EFC20B157
:100FF0002046FFF725FD0028EFD02046FFF777FDBC
:101000009DF8000000250028EBD09DF8000030B9C5
:1010100016F1010F03D0A069006800F080FF00F016
:101020000AF8002DDBD19DF800000028D7D00D2054
:1010300076BD081D2DE56069001D3CE5B00200206D
:10104000682A00009C250000F0240000D70B000057
:101050007B0D000000000000000000000000FEE723
:1010600081B00022425040580090009901B0704772
:1010700040587AE100F20C5001E000F5A1600160F7
:101080008260704710B504462068302805D3DFF829
:1010900034154FF4E870FFF7E7FB20681F2802D8EB
:1010A0004FF0A04010BD00F01F002060DFF81805D1
:1010B00010BD2DE9F14181B0089D099C0E461746EF
:1010C000984601A8FFF7DEFF46EA4706019946EA7F
:1010D000880646EA052600EB810046EA0446C0F889
:1010E0000067BDE8F381E0B500F00BF8012105E0F1
:1010F000E0B50B460021002201910092FFF7D9FFD5
:1011000007BD00210191009100230122704701B524
:101110006846FFF7B7FF009901228A40C0F808250A
:1011200001BD38B50C460546206810F1010F04D00A
:10113000FFF7EDFF2068FFF7D6FF606810F1010FA1
:101140001CBF0021FFF7D4FF2868A16900F22452D8
:101150001160637D217D0B43936462682168FFF712
:1011600089FF207D012815D1A06810F1010F1CBF57
:101170000021FFF7BDFFE06810F1010F04D0FFF779
:10118000C6FFE068FFF7AFFFA268E1682868BDE826
:10119000384072E731BD70B504460D4620684FF403
:1011A0008871FFF75DFF20684FF49071FFF758FFDB
:1011B00020684FF49271FFF753FF20684FF4A2713B
:1011C000FFF74EFF2668DFF80404C6F80403360B69
:1011D000082D04DBDFF8F8136B20FFF745FB6801EF
:1011E00071B2002907D5DFF8EC1306F00F068A1953
:1011F00002F8040C02E0DFF8E033585401222068C2
:10120000DFF8D833000B41B200F01F00490902FAA1
:1012100000F043F82100DFF8C82342F8210070BD38
:10122000F8B50C000546164604D1DFF8B813BC200B
:10123000FFF71AFB2979DFF8B023242313FB01F30E
:10124000D71897F8200008B10820F2BD0FF2A0309F
:1012500050F821102868FFF73BFB08B11120F2BDC0
:1012600021462846FFF75DFF7E6021697868396076
:1012700018B1217F2846FFF78EFF29680820C1F8A2
:1012800000050022012087F82000BA61FA617A6126
:101290000020F2BD2DE9F0410646154632790C4694
:1012A0002420DFF84413DFF83C8342438F1897F87B
:1012B0002010012904D0414640F20D10FFF7D4FA66
:1012C00024B941464FF48770FFF7CEFA25B941465D
:1012D00040F20F10FFF7C8FA307910B9B5F5803F2A
:1012E00004D341464FF48870FFF7BEFA04F0604023
:1012F000B0F1005F2FD1304600F031F868BBBC6020
:101300004FF490717D6100253068FFF7A9FE3068C9
:101310004FF4AC71FFF7A4FE31687869BB6801F245
:1013200044521360506001228A60786880B9306846
:101330004FF49071FFF79CFE044630684FF4AC7197
:10134000FFF796FE0443F2D000B10F25002078612C
:101350002846BDE8F0811020FBE71120F9E702796B
:10136000A149242042438818406900B10120C0B23D
:1013700070472DE9F84F07464FF0240A3879DFF817
:101380006882DFF860921AFB00F008EB00060C465A
:1013900096F820100129154604D0494640F257100E
:1013A000FFF762FA24B949464FF4AC70FFF75CFAD4
:1013B00025B9494640F25910FFF756FA387910B965
:1013C000B5F5803F04D349464FF4AD70FFF74CFAB2
:1013D00004F06040B0F1005F14D170684FF0000974
:1013E0004FF4047B20B1396801F54172C2F804B0B2
:1013F000B16971B1F16939B110B13868C0F804B39D
:10140000112050E010204EE04FF0010934612846D1
:1014100002E0B561F46000204FF48871F0610026AD
:101420003868FFF71DFE38684FF4A271FFF718FE09
:10143000396801F23450B9F1000F0460456002D1FF
:101440000120086005E0D1F8002242F02002C1F836
:10145000002208F104023B791AFB03F3D058F8B9D3
:1014600038684FF48871FFF703FE044638684FF47C
:10147000A271FFF7FDFD054638684FF49271FFF742
:10148000F7FD2C430443EBD03A7908F118011AFB1D
:1014900002FA41F80A6000B103261DB10F2601E0EF
:1014A000C1F804B33046BDE8F28F00684FF488718C
:1014B000DEE51FB5034601248DF808108DF80040C5
:1014C0000192684619685A6890471FBD006801215B
:1014D000416070477FB50C464FF492710646FFF7A6
:1014E000C7FD06F23C55C0B14FF4927100F064F8AC
:1014F00002208DF80000D6F88014C6F880140391FD
:1015000029688DF808100021E0680190A161E1616F
:10151000684621686268904721E04FF48871304640
:10152000FFF7A6FDD8B14FF4887100F045F829689F
:10153000A069814213D1E268E06960B1D6F8000287
:1015400020F02000C6F80002E0692369A061E36092
:101550000020E06100E0A0612046FFF7AAFF4FF401
:10156000A2713046FFF784FD60B14FF4A27100F024
:1015700023F8A06930B10021A16120462968E26802
:10158000FFF797FF4FF490713046FFF771FD90B170
:101590004FF4907100F010F8606960B129698DF81E
:1015A000081000228DF80020A06801906261684652
:1015B0002168626890477FBD304651E50A490B4873
:1015C00088E70000302E00000003005010030200E6
:1015D000902D000018ED00E000E400E080E200E063
:1015E00000E100E0CC3100000402002000200040B7
:1015F000BD15000010B5024652E8000F0C4642E847
:10160000004393F0000FF7D110BD000038B504007F
:101610000D4604D1DFF850127720FFF725F9A068B6
:10162000854234BF6D1C0025284632BD01460A683C
:1016300010685268824201D3101A70478968491CA9
:10164000081A1018704741682046DFE72DE9F84373
:1016500004468846154600F0F9F881462068A168DE
:101660004768E668491CCF1B61684068AF4206FBCB
:1016700000100FD306FB05F24146FFF7C5F92068BD
:10168000A1684268AA18914226BF41686D180025DA
:10169000456014E07E4332464146FFF7B5F9E26803
:1016A0006068EF1B7A4306EB0801FFF7ADF920688D
:1016B000A945476003D2FFF7C6FF216808602046AE
:1016C000FFF7B4FF21688B68984238BF18468860DE
:1016D000BDE8F183F8B500F075F804D139464FF450
:1016E000B470FFF7C1F825B9394640F26910FFF729
:1016F000BBF80CB90020F2BD00F06DF8307C00287A
:101700000EBFB068304600F0A1F8844288BF04469E
:1017100000F001F852E022462946304696E72DE9CE
:10172000F04104468846206807684668E0686168BA
:10173000BE423CBFA668761C1546F61BAE4200FBB7
:1017400007110AD300FB05F24046FFF75DF9A068D8
:10175000ED19A8420FD200250DE000FB06F73A462E
:101760004046FFF751F9E2686168AD1B6A4307EB39
:101770000800FFF749F920680560BDE8F081002006
:10178000FFF7F0B8F8B500F01DF804D1394640F283
:10179000D510FFF769F825B939464FF4EB70FFF71C
:1017A00063F80CB90020F2BD00F015F83046FFF7E1
:1017B0003DFF844288BF044600F009F8FFF7DFFFD1
:1017C0002046F2BD06000D461446274F70472246BC
:1017D00029463046A3E70020FFF7B5B810B504004E
:1017E00004D1214940F2EF10FFF73EF8FFF7F3FF75
:1017F000206800210022002380E80E00BDE8104090
:101800000020FFF7AFB810B5040004D1164940F22C
:10181000FD10FFF729F8FFF7DEFF2046FFF706FF70
:101820000446FFF7ACFF204610BD10B5040004D1FC
:101830000D4940F20A20FFF717F820680168406858
:10184000814201D1012010BD002010BD10B504005F
:1018500004D1054940F21220FFF706F82046FFF7B1
:10186000D2FFA168081A10BD1C300000F8B500F0C6
:1018700013F8027A03E0F8B500F00EF882688DF8EC
:101880000820C068244A039002EB81026846D168B0
:101890005268904705B000BD02788DF8002043687B
:1018A000019370472DE9F041044688B02678DFF8AF
:1018B000688008EB86000F4615464560012E3969A1
:1018C000C16004BF787F002803D114497620FEF759
:1018D000CBFF787F08F80600394668462022FFF7DC
:1018E00093F80496217818F8010040B1002D14BF38
:1018F0000B4A00226946201DFFF792FC08E0002DEC
:1019000014BF084A0022694604F10C00FEF757FD97
:1019100008B0BDE8F0810000B0020020B02F000048
:101920006D18000077180000D3BBD9B1B2F5803F25
:101930005BD2022A1ED98C46B1FBF2F102FB11C325
:101940001B0443EA1043B3FBF2FC02FB1C3380B2DE
:1019500040EA0343B3FBF2F002FB103240EA0C40D2
:1019600000237047022A05D98446B0FBF2F002FB3F
:1019700010C270474AB105D100F0010249085FEA80
:101980003000704700220023704700F005BB0B00B9
:101990000200002100207047F7D300220023704787
:1019A000904271EB030CF2D370B5B1FA81F4B3FA43
:1019B00083F52C1BA340C4F1200532FA05F633430E
:1019C000A2405FF00046E64002E05B085FEA3202B8
:1019D000841A71EB030524BF204629467641F4D3CF
:1019E00002000B003000002170BD70B5B1FA81F427
:1019F000B2FA82F5C4F120046419B4F12006DAD3F6
:101A0000B2405FF00044F440002502E052085FEA73
:101A10003303C61A71EB020E24BF3046714664418F
:101A20006D41F3D302000B002000290070BD0000BF
:101A3000012200F01F01DFF8043504E0012200F06C
:101A40001F01DFF8FC348A40400943F8202070472A
:101A5000012200F01F01DFF8EC34F4E74901020035
:101A600007D5DFF8E42400F00F00104400F8041C50
:101A70007047DFF8D8341954704728B10FF210516D
:101A8000800141F001010847704710B5DFF8C0142C
:101A9000DFF8C0444FF4003008604FF48031DFF8C5
:101AA000B804016401602F2001212160FFF7E5FFE8
:101AB000012161600020DFF8A444A06000F0B8F8C4
:101AC0000020A07010BD1420B8E72DE9F84FDFF812
:101AD0008C74DFF88C548046786800904FF00009D1
:101AE00000E07E60B8F1000F7DD04646D6F81C803D
:101AF00031E0A346E469002C73D08442F9D1A345B8
:101B000002BFC8697860002808D1DFF858140120A6
:101B100008600022F870BA6000F08AF82168E06975
:101B2000CBF81C0010B10268891801607868824502
:101B300057D04FF0010954E0307C002853D1886819
:101B40007060CA68B2600869F0604969B161F8788C
:101B500008B100217160B8687168DFF80C340A1AA6
:101B600022F07F429A4203D2B0688218326008E0C5
:101B7000401AB16820F07F40884234BF081A002024
:101B80003060002171600020B06001213174F0618B
:101B900079680029A5D008683268904203D3801A7A
:101BA0000860F1619DE70846036893423AD2014616
:101BB000C069D21A0028F7D136E0B9F1000F02BF90
:101BC00078680099884214BF01200020BDE8F28F98
:101BD000786800281FBF00210174C0697860F7D1C0
:101BE00001E000213174287869788842E5D0024606
:101BF000144618202B1D44431919521CAB78D0B23F
:101C0000984208BF00222A700A784868012A0646CE
:101C100092D00CD3032ADBD009D279688B468A464E
:101C20005C4668E79B1A03603260F061CE6159E759
:101C30002F2022E72DE9F843DFF8204360680028D1
:101C400038D00568DFF824633768D4F80880A7EB3C
:101C5000080020F07F4000F10309A07888B9C4484B
:101C60004FF48031016401601120FFF7F1FE112073
:101C7000FFF7DEFEBF4901200860FFF7D9FF012012
:101C8000A0704D4538BF4D46454425F07F45F5636E
:101C9000ED1B3068C71B27F07F4725F07F45FF1CF1
:101CA000BD420AD23068F063FFF7C2FFBDE8F243DD
:101CB0001120C3E6BDE8F143E7E6BDE8F1832DE975
:101CC000F041A64C94F800C06378A16860680022D7
:101CD00000269C450F46804612D00CF1010C5FFA9D
:101CE0008CF3022B08BF944604F10C035FFA8CFEC0
:101CF00053F82E30591821F07F41A160012101E0F5
:101D00000023002184F800C0F9B114E05B1A8E1999
:101D10000021CCF800108646DCF81C00DCF80C1022
:101D200049B1F519CCF81C2025F07F45CCF80450BA
:101D3000CCF80810724638B18446DCF800108B42AB
:101D4000E4D2CB1ACCF80030012660601046FFF7D1
:101D5000BCFE00280EBF002E4046FFF76BFF0020A0
:101D6000E070BDE8F08110B57D494A788C78521C4E
:101D7000D3B2A34208BF00220C78D3B2A34201D150
:101D8000002010BD027018204A7842438818001DB8
:101D900010BD2DE9FC4180460D4616461F46002029
:101DA000FEF7D1FD6846FFF7DEFF002408B90424E2
:101DB0000BE001210170C0F804806C4A1168816059
:101DC000C5600661476100F022F80020FEF7CAFDF9
:101DD0000CB9FFF778FE2046BDE8F6817CB50546D4
:101DE0000E460020FEF7AFFD6846FFF7BCFF00245B
:101DF00008B9042403E00670456000F008F80020EC
:101E0000FEF7B0FD0CB9FFF75EFE204676BD9DF8EB
:101E10000000534948707047F8B557484F4D0021AE
:101E2000016441648164C164016041606C6844B3D1
:101E30004E480068AF68C71B002627F07F47206820
:101E400087420CD33F1A86192146E469087C20B1E9
:101E5000002288690A7449698847002CEFD16878A4
:101E60002978814201BF401C6870C0B2022804BFBB
:101E700000206870687805EB8001CE60BDE8F14015
:101E800021E6F1BD1BE738B5FFF7FFFD3448334CC1
:101E900000210B2301808370616021706170142028
:101EA000FFF7D6FD06211420FFF7D8FD1420FFF719
:101EB000BFFD2E4D0020686006211120FFF7CEFDEA
:101EC0002868A060002032BD10B5254CA37843B12E
:101ED000130018BF002801D1072010BD0368187C2B
:101EE00008B1082010BD187459745A6110BD10B59E
:101EF0001B4C1346A278002A18BF002805D00529DC
:101F000001D2072010BD42690AB9082010BD427CE9
:101F1000BDE81040012A0CBF0A46002239E7104AEA
:101F20009178002918BF002801D0416909B908201B
:101F3000704700210174022150E7000000E100E039
:101F400000E200E080E200E018ED00E000E400E0E4
:101F500080E100E0041001400813014088020020E5
:101F60001800002008100140FFFF7F000415014009
:101F70000413014000100140001101400000000066
:101F80000000000000000000000000000000000051
:101F90000338FDD8704700007047FEE700F180402D
:101FA00000F5C0400068012818BF0020704700F10C
:101FB000804000F5C04081B00021016000680090C1
:101FC000009901B0704710B504462068302805D349
:101FD000DFF834124FF4E870FEF746FC20681F2843
:101FE00002D84FF0A04010BD00F01F002060DFF8C5
:101FF0001C0210BD11B581B00C4601A8FFF7E3FF2C
:1020000000F5E060019950F8212022F4403240F8B8
:102010002120019A50F8221041EA044140F8221090
:1020200013BDFEB516460FF2F4120446D2E900378E
:10203000CDE900370D19032D0DD3DFF8CC1140F297
:10204000F120FEF711FC06E05DF82400D0F8100541
:1020500046F8040B641CAC42F6D3F7BD02460120DF
:1020600002F00703D2089840895C0840704710B519
:10207000C20801248B5C00F0070004FA00F018434A
:10208000885410BD2DE9F84F88B00025CDE90055E2
:102090004FF480760127082430B2FFF77FFF002835
:1020A0001EBF5C480068384203D030B2FFF77FFFA4
:1020B0003D437F00361D641EEED14FF4BE70FFF726
:1020C0006DFF50B14FF4BE70FFF771FF6A460221F9
:1020D0000020FFF7A6FF45F0004528064C4F19D019
:1020E00001264FF000084C4C2E420DD054F8280029
:1020F00054F8281057F82820130005D0090C01F0D7
:102100000301C0F305209047760008F10108B8F1FB
:10211000080FE9D3002D72D504A90022C1E90022DD
:102120004FF0FF310291039106E0069A049B059857
:1021300000920293019103904FF0000AD14607EB01
:10214000090090F96000C6B210F1010F26F0C0043A
:102150003FD002A92046FFF781FF002839D0381967
:10216000B60990F9301057F82150280002D1032EFB
:102170002FD101E0032E03D104A92046FFF777FFFA
:10218000069406A8FFF71FFF069900EB8100694639
:10219000D0F80007000C00F0030B2046FFF75EFFAD
:1021A00018B1BBF1020F14D102E0BBF1030F10D143
:1021B000032E09D1BBF1020F0CBF032102212046DF
:1021C000FFF718FF0AF1010A280002D03146204625
:1021D000A84709F10109B9F1040FB0D35FFA8AF0F9
:1021E00000280CD006AA02210020FFF71AFF06984B
:1021F000009A0799904204BF0198814295D109B095
:10220000BDE8F08F00000000B02B0000000300507C
:1022100024010020046300401065004000000050CD
:102220000003005030B54A480021016041600020A1
:1022300048490860484949480A6802604B68436059
:102240008A688260CB68C3600A6902614B69436136
:102250008A690262CB6943620A6A82624B6AC3621C
:102260008A6A0263CB6A43630A6B02644B6B436402
:102270008A6B8264CB6BC364096C0165384908685A
:10228000082804BF4868002802D13648364A026050
:102290000B68082B04BF4868002802D13348FB2292
:1022A00002600B68082B04BF4868002809D1304839
:1022B000304B02681C78120904F00F0444EA021241
:1022C00002600868082804BF4868002803D12A482B
:1022D0004FF40071016029480168CA0744BF6FF0DC
:1022E000010101602649C86F40F47000C867BFF360
:1022F0004F8FBFF36F8F234A106800285CBF506870
:1023000000281CD5204B01241C60204C00F042F812
:102310001225156000F03EF8556000F03BF80022F1
:102320001A6000F037F8BFF34F8F0A68184802F4BC
:10233000E06202430A60BFF34F8F00BFFDE7024A2D
:102340000249116030BD0000140000200090D0034D
:102350000C010040380500400404001020C5004076
:10236000300100108C5600404881030018F50040F1
:10237000E40E004058020010409602400004004065
:102380000CED00E00012001004E5014000E4014003
:102390000400FA0520680028FCD0704701464FF081
:1023A0008042505810B1002353500120704738B577
:1023B000040003D148496C20FEF756FA45490878D5
:1023C00008B1852032BD22784448520802F001024B
:1023D0008260227802F00102026041480268D2075E
:1023E00006D4404C404DC023237001222A60026075
:1023F00001200870002032BD70B53C48364C06689C
:10240000344D71070DD54FF48470FFF7C7FF40B10D
:10241000686820B921464FF48370FEF725FA686892
:102420008047B1060ED54FF48A70FFF7B7FF48B169
:10243000A86820B921464FF48770FEF715FAA968FD
:102440000020884770060ED54FF48C70FFF7A6FF6A
:1024500048B1A86820B9214640F21510FEF704FAE9
:10246000A9680120884730060ED54FF48E70FFF71B
:1024700095FF48B1E86820B921464FF48F70FEF708
:10248000F3F9E96800208847F0050ED54FF4907005
:10249000FFF784FF48B1E86820B9214640F22510D3
:1024A000FEF7E2F9E96801208847B00510D54FF43E
:1024B0009270FFF773FF58B1E86820B921464FF4D6
:1024C0009670FEF7D1F9E968BDE870400220084730
:1024D00070BD0000D4020020F430000078050040F8
:1024E00000E100E000E400E080E200E004030040DE
:1024F000443A5C4E6F726469632D456D6265646435
:1025000065645C6E5246355F53444B5F31352E3205
:102510002E305F393431326239365C6E5246355F67
:1025200053444B5F31352E322E305F3934313262B5
:1025300039365C6578616D706C65735C7065726965
:1025400070686572616C5C73657269616C5C706304
:102550006131303035365C626C616E6B5C69617222
:102560005C2E2E5C2E2E5C2E2E5C2E2E5C2E2E5C77
:102570002E2E5C696E746567726174696F6E5C6E35
:102580007266785C6C65676163795C6E72665F64C5
:1025900072765F756172742E68000000443A5C4E7A
:1025A0006F726469632D456D6265646465645C6E19
:1025B0005246355F53444B5F31352E322E305F39F2
:1025C0003431326239365C6E5246355F53444B5F6C
:1025D00031352E322E305F393431326239365C6318
:1025E0006F6D706F6E656E74735C6C696272617230
:1025F0006965735C73657269616C5C6E72665F734A
:10260000657269616C2E630010B50446206830283D
:1026100004D32B494FF4E870FEF726F920681F28F1
:1026200002D84FF0A04010BD00F01F0020602548E8
:1026300010BD2DE9F14181B0089D099C0E46174659
:10264000984601A8FFF7E0FF46EA4706019946EAE7
:10265000880646EA052600EB810046EA0446C0F8F3
:102660000067BDE8F3811CB501240090002968468D
:1026700006D1FFF7C9FF00998C40C0F80C4513BD87
:10268000FFF7C2FF00998C40C0F8084513BD000059
:1026900010B50446042C03D30B494720FEF7E4F899
:1026A0001DA0005DBDE810400121DCE710B500244D
:1026B0002046FFF7EDFF641C042CF9D310BD000089
:1026C000102B00000003005008330000FEB5044644
:1026D000E00710D55FF000050FA6002701970097CF
:1026E0000023705D01220121FFF7A3FF6D1C042D63
:1026F000F4D3FFF7DBFFA0070DD5002407A50020CA
:102700000190002100910323285D0022FFF791FF33
:10271000641C042CF3D3F7BD0D0E0F100B0C18190D
:1027200020BF40BF20BF70477CB500F07FF8254C2C
:1027300018B122466A2100F0F3F8002000F000F9F9
:1027400018B122466C2100F0EBF8002000F08FF861
:10275000FFF799FB18B12246702100F0E1F8032041
:10276000FFF7B4FF0FF2A4050FF28C021AA128465E
:10277000FEF776FA18B12246762100F0D1F8124E13
:10278000304600F0EBF802464FF0FF300090002397
:1027900031462846FEF718FB18B122467F2100F08B
:1027A000BFF84FF47A7000F011F8FEF76FFB0028C5
:1027B000F7D100F00BF8FEF707FB00212846FEF7E3
:1027C000DFFBEEE73832000000000020009000231D
:1027D000012201A9284670470600000008000000F9
:1027E00007000000050000000000000001000000DC
:1027F00000E0D7010600000001000000A034000046
:10280000A8340000000000002127000000000000A4
:1028100000200040000000000020004000000000F8
:10282000C4020020B8340000B434000038B53A4C7B
:10283000207808B185250DE0A0600021616020614D
:10284000E1600FF2BD0000F09DF8054600F0ACF825
:1028500001202070284632BD03681A4600E0126845
:1028600012B18A42FBD170470B600160704770B5AE
:1028700000F02DF819B92946E920FDF7F5FFB078E9
:1028800030B114B161680120884700F01DF80BE0F9
:10289000FEF759F824B1214606F11000FFF7DCFFDE
:1028A000F06808B900F098F8F068401CF06000206B
:1028B000FEF758F8F06830B92946BDE8704040F29C
:1028C0000510FDF7D1BF70BD0020FEF73CB8124ED9
:1028D000124D31780446704738B504000E4814BFD5
:1028E00000F1100500F1080504E0086828602046A2
:1028F0004968884729680029F7D131BD00000000E8
:102900000200054903D101234B70002002E0012899
:1029100001D18870E0E770479C020020442F00003E
:1029200000B583B0029000910192034871466A4657
:10293000FDF7F4FF03B000BD014000007047FEE763
:1029400080B500B904A0FFF732FD10B9014A01219A
:10295000117002BD070300200000FEE700F1010333
:1029600010F8011B11B110F8011BFBE7C01A7047EA
:102970004FF0804181B000220A5008580090009921
:1029800001B0704710B5040003D12D49A220FDF716
:102990006BFF2C4A1179002009B1852010BD14600D
:1029A00001211171507110BD38B5264C207918B92C
:1029B0002349BB20FDF758FF23480168C90706D407
:1029C000224B234DC0221A70012129600160012091
:1029D00020490860207231BD80B51A49087918B9BC
:1029E0001749E520FDF740FF4FF48270FFF7C0FF65
:1029F0001A491B4B02200860FFE701221A6001BD43
:102A000070B5184E0F4C3068134D50B14FF48070B4
:102A1000FFF7AEFF01212960607910B9617122686A
:102A20009047706850B14FF48270FFF7A1FF022009
:102A3000286001202168BDE87040084770BD000093
:102A400088300000FC02002000E100E000E400E02B
:102A500080E200E018050040080300400403004045
:102A60000800004000010040443A5C4E6F72646907
:102A7000632D456D6265646465645C6E5246355FC6
:102A800053444B5F31352E322E305F393431326250
:102A900039365C6E5246355F53444B5F31352E32CA
:102AA0002E305F393431326239365C6578616D7051
:102AB0006C65735C7065726970686572616C5C737B
:102AC000657269616C5C70636131303035365C62AF
:102AD0006C616E6B5C6961725C2E2E5C2E2E5C2EBE
:102AE0002E5C2E2E5C2E2E5C2E2E5C636F6D706F16
:102AF0006E656E74735C6C69627261726965735C39
:102B00006D757465785C6E72665F6D74782E6800A2
:102B1000443A5C4E6F726469632D456D626564640E
:102B200065645C6E5246355F53444B5F31352E32DF
:102B30002E305F393431326239365C6E5246355F41
:102B400053444B5F31352E322E305F39343132628F
:102B500039365C6578616D706C65735C706572693F
:102B600070686572616C5C73657269616C5C7063DE
:102B70006131303035365C626C616E6B5C696172FC
:102B80005C2E2E5C2E2E5C2E2E5C2E2E5C2E2E5C51
:102B90002E2E5C6D6F64756C65735C6E7266785C0E
:102BA00068616C5C6E72665F6770696F2E680000AA
:102BB000443A5C4E6F726469632D456D626564646E
:102BC00065645C6E5246355F53444B5F31352E323F
:102BD0002E305F393431326239365C6E5246355FA1
:102BE00053444B5F31352E322E305F3934313262EF
:102BF00039365C6578616D706C65735C706572699F
:102C000070686572616C5C73657269616C5C70633D
:102C10006131303035365C626C616E6B5C6961725B
:102C20005C2E2E5C2E2E5C2E2E5C2E2E5C2E2E5CB0
:102C30002E2E5C6D6F64756C65735C6E7266785C6D
:102C400068616C2F6E72665F6770696F2E68000036
:102C5000443A5C4E6F726469632D456D62656464CD
:102C600065645C6E5246355F53444B5F31352E329E
:102C70002E305F393431326239365C6E5246355F00
:102C800053444B5F31352E322E305F39343132624E
:102C900039365C6578616D706C65735C70657269FE
:102CA00070686572616C5C73657269616C5C70639D
:102CB0006131303035365C626C616E6B5C696172BB
:102CC0005C2E2E5C2E2E5C2E2E5C2E2E5C2E2E5C10
:102CD0002E2E5C696E746567726174696F6E5C6ECE
:102CE0007266785C6E7266785F676C75652E6800D8
:102CF000443A5C4E6F726469632D456D626564642D
:102D000065645C6E5246355F53444B5F31352E32FD
:102D10002E305F393431326239365C6E5246355F5F
:102D200053444B5F31352E322E305F3934313262AD
:102D300039365C6578616D706C65735C706572695D
:102D400070686572616C5C73657269616C5C7063FC
:102D50006131303035365C626C616E6B5C6961721A
:102D60005C2E2E5C2E2E5C2E2E5C2E2E5C2E2E5C6F
:102D70002E2E5C6D6F64756C65735C6E7266785C2C
:102D800068616C2F6E72665F6770696F2E680000F5
:102D9000443A5C4E6F726469632D456D626564648C
:102DA00065645C6E5246355F53444B5F31352E325D
:102DB0002E305F393431326239365C6E5246355FBF
:102DC00053444B5F31352E322E305F39343132620D
:102DD00039365C6578616D706C65735C70657269BD
:102DE00070686572616C5C73657269616C5C70635C
:102DF0006131303035365C626C616E6B5C6961727A
:102E00005C2E2E5C2E2E5C2E2E5C2E2E5C2E2E5CCE
:102E10002E2E5C696E746567726174696F6E5C6E8C
:102E20007266785C6E7266785F676C75652E680096
:102E3000443A5C4E6F726469632D456D62656464EB
:102E400065645C6E5246355F53444B5F31352E32BC
:102E50002E305F393431326239365C6E5246355F1E
:102E600053444B5F31352E322E305F39343132626C
:102E700039365C6578616D706C65735C706572691C
:102E800070686572616C5C73657269616C5C7063BB
:102E90006131303035365C626C616E6B5C696172D9
:102EA0005C2E2E5C2E2E5C2E2E5C2E2E5C2E2E5C2E
:102EB0002E2E5C6D6F64756C65735C6E7266785CEB
:102EC00068616C2F6E72665F6770696F2E680000B4
:102ED000443A5C4E6F726469632D456D626564644B
:102EE00065645C6E5246355F53444B5F31352E321C
:102EF0002E305F393431326239365C6E5246355F7E
:102F000053444B5F31352E322E305F3934313262CB
:102F100039365C636F6D706F6E656E74735C6C696F
:102F2000627261726965735C7574696C5C61707002
:102F30005F7574696C5F706C6174666F726D2E631F
:102F400000000000443A5C4E6F726469632D456D69
:102F50006265646465645C6E5246355F53444B5FE2
:102F600031352E322E305F393431326239365C6E73
:102F70005246355F53444B5F31352E322E305F3928
:102F80003431326239365C696E74656772617469B6
:102F90006F6E5C6E7266785C6C65676163795C6E9F
:102FA00072665F6472765F636C6F636B2E630000A2
:102FB000443A5C4E6F726469632D456D626564646A
:102FC00065645C6E5246355F53444B5F31352E323B
:102FD0002E305F393431326239365C6E5246355F9D
:102FE00053444B5F31352E322E305F3934313262EB
:102FF00039365C696E746567726174696F6E5C6E98
:103000007266785C6C65676163795C6E72665F643A
:1030100072765F756172742E63000000443A5C4EF4
:103020006F726469632D456D6265646465645C6E8E
:103030005246355F53444B5F31352E322E305F3967
:103040003431326239365C6E5246355F53444B5FE1
:1030500031352E322E305F393431326239365C638D
:103060006F6D706F6E656E74735C6C6962726172A5
:103070006965735C71756575655C6E72665F7175A7
:103080006575652E63000000443A5C4E6F7264699A
:10309000632D456D6265646465645C6E5246355FA0
:1030A00053444B5F31352E322E305F39343132622A
:1030B00039365C6E5246355F53444B5F31352E32A4
:1030C0002E305F393431326239365C6D6F64756C25
:1030D00065735C6E7266785C647269766572735C47
:1030E0007372635C6E7266785F636C6F636B2E6382
:1030F00000000000443A5C4E6F726469632D456DB8
:103100006265646465645C6E5246355F53444B5F30
:1031100031352E322E305F393431326239365C6EC1
:103120005246355F53444B5F31352E322E305F3976
:103130003431326239365C6D6F64756C65735C6E08
:103140007266785C647269766572735C7372635CD4
:103150006E7266785F706F7765722E630000000094
:10316000443A5C4E6F726469632D456D62656464B8
:1031700065645C6E5246355F53444B5F31352E3289
:103180002E305F393431326239365C6E5246355FEB
:1031900053444B5F31352E322E305F393431326239
:1031A00039365C6D6F64756C65735C6E7266785CE5
:1031B000647269766572735C7372635C7072735C5F
:1031C0006E7266785F7072732E630000443A5C4ED4
:1031D0006F726469632D456D6265646465645C6EDD
:1031E0005246355F53444B5F31352E322E305F39B6
:1031F0003431326239365C6E5246355F53444B5F30
:1032000031352E322E305F393431326239365C6DD1
:103210006F64756C65735C6E7266785C64726976F7
:103220006572735C7372635C6E7266785F756172EF
:1032300074652E6300000000443A5C4E6F7264694E
:10324000632D456D6265646465645C6E5246355FEE
:1032500053444B5F31352E322E305F393431326278
:1032600039365C6E5246355F53444B5F31352E32F2
:103270002E305F393431326239365C6578616D7079
:103280006C65735C7065726970686572616C5C73A3
:10329000657269616C5C6D61696E2E63000000008F
:1032A000443A5C4E6F726469632D456D6265646477
:1032B00065645C6E5246355F53444B5F31352E3248
:1032C0002E305F393431326239365C6E5246355FAA
:1032D00053444B5F31352E322E305F3934313262F8
:1032E00039365C6D6F64756C65735C6E7266785CA4
:1032F000647269766572735C7372635C6E72667811
:103300005F756172742E6300443A5C4E6F7264693B
:10331000632D456D6265646465645C6E5246355F1D
:1033200053444B5F31352E322E305F3934313262A7
:1033300039365C6E5246355F53444B5F31352E3221
:103340002E305F393431326239365C636F6D706FA5
:103350006E656E74735C626F617264735C626F61E0
:103360007264732E630000000B4B1EF0040F1CBF31
:10337000EFF309801847EFF308800549054A8842B2
:1033800001D8904202D88D464FF00000184700BF88
:103390001823002018030020BD340000704730B40B
:1033A00050F8041B79B10268436802440830DC0716
:1033B00044BFA9F10104E31852F8045B43F8045B2D
:1033C000091FF9D1ECE730BC7047FEE710B507499B
:1033D00079441831064C7C44163404E00A68081D10
:1033E000114488470146A142F8D110BD50000000A9
:1033F00070000000BFF34F8F054906480A6802F4C9
:10340000E06202430A60BFF34F8F00BFFDE700BFD9
:103410000CED00E00400FA054EF68851CEF20001F2
:10342000086840F470000860BFF34F8FBFF36F8FE0
:103430004FF00070E1EE100A7047000043D4FFFF28
:10344000FC020000180000200000000053FFFFFFF6
:1034500018000000840000000000002000000000B0
:10346000FEE700000120C046002801D0FFF7AEFFB4
:10347000AFF300800020AFF30080FFF755F900F0B4
:1034800000F800F001B8FEE70746384600F002F801
:10349000FBE7FEE72021090326311820ABBEF9E740
:1034A000F03400000435000005030020060300206E
:1034B0000101000048020020680200200449054B79
:1034C0000A6849681A68D10700D500BEFFF792BFA5
:1034D00028ED00E0F0ED00E048656C6C6F206E7246
:1034E000665F73657269616C210A0D000090D003FC
:1034F000E4020020BC0100202000000001000000C8
:1035000001000000F0020020E00100202000000087
:103510000100000001000000014880470148004709
:10352000252200003735000080B5FEF765FFBDE8B5
:103530000140FFF765BAAFF30080FFF76DFFFFF7BB
:1035400091FFFEE7FEE7FEE7FEE7FEE7FEE7FEE7A8
:10355000FEE7FEE7FEE7FEE7FEE7FEE7FEE7FEE743
:10356000FEE7FEE7FEE7FEE7FEE7FEE7FEE7FEE733
:10357000FEE7FEE7FEE7FEE7FEE7FEE7FEE7FEE723
:0E358000FEE7FEE7FEE7FEE7FEE7FEE7FEE7FA
:04000005000035378B
:00000001FF
