:020000040002F8
:10600000884E00203DB60200678A0200138B020012
:10601000338B0200678E0200878E020000000000B2
:10602000000000000000000000000000EB9A0200E9
:10603000239C0200000000006DB50200B3B5020011
:1060400065AD0200BFB50200FD7B020003B7020090
:1060500005B7020007B70200A17F020009B70200DE
:106060000BB702000DB702000FB7020011B7020014
:1060700013B7020015B7020017B7020019B70200E4
:106080001BB70200397502001DB702001FB70200DE
:10609000A575020021B702009F95020023B70200F8
:1060A00025B7020027B7020029B702002BB702006C
:1060B0002DB702002FB70200000000000000000012
:1060C00031B7020033B7020035B7020037B702001C
:1060D00039B702003BB702003DB702003FB70200EC
:1060E00041B7020043B7020045B7020000000000BC
:1060F0000000000047B702000000000049B702009E
:10610000000000000000000000000000000000008F
:10611000000000000000000000000000000000007F
:10612000000000000000000000000000000000006F
:10613000000000000000000000000000000000005F
:10614000000000000000000000000000000000004F
:10615000000000000000000000000000000000003F
:10616000000000000000000000000000000000002F
:10617000000000000000000000000000000000001F
:10618000000000000000000000000000000000000F
:1061900000000000000000000000000000000000FF
:1061A00000000000000000000000000000000000EF
:1061B00000000000000000000000000000000000DF
:1061C00000000000000000000000000000000000CF
:1061D00000000000000000000000000000000000BF
:1061E00000000000000000000000000000000000AF
:1061F000000000000000000000000000000000009F
:1062000010B50021DFF8BC2500E0491C536A994213
:106210000CD202EB8104A3788478A34202BF32F847
:1062200021300488A342F0D1D06910BD002010BDF8
:1062300078B59FB0154600F04CF81044FFF7E0FF2A
:1062400006000AD06846DFF880157C2200F0C6FA06
:10625000ADF8025001946846B04720B070BD2DE9FA
:10626000F84F924600F035F800EB02084046FFF781
:10627000C7FF814658B3DFF84C65356A062D26D234
:10628000DFF848B50BEBC517381DA7F802A041464B
:10629000762200F0A3FA002C19BF002038700221EA
:1062A0003970C7F87C906D1C3562706A85420ED1DA
:1062B000002407E0E1010BF17C020BEB01005158D7
:1062C0008847641C706A8442F4D300213162BDE8BF
:1062D000F18F0C4690F8C62276214A437047F8B5F4
:1062E000034603F2C5260C463179DFF8D804DFF8FF
:1062F000DC54491C3171C9B2426A914219D2002161
:10630000317076227178491C7170C9B212FB01F2AA
:106310001A4450F821701760012100271771204698
:106320009BDF58B10146B77022461846FFF780FF41
:1063300001E00021B170032028706C80F1BD70B5C0
:10634000A2B990F8C6520989762200F10804554393
:10635000665BB1420FD0491C198000F1080190F82A
:10636000C60212FB00F28A5A5A800BE00889D488D0
:10637000411CA14201D1002070BD401C1880D08872
:10638000411E5980012070BD1CB5024602F2C52392
:1063900008465C7876214C431978224449B14B1E5B
:1063A000DBB212214B43D1184C8A641CADF800407B
:1063B00002E0D188ADF8001069461289ADF80220DC
:1063C0009DDF16BD2DE9F84F00F2C52690460C461C
:1063D0007278377876214A434FF0120A85181AFBF3
:1063E00007F3EB1803F10A012B797A1C9A4208D1C2
:1063F0006B460022FFF7A3FFF0B9012020700020B8
:106400001FE0834628798742F7DA401E87421DBF86
:106410001AFB07F0281800F11C094FF000096B4621
:106420004A465846FFF78BFF30B93078401C7F1C36
:1064300049463070FFB2E5E70021217040466946C9
:106440009EDFBDE8F28F2DE9F84F0D468246288881
:10645000BAF8CA12884279D10AF2C52468886178EC
:106460004FF0760919FB01F100280AEB01064FD124
:106470003079E988804658FA81F2062A02DC081849
:10648000307116E0DFF84813DFF84873DFF848B3DF
:106490003288CF1B0620FF0830713F0447F0020707
:1064A0005946384600F002FB0BF14801384600F02F
:1064B000FAFA4FF0000B12E00A2101FB0BF129441C
:1064C00007F10A0008310A2200F088F90020B8829A
:1064D000F8823883788308F101080BF1010B122050
:1064E00000FB08F0371830798045E5D361783A88A9
:1064F00019FB01F90AEB09010B899A4208D2062817
:1065000006D0207050462988FFF73EFF40B91DE0B5
:106510000020207069462A885046FFF753FF48B193
:106520000021A17001462A885046FFF781FE00F045
:106530007EF80BE09DF8000040B12A88012150460A
:10654000FFF78DFE29885046FFF7C9FEBDE8F18FA1
:10655000F8B50D4604462888B4F8CA12884259D1C5
:1065600004F2C526762071783778414362181221EB
:1065700002F10A034F436888D91900284BD1002340
:106580000CE0488900281CBF8889002805D0C889EC
:1065900000281CBF088A00283DD15B1CE888834284
:1065A00039D206275F43E8194FF4245E4789B7EBD9
:1065B0000E070BD07F1E0CD07F1E04D0BF1F04BF60
:1065C00000890882DDE700894881DAE7008988814F
:1065D000D7E70089C881D4E7401C307069462A8813
:1065E0002046FFF7EFFE48B10021B17001462A882E
:1065F0002046FFF71DFE00F01AF8F1BD9DF80000DF
:1066000040B12A8801212046FFF729FE298820462B
:10661000FFF765FEF1BD00208DF80000307812799B
:10662000411C9142D8D101208DF80000E9E767486C
:10663000032101702A8842807047010001D10E2099
:1066400070476049C861002201234A620B760A62E2
:106650000020704738B5040001D10E2032BD594DDD
:10666000287E012801D0082032BD2046FFF7C8FD52
:1066700038B9686A062806D2216845F82010401CFF
:106680006862002032BD042032BD70B50D4604465C
:106690004FF4337100F08EFB4A48A4F8CA5200212F
:1066A00004F2C52301621971597019707626597860
:1066B00050F8210016FB01F6A219012110602846AE
:1066C0009BDF112801D020B900E00120D87099701B
:1066D000002070BD08B90E2070473A4A137E012B86
:1066E00001D1526A0AB90820704790F8C722002ADF
:1066F00008BFFFF7CABF1120704770B504000D46F0
:1067000018BF002D5BD02F48017E012957D1218869
:10671000112905F2C6263AD0302904D032292CD0CE
:1067200033292FD03DE03278B38876204243A91830
:10673000A2889A4235D1E088B0B9E068086028465E
:106740002269C1F80620A188FFF71EFE48B3002188
:1067500071700146A2882846FFF76AFD1B48032195
:106760000170A28842801CE000212846FFF777FDD7
:10677000A1882846FFF7B3FD13E0211D2846FFF747
:1067800062FE0EE0211D2846FFF7E2FE09E0A08828
:10679000B188884205D100207070B0704FF6FF704C
:1067A000B080B07858B121883039202907D2B1881B
:1067B000A088884203D12846BDE8704065E770BDD7
:1067C00000000000942D0020D4B002009825002085
:1067D00050B1020050B10200A0AF02004AB1000067
:1067E00011F8013B521E00F8013B1CBF11F8013BA0
:1067F000F8E7704780B5DFF87805FF210022816057
:106800000260426000F21440426002600273DFF8EE
:10681000640500F0D2FA20B90FF28C5000F077FB3B
:10682000002002BD30B591B1DFF84C25DFF84C15E2
:106830000568DFF84C35511A002200E0521CB2EB1B
:10684000D10F06D233F82240AC42F7D102600020CB
:1068500030BD052030BD01B56846FFF7E3FF28B91C
:10686000DFF82005009950F8310002BD002002BD7C
:1068700000000000491EDFF80C25032902EBC000D0
:106880000BD8DFE801F0020406080220704704205C
:106890007047007970474079704700207047024682
:1068A00000201368C3F380029AB103F003000128AB
:1068B00002D0022807D00BE00A68C3F38310801CC3
:1068C00082180A6004E008689B0D9B1C1B180B6073
:1068D00001207047F8B5DFF8984484B004F5836070
:1068E00000F066FB04F21445284600F061FB606886
:1068F000A76800900026009904F10C00394000EBD5
:1069000081006946FFF7CBFF0028F4D101AB009A64
:1069100004F10C013A4000F0E5F9F8D90199BDF80D
:106920000A0001F0030101290AD002290FD10199BF
:1069300006460098890DC91C00EB9100009006E006
:10694000064601980099C0F383104118009128462B
:1069500000F030FB08B100986060304605B0F0BD33
:1069600080B50021DFF8200400F0DAFA80F310008F
:1069700002BD2DE9F84F0446884693461F460A9DFE
:10698000DFF8EC93FFF7ECFF09F10C0A7E1C000422
:106990002E4040EA1440E4004AF8260004F038048F
:1069A00044EA8B14C4F3090409F10C0044EA882476
:1069B0002F4044F0010440F82740BDE8F18F2DE955
:1069C000FC41884600218DF800101646DFF8A073C0
:1069D0000446684600F0F6FA3868C8F80000A51CBE
:1069E000BA6839687868521C511A411807F21C4875
:1069F0000FE00121404600F0C3FAFFF76BFF0146AC
:106A0000404600F0BDFAB8683968401C411A786801
:106A10004118A942EDD32EB1A40104F4707444F0DE
:106A2000050402E0A40544F006043968B868014092
:106A300007EB8102D46039689DF800006D183D6055
:106A400000F0DDFA0120BDE8F6812DE9FE43DFF814
:106A5000206304460D4690469946B768012201A975
:106A60004846FFF7ACFFA8B10198801C002108E060
:106A700007EA000206EB820258F82130D360401C7E
:106A8000491C4945F4D300974A46019B29462046B4
:106A9000FFF76FFF96F8200418B100F017F80028F0
:106AA000FBD1BDE8F78300230022CEE780B500923A
:106AB000012300F009F801BDE0B5009201936A4698
:106AC0000223FFF7C2FF07BD6A46BEE72DE9F8477C
:106AD000A74E70683168884285B024D006F5826779
:106AE0000020B860BFF34F8F7068B468009006F163
:106AF0000C000099214000EB810005E006F10C003C
:106B000004EA010200EB82006946FFF7C8FE002894
:106B100000F0CB80B868002840F0C780306800994A
:106B20008142EBD370600020BCE0029965F39F5175
:106B3000029105F1080100F042F95FEA000A4ED027
:106B400000F084F900F0C8F800982040641C241A72
:106B5000A40006F10C01AC4201EB800119D234B95A
:106B6000284606F10C014FF00008002503E02046FE
:106B700006F10C082D1BC4B208232246504600F033
:106B8000BAF9B8F1000F09D004F10803EAB241469E
:106B900001E008232A46504600F0ADF9009809F1BB
:106BA000030100EB9100009039E0029901F003012C
:106BB00001295AD10299029AC1F383110529C8BF4C
:106BC000062122F4707242EA811202920299C1F304
:106BD0008311891C890000F0F2F85FEA000A44D0B2
:106BE00000F034F900F078F84FF008094FF0000891
:106BF00010E00098411C009106F10C05204005EBC7
:106C000080014B460422504600F075F909F1040951
:106C100008F101080298C0F383108045E9D33C686D
:106C2000B86870B1504600F015F933E0E06841797A
:106C3000012904D122681368514620469847E0682C
:106C40000468002CF2D1504600F004F900208DF8C1
:106C5000040001A800F0B6F9B86808B9009870609F
:106C60009DF8040000F0CBF914E03C6805E02168D1
:106C70008A6820469047E0680468002CF7D14348B2
:106C8000DFF8F82043A1801AC008000440F0020099
:106C9000FFF709FF7068316888420CBF01200020AF
:106CA00080F0010006B0BDE8F087002002AB009A3A
:106CB00006F10C01224000F015F8F8D902992D4890
:106CC00001F0030102297FF470AF029DAD0DA946CA
:106CD000502DA8BF502528E70023082202A95046BE
:106CE00000F009B951F8221043F82010401C009917
:106CF000491C01280091704730B5024600201C4B0A
:106D0000D3F8101400E0096889B1C9680C7984428D
:106D1000F9D1401C0A28F3DB4FF0FF3030BDC968C1
:106D20000D682560D3F81034D9680A6030BD10F1C1
:106D3000010FFBD0D1680871D3F81014D468002972
:106D4000EDD1C3F81024216030BD10B5104804689F
:106D50000121017408E0E16801224A71204622689D
:106D600051688847E0680468002CF4D110BD000029
:106D70007421002018B60200C8B1020050B1020010
:106D80000000000050B102009025002078B1020000
:106D9000842500204261636B656E647320666C75A8
:106DA0007368656400000000042B00207F00000071
:106DB000E02D0020002200F03DB900F06AB92DE975
:106DC000F04105460F462E8A00F07AF9361F04007E
:106DD00021D0F71900200121FF1C20716171A0460C
:106DE000B7FBF6F7E680FFB27F1EC8F8005000261A
:106DF00007E06179491C6171C8F8000005608046B0
:106E0000761CBE4209D2284600F05AF90028F0D17B
:106E1000204600F005F8002000E02046BDE8F081A3
:106E2000F8B501460D464C79601E002200E0521C68
:106E30002D688242FBD3002605E00F68284600F04B
:106E400062F93946761CA642F7D3F1BD0121001D37
:106E500000F096B81CB504460121201D00F09CF8F6
:106E600000909DF8000018B92046BDE81640D7E70D
:106E700013BD2DE9F0471446B0F806804279256825
:106E800046465643361F5F1903F1040CBE42BCFB55
:106E9000F8F234BFF31A2B4608FB12CC2360002A09
:106EA00001E00068521EFCD1A8EB0C029A46934206
:106EB000089F4FF0000988BF92460E4605461C46C3
:106EC000BCB105EB0C00001D06EB0903390052466E
:106ED0000EBF194601461846FFF780FC2D68A4EB4B
:106EE0000A04D14444454FF0000CA246E8D9C246FA
:106EF000E6E7BDE8F0871CB50192002402E01CB56E
:106F000001920124009401AAFFF7B3FF13BD80682A
:106F10000021816001614161C16041600160704791
:106F200010B5024652E8000F0C4642E8004393F0C9
:106F3000000FF7D110BD000010B5024652E8004F17
:106F400044EA010042E8000393F0000FF6D110BDBF
:106F500010B5024652E8000F00EA010442E800437F
:106F600093F0000FF6D110BD10B5024652E8004F65
:106F700004EA010042E8000393F0000FF6D110BDCF
:106F800010B5024652E8004F04EB010042E800034E
:106F900093F0000FF6D110BD10B5024652E8004F35
:106FA000A4EB010042E8000393F0000FF6D110BDFE
:106FB0000121C1E70021CBE7EFF3108072B67047E3
:106FC00062B6704738B50446FFF7F6FF154A916878
:106FD00071B9012393601449144B1D680D4015606D
:106FE0001960596851604FF0FF325A60002100E08B
:106FF0000121217010B9BDE83140E1E731BD10B584
:10700000084CA16869B160B9FFF7D6FF084922684A
:107010000A6063684B600021A16010B9BDE81040B0
:10702000CEE710BD482E0020FC06FFBD80E100E049
:1070300000E100E0401810F0030308D0C91A1FD384
:10704000DB0748BF00F8012D28BF20F8022D1300F0
:1070500030B414461546103928BF20E93C00FAD850
:10706000490728BF20E90C0048BF40F8042D8900DB
:1070700028BF20F8022D48BF00F8012D30BC704712
:10708000C91818BF00F8012DCB0728BF00F8012D43
:10709000704710B508B90E2010BD036842688168BA
:1070A0001A60891A03E013685C1C146019700B469F
:1070B000591EDBB20268002BF5D10020107110BD03
:1070C00038B5044600258DF800506846FFF77AFF72
:1070D00021686268086882420FD2421E0A601578F1
:1070E000208AE36845431D44A36820689A1A0379FF
:1070F000D2B29A4238BF1A460A719DF80000FFF7D3
:107100007EFF284632BD38B50C46002105468DF875
:1071100000106846FFF756FF286801684A1C0260A5
:10712000E8682A8A241AB4FBF2F20A709DF800007B
:10713000FFF765FF31BD0000000000000000000007
:10714000012200F01F01DFF8143504E0012200F0F5
:107150001F01DFF80C358A40400943F820207047B2
:10716000012200F01F01DFF8FC34F4E749010200BE
:1071700007D5DFF8F42400F00F00104400F8041CD9
:107180007047DFF8E8341954704728B10FF22051E6
:10719000800141F001010847704710B5DFF8D014B5
:1071A000DFF8D0444FF4003008604FF48031DFF84E
:1071B000C804016401602F2001212160FFF7E5FF71
:1071C000012161600020DFF8B444A06000F0B8F84D
:1071D0000020A07010BD1420B8E72DE9F84FDFF8AB
:1071E0009C74DFF89C548046786800904FF000094A
:1071F00000E07E60B8F1000F7DD04646D6F81C80D6
:1072000031E0A346E469002C73D08442F9D1A34550
:1072100002BFC8697860002808D1DFF8681401202F
:1072200008600022F870BA6000F08AF82168E0690E
:10723000CBF81C0010B1026889180160786882459B
:1072400057D04FF0010954E0307C002853D18868B2
:107250007060CA68B2600869F0604969B161F87825
:1072600008B100217160B8687168DFF81C340A1A2F
:1072700022F07F429A4203D2B0688218326008E05E
:10728000401AB16820F07F40884234BF081A0020BD
:107290003060002171600020B06001213174F06124
:1072A00079680029A5D008683268904203D3801A13
:1072B0000860F1619DE70846036893423AD20146AF
:1072C000C069D21A0028F7D136E0B9F1000F02BF29
:1072D00078680099884214BF01200020BDE8F28F31
:1072E000786800281FBF00210174C0697860F7D159
:1072F00001E000213174287869788842E5D002469F
:10730000144618202B1D44431919521CAB78D0B2D7
:10731000984208BF00222A700A784868012A064667
:1073200092D00CD3032ADBD009D279688B468A46E7
:107330005C4668E79B1A03603260F061CE6159E7F2
:107340002F2022E72DE9F843DFF83043606800285A
:1073500039D00568DFF834633768D4F80880A7EBC4
:10736000080020F07F4000F10309A07890B9DFF811
:1073700020034FF48031016401601120FFF7F0FE1B
:107380001120FFF7DDFEC34901200860FFF7D8FF99
:107390000120A0704D4538BF4D46454425F07F453E
:1073A000F563ED1B3068C71B27F07F4725F07F454D
:1073B000FF1CBD420AD23068F063FFF7C1FFBDE891
:1073C000F2431120C2E6BDE8F143E6E6BDE8F183F1
:1073D0002DE9F041A94C94F800C06378A168606879
:1073E000002200269C450F46804612D00CF1010C6D
:1073F0005FFA8CF3022B08BF944604F10C035FFA8A
:107400008CFE53F82E30591821F07F41A1600121E4
:1074100001E00023002184F800C0F9B114E05B1AF8
:107420008E190021CCF800108646DCF81C00DCF830
:107430000C1049B1F519CCF81C2025F07F45CCF88B
:107440000450CCF80810724638B18446DCF80010BD
:107450008B42E4D2CB1ACCF8003001266060104693
:10746000FFF7BBFE00280EBF002E4046FFF76AFF65
:107470000020E070BDE8F08110B581494A788C7831
:10748000521CD3B2A34208BF00220C78D3B2A3424D
:1074900001D1002010BD027018204A78424388189C
:1074A000001D10BD2DE9FC41804600240D46164606
:1074B0001F4600F03CF80DF10100FFF7DDFF08B9B1
:1074C00004240BE001210170C0F804806F4A1168A8
:1074D0008160C5600661476100F024F89DF80000F6
:1074E000FFF78DFD0CB9FFF776FE2046BDE8F6816B
:1074F0007CB5054600240E4600F019F80DF1010098
:10750000FFF7BAFF08B9042403E00670456000F0F5
:1075100009F89DF80000FFF772FD0CB9FFF75BFE5C
:10752000204676BD9DF801005549487070478DF89A
:1075300000406846FFF746BDF8B557484F4D00215B
:10754000016441648164C164016041606C6844B35A
:107550004E480068AF68C71B002627F07F472068A9
:1075600087420CD33F1A86192146E469087C20B172
:10757000002288690A7449698847002CEFD168782D
:107580002978814201BF401C6870C0B2022804BF44
:1075900000206870687805EB8001CE60BDE8F1409E
:1075A00019E6F1BD14E738B5FFF7F7FD3448334C61
:1075B00000210B23018083706160217061701420B1
:1075C000FFF7CEFD06211420FFF7D0FD1420FFF7B2
:1075D000B7FD2E4D0020686006211120FFF7C6FD83
:1075E0002868A060002032BD10B5254CA37843B1B7
:1075F000130018BF002801D1072010BD0368187CB4
:1076000008B1082010BD187459745A6110BD10B526
:107610001B4C1346A278002A18BF002805D0052964
:1076200001D2072010BD42690AB9082010BD427C72
:10763000BDE81040012A0CBF0A46002232E7104A7A
:107640009178002918BF002801D0416909B90820A4
:1076500070470021017402214AE7000000E100E0C8
:1076600000E200E080E200E018ED00E000E400E06D
:1076700080E100E00410014008130140F82D0020D3
:107680009828002008100140FFFF7F0004150140EA
:1076900004130140001001400011014000000000EF
:1076A00000000000000000000000000000000000DA
:1076B0000338FDD87047000081B000224250405886
:1076C0000090009901B070474058B1E1D0F8040330
:1076D000084018BF0120C0B2704700F20C50826011
:1076E0000160704700F5A16001608260704770B56D
:1076F0001F28049D059C41EA420192BF4FF0A0461D
:1077000000F01F00DFF8C06441EA830141EA05216F
:1077100006EB800041EA0441C0F8001770BDE0B5F7
:1077200000F00FF8012105E0E0B50B460021002232
:1077300001910092FFF7DBFF07BDE0B500F001F813
:10774000F8E70021019100910023012270471F28D2
:1077500092BFDFF8781400F01F00DFF874140122E4
:1077600002FA00F00860704738B50C4605462068FC
:1077700010F1010F04D0FFF7EAFF2068FFF7CFFFF9
:10778000606810F1010F1CBF0021FFF7CDFF2868D2
:10779000A16900F224521160637D217D0B43936443
:1077A00062682168FFF799FF207D012815D1A06844
:1077B00010F1010F1CBF0021FFF7B6FFE06810F1C8
:1077C000010F04D0FFF7C3FFE068FFF7A8FFA2682E
:1077D000E1682868BDE8384084E731BD38B5044623
:1077E0000D4620684FF48E71FFF766FF20684FF456
:1077F000A271FFF761FF2068DFF8D813C0F8041307
:10780000000B690142B2002A07D5DFF8CC2300F053
:107810000F00104400F8041C02E0DFF8C033995454
:1078200001222068DFF8B833000B41B200F01F00DE
:10783000490902FA00F043F82100DFF8A82342F8D2
:10784000210031BD0168DFF8A003DFF8A033C1F8E3
:107850000803090B012201F01F0049B282404909C7
:1078600043F8212070472DE9F04104464FF0FF32E4
:10787000206800F5A1614D68CE680F68D1F80880D6
:107880001146FFF72AFF4FF0FF3220681146FFF73D
:1078900029FF15F1010F1CBF2846FFF74EFF16F117
:1078A000010F1CBF3046FFF748FF18F1010F1CBF46
:1078B0004046FFF742FF17F1010F03D03846BDE8FD
:1078C000F0413AE7BDE8F0812DE9F04104460D466C
:1078D00090462179DFF818032C2212FB01F2871859
:1078E00007F12906707808B1082023E00FF208306C
:1078F00050F82110206800F084F908B1112019E037
:1079000029462046FFF730FFC7F8048029697868C8
:10791000396018B1297F2046FFF760FF21680420F5
:10792000C1F800050022BA61FA6132707A61012063
:1079300070700020BDE8F08138B504462C20227913
:10794000DFF8AC12236842438D180021C3F80015FC
:10795000686810B12046FFF775FF2046FFF783FFE8
:10796000206800F06AF9002085F82A00686031BDBF
:1079700038B50D4604464FF48E71FFF79DFEA8689A
:10798000296A405C2A6A521C2A62C4F81C0531BD6F
:10799000F8B5054617462A790E462C20DFF8501216
:1079A00042438C18284600F03CF808B11120F2BD83
:1079B0006761A6602062002184F828104FF48E7160
:1079C0002868FFF779FE286801218160002621469A
:1079D000FFF7CEFF606868B92F6811E028684FF4A0
:1079E0008E71FFF771FE0028F8D029680120C86069
:1079F000002060613046F2BD21463846FFF7B8FFEF
:107A0000206A61698842E9D24FF48E713846FFF7E7
:107A10005BFE0028F0D194F828000028F4D00F264F
:107A2000E6E70279DFF8C8112C2042438818406944
:107A300000B10120C0B2704738B50D460446A869B0
:107A400000284FF48471204604D1FFF735FED4F8A6
:107A5000180531BDFFF730FE686AD4F81815EA68DA
:107A60001154686A401C686231BD1FB50346012489
:107A700002918DF800400192684619685A68904753
:107A80001FBDF8B5024600238DF8003002919068C2
:107A900001905361684611685268904705B000BD77
:107AA000F8B584B005460C464FF40071FFF70EFEA2
:107AB00004F128064FF4017718B34FF4927100F0E7
:107AC0007DF8F0B14FF492712846FFF7F5FDC5F847
:107AD0000873707808B90121696002208DF80000F0
:107AE0000021D5F88004C5F880040390A0690290B5
:107AF000E0680190A161E161684621686268904791
:107B000029E004212846FFF7E1FD20B34FF48471FA
:107B100000F054F8F8B121462846FFF78DFFA06920
:107B2000616A884217D1E06940B1E268616AA06188
:107B300000232069E060E361636209E0707808B9BE
:107B400001216960C5F808730020E268A061616ADC
:107B50002046FFF78AFF4FF48E7100F02FF8A0B196
:107B6000206A6169884206D2307820B921462846C9
:107B7000FFF7FEFE09E04FF48E712846FFF79CFDEB
:107B8000616911B12046FFF77CFF4FF4A27100F04C
:107B900015F888B14FF4A2712846FFF78DFD707873
:107BA00008B101212960A06930B10021A1612046FE
:107BB000E268616AFFF759FF05B0F0BD284683E52A
:107BC0000B490C486CE7000000030050080500500A
:107BD000080800508000020018ED00E000E400E01A
:107BE00080E200E000E100E08402020080E100E0C9
:107BF000682D002000200040C17B0200134801686E
:107C0000084738B50D461249884214D100248DF832
:107C100000406846FFF7D6F90C490879002811BFE3
:107C200001240D60012008719DF80000FFF7E7F9BD
:107C30000CB1112032BD002032BD0549884203D16C
:107C40000248002202600271704700007C2E002072
:107C50000020004000F1804000F5C040006801288D
:107C600018BF0020704700F1804000F5C04081B08F
:107C70000021016000680090009901B0704770B564
:107C80001F28049D059C41EA420192BF4FF0A04687
:107C900000F01F00DFF8906441EA830141EA05210A
:107CA00006EB800041EA0441C0F8001770BD1F28B0
:107CB00092BFDFF8782400F01F00DFF8742452F838
:107CC000203023F4403342F8203052F8203043EA89
:107CD000014342F82030704701461F2992BFDFF868
:107CE000540401F01F01DFF850040068C84000F0A0
:107CF000010070477CB50FF264440346D4E9005696
:107D0000CDE9005606E05DF82340D4F8104542F86E
:107D1000044B5B1C0C18A342F5D373BD0246012033
:107D200002F00703D2089840895C0840704710B5FC
:107D3000C20801248B5C00F0070004FA00F018432D
:107D4000885410BDDFF8F413084490F93020082A55
:107D50008041C00F7047DFF8E413084490F93020E9
:107D6000082A01DB0120704700207047DFF8CC13A0
:107D7000084490F93020D043C00F7047DFF8C0139B
:107D8000D5E7F0B5034614004FF0FF3007BF0824D5
:107D90000C2500240825DFF8A46300E0641CAC4235
:107DA0000ED256F8247017F1010FF7D1F01880F8B1
:107DB000304046F8241012B9301980F85830204667
:107DC00040B2F0BDDFF874134FF0FF3241F82020CD
:107DD0000828A4BF081880F85820704738B5DFF885
:107DE0005C4394F86A0008B1082032BDFF223021BC
:107DF00004F1300000F0B6F90025E8B2FFF7E2FF29
:107E00006D1CE8B20C28F8DB062104F1640000F0D8
:107E100003FADFF83013DFF83033C0200870402257
:107E2000DFF828131A600A604FF4BE70FFF71BFFDB
:107E3000DFF81C134FF000400860012284F86A202C
:107E4000002032BDDFF8F40290F86A0000B1012092
:107E50007047FEB505460F461646FFF787FF00241C
:107E600008B1082453E0BA78520802F00102314602
:107E70002846FFF786FF064616F1010F46D0B87870
:107E800041071ED4C00711D528461F2892BF4FF0C6
:107E9000A04100F01F00DFF8901201EB8000D0F845
:107EA000001721F00201C0F8001707E0002101943B
:107EB000009100227B782846FFF7E1FE2846FFF775
:107EC0005DFFB878810716D53978DFF88822DFF8AA
:107ED000880252F82630034042F826302D02090469
:107EE00052F8263005F47C5501F440310D431D4312
:107EF00042F826500BE091483B578119304491F8E5
:107F0000582042EA831280F8582000E004242046DA
:107F1000FEBDF8B50E460546884CFFF71CFF6719F5
:107F2000B0B197F93000204490F958000006800F56
:107F3000032804D12846FFF7CFFE10B103E0012843
:107F400001D1022100E003212846BDE8F440AEE65D
:107F50002846FFF7F7FED8B197F930507D4850F822
:107F6000251041F0010140F82510A80000F58070AF
:107F700000B2FFF778FE002E1EBF97F9301054F8BC
:107F80002100002804D00121714801FA05F505609F
:107F9000F1BD80B5FFF7A0FE00B10120C0B202BD67
:107FA0002DE9F84F88B00025CDE900554FF48076D3
:107FB00001274FF0080A30B2FFF74CFE00281EBF21
:107FC00063480068384203D030B2FFF74CFE3D43AF
:107FD0007F00361DBAF1010AEDD14FF4BE70FFF7F4
:107FE00039FE50B14FF4BE70FFF73DFE6A460221E4
:107FF0000020FFF77FFE45F0004528064F4F19D0BF
:1080000001264FF00008534C2E420DD054F82800A2
:1080100054F8281057F82820130005D0090C01F057
:108020000301C0F305209047760008F10108B8F17C
:10803000080FE9D3002D72D504A90022C1E900225E
:108040004FF0FF310291039106E0069A049B0598D8
:1080500000920293019103900024A14607EB0900CE
:1080600090F96000C6B210F1010F26F0C00A42D0AC
:1080700002A95046FFF752FE00283CD007EB0A0049
:10808000B60990F9301057F82150280002D1032E7C
:1080900031D101E0032E03D104A95046FFF747FE7A
:1080A00050461F2892BF4FF0A04100F01F001E490C
:1080B00001EB80006946D0F80007000C00F0030BCC
:1080C0005046FFF72BFE18B1BBF1020F13D102E0AF
:1080D000BBF1030F0FD1032E08D1BBF1020F0CBF70
:1080E000032102215046FFF7E2FD641C280002D064
:1080F00031465046A84709F10109B9F1040FADD343
:10810000E4B264B106AA02210020FFF7F3FD06984D
:10811000009A0799904204BF0198814295D109B015
:10812000BDE8F08F00000000000300500007005081
:10813000000A00501005005010080050782C002054
:10814000DC2C002006E400E080E200E000E100E03A
:108150000463004010650040FFC0FCFF00000050B9
:108160000003005062F30F2262F31F4200B500BF0C
:10817000130096469446103928BFA0E80C50FAD850
:108180005FEA417C28BF0CC048BF40F8042BC907F8
:1081900028BF20F8022B48BF00F8012B00BDF0B427
:1081A0000246106895681318506803EB5004C00726
:1081B0001DD54D441BE013F8017B05F8017B491EDA
:1081C000F9D1A0B1B60813F8011B06F00306032E7F
:1081D00008BF13F8016B01EB06214942801C2944BA
:1081E00005D011F8016B05F8016B401EF9D1A342CF
:1081F0000ED013F8016B16F0030104BF13F8011B36
:10820000C91C30090F28DAD113F8010B0F30D6E75B
:10821000F0BC02F10C0070470022FFF7A7BF30B49A
:10822000002513E050F8042BD30744BFA9F1010344
:108230009A18091F042942F8045BFAD213468C07E6
:1082400044BF15809B1CC90748BF1D7050F8041B14
:108250000029E7D130BC704781B00022425040581D
:108260000090009901B07047405894E100F20C5022
:1082700001E000F5A16001608260704770B51F28C1
:10828000049D059C41EA420192BF4FF0A04600F0D8
:108290001F00DFF8146441EA830141EA052106EB7F
:1082A000800041EA0441C0F8001770BDE0B500F05D
:1082B0000FF8012105E0E0B50B46002100220191F5
:1082C0000092FFF7DBFF07BDE0B500F001F8F8E72B
:1082D0000021019100910023012270471F2892BFC5
:1082E000DFF8C81300F01F00DFF8C413012202FA00
:1082F00000F00860704738B50C460546206810F15C
:10830000010F04D0FFF7EAFF2068FFF7CFFF606896
:1083100010F1010F1CBF0021FFF7CDFF2868A169F4
:1083200000F224521160637D217D0B4393646268E7
:108330002168FFF79BFF207D012815D1A06810F16F
:10834000010F1CBF0021FFF7B6FFE06810F1010F1D
:1083500004D0FFF7C3FFE068FFF7A8FFA268E16859
:108360002868BDE8384084E731BD38B504460D467D
:1083700020684FF48871FFF76FFF20684FF4907109
:10838000FFF76AFF20684FF49271FFF765FF2068DE
:108390004FF4A271FFF760FF2068DFF81813C0F8F0
:1083A0000413000B690142B2002A07D5DFF8082345
:1083B00000F00F00104400F8041C02E0DFF8FC326B
:1083C000995401222068DFF8F832000B41B200F026
:1083D0001F00490902FA00F043F82100DFF8E42207
:1083E00042F8210031BD0168DFF8C802DFF8D83259
:1083F000C1F80803090B012201F01F0049B28240B5
:10840000490943F8212070472DE9F04104464FF017
:10841000FF32206800F5A1614D68CE680F68D1F881
:1084200008801146FFF722FF4FF0FF322068114607
:10843000FFF71FFF15F1010F1CBF2846FFF744FF90
:1084400016F1010F1CBF3046FFF73EFF18F1010F78
:108450001CBF4046FFF738FF17F1010F03D0384625
:10846000BDE8F04130E7BDE8F081F8B504460D46BF
:10847000217916462423DFF8542213FB01F3D71881
:1084800097F8200008B10820F2BD0FF2482050F8FC
:1084900021102068FFF7B5FB08B11120F2BD294675
:1084A0002046FFF728FF7E6029697868396018B197
:1084B000297F2046FFF759FF21680820C1F80005F1
:1084C0000022012087F82000BA61FA617A61002059
:1084D000F2BD38B50446242022797C492368424302
:1084E0008D180021C3F80015686810B12046FFF709
:1084F0007AFF2046FFF788FF2068FFF79EFB0020E9
:1085000085F82000686031BDF8B5054617462A7920
:108510000C4624206D4942438E1804F06041B1F1AD
:10852000005F2ED1284600F030F860BBB4604FF4F5
:108530009071776100272868FFF78EFE28684FF456
:10854000AC71FFF789FE29687069B36801F2445283
:108550001360506001228A60706880B928684FF407
:108560009071FFF781FE044628684FF4AC71FFF765
:108570007BFE0443F2D000B10F2700207061384623
:10858000F2BD1020F2BD1120F2BD02794F49242026
:1085900042438818406900B10120C0B270471FB53E
:1085A000034601248DF808108DF8004001926846BA
:1085B00019685A6890471FBD7FB50C464FF49271F9
:1085C0000646FFF751FE06F23C55C0B14FF49271DA
:1085D00000F064F802208DF80000D6F88014C6F888
:1085E0008014039129688DF808100021E06801903B
:1085F000A161E161684621686268904721E04FF41B
:1086000088713046FFF730FED8B14FF4887100F022
:1086100045F82968A069814213D1E268E06960B138
:10862000D6F8000220F02000C6F80002E0692369B5
:10863000A061E3600020E06100E0A0612046FFF758
:10864000AEFF4FF4A2713046FFF70EFE60B14FF45B
:10865000A27100F023F8A06930B10021A161204689
:108660002968E268FFF79BFF4FF490713046FFF7EF
:10867000FBFD90B14FF4907100F010F8606960B1AB
:1086800029698DF8081000228DF80020A06801905B
:10869000626168462168626890477FBD3046DBE5CD
:1086A0000A490B4888E70000000300500805005005
:1086B000080800501003020018ED00E000E400E09C
:1086C00080E200E000E100E080E100E0BC2D00205D
:1086D00000200040A186020078B5044604F1230082
:1086E00085B0467A00780D46B0B100F01BF9142130
:1086F0006846FFF791FD334604F1240204F12E0190
:10870000A81C8CDF06228DF80020019000281FBFD6
:10871000E16B00296846884706B070BD38B504464D
:108720000D46284600F0A0F9C0B208B1202801DDAE
:108730000C2032BD94F8200008B1042032BD294637
:10874000204600F09BF958B1284600F08DF902460A
:10875000012084F8200029462046FEF73FF800203B
:1087600032BD002818BF002A01D10E207047002911
:1087700004BF1146FFF7D2BF0720704708B90E208B
:10878000704711F01F0F01D1072070470023C90760
:1087900048BF012300F8213F4270002070472DE9B7
:1087A000F04F87B0824600208DF800000E468046CC
:1087B000142101A8FFF730FD0AF12E020592504660
:1087C00000F056F80AF1200578B102218DF8041066
:1087D000029601A8E96988470AF1600100208ADF52
:1087E00031465046FFF778FF34E0A8780690C3463C
:1087F0006878E0B101218DF800102C78B6F81C9053
:10880000002700E07F1CF8B2A04210DA0AEB401209
:10881000B069494600F05AF90028F3D09DF80C00E1
:108820004FF0010840F001008DF80C00C34602969D
:10883000069890B19DF80010884511D003228DF85C
:1088400004200296E96909B101A888470AF160018C
:1088500000208ADF07B0BDE8F08FBBF1000FEDD03C
:1088600000208DF8040031465046FFF735FFE9E758
:1088700090F82E00C0F3C100012818BF032801D1D1
:10888000012070470020704710F82E1F41F00401AE
:108890000170A02201F0E701428001705023002204
:1088A00001218380C280417070474FF4C871062255
:1088B0004185828418210022C1840285704730B529
:1088C00085B000F029F8297901290AD1E06B40B17F
:1088D000042100F01BF828798DF804006846E16B4C
:1088E000884705B030BD30B585B000F015F8E06BB5
:1088F00050B1052100F00AF801A8291D0922FDF751
:108900006DFFE16B6846884705B030BD04F12E026B
:108910008DF800100492704704460D4614216846F5
:10892000FFF77ABC8BDF7047F8B504000D4601D124
:108930000E20F2BD04F13C062321326004F123072E
:10894000FFF76AFCD5B128793870297B79722968DC
:1089500029B104F12E000E22FDF740FF02E020466F
:10896000FFF792FFA96829B104F124000822FDF75E
:1089700035FF0BE02046FFF798FF07E02046FFF7A2
:1089800083FF2046FFF791FF002038701F2004F17D
:108990004001308571620020F2BD18B5040085B039
:1089A00008BF0E202AD014216846FFF735FCFFF7D8
:1089B000B9FF2046FFF75CFF00281CBFE16B0029D0
:1089C00004D001208DF800006846884704F160015A
:1089D00004F12E008ADF0446082C18BF002C0CD0AE
:1089E0000748084B0849C01AC0080004224640F056
:1089F0000100FEF75BF8204600E0002006B010BD45
:108A000068B1020050B102002CB4020030B585B04C
:108A1000FFF782FF0722281D8DF80020019004F146
:108A20002E022988ADF808100492E16B09B168465E
:108A3000884705B030BD0388102B0A4610D01B2B89
:108A400008D01D2B02D0202B07D0704700F1080161
:108A50001046A4E6011D104631E7011D104642E70D
:108A6000011D1046D2E7FEE700F1010310F8011BDB
:108A700011B110F8011BFBE7C01A704710F8012B69
:108A800011F8013B0AB19A42F8D0D01A704770B57C
:108A9000002818BF002A17D000241588AC4203DB39
:108AA00005196E789E420DD08C420BDA2546045D86
:108AB0002C19641CA4B2F0E7A11C1180005D401EBB
:108AC00080B270BD8C42F7DB002070BD7CB50646DD
:108AD00000201446ADF80000CCB109236A463046A8
:108AE000FFF7D5FF0546BDF80010080018BF002DA0
:108AF0000E440CD02046FFF7B7FFA84207D12A4604
:108B00003146204600F006F808B9012076BD002065
:108B100076BDFEE703000020521E22BF13F8010BB2
:108B200011F801CBB0EB0C00F6D0521C08BF104678
:108B30007047FEE780B5AA48FFF72FFF08B100F0A5
:108B400093F9012000F0D4F9BDE80240002000F0C4
:108B5000CBB9F8B504460D46A248A34EA34F861BD9
:108B60002878F6083604012846F0030602D00228C9
:108B700017D0F1BD69889E482A1D00F011FB6A8854
:108B800039463046FDF792FF00F0EDFB08B100F0EA
:108B90006BF9204600F0B2FAA8B1BDE8F24000F04F
:108BA00063B92A7907F134013046FDF77FFF287950
:108BB00020B1BDE8F240022000F096B9BDE8F240D5
:108BC000022000F095B9F1BD0000000038B5044660
:108BD000844985482288081AC0080004102A40F0F9
:108BE00003000AD0112A25D01F2A29D0212A2CD0EF
:108BF0003B2A18BF562A31D031BD00BF80A1784D25
:108C0000FDF751FFA188002205F1680000F0C8FAC5
:108C100008B100F029F9A18805F18C00FDF75AFD93
:108C200008B100F021F9012000F05EF9002000F009
:108C30005FF931BD75A1FDF736FFFFF77BFF31BD51
:108C4000A08804F1080175DF0BE000BF85A0018852
:108C5000ADF800106946A0888FDF02E0A0881321DC
:108C600076DF08B100F000F931BD000010B50B2827
:108C70000C4618D15E4800F067FA30B143F20201A9
:108C8000884218BF082812D00DE05648564B22469D
:108C9000C01AC008BDE810405FEA00405FA140F084
:108CA0000300FDF703BFBDE8104000F0DDB810BDC4
:108CB0000178062904D14068002818BF00F0D4B814
:108CC000704701464A4800F06EB9000038B584B0DC
:108CD0004FF400410020FDF78DFD08B100F0C4F80D
:108CE00000F05CFBFEF75FFC08B100F0BDF801206E
:108CF00000F012F93A4C40F26662012104F5567018
:108D000000F0FCFA08B100F0AFF800F057FB08B132
:108D100000F0AAF800F0EEFB08B100F0A5F8002082
:108D200000906946012000F04FFC08B100F09CF86B
:108D3000684600F0C5FC08B100F096F868460021CE
:108D400000220023002580E82E0001218DF8041068
:108D50008DF80C102046274A6946FFF7E5FD08B15B
:108D600000F082F8002201212046FFF707FD08B13C
:108D700000F07AF837A200212046FFF7F2FC08B194
:108D800000F072F8002104F1780000F066FD08B1EF
:108D900000F06AF81848FDF750FC08B100F064F8DC
:108DA00016480090694604F1680000F043F908B1E4
:108DB00000F05AF80B480C4A1EA1801AC0080004A3
:108DC00040F00300FDF76FFEFFF7B4FE002000F057
:108DD0008BF8FDF77BFE0028FBD100F0FCFAF8E7EA
:108DE000701D002078B1020050B102002CB20200C8
:108DF000D81D0020B18C0200C38C0200538B0200EE
:108E0000436F6E6E65637465642E0000446973631E
:108E10006F6E6E65637465642E0000004C425320D3
:108E20007772697465204C454420737461746520C1
:108E300025640000426C696E6B792043454E5452A4
:108E4000414C206578616D706C652073746172743B
:108E500065642E004E6F726469635F426C696E6B6D
:108E6000790000000000FEE71FB5694600220023DC
:108E7000002481E81C0002906A46002144F20100AF
:108E800000F0EAFD1FBDFEE770B51F28049D059C9C
:108E900041EA420192BF4FF0A04600F01F001B4E76
:108EA00041EA830141EA052106EB800041EA0441E1
:108EB000C0F8001770BD10B5154A164B012449B90A
:108EC0001F2892BF191D00F01F00111D04FA00F0A9
:108ED000086010BD1F2894BF1A4600F01F0004FA56
:108EE00000F0106010BD00001EA2105C0021E2E73F
:108EF0001CA2105C0121DEE710B500242046FFF71C
:108F0000F7FF641C042CF9D310BD000000030050CF
:108F10000808005008050050FEB50446E00710D5CB
:108F20005FF000050FA60027019700970023705DF2
:108F300001220121FFF7A8FF6D1C042DF4D3FFF7D8
:108F4000DBFFA0070DD5002407A50020019000211C
:108F500000910323285D0022FFF796FF641C042C78
:108F6000F3D3F7BD0D0E0F100B0C18198A4B586870
:108F70001A68904200D1704710B51421874C4843BD
:108F80000444A07820B9A18820880022A1DF03E052
:108F9000208804F10801A3DF20B95868401C00F0C4
:108FA0000700586010BD7FB504460878002802BF4E
:108FB000888841F22352904202BF8879227B9042F6
:108FC00037D101208DF8000000204A88ADF802203A
:108FD00041F224560A7A904215D2122343430B449D
:108FE00003F10E021588AD1B05D06D1E04BF12895A
:108FF000ADF8082005E01389ADF806305289ADF8C8
:109000000420401CE6E720884FF6FF7188420CD010
:10901000E088002804BFA088002806D1608820B915
:10902000A01C01A90622FDF7D9FBA26869462046CB
:1090300090477FBD30B585B004460D460DF1040064
:109040005EA11022FDF7CAFB002C18BF002D01D035
:10905000286808B90E2017E000206080A080E0801A
:109060004FF6FF71218004F10C012A68A26001A86B
:1090700062DF48B9217B8DF8021041F22352ADF82E
:1090800000206846FDF7E6FA05B030BD1FB50A00BE
:1090900018BF002831D00188112923D038291AD0CF
:1090A000392902BF138881888B4226D14389918850
:1090B0008B4204BFC389012B1FD102248DF80040CD
:1090C00069461388ADF80230037C8DF804301046F1
:1090D000926890471FBD1188808881420DD1FFF7AB
:1090E00045FF1FBD11888088814206D14FF6FF7170
:1090F0001180002353809380D3801FBD38B508B9F9
:109100000E2032BD01884FF6FF72914201D1082036
:1091100032BD214A40881368204C14255D435B1CF6
:109120002C4403F0070313606081221D0220E081BC
:10913000226100200122A0812272012000222071E0
:1091400062712180A07023E038B508B90E2032BDCD
:1091500002884FF6FF739A4201D1082032BD0E4AB1
:109160000E4C136814255D435B1C03F0070313606A
:109170002C44C28862810123221DE38122610023E5
:109180000222A38122722171012100882080A17016
:10919000FFF7ECFE002032BD542E0020642A002090
:1091A00080B508B90E2002BD018022B11146801C95
:1091B0000622FDF713FB002002BD000023D1BCEA0C
:1091C0005F782315DEEF1212000000002DE9FE4645
:1091D00000266D490A78F0B290424AD20F46F1B2A9
:1091E000B86900EBC1040120257800212A4600F06F
:1091F0006BFCCDE90001DDE90023D7E90401024061
:109200000B4008BF002A32D0DDE9002320EA020229
:1092100021EA0303C7E904232846FEF7BAFE824683
:10922000D7E902012578CDE900012A460120002175
:1092300000F04AFCDDE9002302EA000703EA010925
:10924000504600212A4600F03FFC894508BF87426E
:109250000DD167786268012F14BF0020012080EAD9
:109260000A00411E8941C90F0AB128469047761C61
:10927000AFE7BDE8F7862DE9F843804601200021DD
:10928000424600F021FC0446DFF8FC900D4609F14F
:109290002000FEF7D4F970BBD9E90401E643EF439F
:1092A00000EA040211EA050308BF002A1FD1404664
:1092B000FEF76FFED9E90223002819BF42EA040035
:1092C00043EA050102EA060003EA0701C9E90201CF
:1092D0000022D9E9040120432943C9E90401D9F84E
:1092E0001C1009F12000BDE8F843FEF790B93040AA
:1092F0003940C9E90401BDE8F1830000F8B516461C
:10930000052E04460D4601D20720F2BDFEF79AFD58
:1093100010B9FEF763FD28BB00221B48C661C0E9F7
:109320000222C0E9042284610570184E1AA728465B
:10933000451EC0B280B138680090E8B204EBC001AD
:109340008A788DF80120324614F830006946FEF71D
:1093500080FD0028EBD0F2BDDFF834200DA0002105
:10936000FEF742F9F2BD38B50024074D06E0AA69C0
:1093700012F834000121FEF7CCFD641C28788442E9
:10938000F5D3002032BD0000E82C002077920200C7
:10939000CD910200082D00200300000080B500F0F0
:1093A000CAFB04210348FDF7A7FC034901204871CB
:1093B00001BD00004CB60200E820002080B5154831
:1093C000002141700161BFF35F8F001D13A100F008
:1093D00016FC002002BD80B500218DF80010684603
:1093E000FDF7F0FDF1EE100A20F09F00E1EE100A0B
:1093F000BFF35F8F0849402008609DF80000FDF72B
:10940000FEFD00F0ABF808B141DF01BD20BF40BF59
:1094100020BF01BD342E002084E200E05CB40200D5
:1094200074B40200040000002028014604DA4D480C
:10943000C84000F001007047402808DA0122A1F17D
:10944000200012FA00F018BF0120C0B270470120BE
:10945000704700001FB5044651A1684600F0CFFBDD
:1094600002E0684600F0CFFB029A3AB151681268F8
:10947000204690470028F4D1112000E0002004B0DD
:1094800010BD00001FB5044648A1684600F0B7FBB8
:1094900006E05168126820469047684600F0B3FB2A
:1094A000029A002AF5D11FBD80B51620FFF7BCFF38
:1094B00028B942F20100BDE80240FFF7D5BC2A48B6
:1094C00000784009082803D2EC21C140C80702D423
:1094D00042F20200EFE72549886820B10A6842F4A9
:1094E00080020A6001BD2249FFE74FF48000086056
:1094F00001BD00003EB51F4D287808B108203EBDD3
:109500000120A8700020FFF7A5FF11281FD0002020
:10951000FFF7B8FF2BA10A68019200238DF80030F5
:109520006846FDF74FFD144901A810DF0446401EB0
:109530008041C00F00F00DF80CB120463EBD002068
:10954000A8706870FFF7B0FF0120FFF79BFF0020B5
:109550003EBD28709DF80000FDF751BD054800781C
:1095600070470000FC06FFBD16E400E0482E002016
:1095700000E100E0842E0020599A0200E0B500BF0F
:109580000DA1684600F03BFB05E048680968884784
:10959000684600F038FB02990029F6D107BDEDE7D7
:1095A0002CB302003CB30200080000003CB30200F0
:1095B0004CB30200080000004CB302005CB3020090
:1095C00008000000010000077FB50C0008BF0E2056
:1095D00069D06A496A4E21606A460021002300254D
:1095E00082E82A00012106238DF800008DF8021080
:1095F000ADF8043069462268624D202069DF624977
:109600004D1BED082D0445F0010528B100F00AFBC3
:109610000246314600F049F800F04AF801228DF880
:1096200002208DF803208DF8011069462268402041
:1096300069DF30B100F0F6FA024606F1480100F0A9
:1096400034F800F035F80A218DF8001069462268D8
:10965000012069DF30B100F0E5FA024606F194011D
:1096600000F023F800F024F8F82100916946226800
:10967000A12069DF30B100F0D5FA024606F1E00121
:1096800000F013F800F014F88DF800106946226815
:10969000A02069DF30B100F0C5FA024606F59A71E4
:1096A00000F003F8002004B070BD2846FDF7FEB9B5
:1096B000684600210022002380E80E007047000069
:1096C0002DE9F8430646304937682E4D60DF0446E1
:1096D0004D1BED0830682D0487421AD245F0020870
:1096E000DFF8A89049464046FDF7DDF933683A4671
:1096F00009F130014046FDF7DFF92548026830687E
:10970000920202F10052121A09F164014046FDF77B
:10971000CDF91CB91F490120087008E0204600F06F
:1097200081FA02461CA145F00100FDF7BFF9204671
:10973000BDE8F283174900B5087891B080B903E01D
:10974000052818BFFFF790FB11B000BD51681268E3
:1097500004A8904701A800F056FA039A002AF5D110
:109760003420ADF80000694604A861DF0028E7D185
:1097700011A101A800F043FAEFE70000701D0020DE
:1097800098A6020050B1020090B1020044B002005D
:109790000C010010872E002073645F626C655F65AA
:1097A0006E61626C6528292072657475726E6564DD
:1097B0002025732E0000000068B3020088B3020069
:1097C000080000001721018000231B224180037143
:1097D00043718271C2717047F8B500BF96A384B01F
:1097E000D3E90067CDE90267ADF80810ADF80A10BB
:1097F000054600BF8EA16A46D1E90067CDE9006742
:1098000002A990DF040025D000F00CFA03467D4841
:109810007D4E7E4F861BF608360446F001062A462A
:1098200039463046FDF748F9BDF80000BDF8023072
:10983000002808BF002B05D0024607F14C01304636
:10984000FDF73AF9BDF8042022B107F18C0130464A
:10985000FDF72CF9204605B0F0BD80B508B90E2003
:1098600002BD01611B231721018041800371801D0E
:10987000FFF7A8FF002002BD02469088002800D014
:109880007047F0B58BB05F4B5F4C1088604D1C1B70
:10989000E4082404102844F001040E460BD01128DB
:1098A0002ED0232800F09180242870D03A282BD085
:1098B000552849D093E0B71D3079B871D17B012983
:1098C00004D0022904D17088388001E031883980C1
:1098D00039887A888A420ED20020A5DF10B901208B
:1098E000787108E0112802D10120387103E000F0FE
:1098F00099F900F08FF8B979F87988426FD26BE066
:10990000B01DFFF75FFF6AE0B71D508939888842B4
:1099100028BF0846788078881728B8BF1720788035
:10992000306900281CBF7879002809D044A100F0D4
:1099300076F869467888ADF8040030463269904779
:109940000020787138714AE0D088B71D172839880F
:10995000B8BF1720884228BF084678800020387199
:10996000B5DF38B100F05EF9024605F1340120465A
:10997000FDF79CF87879002831D1306900282ED085
:1099800031A100F04CF87888ADF8040018E0111D02
:1099900068462C22FCF722FFBDF80010BDF8042019
:1099A00006EBC1077A73D6F81000C0B128A0D0E941
:1099B0000023CDE90023ADF80210787B8DF8040078
:1099C000694632693046904709E0B01D12898179B5
:1099D000D2B2914288BF11460020FFF7FDFEB07A57
:1099E00068B1F1880020A5DF18B90121B072F172C9
:1099F00005E0112803D000F015F900F00BF80BB0CA
:109A0000F0BD000060B1020050B10200C8AD02001C
:109A1000C8B10200024629462046FDF747B800209B
:109A2000D1E90023CDE90023ADF802007047000022
:109A30000000000000000000000000000000000026
:109A4000770A000000000000770A00000000000014
:109A50007ADA00000000000010B572B6FDF775F963
:109A6000FDF734F80028FBD11048114C1149041BB4
:109A7000E408240444F00100FDF715F80E480168DD
:109A8000CA0700D500BE0D4944F00200FDF70BF8EF
:109A9000BFF34F8F0A490B480A6802F4E0620243A1
:109AA0000A60BFF34F8F00BFFDE700BF78B102002F
:109AB00050B10200CCB50200F0ED00E0D8B50200D4
:109AC0000CED00E00400FA05D2B2203A22BF00FA01
:109AD00002F1002070475242D041D2F12002914061
:109AE0004140D040904041407047FEE72E49012060
:109AF0000870704738B588B0044668462FA1202208
:109B0000FCF76CFE4FF0FF310191029103910625A5
:109B100000954FF0EB710691220014BF234A0022FA
:109B2000214D6946281D00F0C7F808B1FFF79CF9E0
:109B30006C7009B030BD0120DCE770B51A4C1C4DCB
:109B400000202070D2B22679AB5D23B104F1080069
:109B5000FEF7DAFC03E004F11000FDF719FF08B18D
:109B6000FFF782F9617811B120780028FCD070BD30
:109B700080B5104A009240230F4A00F0CDF801BD95
:109B8000704780B508490A4A0B79D05C20B101F1D1
:109B90000800FEF79EFC03E001F11000FDF7CCFE8B
:109BA000BDE802400020A5E7D0200020ED9A020089
:109BB000202E00203B9B0200282D0020FFFFFFFFEE
:109BC000FFFFFFFFFFFFFFFFFFFFFFFF00000000A1
:109BD000000000000000D6010601000005E00A6850
:109BE0004B689A4209D10831416002684168536864
:109BF0009942F4D100218160704782607047016012
:109C000009684160EAE7816851B103689A685118B0
:109C1000426881605368994202D102F10801F0E77D
:109C20007047FEE780B500F003F800B90FA002BD51
:109C300010B50D4901F5947200E01A4691420FD219
:109C4000531ADB1003EBD3735B1001EBC3031C68E7
:109C5000A042F2D3844238BF03F10801EED301E001
:109C6000002010BD586810BD98A90200556E6B6E9B
:109C70006F776E206572726F7220636F646500008B
:109C8000F8B500F013F8027A03E0F8B500F00EF82A
:109C900082688DF80820C0681C4A039002EB81029C
:109CA0006846D1685268904705B000BD02788DF8CB
:109CB0000020436801937047F8B5044688B02678C1
:109CC000124F07EB8600154645600A69C2602022E4
:109CD000487FB8556846FCF781FD04962678B85D44
:109CE00040B1002D14BF0A4A00226946201DFEF72C
:109CF000BCFB08E0002D14BF064A0022694604F1AF
:109D00000C00FDF7E1FD09B0F0BD0000202E0020A1
:109D1000819C02008B9C0200F0B595B00D461A9C08
:109D200016461F462846FDF791F809A81821FEF7A8
:109D300073FA09960A970E940023082201A928466F
:109D4000FDF7DDF80398BDF80A1004900826BDF869
:109D50000800ADF8140000220198ADF8161000F0CC
:109D6000030001288DF8192017D10198019CC0F338
:109D7000C2008DF8180008230198C0F38316B200C2
:109D80000FA92846FDF7BBF809A8009004AB32469E
:109D90000FA9A00A00F06EF81FE0019800F0030080
:109DA00002281AD10198019CC0F3C200A40D8DF8BD
:109DB00018000827082C98BF274633463A4607A9BB
:109DC0002846FDF79CF809AB04AA394607A800F01D
:109DD00099F8BE19E41B002CEBD12846FDF73AF8A0
:109DE00015B0F0BD7CB504460D46E3884BB100BF0D
:109DF0000FF2D4160FF2D81277A10096284600F081
:109E00000DF9217A05291CD0607A6E4E48B1A088E0
:109E1000FCF730FD06EB800064A14269284600F0A3
:109E2000FDF8A0880021FCF716FD0346207A56F8BD
:109E3000202028460DF1080DBDE870406CA100F00F
:109E4000EDB873BD38B50C46017A052958A507D081
:109E5000407A30B15CA255A1204600F0DFF800E066
:109E60001AB12946204600F0D9F82046BDE8324014
:109E700000F0C8B82DE9F84384B017460C9D2E7B3E
:109E8000002281460C4698462A7329464046FFF731
:109E9000A9FF062F2CD8DFE807F004090F1A2116B6
:109EA0001D004946284600F0B9F821E022684946DD
:109EB000284600F0B3F81BE063682268494628464C
:109EC00000F0ACF814E020690290E1680191A0680C
:109ED000009007E06069039021690291E0680190B9
:109EE000A1680091636822684946284600F096F808
:109EF000002229464046FFF7A5FF2E7305B0BDE8B6
:109F0000F08300002DE9FC4B8946B9F1080F0546A6
:109F1000984648D80092002298F80CB037A688F8E6
:109F20000C2041460098FFF75DFF002721A44F4514
:109F300005D2EA5D3146404600F070F803E0214664
:109F4000404600F06BF87F1C082FF0D31AA1404662
:109F500000F064F8002619A719A401954E4514D203
:109F60000198855DA5F120015F2908D3284600F0FE
:109F700069F820B9284600F06FF800B92E252A4666
:109F80002146404600F04AF803E03946404600F0DA
:109F900045F8761C082EE1D3012200984146FFF7D0
:109FA00051FF88F80CB0BDE8F38B0000257300006A
:109FB0000D0A0000202020007C000000200000008E
:109FC00025630000F02000201B5B306D00000000C6
:109FD0001B5B313B33316D0025734C6F677320641D
:109FE000726F70706564202825642925730D0A003E
:109FF0003C25733E2025733A200000002025303296
:10A000007800000010B50446A2682AB121682069D2
:10A01000636998470020A06010BD0000002900D1AE
:10A0200070470CB438B500BF05A31C68009404AD9C
:10A0300000956A4600F0C8F831BC5DF80CFB0000E2
:10A040000000000010B5044600F0C3F901462046A8
:10A050000969BDE81040084710B5044600F0B9F999
:10A0600001462046C969BDE81040084710B582681E
:10A07000531C83600468A15441688B4203D3BDE83C
:10A080001040FFF7BFBF10BD2DE9F84F8B460124EC
:10A09000154602E0B1FBF5F1641CA942FAD29A46DA
:10A0A0000B9FD146A24538BFA14680460A9CF807BF
:10A0B0000BD454B1B8070BD42026A14505D23146A4
:10A0C00000F05EF9641E002CF7D12E46012507E052
:10A0D000BAF1000FF0D13026EFE7AAF1010A75437B
:10A0E000BAF1010FF9D8BBFBF5F0B04228BF7543B8
:10A0F000F9D200BFA3A1BBFBF5F005FB10BB095CC7
:10A1000000F03EF9B5FBF6F5002DF2D1F80707D5C2
:10A1100034B1A14504D200F032F9641E002CF8D10C
:10A12000BDE8F18F2DE9FC470E0048BF49420125EB
:10A13000904602E091FBF8F16D1C4145FADA9A462F
:10A140000A9C0B9FD146AA4538BFA94624B1002ED0
:10A1500001D4790700D5641E0546B80702D5BAF1C7
:10A16000000F0BD0F80709D444B1A14506D2202135
:10A170002846FFF77BFF641E002CF6D1002E02D587
:10A1800076422D2102E0780703D52B212846FFF7E0
:10A190006DFF07F00300022808BFBAF1000F09D1D4
:10A1A00044B1A14506D230212846FFF75FFF641E67
:10A1B000002CF6D10197009453464246314628467A
:10A1C000FFF762FFBDE8F3872DE9FE430D008046EF
:10A1D000174600F0C78015F8011B002900F0BA806F
:10A1E000252940F0B180002602E046F001066D1CF2
:10A1F00029782B2907D02D29F7D0302908BF46F020
:10A200000206F4D0B0E046F00406F0E72978A1F1A8
:10A2100030020A2A0CD200FB04146D1C303C2A299F
:10A22000F4D1396839606D1C51F8042B3960141968
:10A23000297800232E290BD16D1C04E000FB0311AB
:10A240006D1CA1F130032978A1F130020A2AF5D35F
:10A25000287801E015F8010F6C2818BF6828F9D09C
:10A2600025286CD0582822D063280CD0642818BF29
:10A2700069280FD070284CD073281ED0752812D0B2
:10A28000782814D05EE03868386050F8041B3860D5
:10A29000C9B255E0386838600A2200F06AF84046D2
:10A2A000FFF740FF4EE0386838600A2202E0386865
:10A2B0003860102200F05DF83DE03868386050F8F2
:10A2C000049B38600020F10751D4B9F1000F1CBF86
:10A2D0004846FEF7C9FB064610E000F051F8761C30
:10A2E00019F8011B0800F8D1A6422BD254B300F094
:10A2F00046F8641EF8E700F042F8641EA64201D258
:10A30000002CF8D119F8011B08001BD000F038F818
:10A31000F8E738683860302150F8044B386000F0B6
:10A320002FF8782100F02CF80821009100200190EE
:10A330000823102221464046FFF7A6FE02E0252111
:10A3400000F01EF86D1C01E000F01AF828780028D3
:10A350007FF441AF98F80C0020B14046BDE8FE43C1
:10A36000FFF750BEBDE8F78300240A2057E7002618
:10A37000B6E750F8041B386001960094704720211E
:10A38000404673E63031323334353637383941425E
:10A3900043444546613807E005E0A0F161011A2910
:10A3A00001D20120704741381A288041C00F704700
:10A3B000A0F121010F290AD3A0F13A02062A06D9F9
:10A3C000A0F15B01062902D37B380428EDE70120C8
:10A3D00070470148704700002C2100204E52465F14
:10A3E00053554343455353004E52465F4552524FD7
:10A3F000525F5356435F48414E444C45525F4D496E
:10A400005353494E470000004E52465F4552524F4B
:10A41000525F494E5445524E414C00004E52465FE9
:10A420004552524F525F4E4F5F4D454D0000000068
:10A430004E52465F4552524F525F4E4F545F464F09
:10A44000554E44004E52465F4552524F525F4E4F5A
:10A45000545F535550504F52544544004E52465F3E
:10A460004552524F525F494E56414C49445F50410C
:10A4700052414D004E52465F4552524F525F494E37
:10A4800056414C49445F5354415445004E52465F37
:10A490004552524F525F494E56414C49445F4C45DC
:10A4A0004E475448000000004E52465F4552524FFE
:10A4B000525F494E56414C49445F464C4147530018
:10A4C0004E52465F4552524F525F494E56414C499B
:10A4D000445F4441544100004E52465F4552524F42
:10A4E000525F444154415F53495A45004E52465FC2
:10A4F0004552524F525F54494D454F55540000004C
:10A500004E52465F4552524F525F4E554C4C0000E2
:10A510004E52465F4552524F525F464F5242494457
:10A5200044454E004E52465F4552524F525F494E8F
:10A5300056414C49445F4144445200004E52465FEC
:10A540004552524F525F4255535900004E52465F9A
:10A550004552524F525F434F4E4E5F434F554E54FC
:10A56000000000004E52465F4552524F525F524526
:10A57000534F5552434553004E52465F4552524F3A
:10A58000525F4D555445585F494E49545F464149C5
:10A590004C4544004E52465F4552524F525F4D5516
:10A5A0005445585F4C4F434B5F4641494C4544002E
:10A5B0004E52465F4552524F525F4D555445585F7B
:10A5C000554E4C4F434B5F4641494C4544000000BB
:10A5D0004E52465F4552524F525F53544F5241477D
:10A5E000455F46554C4C00004E52465F4552524F17
:10A5F000525F4150495F4E4F545F494D504C454D5D
:10A60000454E5445440000004E52465F4552524F5D
:10A61000525F464541545552455F4E4F545F454E3B
:10A6200041424C45440000004E52465F4552524F55
:10A63000525F494F5F50454E44494E47000000006D
:10A640004E52465F4552524F525F4452565F5457E6
:10A65000495F4552525F4F56455252554E000000D9
:10A660004E52465F4552524F525F4452565F5457C6
:10A67000495F4552525F414E41434B004E52465F47
:10A680004552524F525F4452565F5457495F4552AC
:10A69000525F444E41434B0073645F626C655F637D
:10A6A00066675F73657428292072657475726E65BC
:10A6B00064202573207768656E20617474656D7001
:10A6C00074696E6720746F2073657420424C455F17
:10A6D000434F4E4E5F4346475F4741502E000000B8
:10A6E00073645F626C655F6366675F736574282976
:10A6F0002072657475726E656420257320776865B5
:10A700006E20617474656D7074696E6720746F205B
:10A7100073657420424C455F4741505F4346475F35
:10A72000524F4C455F434F554E542E0073645F6249
:10A730006C655F6366675F73657428292072657452
:10A7400075726E6564202573207768656E2061746C
:10A7500074656D7074696E6720746F207365742002
:10A76000424C455F434F4D4D4F4E5F4346475F560A
:10A77000535F555549442E0073645F626C655F6397
:10A7800066675F73657428292072657475726E65DB
:10A7900064202573207768656E20617474656D7020
:10A7A00074696E6720746F2073657420424C455F36
:10A7B00047415454535F4346475F415454525F549A
:10A7C00041425F53495A452E0000000073645F62A6
:10A7D0006C655F6366675F736574282920726574B2
:10A7E00075726E6564202573207768656E206174CC
:10A7F00074656D7074696E6720746F207365742062
:10A80000424C455F47415454535F4346475F53456D
:10A8100052564943455F4348414E4745442E000048
:10A8200030B54A4800210160416000204849086075
:10A83000484949480A6802604B6843608A688260F8
:10A84000CB68C3600A6902614B6943618A6902622D
:10A85000CB6943620A6A82624B6AC3628A6A026394
:10A86000CB6A43630A6B02644B6B43648A6B8264FA
:10A87000CB6BC364096C016538490868082804BFBC
:10A880004868002802D13648364A02600B68082B17
:10A8900004BF4868002802D13348FB2202600B68DD
:10A8A000082B04BF4868002809D13048304B0268A3
:10A8B0001C78120904F00F0444EA021202600868CE
:10A8C000082804BF4868002803D12A484FF40071C3
:10A8D000016029480168CA0744BF6FF001010160A7
:10A8E0002649C86F40F47000C867BFF34F8FBFF3AD
:10A8F0006F8F234A106800285CBF506800281CD561
:10A90000204B01241C60204C00F042F812251560F9
:10A9100000F03EF8556000F03BF800221A6000F0AD
:10A9200037F8BFF34F8F0A68184802F4E062024319
:10A930000A60BFF34F8F00BFFDE7024A0249116072
:10A9400030BD0000282100200090D0030C01004001
:10A95000380500400404001020C5004030010010FC
:10A960008C5600404881030018F50040E40E00407A
:10A970005802001040960240000400400CED00E038
:10A980000012001004E5014000E401400400FA0553
:10A9900020680028FCD0704700000000DCA3020003
:10A9A00001000000E8A302000200000074B40200ED
:10A9B0000300000008A40200040000001CA4020020
:10A9C0000500000030A402000600000044A40200BC
:10A9D000070000005CA402000800000074A402004C
:10A9E000090000008CA402000A000000A8A40200D4
:10A9F0000B000000C0A402000C000000D8A402005C
:10AA00000D000000ECA402000E00000000A50200F2
:10AA10000F00000010A502001000000024A5020095
:10AA2000110000003CA50200120000004CA502002D
:10AA30001300000064A502008000000098B402002A
:10AA40008100000078A502008200000094A50200A9
:10AA500083000000B0A5020084000000BCB4020026
:10AA600085000000B4B3020086000000D0A50200FB
:10AA700090000000E8A502009100000008A6020076
:10AA80009200000028A602000082000040A60200FA
:10AA90000182000060A60200028200007CA6020083
:10AAA00000840000E0B402000184000088B30200CA
:10AAB00002840000DCB302000384000004B502003D
:10AAC00033B58BB00021044600910C9880B100256D
:10AAD00029460CA800F093F838B10099684600EBBD
:10AAE000410295800098401C00906D1C142DEFD3FE
:10AAF000204669462C22FBF771FE0DB030BD2DE9D2
:10AB0000F84306468CB03088B488314D102804D004
:10AB1000112838D01A283AD057E0AA68D2430092B8
:10AB200068466968FCF720FA009901A8FFF7C8FF9A
:10AB30004FF000090EE002A8002730F81980281D08
:10AB4000414600EB870000F04FF87F1C1D2FF6D325
:10AB500009F1010901988145EDD3142C03DB042090
:10AB6000FEF782F931E0214605F1080000F032F8E5
:10AB70002146281D00F02EF8F07B012825D0214623
:10AB800005F10C0014E0214605F108001BE0307AC5
:10AB9000000902280FDBCCBF01260026214605F163
:10ABA000100000F017F8002E214605F114000AD01D
:10ABB00000F010F809E0214605F1100000F014F84B
:10ABC000214605F1140000F00FF80DB0BDE8F08348
:10ABD000002C00200B46012103F01F025B0991406D
:10ABE00000EB8300FCF7A8B90B46012103F01F021C
:10ABF00091405B09C94300EB8300FCF7B5B94A09F2
:10AC000050F8220001F01F01C84000F00100704719
:10AC100038B53B4C207808B1852510E0A0600021B4
:10AC200061602061E1600FF2710000F077F8054685
:10AC3000FEF794FC08B900F07DF80120207028464A
:10AC400032BD1CB500F010F82D4CE068401EE060ED
:10AC5000E06818B900F07EF80020A070FFE79DF8CA
:10AC60000000FCF7CCF913BD00218DF800106846F8
:10AC7000FCF7A8B938B50400214814BF00F110054D
:10AC800000F1080504E00868286020464968884704
:10AC900029680029F7D131BD0200194903D10123E8
:10ACA0004B70002002E0012801D18870E2E7704774
:10ACB00018B9134A01215170DCE770471CB520B167
:10ACC000012806D0032815D013BD0E4901200860C5
:10ACD00013BD00228DF800206846FCF773F9084C7C
:10ACE000207808B9FFF794FFE068401CE06001217C
:10ACF000A170B4E700F01EF8FFF7A3FF13BD00003A
:10AD00000C2E002080E100E04FF0804181B0002255
:10AD10000A5008580090009901B07047214B1979EA
:10AD20000246002009B18520704701211A6019717F
:10AD30005871704710B51C480168C90706D41B4BF1
:10AD40001B4CC0221A7001212160016001201949A9
:10AD5000086010BD19491A4A012008601068C00334
:10AD6000FCD4704770B5174E0E4C3068124D50B180
:10AD70004FF48070FFF7C8FF01212960607910B996
:10AD8000617122689047706850B14FF48270FFF78C
:10AD9000BBFF0220286001202168BDE87040084701
:10ADA00070BD0000742E002000E100E000E400E02F
:10ADB00080E200E018050040080300400C0000405D
:10ADC000180400400001004073645F626C655F67B7
:10ADD00061705F646174615F6C656E6774685F75F4
:10ADE00070646174652829202872657175657374B3
:10ADF00029206F6E20636F6E6E656374696F6E20BD
:10AE0000307825782072657475726E6564202573BC
:10AE10002E00000054686520726571756573746555
:10AE2000642054582F5258207061636B6574206CF5
:10AE3000656E67746820697320746F6F206C6F6E25
:10AE4000672062792025752F2575206F63746574DE
:10AE5000732E0000546865207265717565737465A2
:10AE60006420636F6D62696E6174696F6E206F66D6
:10AE700020545820616E64205258207061636B65C5
:10AE800074206C656E6774687320697320746F6FCB
:10AE9000206C6F6E67206279202575206D69637262
:10AEA0006F7365636F6E64732E00000080B50122BE
:10AEB00000F04AF8002818BF07280DD100F048F824
:10AEC000002818BF072807D10A22002100F03DF80A
:10AED000002814BF0728002002BD10B51F4C0146F2
:10AEE00009886068102902D011291FD010BDC8B987
:10AEF0000122002100F034F8002818BF07280CD1E7
:10AF000000F026F8002818BF072806D1042200F018
:10AF10001BF8002818BF072804D000281EBF21688E
:10AF2000002988476068401C606010BD401E60605A
:10AF300009D1FFF7BBFF00281CBF2168002902D000
:10AF4000BDE81040084710BD0221002000F008B8FD
:10AF500007220221012000F003B800005C2E00202F
:10AF600030B503460020042B15D20C4C03EB4305EF
:10AF7000012A2C4405D1012908BF03F10E0204D097
:10AF8000002231B1022902D005D2227030BD627098
:10AF900030BDA27030BD072030BD0000842B0020E2
:10AFA0004E6F7420656E6F7567682073706163659E
:10AFB00020666F7220636861726163746572697381
:10AFC00074696373206173736F636961746564206E
:10AFD00077697468207365727669636520307825B7
:10AFE0003034582021000000496E6372656173653A
:10AFF00020424C455F474154545F44425F4D4158A5
:10B000005F434841525320746F2062652061626C37
:10B010006520746F2073746F7265206D6F72652088
:10B0200063686172616374657269737469637320C4
:10B03000666F722065616368207365727669636507
:10B0400021000000496E73756666696369656E74F8
:10B050002052414D20616C6C6F63617465642066A1
:10B060006F722074686520536F66744465766963F7
:10B07000652E00004368616E676520746865205224
:10B08000414D207374617274206C6F636174696FD9
:10B090006E2066726F6D203078257820746F2030B6
:10B0A0007825782E000000004D6178696D756D205F
:10B0B00052414D2073697A6520666F72206170700D
:10B0C0006C69636174696F6E2069732030782578CC
:10B0D0002E00000001000000000000000000000041
:10B0E0000000000000000000000000000000000060
:10B0F0000000000000000000000000000000000050
:10B10000000000000000000000000000000000003F
:10B11000000000000000000000000000000000002F
:10B12000000000000000000000000000000000001F
:10B13000000000000000000000000000000000000F
:10B1400000000000000000000000000000000000FF
:10B150006CB602000000030378B60200000003038F
:10B160002CB602000000030384B6020000000303B3
:10B17000A8B6020000000000F8B6020000000303B9
:10B1800050B402000000000024B3020000000303DA
:10B190005CB3020000000303E8B5020000000303F3
:10B1A000B0B6020000000000B8B6020000000000C7
:10B1B000FCB6020000000000C0B602000000000063
:10B1C000C8B602000000000073645F626C655F67D0
:10B1D000617474635F65786368616E67655F6D74E1
:10B1E000755F726571756573742829207265747551
:10B1F000726E65642025732E0000000073645F6228
:10B200006C655F67617474735F65786368616E67AE
:10B21000655F6D74755F7265706C79282920726541
:10B220007475726E65642025732E00004C454420B1
:10B23000427574746F6E20736572766963652064FD
:10B240006973636F7665726564206F6E20636F6EDD
:10B250006E5F68616E646C6520307825782E000022
:10B26000427574746F6E20737461746520636861D5
:10B270006E676564206F6E207065657220746F2044
:10B28000307825782E0000006572726F7200000021
:10B290007761726E696E6700696E666F000000000C
:10B2A00064656275670000001B5B313B33306D00E5
:10B2B0001B5B313B33326D001B5B313B33336D0025
:10B2C0001B5B313B33346D001B5B313B33356D0011
:10B2D0001B5B313B33366D001B5B313B33376D00FD
:10B2E0001FB500BF0CA40EE0052818BFFDF7BCFD7C
:10B2F0001FBD516800981268904701A8FEF783FCB3
:10B30000039A002AF5D168464BDF0028ECD121468C
:10B3100001A8FEF774FCF3E7F4B5020004B60200DE
:10B32000080000006E72665F736468000000000031
:10B33000000000000000000000000000F0B6020065
:10B34000F8B6020000000000000000005CB6020039
:10B350006CB6020000000000000000006E72665F24
:10B360007364685F626C6500D0B60200D8B60200F4
:10B3700070B5020090B50200D8B60200E0B6020037
:10B38000E0B60200E8B602004E52465F4552524F08
:10B39000525F424C455F495053505F4348414E4EC7
:10B3A000454C5F414C52454144595F4558495354BF
:10B3B000530000004E52465F4552524F525F4D4F70
:10B3C00044554C455F414C52454144595F494E49B3
:10B3D0005449414C495A4544000000004E52465FD2
:10B3E0004552524F525F424C455F495053505F4C5B
:10B3F000494E4B5F444953434F4E4E454354454499
:10B400000000000010B5074979441831064C7C440F
:10B41000163404E00A68081D114488470146A14219
:10B42000F8D110BD280100004401000073645F6280
:10B430006C655F6761705F7363616E5F7374617287
:10B44000742072657475726E65642030782578009A
:10B450007077725F6D676D7400000000000000007F
:10B4600000000000000000000000000000000000DC
:10B47000000000004E52465F4552524F525F534FFC
:10B4800046544445564943455F4E4F545F454E41EF
:10B49000424C4544000000004E52465F4552524F18
:10B4A000525F4D4F44554C455F4E4F545F494E4996
:10B4B0005449414C495A4544000000004E52465FF1
:10B4C0004552524F525F4D555445585F434F4E447D
:10B4D0005F494E49545F4641494C454400000000D5
:10B4E0004E52465F4552524F525F424C455F495063
:10B4F00053505F52585F504B545F5452554E434126
:10B50000544544004E52465F4552524F525F424CA2
:10B51000455F495053505F504545525F52454A453B
:10B5200043544544000000004EF68851CEF200011D
:10B53000086840F470000860BFF34F8FBFF36F8F4F
:10B540004FF00070E1EE100A70470000D3CCFFFF0F
:10B55000140D0000742100200000000043CCFFFF08
:10B56000EA010000DE000000701D0020FEE7000080
:10B57000DBAE020000000000378A0200701D0020D0
:10B5800079980200E81D0020FB660200FC1D0020E7
:10B590000120C046002801D0FFF734FFAFF3008040
:10B5A0000020AFF30080FDF791FB00F000F800F001
:10B5B00001B8FEE70746384600F002F8FBE7FEE771
:10B5C0002021090326311820ABBEF9E746617461DA
:10B5D0006C206572726F720053797374656D20729E
:10B5E00065736574000000006E72665F7364685F67
:10B5F000736F6300E8B60200F0B6020000000000BE
:10B6000000000000756172745F6C6F675F62616358
:10B610006B656E64000000006C2E0020642E00201C
:10B620006C2E0020A4290020180000006E72665FB6
:10B63000626C655F676174740000000001488047B8
:10B640000148004721A802009DB6020090B6020002
:10B650000000000004B60200E82000203597020038
:10B6600000000000E1B2020000000000626C655FB3
:10B6700064625F6469736300626C655F6C62735FD0
:10B6800063000000626C655F7363616E0000000020
:10B69000719B0200839B0200819B0200AFF300803C
:10B6A000FFF742FFFFF774FF636C6F636B000000EE
:10B6B000434C4F434B0000004750494F5445000056
:10B6C00055415254000000005541525445000000BD
:10B6D000FFAA0200000000008D900200D81D00208B
:10B6E000CD8B020000000000B1AC020000000000A1
:10B6F000BDAC0200000000006170700050525300A9
:10B700004300FEE7FEE7FEE7FEE7FEE7FEE7FEE7B3
:10B71000FEE7FEE7FEE7FEE7FEE7FEE7FEE7FEE701
:10B72000FEE7FEE7FEE7FEE7FEE7FEE7FEE7FEE7F1
:10B73000FEE7FEE7FEE7FEE7FEE7FEE7FEE7FEE7E1
:10B74000FEE7FEE7FEE7FEE7FEE7F2FF0001F1FF9E
:10B7500001F1FF01F114018C07FFFF0B0003006DE5
:10B760008C025F0330012000400D6108110152FF7F
:10B7700009100388B20200900412980412A0041069
:10B7800003C89F0200A80812D00812B00812B8041B
:10B7900022C0182114110412D8049C070090D00371
:10B7A00000B7020001C103439BA37012950852B178
:09B7B0000C9399A384D101613CC2
:040000050002B69DA2
:00000001FF
