:020000040002F8
:1060000050830020C1630200C9630200CB63020019
:10601000CD630200CF630200D163020000000000E4
:10602000000000000000000000000000D363020038
:10603000D563020000000000D7630200D9630200AC
:10604000DDCD0200DB63020065D00200DB630200ED
:10605000DB630200DB630200C5CB0200DB630200EE
:10606000DB630200DB630200DB630200DB63020030
:10607000DB63020035CE0200DB630200DB6302005B
:10608000DB6302005DCE0200DB630200DB63020023
:1060900081CE0200DB63020085CE0200DB630200DA
:1060A000DB630200DB630200DB630200DB630200F0
:1060B000DB630200DB630200000000000000000060
:1060C000DB630200DB630200DB630200DB630200D0
:1060D000DB630200DB630200DB630200DB630200C0
:1060E000DB630200DB630200996502000000000030
:1060F00000000000DB63020000000000DB63020020
:10610000000000000000000000000000000000008F
:10611000000000000000000000000000000000007F
:10612000000000000000000000000000000000006F
:10613000000000000000000000000000000000005F
:10614000000000000000000000000000000000004F
:10615000000000000000000000000000000000003F
:10616000000000000000000000000000000000002F
:10617000000000000000000000000000000000001F
:10618000000000000000000000000000000000000F
:1061900000000000000000000000000000000000FF
:1061A00000000000000000000000000000000000EF
:1061B00000000000000000000000000000000000DF
:1061C00000000000000000000000000000000000CF
:1061D00000000000000000000000000000000000BF
:1061E00000000000000000000000000000000000AF
:1061F000000000000000000000000000000000009F
:10620000DFF80CD000F08AF900480047611803005D
:106210005083002030B450E8012F93B2C489234446
:106220008489A34228BF1B1B0489A34202BFBFF37A
:106230002F8F002007E0C3EA020340E80134002C5E
:10624000E9D14FF001000A6030BC704750E8012FDF
:10625000C2EA024240E801210029F7D1704730B478
:1062600050E8022F1FFAA2F3C488A34202BFBFF373
:106270002F8F00200DE0C48923448489A34228BFC6
:106280001B1BC2EA034340E80234002CE8D14FF064
:1062900001000A6030BC704750E8022FC2EA224277
:1062A00040E802210029F7D17047034653E8022F46
:1062B000D988B2EB324F4FF0000017BF92B241EADB
:1062C000014142EA014104E05A68B2EB324F08BF93
:1062D000012043E80212002AE8D1704730B4044696
:1062E00054E8000F0D4644E80053002BF8D1156028
:1062F00030BC704730B4044654E8000F40EA010552
:1063000044E80053002BF7D1156030BC704730B41F
:10631000044654E8000F00EA010544E80053002B4E
:10632000F7D1156030BC704730B4044654E8000F14
:1063300080EA010544E80053002BF7D1156030BC1A
:10634000704730B4044654E8000F00EB010544E800
:106350000053002BF7D1156030BC704730B40446B1
:1063600054E8000FA0EB010544E80053002BF7D1DF
:10637000156030BC704770B404464FF0000054E81C
:10638000006F0D68AE4207BF44E80023012044E8D7
:1063900000630E60002B1CBF0020F0E770BC70474C
:1063A00030B4044654E8000F88422CBF451A054615
:1063B00044E80053002BF5D1156030BC7047000055
:1063C0000648804706480047FEE7FEE7FEE7FEE78F
:1063D000FEE7FEE7FEE7FEE7FEE7FEE789CE020006
:1063E000016202002DE9F05F0546002092469B46BF
:1063F00088460646814640241BE0284641464746DB
:10640000224600F07AF853465A46C01A914110D3FA
:1064100011461846224600F016F82D1A67EB0108BF
:106420004F4622460120002100F00DF817EB00092D
:106430004E41201EA4F10104DFDC484631462A46C5
:106440004346BDE8F09F202A04DB203A00FA02F11F
:10645000002070479140C2F1200320FA03F3194352
:106460009040704700487047F096030010B5441AFA
:106470000346944209D28418114403E011F8013D07
:1064800004F8013D521EF9D210BD40EA0104A407F0
:1064900003D009E010C9121F10C3042AFAD203E086
:1064A00011F8014B03F8014B521EF9D210BDD2B2C4
:1064B00001E000F8012B491EFBD270470022F6E7ED
:1064C00010B513460A4604461946FFF7F0FF20466A
:1064D00010BD421C10F8011B0029FBD1801A704727
:1064E00030B504460020034600E05B1C934203D213
:1064F000E05CCD5C401BF8D030BD202A04DB203AA4
:1065000021FA02F00021704721FA02F3D040C2F1D3
:10651000200291400843194670470000064C074D81
:1065200006E0E06840F0010394E807009847103463
:10653000AC42F6D3FFF768FEA0D70300C0D7030034
:1065400070B58C1810F8015B15F0070301D110F835
:10655000013B2A1106D110F8012B03E010F8016B62
:1065600001F8016B5B1EF9D12B0705D40023521EE5
:106570000DD401F8013BFAE710F8013BCB1A921C4D
:1065800003E013F8015B01F8015B521EF9D5A1424B
:10659000D8D3002070BD00000B490C4B0C4A4FF0C3
:1065A000FF3008601B68BFF35B8F52E8001F42E8B2
:1065B00000300028F9D1BFF35B8F9942F3D1BFF3CC
:1065C0005F8F044A1360704704BA025000BA025049
:1065D0004C63002008BA025099422DE9F04349D893
:1065E00001EB030E4FEA5E0E012700240025002672
:1065F00099423CD202EB830302EB810E5EF804CB9E
:106600009E4544EA0C04F9D114F1FF3445F1FF35FD
:106610006FEA050C0CF0010C8E46BEF1000F4DD058
:10662000002400EB8E0E043A214652F8043F50F845
:10663000045B9D420CBF0123002301EA030103EA2E
:10664000040388BF41F001012CBF1C4643F0010444
:106650008645EAD181B38CF001001EB3BCF1000F76
:1066600024D123461F4000EB4700BDE8F0834FF0E4
:10667000000CD2E700EB830600EB810E002400251E
:1066800056F8047BB64544EA0704F9D114F1FF3803
:1066900045F1FF396FEA090606F0010609F0010726
:1066A0009E46A5E70840BCF1000FDAD001231F4049
:1066B00000EB4700BDE8F083002CCCD12EB9BCF133
:1066C000000F09D030460123CCE78CF001000024F4
:1066D000BCF1000FC5D0E9E7604664466746C0E7F5
:1066E000F0B461B14C1E0519065DF6B9294634B106
:1066F00011F8015D661EBDB93446002CF8D1002B9F
:1067000046D05C1E1519115D002943D12B4634B1CA
:1067100013F8016D651E86B92C46002CF8D1081CB3
:1067200018BF0120F0BC7047214673B35C1E1519D9
:10673000165D002EEAD0254600E023468B4224D386
:10674000994238BF0220EDD34C1EA54228BF2546F2
:10675000002D22DB4419471E2A44002004E00028B3
:1067600008BF0120A7420BD014F8016912F80159A3
:10677000AE42F4D8F6D2002808BF0220A742F3D1D7
:10678000994218BF0020F0BC70470120F0BC704750
:106790001846C7E725460021D2E70020F0E700BFF2
:1067A00088420BD030B4D31C9B0803F18043013BDB
:1067B000002540F8235030BC05F03ABE704700BFBA
:1067C000814202D0920005F033BE70471AB110B179
:1067D0001BB9114870471148704713F0030FF8D1E7
:1067E0008B42F6D30029F4D090420AD004D9134446
:1067F000984201D20A487047904202D243189A4206
:10680000F8D91144013811F8013D00F8013F8A42DE
:10681000F9D10020704700BF050DF000040DF00015
:10682000060DF00032B128B1F8B55C1E053403D96D
:106830001E48F8BD1E48704711F00304F8D18B4282
:10684000F6D8CE1C26F00307B94201D21948F8BD8C
:10685000FF1A114605461A46384405F0E9FD394647
:106860002846B70805F0E8FD012F04D12B681BBAB4
:106870002B602046F8BDF60805EB86042B4605EB99
:10688000870050F8041C1A6809BA43F8041B12BAAE
:106890009C4240F8042DF4D117F00100D7D055F8F0
:1068A00026301BBA45F826300020F8BD050DF00053
:1068B000040DF000090DF00091B310B44B1EC41884
:1068C000C25C6AB9214633B111F8012D581E32B9A4
:1068D0000346002BF8D118465DF8044B7047194663
:1068E00014064FEAC100F7D4510600F1FF33F2D489
:1068F0009406A0F10203EED4D106A0F10303EAD47A
:106900001407A0F10403E6D45107A0F10503E2D473
:106910009207A0F10603DED407385DF8044B7047F8
:106920000846704749B301F18042013A00EB820307
:1069300050F8222022BB1A464B1E1FD010B452F82A
:10694000044D34B91946013B13D052F8044D002CC4
:10695000F8D001F1804102395B0150F82120A3F108
:10696000200102E0013B8B4203D0002A4FEA4202A1
:10697000F8DA18465DF8044B70470B461846704726
:106980004B01A3F1200102E0013B8B42F6D0002A2B
:106990004FEA4202F8DAF1E73AB10A44013812F854
:1069A000013D00F8013F8A42F9D10020704700BF45
:1069B0002DE9F84339B12A4C0D68A54207D0294C7E
:1069C0002046BDE8F883284C2046BDE8F88328B16E
:1069D0000568013CA54203D0244CF1E7244CEFE7C5
:1069E000A2B1BBB1089C9CB10C460546164600F10D
:1069F00094014FF4377204F150001F46043504F13E
:106A0000040905F011FD38B11A4CD9E71A4CD7E743
:106A10001A4CD5E71A4CD3E7D4F808833B6808F141
:106A200007084FEAD808984503D9C7F80080154CE5
:106A3000C6E749462846089B324601F0CFFC04468B
:106A400038B9C7F800804FF45371089805F0F4FC8A
:106A5000B6E73046396805F0EFFC00233B60F2E70B
:106A6000020000EC3408F0003308F0003208F000B7
:106A70003108F0003A08F0003508F0003708F0005F
:106A80003608F0003808F0002DE9F04F83B0C8B1A7
:106A9000C1B1BAB1B3B10E9CA4B10C9C94B10D9C20
:106AA000ACB1984617460E46044601F0FFF8426A1C
:106AB00033684FEAC20A534583464FEA820908D237
:106AC000154D00E0154D284603B0BDE8F08F144D7C
:106AD000F9E7D8F800309945F2D81FFA89F10E9AF3
:106AE0000C980D9B9847054620B149460E9805F035
:106AF000A3FCE8E70E9B03F1200200925B462146CF
:106B000038460E9A01F0D6F805460028EDD1C6F8B1
:106B100000A0C8F80090E8E70123F0000023F0008F
:106B20000523F00078B172B16BB170B582B0069CEC
:106B30005CB1079C4CB1089C3CB11C683F2C07D849
:106B4000114802B070BD11487047104802B070BDC6
:106B5000079C24681F2CF3D92029F1D1154604463F
:106B60001E4601F0A3F8089B0093224603462946DF
:106B7000069801F09FF80028E8D140223260079A79
:106B800020231360E2E700BF0123F0000023F000A0
:106B90002DE9F04782B0BAB1B3B1A8B1A1B10A9C56
:106BA00094B10C9C84B10B9C9CB114461E46884643
:106BB000074601F0C3F9D0F88C2033684FEA820908
:106BC000994508D91D4D00E01D4D284602B0BDE88D
:106BD000F0871C4DF9E7D8F800309945F2D8436AA0
:106BE0000A981FFA89F122464FEA830A0B9B9847BD
:106BF000054668B10C984FF4B07105F01DFC514684
:106C0000384605F019FC4946204605F015FCDCE73E
:106C10000C9BC8F800A04146009322464B463846DC
:106C200000F0A2F805460028E4D1C6F800904FF421
:106C3000B0710C9805F000FCC7E700BF3123F000ED
:106C40003023F0000523F000C8B1C1B1BAB12DE97D
:106C5000F04F85B00E9CACB1109C9CB199460D468E
:106C60000446164601F06AF9476A2B68BF009F4246
:106C700080460CD9394B184605B0BDE8F08F384B2B
:106C800018467047364B184605B0BDE8F08F0F9B8D
:106C90009F42EFD1D0F88C2092004A45EAD1109B58
:106CA000314603F140091846A2F1040BFFF778FDC5
:106CB0003A460E994846FFF773FD109B109A53F819
:106CC0000B3012680293019223F04043109A1099FE
:106CD00043F0804342F80B30136802F1200A23F09E
:106CE0000703136050464A46434601F045FB20B374
:106CF0001C4B109A964205D039461046019305F078
:106D00009BFB019B544505D050463946019305F045
:106D100093FB019B0E9A4A4505D03946484601939C
:106D200005F08AFB019B0193109B4FF4807103F1E6
:106D3000600005F081FB019BA5E7109B03901A46BC
:106D4000019B1360029B42F80B305146D8F8242077
:106D50002046FFF735FD2F60039BCAE73123F00083
:106D60003023F0003423F000C0B1B9B1B2B12DE945
:106D7000F04F83B00C9C002C4CD099460D46044635
:106D8000164601F0DBF8476A2B68BF009F42804639
:106D900007D92B4B184603B0BDE8F08F294B184696
:106DA0007047D0F88C30B9EB830FF2D14A463146A8
:106DB0000C98FFF7F5FCA9F1040A0C9B0C9A53F808
:106DC0000AB01B6800932BF0404343F0804342F825
:106DD0000A3013680C9902F1200923F007031360AD
:106DE0004846434608F1280201F0C6FAB8B1164BEE
:106DF0000C9A964205D039461046009305F01CFBCC
:106E0000009B4C45C6D039464846009305F014FB1C
:106E1000009BBFE70B4B184603B0BDE8F08F0C9BFF
:106E200001901A46009B136042F80AB04946D8F810
:106E300024202046FFF7C4FC2F60019BD8E700BF49
:106E40003123F0003023F0003423F0002DE9F04727
:106E500051B18BB160B1D0F8B842B4F5107F0FD901
:106E6000294C2046BDE8F087284C2046BDE8F08735
:106E7000274C2046BDE8F087264C2046BDE8F08729
:106E8000D0F8BC520134A542EAD80AB9224CE8E74E
:106E90000735EE08B242F9D8174603F104080A464E
:106EA0001D4681463B4640464C21FFF7BBFC04464D
:106EB00050B907F1030AB7424FEA9A0A15D0514672
:106EC0004046FFF72FFD30B928464FF44C7105F0CE
:106ED000B3FA124CC5E749464FF4377205F150003A
:106EE00005F0A4FA0E4B2B60BBE7D9F8BC321F3378
:106EF000C3F34F1309F1D80251464046FFF76CFB2C
:106F00000228E1D1DBE700BF9508F0000908F00096
:106F10000208F0000A08F0000B08F0000C08F0006E
:106F2000020000EC38B191B110B5114B04689C42DD
:106F300003D0104810BD1048704752B1D0F80C3340
:106F400014680733B4EBD30F05D20C4810BD0C48BE
:106F500070470C4810BD0246043208464C232146B7
:106F6000FFF734FC084B002814BF1846002010BD62
:106F7000020000ECC208F000C008F000C408F000F5
:106F8000C108F000C308F000C508F00048B17AB3AA
:106F90002DE9F843364C0568A54204D03548BDE8D4
:106FA000F883354870472BB305291ED007291CD814
:106FB0001E46D0F84C331546C26CDF1D042903F180
:106FC0001F0304464FEAD7074FEA531302F00102AA
:106FD00013D0062911D0022907D1316807F1010821
:106FE000414529D22548BDE8F8832548BDE8F88306
:106FF000244870472448BDE8F8834FEA47083068C2
:1070000008F101084045EDD30429284618BF42F095
:1070100006014FEA830900F8011B4B46221D394641
:10702000FFF7D4FBC0B12846316805F005FA00230C
:1070300033601648BDE8F883284642F0020200F8A3
:10704000012B9B00221D3946FFF7C0FB0028EAD127
:10705000C6F80080BDE8F883781C4B4604F14C026A
:1070600028443946FFF7B2FB0028DCD1F0E700BF27
:10707000010000EC1A08F0001408F0001808F000F5
:107080001508F0001608F0001708F0001B08F000C3
:107090002DE9F04182B0002A52D0002B5FD0089C2D
:1070A000002C52D0099C002C5ED0002861D0002911
:1070B00050D0154604460F4618464FF44C711E46F4
:1070C00005F0BAF94FF45D71089805F0B5F9D5F8F7
:1070D000BC3209981F334FEA53184FEA880208F16F
:1070E000FF3805F1D80106EB880805F09FF9002369
:1070F000C8F80430331DD5F8BC2200932046394629
:10710000099B00F0FBFA0446002834D030464FF4C7
:107110004C7105F091F94FF45D71089805F08CF908
:107120000A9B23B140F66811184605F085F90998C5
:107130004FF4537105F080F9204602B0BDE8F081AC
:10714000124C204602B0BDE8F081114C204602B03E
:10715000BDE8F0810F4C204602B0BDE8F0810E4C36
:10716000204602B0BDE8F0810C4C204602B0BDE8DC
:10717000F0810B4CE5E72846099B089A314601F05F
:10718000A1F904460028C1D1CAE700BF0208F000F7
:107190000408F0009008F0000308F0000508F00073
:1071A0009108F0000B2804D8034B53F8203003B1AA
:1071B00018470020704700BFDCB70300F0B5BDB032
:1071C00004460E466846F0211F46154605F034F980
:1071D000042C39D8DFE804F02C321B3803000320DC
:1071E0002C4B2D492D4A00908020179039933A91CD
:1071F0003B9268469847B0F5720F17D02CD9284BB0
:10720000984221D0013398423ED1264C1DE0264BB6
:107210002649274A399301200090402017903A913F
:107220003B9268469847B0F5720FE7D1214C0CE0CD
:107230001D4B1E491E4A39930020EDE71A4B1B498E
:107240001B4A39930220E7E71B4C6846F02105F002
:10725000F3F820463DB0F0BDB0B92DB939466846C7
:1072600000F030F80446F0E78EB1019B0BB1134CEF
:10727000EBE72A463146684605F008FCB0F5720F88
:10728000D4D0BCD80028E9D04FF47504DDE70C4C0D
:10729000DBE700BFF98D0200C1BE0200B98B02001E
:1072A0000100F2000202F000A58D0200EDBC020018
:1072B0002D8B02000002F0000102F0000C02F00031
:1072C0000302F000F0B1F9B170B5026EBAB916461A
:1072D00001230D4643603146D0F8E8300446984714
:1072E000A0B11A4B984221D0013398421CD0184BC0
:1072F000B0F5720F0CBF18464FF4750070BD00F169
:107300006406E5E71248704712487047D4F8EC303D
:10731000204698470028E4D123682066032B05D82F
:10732000DFE803F0100E06120B4870BD0B4870BD6D
:107330001C22284604F1080105F078F8002070BDF1
:107340002022F6E71422F4E74022F2E70100F200DF
:107350000002F0000502F0000202F0000102F0005D
:107360002DE9F84348B1044615460E4669B3302A64
:1073700007D9254F3846BDE8F883244F3846BDE885
:10738000F8839307F5D1DFF894804FF0FF31D8F8F8
:10739000000005F071F8074620BB04F18409484657
:1073A000402105F049F8314648462A4605F03EF8A6
:1073B000AD08C4F8C450D8F8000005F07FF80028E4
:1073C000D8D0134804F0DCFFD4E70AB1114FD1E75D
:1073D000DFF848804FF0FF31D8F8000005F04CF896
:1073E000074658B10C4804F1840904F0C9FF484627
:1073F000402105F021F8002ED5D1D9E7402104F134
:10740000840005F019F8D3E7040CF000250CF00017
:10741000FCAC0300030CF000E4AC0300508300203C
:107420002DE9F04F9BB040B3002A43D021B98B46E1
:1074300058461BB0BDE8F08FA34E04460F46306897
:107440004FF0FF31154605F017F8E0B99F4BD4F81F
:10745000DC209A421BD0DFF884B23946284604F07B
:10746000EBFFD4F8C4305BBB306805F027F8002888
:10747000DED0974804F084FFDAE7DFF864B25846BC
:107480001BB0BDE8F08F934804F07AFFDEE7D4F834
:10749000D430DA071DD5D4F8CC3011331CD8D4F849
:1074A000D080B8F1040F1AD0B8F1080F17D0DFF868
:1074B00034B2D2E7DFF830B258461BB0BDE8F08FE7
:1074C0000023C4F8C43004F18400402104F0B4FF68
:1074D000CAE7DFF818B2C0E7DFF814B2BDE7D4F8A6
:1074E000C4200C2A54D804F14003029304F1840A06
:1074F000002A50D09200514604F1480004F096FF53
:10750000D4F8C420029908F104039B000093920070
:107510005346204605F014F8834600289DD10346C3
:1075200022465146204605F0ABF98346002894D107
:107530004FEA880B04EB0B09D9F80C301BBA5A1C24
:1075400011BA9342C9F80C1018D9D9F808301BBAEF
:107550005A1C11BA9A42C9F808100FD2D9F804304F
:107560001BBA5A1C11BA9A42C9F8041006D254F830
:1075700028301BBA01331BBA44F82830002307A86F
:107580001946032204F0D8FD50B1DFF868B164E772
:10759000DFF864B161E75046402104F04DFFC7E7D2
:1075A0000146082305AA07A80594CDF818B004F0F1
:1075B00019FE0028E9D1494607A804F0FBFD002880
:1075C000E3D1454AD4F8D4301A4267D017F00F0BF4
:1075D0004FEA171303930EBF4FF0100B01330393C1
:1075E000BB450DD0A7EB0B084146284604F024FF0D
:1075F0002B464246294607A804F0DAFC0028C4D1ED
:1076000004F1300810224146029804F00FFF404672
:10761000102104F011FF1AAA102342F8583D07A8C0
:107620000192CDF800801946424604F007FD00287B
:10763000ABD1A7EB0B0028445A46414604F0F6FEB6
:10764000D4F8D430DB0509D442460298039B29467E
:1076500002F090F8834600287FF4FFAE039A09F108
:10766000100353F8041C09BA0A4410BA914243F8B3
:10767000040D4FF0010201D99945F2D15146012381
:107680002246204605F0FCF8834600287FF4E5AE4C
:10769000D4F8CC300133C4F8CC30E2E604F1300841
:1076A0004046102104F0C8FE43464146102207A878
:1076B00004F07EFC00287FF468AFD4F8D43043F4A3
:1076C0008033C4F8D43081E750830020CDAB230150
:1076D000FCAC0300E4AC0300000101000E0CF00060
:1076E000270CF000210CF000000CF000080CF0005A
:1076F000070CF000360CF000040CF00070B4039D91
:107700004DB1064E941EB44202D9054870BC704774
:1077100070BC00F009B8034870BC7047FDFF07005B
:10772000310CF000300CF000002800F08F800029B0
:1077300000F0B7802DE9F04F87B01D460193D31DAF
:107740001446DA080E460292002D00F08280804630
:10775000BDF808102846FFF7AFF802282C4605466A
:1077600069D9032864D0109BEC1DE40803EB0409DD
:10777000029B4846191B6D4204F05EFE05F00705AA
:10778000109BCDF810904FF0FF0A4AFA05FA651EDB
:107790001D44A3B20393A4F1100305934FF6FF73A6
:1077A0005FFA8AFA9946109A03994046B047002832
:1077B0007AD12B780F2C0AEA03032B705FD9109A29
:1077C000059BD718019A02EB030B08E0002B56D05B
:1077D000B047002868D12B780AEA03032B701023E6
:1077E00019465A463846FEF77BFF0346022B3A46B7
:1077F0004FF010014046E9D1DDF8109010990123B7
:107800000A78134401F8013B89454FEA2323F7D155
:10781000019B02221C4419780A4403F8012B9C4264
:107820004FEA2222F7D10023184607B0BDE8F08FB7
:107830002378032B97D81F4B10980299019304F0DB
:10784000FBFD019B184607B0BDE8F08F1A4B1846A8
:1078500070471546A9B2109AB04703460028EBD1ED
:107860006B1E109AD25C42F0800162071ED0624209
:1078700002F0070241FA02F21099CA54D3E7A3B208
:107880001946019A1098FEF72BFF022804D0B9F18F
:10789000010988D1094BCFE7DDF81090002CADD15C
:1078A000C1E7074B184670470346C5E7109AD15405
:1078B000B9E700BF320CF000250CF000010CF0001D
:1078C000140CF00070B5D9B1B8B1174E0D4604468E
:1078D0004FF0FF31306804F0CFFDA0B9134BD4F85E
:1078E000DC209A4213D0124C306804F0E7FD10B14E
:1078F000104804F045FD204670BD0F4C204670BD79
:107900000E4C204670BD0E4804F03AFDE6E7D4F870
:10791000D430DB0701D40B4CE6E720462A46002191
:1079200004F00EFF0446DFE754830020CDAB2301B3
:107930000E0CF000FCAC0300250CF000200CF00055
:10794000E4AC0300080CF000F0B589B090B169B167
:1079500005460C46E42104F06FFD01A9284604F019
:10796000EDFA58B1234C204609B0F0BD224C204618
:1079700009B0F0BD214C204609B0F0BD204E4FF0BB
:10798000FF31306804F078FD80BB01A9224628460B
:1079900001F01EFF0746306804F090FDD0B9002FBB
:1079A000E0D1E421284604F047FD4FF0FF31306874
:1079B00004F062FDB0B922462846012104F0C0FE61
:1079C0000446306804F07AFD40B90E4B002C18BF15
:1079D0001C46C8E70C4804F0D3FCE0E70A4804F072
:1079E000CFFCF2E7094804F0CBFCE4E7074804F0D9
:1079F000C7FCCAE7110CF000200CF000250CF000C9
:107A000054830020120CF000FCAC0300E4AC030033
:107A10002DE9F04F99B09C01239F229EDFF87CE274
:107A20004FEA073C4CEA874744F00458944648EA3A
:107A30000705DEF800200292029AD207F9D5964A8D
:107A4000DFF858E215604FEA8C1C249A4CF0104C79
:107A50004CEA02354FEA834945EA090CDEF800207A
:107A60000392039AD507F9D58B4A8C4DC2F800C012
:107A70004FEA811848F0104217432A680492049A8A
:107A8000D207FAD5320342EA8646834A834D17600D
:107A900046F0045727432A680592059AD207FAD57B
:107AA00044EA090A7C4A7D4D17604AF0045A4FEABD
:107AB000033E4AEA0E0A2A680692069AD707FAD5C2
:107AC0008A04019242F0104C734A744FC2F800A02D
:107AD0004CEA040C4CEA0E0C3A680792079AD2075B
:107AE000FAD56D4A6D4FC2F800C046F0104C4CF408
:107AF000807C3A680892089AD507FAD5664A674F9B
:107B0000C2F800C0860146F0045C4CF4821C3A685E
:107B10000992099AD207FAD55F4ADFF88CB15F4F14
:107B2000C2F800C04FEA003A4AEA0B0B3A680A92E0
:107B30000A9AD507FAD5584F594AC7F800B0259D7B
:107B4000303742EA854C3A680B920B9AD207FAD545
:107B500044EA0E07DFF840B1504ACBF800C047F0C6
:107B6000245747F4001715680C950C9DED07FAD5BE
:107B700046F0484CDFF820B1484ACBF800704CF48E
:107B8000821C4CEA030315680D950D9DED07FAD58F
:107B900046EA0A06404F414A3B6046F0045646EA30
:107BA000090613680E930E9BDF07FAD544EA80405E
:107BB000394B3A4A1E6040F0045040EA0E00136808
:107BC0000F930F9BDD07FAD5334B364F334A1860BE
:107BD0004EEA070713681093109BD807FAD5019D4A
:107BE0002D4B2E4E1F600A03154348EA050747F048
:107BF000045033681193119BDB07FAD5264B274EAF
:107C0000186047F0104733681293129BDB07FAD5D0
:107C1000214B224E1F6033681393139BDB07FAD569
:107C20001D4B1E4E186045F00455254333681493D0
:107C3000149BDF07FAD5259B184844EA0334164BFA
:107C400044F010441D6044EA090403681593159B31
:107C5000DD07FAD548EA02020F4B10481C6042F0DB
:107C6000245242F4101203681693169BDC07FAD5CF
:107C700041F04841084B09481A6041F4A21141EA19
:107C8000080103681793179BDB07FAD5024B1960AD
:107C900019B0BDE8F08F00BF80B00250B0B0025004
:107CA00000410021400128290001102100487047AF
:107CB0002CAD03002DE9F04F5F6A85B09046BC0003
:107CC00000251E468246894622460E9B0395414664
:107CD0000420FFF773FA054658B104EB44010E98EF
:107CE00004F0AAFB039802F065FE284605B0BDE843
:107CF000F08F4FF0FF31224804F0BEFB50B904AAC8
:107D00001E2342F8043D0021306A02F021FF28B111
:107D10001C4DE2E71C4804F033FBF0E70E9B0E9A83
:107D20001B68009623F00703261F1360935923F066
:107D3000404302EB040B43F08043935159460BEB55
:107D400004003B4600F022F805460028C5D15BF848
:107D500027205BF8063043EAC27341464BF80630F1
:107D60002246484604F062FB3A4659465046FEF722
:107D700027FD2246514609EB040004F057FBACE70F
:107D8000588300203323F00034B203002DE9F0477C
:107D900084B09A460C9C8146884610461946164681
:107DA000656AFEF7BFFDBAF1000F04D15C4C2046B6
:107DB00004B0BDE8F0872B46224607210746002085
:107DC00002F000F9052304F2D4420721012002F059
:107DD000F9F82B4604F5EA7207210C2002F0F2F8BC
:107DE0002B4604F5FA7207210D2002F0EBF82B4622
:107DF00004F5057207210E2002F0E4F82B4604F585
:107E00000D7207210F2002F0DDF82B4604F51572E4
:107E10000721102002F0D6F82B4604F51D72072129
:107E2000112002F0CFF82B4604F52572072112200D
:107E300002F0C8F82B4604F52D720721132002F03A
:107E4000C1F82B4604F535720721142002F0BAF868
:107E50002B4604F53D720721152002F0B3F82B469E
:107E600004F545720721162002F0ACF82B4604F504
:107E70004D720721172002F0A5F82B4604F2144298
:107E80000721082002F09EF82B4604F23442072115
:107E9000092002F097F804F254422B4607210B20E8
:107EA00002F090F81F4A13680093009BDB07FAD595
:107EB0001D4B1E491B4A196013680193019BD8078B
:107EC000FAD5194B1A49174A196013680293029B95
:107ED000D907FAD5144B1749124A1960136803934E
:107EE000039BDB07FAD5104B134A1A60072104F2F3
:107EF000744208462B4602F065F83946304602F0D7
:107F0000C9FB044600287FF452AF48462946102298
:107F100002F02CF829464046112202F027F846E7E5
:107F20000223F000B0B0025080B0025080022A4715
:107F300080122A4F8001002180611821004870477B
:107F40004CB203002DE9F041069C0E4615461F4633
:107F50002246636A01218046002002F033F80121A5
:107F600004F1B4020846052302F02CF8636A04F118
:107F700094020121062002F025F8636A3A460121A5
:107F8000082002F01FF82946304600F00DF804469C
:107F900030B905F11F0149094046072201F0E6FF0B
:107FA0002046BDE8F08100BF2DE9F04FA9B00923BC
:107FB0000590012218460C460B2704210A260C25A1
:107FC0000793089709960A9501F028FF079B9F4A97
:107FD000990141EA834141F0924141F4043113682F
:107FE0000B930B9BDE07FAD5994A9A4B11600899BF
:107FF000303243EA811113680C930C9BDD07FAD5EC
:10800000934B924A19600A9B990141EA834141F0DE
:10801000924141F4043113680D930D9BD807FAD5B2
:108020008B4B8A4A196013680E930E9BD907FAD5B9
:10803000874B8949854A196013680F930F9BDB07AB
:10804000FAD5834B854A1A6014F11E0248BF04F129
:108050003D026FF0404303EB621304F1FF38059AD1
:10806000B8F1000F52F823B0C0F2718108AB02934F
:1080700007AB01930AAB0493DFF8F891734C744D8E
:10808000DFF8F4A109AB0027039308F01F061F2EA9
:1080900000F057812BFA06F606F0010677403A46C3
:1080A0000299019803F03EFA3A460499039803F0C6
:1080B00039FA0A9A49EA023123681093109BDF07C4
:1080C000FAD52960089A664941EA824123681193EA
:1080D000119BD807FAD52960099A49EA0231236829
:1080E0001293129BDA07FAD52960079A5D4B43EA8F
:1080F000824123681393139BDB07FAD52960079A03
:108100000998110341EA804141F0045141EA82118A
:1081100023681493149BDF07FAD529600A9A0899FB
:108120000998120342EA814141F0045141EA801169
:1081300023681593159BD807FAD529600A9A0798E2
:10814000910141EA003141F0104141F400212368DE
:108150001693169BDA07FAD52960099A910141EA2C
:10816000023141F0104141F4402123681793179BDD
:10817000DB07FAD5296023681893189BDF07FAD527
:10818000394B2B60079A110341EA824141F01041BB
:1081900041F0C00123681993199BD807FAD52960CB
:1081A000099A0A990898120342EA814141F0045160
:1081B00041EA801123681A931A9BDA07FAD52960DD
:1081C000099A49EA023123681B931B9BDB07FAD506
:1081D0002960099A0A98910141EA804141F00451CD
:1081E00041F4804123681C931C9BDF07FAD529606A
:1081F000079A4AEA821123681D931D9BD807FAD576
:10820000296023681E931E9BDA07FAD5174A2A6055
:1082100023681F931F9BDB07FAD5154A2A60099A2A
:10822000110341EA824141F0104141EA8211236881
:108230002093209BDF07FAD52960089A110341EAB1
:10824000824141F0104141EA821117E0B0B0025082
:1082500080B0025000002249400100214051142109
:1082600080400021C040002180300C900021142962
:10827000C0400C210001142900200C902368219398
:10828000219BD807FAD5296023682293229BDA071D
:10829000FAD5344A2A600A9A0998910141EA0031D4
:1082A00041F0104141F4001123682393239BDB0725
:1082B000FAD52960099A4AEA821123682493249BFB
:1082C000DF07FAD508F1FF38B8F1FF3F29603746DC
:1082D0007FF4DBAE02990198324603F023F932466F
:1082E0000499039803F01EF9089B1F491F4A41EAAD
:1082F000831113682593259BDC07FAD51C4B1B4A79
:108300001960089B0998190341EA804141F018411E
:1083100041F0800113682693269BD807FAD5144AAA
:10832000144B11600799303243EA81411368279357
:10833000279BDB07FAD50E4B0020196029B0BDE85A
:10834000F08F4FEA6812059B53F822B0A2E608AB03
:10835000029307AB01930AAB049309AB0026039386
:10836000B8E700BF823018C800200229B0B0025020
:1083700080B00250C02100882DE9F04184B007464A
:108380000E460D244FF0FF311248039490461D46CF
:1083900004F072F8D0B903AA0021286A02F0D8FBD1
:1083A000044660B9D5F88C103046FEF7BBFA00954C
:1083B0000246434631463846FFF7C4FD044603985B
:1083C00002F0F8FA204604B0BDE8F081024803F05C
:1083D000D7FFE0E75883002044B303002DE9F043C2
:1083E000D0F848431F3464091D464FEA8408D0F88A
:1083F0004C3385B005EB080600F1480706EB080E84
:108400001F3300970195914602965A09CDF80CE06A
:108410000346903002F03EFA074640B128464FF43A
:10842000537104F009F8384605B0BDE8F0833046D2
:108430002146FEF777FA08B9064FEFE721462846AE
:10844000FEF770FA0028F7D0424648462946FEF764
:10845000A3FAE3E72008F100F0B5D0F84843D0F8DC
:108460004C2385B01F340346640901EBC40001EBC3
:1084700084070D4601911F3203F1480103900091DA
:108480000297520903F5B47103F1900002F002FA69
:1084900018B10A4E304605B0F0BD064621463846B2
:1084A000FEF740FA18B1064E304605B0F0BD214641
:1084B0002846FEF737FA0028F5D1EBE73008F00040
:1084C0001008F0002DE9F04385B088B300294CD0A6
:1084D0009AB3002B4ED01646D0F8BC22039306F177
:1084E0004C0400F5B6731F3201F1040906F10408CB
:1084F000029400930D4652094946CDF8048000F5D8
:108500009273074602F0C6F90446D8B100242C60E5
:108510004846214634604C2203F08CFF21464046F9
:10852000902203F087FF164C204605B0BDE8F0838B
:10853000144C204605B0BDE8F083134C204605B02E
:10854000BDE8F0834FF43772394605F1500003F06F
:108550006DFF0E4B2B6039464FF4377206F19400D5
:1085600003F064FF0A4B3360E3E70A4C204605B092
:10857000BDE8F083084C204605B0BDE8F08300BF9D
:108580003008F0000208F0000408F000020000ECDF
:10859000010000EC0308F0000508F000F0B5D0F889
:1085A000483303F11F048DB064092022122C00927D
:1085B00003D9564E30460DB0F0BD0F46054669460C
:1085C000184602F099FA06460028F3D1234605F131
:1085D0009002012101F0F6FC01210846052305F572
:1085E000127201F0EFFC23462A460121022001F01D
:1085F000E9FC234605F1D8020121042001F0E2FC48
:1086000005F5907223460121052001F0DBFC404A6C
:1086100013680193019BDB07FAD53E4B3E493C4A68
:10862000196013680293029BD807FAD5394B3B496E
:10863000374A196013680393039BD907FAD5354B62
:108640003749334A196013680493049BDB07FAD552
:10865000304B344A1A6007F00603022B29D005F18B
:10866000480223460121032001F0ACFC284A13688C
:108670000593059BDC07FAD5264B2B49244A196044
:1086800013680693069BD807FAD5224B2749284A38
:10869000196013680793079BD907FAD5254A264B1B
:1086A000126812F4805F08BF1E46009802F082F93B
:1086B00080E702F05FFF002826D01D4A1368089368
:1086C000089BDB07FAD51D4B194A196813680A93F2
:1086D0000A9BD807FAD51A4A1A4B11601B680993EE
:1086E000099B5F40F90708D5343A13680B930B9B3D
:1086F000DB07FAD5074B144A1A60214605F14800FA
:10870000032201F033FCD0E7104ECEE70F08F00053
:10871000B0B0025080B002508021088880411831EA
:10872000806108880051183180310C880068105130
:10873000B4B0025088B002501008F0000CB00250E3
:10874000E4B00250DCB00250C03000294021F000FB
:1087500070B582B058B10E46016A072904463FD071
:1087600053B9032912D00025284602B070BD4FF43A
:108770007105284602B070BD416B00295DD1B3F58B
:10878000805F0DD3914D284602B070BD016B00296A
:10879000E9D1C36303644364836400F13C0610239E
:1087A0004FF0FF318A488DE80C0003F065FE9DE82C
:1087B0000C00002847D1874801210160206A072862
:1087C00047D9854B1D68002DFCD1824B80481D6028
:1087D00003F074FE0028C6D0804803F0D1FDC3E743
:1087E000426B22BBB3F5805FCCD213B9226B002A57
:1087F000C8D14FF0FF317648009303F03DFE009B57
:10880000002840F08C80734901220A60216A072900
:1088100040F28F80724D704A1368002BFCD16D4A74
:108820006B48136003F04AFE00289DD0D4E7012A6C
:10883000DBD1B3F5803FA5D2D7E70129B0D1B3F59D
:10884000803F9FD2ACE7674803F09AFD9DE80C009B
:10885000B1E7814011F08F0FB3D0616A0129B0D820
:10886000616B0129ADD8A16B0129AAD820468DE8FA
:108870000C0004F057F90028A3D1A16A01299DE852
:108880000C006CD065D3022963D0216A481E0628EB
:108890000FD8DFE800F00431040E0E0E0400524938
:1088A0002068086060684860A0688860E068C86008
:1088B000216A21F00401032936D0A16B012958D087
:1088C0004A484B49026020200B60626B012A3BD072
:1088D0004849494A0E60136003F0EAFC3E4A1368B7
:1088E000002BFCD1236A013B062B12D8DFE803F0F2
:1088F00014061411111114004049D1E73F4A404BAE
:10890000126822601A6862605A68A26008331B68A5
:10891000E3600123236354E7334A3A4BF0E73148DD
:1089200003F02EFD009B6EE7626B012A0BD0102036
:10893000CEE78A4012F08F0F3FF46CAF626A012AD3
:108940001DD9314D67E740203049314A0E60136030
:10895000C2E7304D304829600121016095E72F4979
:108960002069086060694860A0698860E069C86043
:108970008BE72B482B49026080200B60A5E7626BD8
:10898000012A01D9284D46E7A26B012A01D9274DBA
:1089900041E72046009304F0C5F8054600287FF41F
:1089A0003AAFA26A009B012A00F09280C0F08A8050
:1089B000022A00F08780226A013A062A41D8DFE8BD
:1089C00002F0376537404040370000BF0500F10036
:1089D0006083002010B8025010B9025078B603002E
:1089E0000100F10060B6030040B4025030BD0250F7
:1089F00034BD025030BC025034BC025060B402504E
:108A000064B4025044B402500200F10028BC025089
:108A10002CBC025038BA025078B4025000B4025054
:108A200028BD02502CBD02500300F1000400F100EB
:108A30002F4A2168116061685160A1689160E16806
:108A4000D1602C482C49012202600B60002B2ED1F2
:108A5000236B0BB9294B1A60294A1368002BFCD1F0
:108A6000236A013B062B3FF6D6AE01A252F823F053
:108A7000918A0200A98A0200918A020017880200E6
:108A80001788020017880200918A02001D4AD0E769
:108A9000174A1D4B126822601A6862605A68A26009
:108AA00008331B68E360B6E6164A184BF2E7626BC0
:108AB000012A17D01649174A0E601020136003F0E0
:108AC000F7FBC9E714481549026001220A6072E702
:108AD000134A2169116061695160A1699160E1697E
:108AE000D16068E70F49104A0E6040201360E6E746
:108AF00040B402507CB40250BCB4025024B50250C1
:108B000010B9025060B4025044B4025064B4025030
:108B100030BC025034BC025038BA025078B4025013
:108B200000B4025028BC02502CBC0250002840D097
:108B30002DE9F04300F11C010EC983B006690193D1
:108B4000836845698469C76893FA83FE019BC0F80E
:108B500008E093FA83F9836AC0F8249093FA83FCBF
:108B6000C36AC0F828C036BA2DBA24BA09BA12BAF4
:108B700093FA83F806614561066B456B8461C161B8
:108B8000846BC16B0262436C026CC0F82C803FBAEC
:108B900036BA2DBA24BA09BA12BA1BBAC76006632C
:108BA00045638463C16302644364002003B0BDE88D
:108BB000F0834FF47200704728B1574B826D9A4290
:108BC00004D0564870474FF4720070472DE9F043C7
:108BD000016E804600F14805E1B02846C900042234
:108BE00000F09EF8D8F8543020A84FF4807200218D
:108BF0001CBA03F01FFCD8F85C20E308B3FBF2F4C6
:108C000002FB1434141B102C98BFA41820ABA4F141
:108C1000100018442946102280258DF8805003F05A
:108C200005FC2A46684608F1640103F0FFFBD8F80A
:108C30006030D8F85C200DEB0300D21A0DEB050173
:108C400003F0F4FBD8F85C50D8F86030ED1AADB200
:108C50006946404600F0EAF8AC4251D808F11800E5
:108C60000FC893FA83F9D8F82830D8F81050D8F8FC
:108C70001440D8F80870D8F80C60C8F8209093FA1F
:108C800083FE00BAD8F82C30C8F81C002DBAD8F8EA
:108C90003800C8F8145024BA09BA12BA93FA83FCFF
:108CA000D8F83050D8F84430C8F81040C8F8181038
:108CB000D8F83440D8F83C10C8F82420D8F8402020
:108CC000C8F82CE000BA3FBA36BA2DBA24BA09BAAD
:108CD00012BA1BBAC8F83C000020C8F80C70C8F8DB
:108CE0000860C8F828C0C8F83450C8F83040C8F840
:108CF0003810C8F84420C8F8403061B0BDE8F083AF
:108D000020AB59196846D8F85C2003F08FFB694600
:108D1000404600F08BF8A1E7785634120200F200CA
:108D200070B4EAB1034600EB82051C6824BA43F82C
:108D3000044B9D42F9D102F18043013B9E0050F863
:108D400023402144A14240F8231013D3321D024492
:108D500003681BBA40F8043B9042F9D170BC7047DD
:108D600050F8043C19448B4240F8041C88BF6FF053
:108D70000306F3D9311F43184458651CA5424550DA
:108D8000A2F102010BD809B9E0E741B153F8045C44
:108D90006C1CA54201F1FF3143F8044DF5D2002AC5
:108DA000D4D1DBE740B110B50468012C15D0022CFA
:108DB00005D05CB10C4810BD4FF47200704708300C
:108DC00020220A4903F032FB002010BD0830142293
:108DD000074903F02BFB204610BD0830202205492F
:108DE00003F024FB002010BD0100F20070B303006B
:108DF0005CB3030090B3030020B10368032B04D0DD
:108E0000074870474FF47200704710B5402204467F
:108E10000449083003F00AFB034BA365002010BD92
:108E20000100F200A4AC0300785634122DE9F04F93
:108E300000F10803ADF5697D1C468B4640220021F8
:108E400038A824930025FDF73BFB214638A80024D1
:108E50004022CDE9344503F0E9FADDE93E78DDE969
:108E60003834DDE93A1240A8CDE91478D0E9007829
:108E700042A8D0E9009ACDE91C34CDE92634CDE9E9
:108E80000034CDE91E12CDE92812CDE90A12DDE940
:108E9000142344A8CDE9169AD0E9009ACDE9042319
:108EA000DDE9163446A8CDE9189AD0E9009ADDE943
:108EB0003C56CDE92E34CDE90C34DDE91834CDE94A
:108EC0001A9ACDE92278CDE92C78CDE90278CDE95E
:108ED0002056CDE92A56CDE90E56CDE93034CDE9FC
:108EE0001034DDE91A340BF1040BCDE90634804669
:108EF000DFF8A4A1259013E0DDE90A23CDE90E23D4
:108F0000DDE90C23CDE91023DDE90023CDE90A23B7
:108F1000DDE90223CDE90001CDE90C23CDE90245CD
:108F20002C9A2D98319C309E2E9D2F9BDDF8A89079
:108F30009704910347EA903741EA904187EA010C90
:108F40004FEA804E810341EA92414EEA923E8EEA18
:108F5000010ED105C70541EA502163408EEA0101A7
:108F600047EA5227754034918CEA07071540289943
:108F7000359718406E400891299DDBF80010139535
:108F80006040DDE9344535903496DDE9346709BA4F
:108F9000C8F80810FAE90201269A279BDDF8ACE030
:108FA000A4197D414FEA827C00194FEA031444EA78
:108FB00012744CEA930C694184EA0C0C9D0714016D
:108FC00045EA920544EA13746C40550645EAD31508
:108FD0008CEA050534955D065BF8046C45EAD2150C
:108FE0006C40089D359436BA45EA0904C8F80C600F
:108FF00005EA0909139DF8E90267224045EA0E04D3
:10900000234005EA0E0E801942EA090243EA0E03E4
:10901000794132923393DDE93445DDE90667DDE9D4
:10902000322336184F4112196B41DDE90445A4196A
:109030007D41B01847EB0301CDE93223DDE90E2372
:10904000CDE90423DDE90223CDE92E23DDE9102358
:10905000CDE90623DDE90A23CDE92A23DDE9002352
:10906000DDE90C67CDE9282366AB4345CDE93067E0
:109070000BF1080BCDE92C45CDE926017FF43CAF7F
:10908000044BDDF89490CDE90645CDE908019846FA
:1090900018E000BF28B40300A8B3030030463946E7
:1090A000CDE90A01DDE90201CDE90C01DDE90801A4
:1090B000CDE90001DDE90601CDE90823CDE9020192
:1090C000CDE90645D9F87C60D9F87870D9F8143024
:1090D000D9F810102D9D2C98DDF8C0C0FC004FEA87
:1090E000463E44EA56724EEAD7444FEA866E4EEA4E
:1090F000971E544084EA0E047A034FEAC60E42EAF1
:10910000D6424EEA5777574087EA961636943796F6
:10911000DDE936ABD9E91467DC071A0642EA112209
:1091200044EA51045440CA071AEB060A42EA5306BD
:109130004FEA016242EA132282EA060282EAD3126D
:109140004FEA436343EAD11384EA03044BEB070B72
:1091500036944FEA804EAC048303C9E922AB3792C0
:10916000F9E9026744EA903243EA9543AC034EEAD8
:10917000953E8EEA030E44EA90435340319913938F
:1091800016EB0A062E9A2F9B47EB0B07DDE936AB51
:109190008CEA02024B402B40024082EA0C0283EA36
:1091A000010C1AEB06034BEB0704EE05CDE9043482
:1091B00046EA5026139B2699C00540EA55205840A0
:1091C000279B34908D0745EA93078EEA06061D011A
:1091D0000C019807359640EA910045EA117544EA7A
:1091E00013747D404440DDE93467580634924A06E2
:1091F00042EAD31240EAD1106A406040DDE90445FA
:10920000CDF8D4C0C9E92045DDE934453492359024
:1092100028A890E80550F8E902AB361934466F41AA
:109220001AEB0406344640EA0C0601EA060100EA9D
:109230000C0040EA010042EA0E0103EA010302EADF
:109240000E0243EA02033393DDE904233D464BEB70
:1092500005073D4612196B4114461D463290DDE963
:109260001023DDE93201DDE9346712196B41801901
:10927000DDE90E457941DDE90267A4185D41CDE9DC
:1092800030671218DDE906674B41CDE93201DDE9AF
:109290000A01CDE92E67DDE90867CDE90E01DDE9B8
:1092A0000C01CDE92867DDE90067CDE91001C6A909
:1092B0008945CDE92C45CDE92A67CDE926237FF400
:1092C000EDAEDDE91C01801859418046DDE91E2321
:1092D0008946DDE9080112184B419C469346DDE9B9
:1092E000202392197B41CDE90023DDE90A67DDE9FE
:1092F000141289197A41CDE90412DDE9220100191D
:109300006941DDE9066704460D46DDE9160180196D
:10931000794142ABC3E90001DDE91867DDE90201EB
:109320003618DDE90C234F41CDE93889DDE91A0112
:10933000E146D846CDE93A89DDE9008980185941EE
:10934000CDE93C8946ABDDE90489C3E9000140ABC6
:10935000C3E9004548A844AB4FF420720021C3E99B
:109360000067CDE93E8903F065F838A924984022CA
:1093700003F05CF80DF5697DBDE8F08F0B6802E045
:10938000082B0B6006D8426813424FEA4303F7D01C
:109390000020704700487047310CF1000138072861
:1093A00015D8DFE800F0100C1408141414048B69AD
:1093B0008B60002070474B698B60002070470B6901
:1093C0008B6000207047CB688B600020704701489D
:1093D000704700BF310CF1002DE9F04F8FB080468F
:1093E0000C46164602A830220021189DFDF768F8A9
:1093F0001A9B03F5C1622A60199A00231360D8F8FA
:10940000D43013F4407F0AD02B681B681360002B04
:1094100040F08980924F38460FB0BDE8F08F002EA3
:1094200000F08E808F49904A0868A16812689142C6
:1094300040F09B80002840F0988098F8DB30009343
:109440008A4E8B4DDFF834A2DFF834B24FF00409B6
:109450000023019301270CE09A0700F19380DB06BB
:1094600000F18D80A36803EB43031B049B09336069
:109470002F6001A800F0CAF9019BD907ECD54FF085
:10948000FF33CAF80030DBF800300293794B1A68DA
:1094900003925A6804920833774A1B680593A368BD
:1094A0001168069103EB430351680791203A1B04AE
:1094B0009B0912683360012700232F6001930AE0A3
:1094C00099075FD4DA065AD4A36803EB43031B045D
:1094D0009B0933602F6001A800F098F9019BD80721
:1094E000EED56649664A634B4FF0FF30086012685C
:1094F00008921A6809925A680A929A680B92DA6876
:109500000C921A690D92143B1B681A9B302203F5CA
:10951000C26002A902F08AFF199A30231360D8F8BA
:10952000D430002722E0D8F8D47017F4007720D088
:109530002B68544F5A684A4B002A08BF1F466AE7F7
:1095400023F00F03C8F8D430002C00F087800EA958
:10955000012341F8383DC8F8D8602046FFF70EFFD8
:10956000074648B3D8F8D43000E0474F9B053FF595
:1095700052AF00F02FF938460FB0BDE8F08F10233E
:10958000CAF800304FF0FF33CAF80030009B082BB8
:109590000ED05B0000933CB1002B55D163683BB902
:1095A000D8F8D430394FE1E7D8F8D430384FDDE778
:1095B000D8F8D430374FD9E721460098FFF7EEFEB0
:1095C00007460028CED1009B082B00F0C480042B56
:1095D00000F0BF80A3F10203B3FA83F35B092E4AC4
:1095E0002E4E214D01211160084631600F46176053
:1095F000A16829602E68A1688E42F8D11C4ADFF864
:109600007CE0274F274E174D00214FF0FF3C1160A3
:10961000CEF800C06FF0130EC7F800E03360296089
:10962000A368124903EB43031B049B090B60106002
:109630000099D8F8D8200B0243EA016322F07F4258
:109640001343C8F8D830FBE669462046FFF796FE7C
:1096500050B30E4B98420746A0D083E70C4F85E7E6
:10966000330CF00038B1025030B10250D8B1025082
:109670002CB1025018B1025024B1025008B102506E
:1096800014B10250340CF000300CF100310CF10038
:10969000350CF100320CF100C4B1025040B102505F
:1096A00000B102500CB1025021460098FFF776FE3F
:1096B0000028CED1009B082B45D0042B46D0A3F127
:1096C000020CBCFA8CFC4FEA5C1C2448244F254A4F
:1096D0000123036019463B6086461F46CEF80070A2
:1096E000A36813601368A0688342F7D100231E4A61
:1096F0001E4F1F482B604FF0FF3ECAF800E06FF08E
:10970000130EC7F800E0C0F800C01360A36803EBB5
:1097100043031B049B0933602960009AD8F8D810D2
:10972000130243EA026321F07F421A43130A03F44F
:109730007F03134323F07F43B9F10109C8F8D83000
:109740007FF486AEE1E64FF0030CBEE74FF0020C6B
:10975000BBE7022343E7032341E700BFC4B1025044
:1097600040B1025030B1025038B1025000B1025045
:109770000CB10250012BF8B5164607D010221D4639
:109780000C4602F051FE48B91048F8BD11461022AF
:1097900002F04AFE0028F7D00020F8BDAF1E314687
:1097A00004EB0710102202F03FFE0028ECD0022D3F
:1097B000F2DD00252046103421461022013502F04A
:1097C00033FE0028E0D0BD42F4D1E5E7020CF00002
:1097D00000207047084B094A002119601368002BCC
:1097E000FCD107480749084A03604FF480604FF0F6
:1097F000FF330860136070472CB1025010B902505B
:10980000C4B1025008BA025008B1025038B504463B
:109810004FF4806002F04CFD054D06480649074AAA
:1098200000232B6003600B682360136038BD00BF0A
:10983000C8B102502CB1025004B1025008B102501C
:109840002DE9F04F99B0964C269F239E4FEA874E04
:109850004FEA073C4EEA0C0747F0104747F08007F5
:1098600025680195019DED07FAD54FEA801A4AF067
:1098700010498C4C8A4D276049F4005949EA8343CA
:109880002C680294029CE407FAD5864C844D236030
:109890004AEA003747F0245444F400142B68039339
:1098A000039BDB07FAD57F4BDFF8F4811C604EF099
:1098B000104545F40255D8F800300493049BDB07AB
:1098C000F9D5784C764B25604FEA811949F010485C
:1098D000229C48F4005848EA84451C680594059C7D
:1098E000E407FAD549EA013E6E4B6D4C1D604EF01F
:1098F000245848F4001823680693069BDB07FAD522
:109900004FEA864B4BEA0636664B654CC3F800803F
:1099100046F0104646F0800623680793079BDD0754
:10992000FAD5614B249D5F4C43EA85455C4B26602C
:1099300005431C680894089CE407FAD5594B584C19
:109940001D604BF0104545F4025523680993099BAF
:10995000DB07FAD5259C554E524B46EA8446504CBF
:109960001D6046EA010523680A930A9BDE07FAD5C3
:10997000940144F010464B4B46EA0B0B484E1D60D9
:109980004BEA0C0533680B930B9BDB07FAD544EAD3
:109990008242444B424C1D6042F0104242F440521D
:1099A00023680C930C9BDD07FAD53E4B3C4C1A60A8
:1099B00023680D930D9BDA07FAD53A4B3C4C384A95
:1099C0001C6013680E930E9BDB07FAD5354B394CA0
:1099D000334A1C6013680F930F9BDE07FAD5314B97
:1099E000354C1C602E4A4EF0104444F44024136859
:1099F0001093109BDD07FAD580042A4B284A1C607F
:109A000040F0104545F4824513681193119BDC0723
:109A1000FAD5244B294C224A1D604AEA04041368F3
:109A20001293129BDB07FAD51E4B1D4A1C6047F0B0
:109A3000045747F4801713681393139BDE07FAD576
:109A4000184B174A1F6013681493149BDD07FAD54F
:109A5000144B134A1F6040F0045040F482401368D6
:109A60001593159BDC07FAD541F048410D4B0C4A84
:109A7000186041F4042141EA090113681693169B0A
:109A8000D807FAD5074B064A196013681793179B36
:109A9000DB07FAD5034BC3F8008019B0BDE8F08F9F
:109AA000B0B0025080B00250C02000C8802000C872
:109AB00000310C90C0400C90C0302029032008C811
:109AC0002DE9F04FA1B09E012F9FDDF8B0A0AE4C64
:109AD00000924FEA87493F0346F0104549EA070ED6
:109AE00005954EEA05084D4622680692069AD20769
:109AF000FAD5DFF898C2DFF890E282010192CCF843
:109B0000008042F010442A9A44EA82441A0344EA4C
:109B10000208DEF800400794079CE407F9D5019C91
:109B2000DFF868E2DFF860C244EA00340294CEF85D
:109B3000008044F0245E4EF4001EDCF800400894DF
:109B4000089CE407F9D546EA0204A946DFF83CC2BE
:109B50000494254649EA05058B4CCCF800E045F015
:109B6000104925680995099DED07FAD52B9CDFF86A
:109B70001CE24FEA811848F0104C4CEA844C824CAD
:109B8000CEF800904CEA020C25680A950A9DED0774
:109B9000FAD57E4C7C4DC4F800C048EA013E4EF038
:109BA000245C4CF4001C2C680B940B9CE407FAD545
:109BB0004FEA8A4949EA0A35744CDFF8CCA1C4F867
:109BC00000C045F010453543DAF800400C940C9C79
:109BD000E407F9D52D9CDFF8B8A1DFF8B0B14AEA67
:109BE000844A4AEA000ACBF80050674C4AEA020568
:109BF000039525680D950D9DED07FAD549F0104A9E
:109C0000DFF888B1039D604CCBF800504AEA060AA1
:109C10004AEA020A25680E950E9DED07FAD52E9C9C
:109C2000DFF868B141EA844545F0484535431543BE
:109C3000554CCBF800A0039525680F950F9DED07B7
:109C4000FAD5009CDFF844B1039DCBF800504FEAF1
:109C5000841A4AF0104444EA09094B4C49EA0707C0
:109C600025681095109DED07FAD5009CDFF81C9132
:109C7000A5044AEA050A4AF0104A434CC9F80070A4
:109C80004AF4405A27681197119FFF07FAD53F4FB2
:109C90003D4CC7F800A027681297129FFF07FAD51E
:109CA0003A4FDFF8F090384CC7F8009027681397C8
:109CB000139FFF07FAD5354FDFF8DC90324CC7F819
:109CC000009027681497149FFF07FAD52F4FDFF8ED
:109CD000CC902D4CC7F800904EF0104E4EF4402E14
:109CE00027681597159FFF07FAD5284C264FC4F80B
:109CF00000E0800440F0104E4EF4824E3C68169412
:109D0000169CE407FAD5019CDFF8809044F04847A0
:109D10009B04C9F800E047F0030742EA030E1A4C1F
:109D200047EA0E0722681792179AD207FAD5174CFE
:109D3000154A2760029C44F0045747F480171468C2
:109D40001894189CE407FAD5104A0F4C1760226843
:109D50001992199AD207FAD50C4A0B4C176040F0A9
:109D6000045040F4824022681A921A9AD707FAD512
:109D700041F0484141F48041044A034C106041EAFB
:109D800008010B430CE000BFB0B0025080B002509D
:109D9000C00000C800310C90C0400C90C030202999
:109DA00022681B921B9AD207FAD51A491A4A0B60ED
:109DB00013681C931C9BDF07FAD5009B164945EAE4
:109DC0000335144B45F01045C3F800C02E430B6813
:109DD0001D931D9BDC07FAD50E4B0F491E60059B9A
:109DE0004EEA03020B681E931E9BD807FAD5094B57
:109DF00009491A60049B43F0104242F430120B6888
:109E00001F931F9BDB07FAD5024B1A6021B0BDE8F8
:109E1000F08F00BF80B00250B0B002502DE9F04189
:109E20004C4C88B023680193019BDD07FAD54A4B5F
:109E300013449B000A181D681E2A05F11F0588BFE0
:109E40001E224FEA551505FB02F288BFC0F11E0124
:109E5000B2F5806F04D94FF48061B1FBF5F1091AB6
:109E6000002971DD00F1A05000F52C406E1C4FF070
:109E7000000E384ADFF8ECC0384C870026F00106A7
:109E8000704613680293029BDB07FAD5D7F800806F
:109E900013680393039BDB07FAD5CCF800800023FB
:109EA0004DB101339D422060FBD1B54203D2013355
:109EB000B3422060FBD10EF1010E714507F104079A
:109EC000DFD1244A13680493049BDC07FAD5244BA2
:109ED000204A196813680593059BD807FAD5214BCA
:109EE000196075B100231D491A4601339D420A606D
:109EF000FBD1AE4205D91949002201339E420A60C6
:109F0000FBD1144A13680693069BD907FAD5164B62
:109F1000104A196813680793079BDB07FAD5114BA2
:109F20001960ADB100230D491A4601339D420A6004
:109F3000FBD19E4205D90949002201339E420A60A5
:109F4000FBD108B0BDE8F0816E1C26F00106B8E731
:109F50002B46EEE7B4B0025024AC0014D8B0025047
:109F60007CB00250D4B0025078B0025010B4124C01
:109F700085B023680193019BDB07FAD502F1A0525B
:109F800002F52C4293000C4A1C6813680393039B50
:109F9000DB07FAD5094B1C6049B1094A00EB810186
:109FA00013680293029B40F8043B8842F8D105B045
:109FB0005DF8044B704700BFB4B00250E4B00250EB
:109FC000DCB0025070B42E4D85B02C680094009C1B
:109FD000E407FAD500F1A05000F52C408000284D90
:109FE0000468286801900198C007FAD52548012621
:109FF000046093B1244E02EB830552F8040B3060E9
:10A00000AA42FAD15E1C26F00102934205D21E4DEF
:10A010000020013393422860FBD1194826F0010546
:10A0200002680292029AD607FAD5184B0B449B009D
:10A030001B681F335B099D421ED211490A680392B7
:10A04000039AD207FAD50F4A2C445B1B146013D035
:10A05000002214460C4800E00A46511C9942046054
:10A06000FAD1023222F00102934205D206480021C1
:10A07000013393420160FBD105B070BC704700BF53
:10A08000B4B00250D4B00250D8B0025024AC001486
:10A09000F0B595B07B4D1A9E370347EA864747F0E7
:10A0A000045444F080042E680096009EF607FAD50A
:10A0B000754D764E2C601B9C46EA8212714E42EA28
:10A0C000043432680192019AD207FAD56E4D6D4E72
:10A0D0002C608A0142F01044274334680294029CA9
:10A0E000E507FAD51C0344EA8343674C654E2760B5
:10A0F00043F0045747F0800734680394039CE40757
:10A10000FAD5614C5F4E276034680494049CE707DD
:10A11000FAD55D4E5E4D35608C0444F01045594FC4
:10A1200045F402553E680596059EF607FAD5564F4A
:10A13000544E3D6043F0104545F4807533680693F6
:10A14000069BDF07FAD5504B4E4F1D60860146F047
:10A15000045545F482153B680793079BDB07FAD546
:10A16000494BDFF83CC1DFF81CE11D60070347EAFB
:10A170000C0CDEF800300893089BDD07F9D5424D42
:10A18000DFF820E1C5F800C01C9B30354EEA834C57
:10A190002B680993099BDB07FAD53B4B394DC3F874
:10A1A00000C02B680A930A9BDB07FAD5364B394D62
:10A1B000DFF8F4E01D60334D46EA0E0E2B680B937A
:10A1C0000B9BDB07FAD53E432F4B2E4DC3F800E027
:10A1D00046F0045646F400262B680C930C9BDF07D0
:10A1E000FAD5294F2C4B274D3E6043EA80402B681F
:10A1F0000D930D9BDE07FAD5234B224D18602B687B
:10A200000E930E9BDB07FAD514430E031E4B234D12
:10A210001C481D60344344F0045503680F930F9BA2
:10A22000DF07FAD5184B17481D6044F01044036847
:10A230001093109BDB07FAD5134B12481C60036880
:10A240001193119BDF07FAD516430F4B0D481D6084
:10A2500046F0245646F4101603681293129BDC074E
:10A26000FAD541F04841084B06481E6041F4A2115E
:10A27000114303681393139BDB07FAD5024B196054
:10A2800015B0F0BDB0B0025080B002500000089090
:10A290008020082180202029802000214021282999
:10A2A0000001102100410021024010C82DE9F043B7
:10A2B00093B0684E1A9CDDF86C90DDF87080664DA6
:10A2C000240326432F680197019FFF07FAD5634DAA
:10A2D000634F2E6047EA093730352E680296029E9A
:10A2E000F607FAD55D4D5F4E2F601F9F303546EA69
:10A2F00007362F680397039FFF07FAD55A4D574F2C
:10A3000045EA8949544D3E6049EA04042F680497A0
:10A31000049FFE07FAD5514F544E3C601E9C3037C7
:10A3200046EA04363C680594059CE407FAD5DFF854
:10A330002CE14F4C209DCEF8006044EA05351D9C71
:10A34000454F45EA84453C680694069CE607FAD5E5
:10A350004FEA083747EA8848404C3F4E256048F0AE
:10A36000045747F0C00734680794079CE507FAD5FF
:10A370003A4C394E27609D0145F0245747F4C217E7
:10A3800034680894089CE407FAD59B04334C324E99
:10A3900027601D4345F0045747F4A04734680994EB
:10A3A000099CE407FAD52D4C2B4E276034680A949B
:10A3B0000A9CE407FAD5294C2E4F274E27603468B3
:10A3C0000B940B9CE707FAD5244C2B4F224E2760A9
:10A3D00034680C940C9CE407FAD5204C274F1E4E91
:10A3E000276034680D940D9CE707FAD5244C1B4E6A
:10A3F000244F376044EA8010174C184323680E93AB
:10A400000E9BDE07FAD5154E1F4B134C306043EA06
:10A41000811123680F930F9BD807FAD50F4C1B4B64
:10A420000D48216043EA821203681093109BD907FC
:10A43000FAD50A4B08491A6045F0104545F4A04585
:10A440000B681193119BDB07FAD5044B1D6013B009
:10A45000BDE8F08380001829B0B0025080B00250EF
:10A460008000082100010890800000214001089030
:10A470008000009040411421002118290031102152
:10A4800000400090C0200C2100500C900030109033
:10A49000F0B5DFF8F0E1704E050395B045EA0E0E19
:10A4A00034680194019CE707FAD56C4C6C4F6A4EF6
:10A4B000C4F800E047EA013734680294029CE407DC
:10A4C000FAD5664C644E276034680394039CE70712
:10A4D000FAD5644C614E644F376044EA81443036AB
:10A4E000254334680494049CE407FAD55B4C5A4E27
:10A4F000256034680594059DEF07FAD59D0445EA6B
:10A500000337564EDFF880E1534CC6F800E047F0C1
:10A51000104747F0800726680696069EF607FAD58C
:10A520004E4E4D4C376026680796079EF707FAD5C2
:10A530004FEA023C4CEA8247484EDFF850E1464C75
:10A54000C6F800E047F0045747F0C00726680896B1
:10A55000089EF607FAD5414CDFF834E127604CEA53
:10A560000E0E303426680996099EF607FAD53B4C44
:10A57000394FC4F800E09B0143F0245E4EF4C21E44
:10A580003E680A960A9EF407FAD545EA0304334B5F
:10A59000314EC3F800E044F0045747F4A047336855
:10A5A0000B930B9BDB07FAD52C4B2B4E1F603368AC
:10A5B0000C930C9BDF07FAD5284B2C4F264E1F60BF
:10A5C00033680D930D9BDB07FAD5244B284F224EA1
:10A5D0001F6033680E930E9BDF07FAD51F4B254F84
:10A5E0001D4E1F6033680F930F9BDB07FAD545F0B4
:10A5F00010451A4B204F184E1F6045F4804545EA20
:10A60000801533681093109BDF07FAD513481B4B56
:10A61000114E056043EA811133681193119BD807ED
:10A62000FAD50E4D164B0C48296043EA8212036896
:10A630001293129BD907FAD5084B07491A6044F0C8
:10A64000104444F4A0440B681393139BDB07FAD522
:10A65000024B1C6015B0F0BDB0B0025080B002508B
:10A660008000082180000021002108904041142131
:10A670000021182900311021C0200C2100500C901D
:10A6800000301090800018294021089080700890B8
:10A69000C0000C90FF2901D0734870472DE9F043AA
:10A6A000C26993B004460992920F012A03D06F4801
:10A6B00013B0BDE8F08309A9FE2200F041FF012894
:10A6C000F5D1FC264FF0FF354FF016094FF0150875
:10A6D0001427324609A9204600F032FF00EB85031B
:10A6E0000433072BE3D8DFE803F04D494541363208
:10A6F00022040B230A2209210820CDF81890CDF856
:10A70000148004978DE80F00FFF7D0FD4FF0FF3560
:10A71000023E41D00B230A2209210820FFF7B8FE90
:10A720000B230A2209210820FFF7B2FED1E71221EC
:10A7300011201025069105900B230A2209210820DB
:10A7400004958DE80F00FFF7B1FD0025E0E70E212D
:10A750000D200C25EEE70E210D200C25069105900D
:10A760000B230A22092108200495CBE70F210C2096
:10A770000D25DFE7132110201125DBE71321102021
:10A780001125EBE717250B230A220921082005973D
:10A79000CDF810800695D4E7324609A9204600F08E
:10A7A000CFFE002883D10B200A21092208230F277E
:10A7B0000C260D2403900291019200930697172313
:10A7C00005960494162215211420FFF76FFD284BDF
:10A7D000002D24D11A680E920E9AD407FAD5254B73
:10A7E000254A23491A600B680F930F9BD807FAD5A7
:10A7F000204B224A1E491A600B681093109BDA07FF
:10A80000FAD51C4B1E4A1A491A600B681193119B0A
:10A81000DB07FAD5174B1B4A1A60002048E71A6875
:10A820000A920A9AD207FAD5124B134A10491A60B3
:10A830000B680B930B9BDF07FAD50E4B124A0C49A2
:10A840001A600B680C930C9BDE07FAD5094B0F4A74
:10A8500007491A600B680D930D9BDD07FAD5054B70
:10A860000B4A1A60002023E70223F0000323F000C4
:10A87000B0B0025080B0025080210229C0612898F7
:10A880000074208840742488C061589800745088EF
:10A89000407454882DE9F04F04460D4687B01146A8
:10A8A000284690469946FCF73DF8D4F8BC3204F1AE
:10A8B000D8071F33064641465B093A462846FBF750
:10A8C0008BFE2EB9DFF8E880404607B0BDE8F08F78
:10A8D0000128F7D006A9202341F8043D324BD4F8D3
:10A8E000B8B2D4F8BC0293F91A200092584593F9F3
:10A8F0001B20019238BF584693F91C2093F91D3054
:10A900000292039300F0F8F880460028DCD10BF1A6
:10A910001F0A26494FEA5A1A5346C1F800B0224688
:10A920000121FFF74FFB0121084604F5DC720523E6
:10A93000FFF748FB534604F1480201210B20FFF7C3
:10A9400041FBD4F8BC329DF808409DF800001F334D
:10A950003A465B099DF80C700121FFF733FB4A462C
:10A96000534620460121FFF72DFB53463846109AE7
:10A970000121FFF727FB06F11F035B092A469DF81B
:10A9800004000121FFF71EFB00F0DAF922465146D0
:10A990001198FFF7EBFA12983A465146FFF7E6FA9C
:10A9A000059800F007F88FE70CB8030090B002504C
:10A9B0003008F10008B560B90B4B0C4800221A6052
:10A9C00001F07CFD00B908BD0948BDE8084001F070
:10A9D000D7BC202801464FF0070228BF20210020C5
:10A9E000FFF71CFAE8E700BF1CB8025058830020AC
:10A9F00030B6030070B41C6885B001F01F0644B97E
:10AA00001E2E06D01068F04000F0030005B070BCA8
:10AA100070470F4D2C680194019CE407FAD500F1B2
:10AA2000A05000F52C408000094D00682C6803946C
:10AA3000039CE407FAD5074D074C00EB6111296030
:10AA4000216802910299116000211960DAE700BFC4
:10AA5000B4B00250E4B00250DCB0025030B4224A2C
:10AA600084B013680093009BDC07FAD500F1A05373
:10AA700003F52C439B001C4A186813680193019B43
:10AA8000D907FAD5194B1B6813F11F0148BF03F111
:10AA90003E014911013910D4134A154D154C136864
:10AAA0000393039BDB07FAD50B182B6023680293F3
:10AAB000029B3BB911F1FF31F1D2481C400104B0B7
:10AAC00030BC704701314801A0F120014FF0004235
:10AAD00002E001388142F2D013424FEA5202F8D02C
:10AAE00004B030BC704700BFB4B00250ACB00250EC
:10AAF000E4B00250DCB0025038B504460D461148AF
:10AB00004FF0FF3101F0B8FC50B9A4F12003B3F5C8
:10AB1000426F0DD90C4C0B4801F0D0FC204638BDDB
:10AB20000A4801F02DFCA4F12003B3F5426FF1D8DF
:10AB300020462A46002100F017F804460028EAD1F2
:10AB4000204638BD588300202221F00048B603007B
:10AB5000A0F12003B3F5426F01D90248704700F01D
:10AB600003B800BF2221F000F0B58F2883B060D871
:10AB700000F1470400F16603E4064FEA53135CD189
:10AB80005B013F339B095F1C29B18F4202D92C48DE
:10AB900003B0F0BD0F46FB004FF48054B4FBF3F458
:10ABA000202C28BF202402B11460264B264A012500
:10ABB00000211D60023C0B4607FA05F540F6FC76C5
:10ABC000A34203F101032FDA1E2B42F8041B294490
:10ABD000F6D11E4ADFF894C0116000F13F0329440A
:10ABE0001B4EDFF88CE0CCF8001023F03F0340331D
:10ABF00018493160BC01CEF80000174FD361174DE2
:10AC000017481849184B3C603C32B4612C60046012
:10AC10000C601C6013680193019BDB07FAD5124B93
:10AC200000201C6003B0F0BD1E2B42F8046BC7D19E
:10AC3000CFE700F11F035B09A2E70133A0E700BFE4
:10AC40002221F0001CB8025000B0025078B002502F
:10AC500084B0025020F80F0098B00250A0B002500B
:10AC6000A4B00250A8B00250ACB002507CB0025068
:10AC700090B0025070B42D4C89B0206800900098BC
:10AC8000C007FAD52A4D2B482B4E284C2E6040EA9F
:10AC90008343206801900198C607FAD59001244C9F
:10ACA00040EA82422360214842F0104444F4C04408
:10ACB00003680293029BDD07FAD51D4B1B481C60FD
:10ACC00003680393039BDB07FAD58B0143EA8141B9
:10ACD000174B1A4D1D60154841F0104545F4C0450D
:10ACE00003680493049BDE07FAD5114B0F481D60DF
:10ACF00003680593059BDD07FAD50D4B0B481C60D7
:10AD000041F0584403680693069BD907FAD5084BCF
:10AD100006491C6042F058420B680793079BDB070B
:10AD2000FAD5034B1A6009B070BC7047B0B002503E
:10AD300080B0025080710098C02102298061189073
:10AD40002DE9F04F254AC3B013680B930B9BDB072B
:10AD5000FAD5234B2349214A196013680C930C9BA5
:10AD6000DF07FAD51E4B20491C4A196013680D9362
:10AD70000D9BDE07FAD51A4B1C49184A1960136857
:10AD80000E930E9BDD07FAD5154B1949134A19602E
:10AD900013680F930F9BDC07FAD5114B15490F4A27
:10ADA000196013681093109BD807FAD50C4B124A00
:10ADB0001A601B20FFF752FE06461820FFF74EFED2
:10ADC0008642064A1CD913681193119BD907FAD5FC
:10ADD000034B0A4A1A60012307931CE0B0B00250EB
:10ADE00080B00250000200210082202140822021F8
:10ADF0008082242140066E4900966929C006664972
:10AE000013681293129BDB07FAD5904B904A1A6095
:10AE10000023064607938F4A13681393139BDF079B
:10AE2000FAD58A4B8C498B4A196013681493149B8A
:10AE3000DD07FAD5854B894A1A601C201D2118228E
:10AE40000B238DE80F000F230E220D210C20FCF7A1
:10AE5000DFFD0C200D210E220F238DE80F000DF5D4
:10AE6000847B1323122211211020FCF7D1FD01361F
:10AE700001234BF8E03D26F00106023E31465B46D9
:10AE800009AA1B20FFF7B6FD022800F0ED81032878
:10AE900000F0C381012800F00E824FF0000A6D4AD5
:10AEA00013682193219BDC07FAD5684B6C49694AEA
:10AEB000196013682293229BD807FAD5634B69491E
:10AEC000644A196013682393239BD907FAD55F4D11
:10AED000654B2B60023E00F103815E4CDFF8D091A0
:10AEE000DFF8D081614F23682C932C9BDB07FAD5C8
:10AEF000C5F8009023682D932D9BD807FAD55C4B9D
:10AF00002B6023682E932E9BD907FAD5C5F80080B5
:10AF100023682F932F9BDA07FAD5564B2B602368B3
:10AF20003093309BDB07FAD5534B2B60236831936A
:10AF3000319BD807FAD5514B2B6023683293329B53
:10AF4000D907FAD54E4B2B6023683393339BDA072E
:10AF5000FAD54C4B2B6023683493349BDB07FAD52E
:10AF6000494B2B6023683593359BD807FAD5474B5F
:10AF70002B6023683693369BD907FAD5444B2B6058
:10AF800023683793379BDA07FAD5424B2B60236847
:10AF90003893389BDB07FAD53F4B2B6023683993F6
:10AFA000399BD807FAD53D4B2B6023683A933A9BDF
:10AFB000D907FAD53A4B2B6023683B933B9BDA07C2
:10AFC000FAD52F6023683C933C9BDB07FAD5C5F884
:10AFD000008023683D933D9BD807FAD52F602368F6
:10AFE0003E933E9BD907FAD5C5F8009023683F935E
:10AFF0003F9BDA07FAD52B4B2B6023684093409B8D
:10B00000DB07FAD5284B2B6023684193419BD80777
:10B01000FAD5264B2B601622152114231A208DE811
:10B02000060002901846FFF733F85B4609AA31463E
:10B030001B20FFF7DFFC00EB8A00043007284CD808
:10B04000DFE800F0B8BDB4AAA5AF933A80B00250D3
:10B05000C0066249B0B00250000662410016624963
:10B0600040D62129C0D32029C0142129405555217B
:10B07000806569908046512180A6692180A65590FF
:10B0800000415190004510210041112100415C21F7
:10B0900080A621291A4510C80045692180A65121A2
:10B0A00040A129298076699040552529554514C825
:10B0B000805655214055559012204FF0110E102307
:10B0C00016221521059014208DE80F00CDF810E010
:10B0D0001723FEF7F5FC4FF0FF3A023E7FF503AF72
:10B0E00019201C2116221523182403900291019285
:10B0F00000930E22049414230D210C20FEF7A0FBD4
:10B10000804ABAF1000F5FD113682893289BDD07AE
:10B11000FAD57D4B7D497B4A196013682993299B99
:10B12000DC07FAD578487A4C04607A497A4B07985C
:10B13000744A002808BF194613682A932A9BD80727
:10B14000FAD5714B6F4A196013682B932B9BDB0761
:10B15000FAD56D4B714A1A6018231D221C2101205B
:10B16000FFF788FD43B0BDE8F08F0E204FF00D0EC5
:10B170000C2316221521059014208DE80F00CDF820
:10B1800010E01723FEF79CFC4FF0000AA5E71820FB
:10B190004FF01D0E1C2393E718204FF0190E1C23AF
:10B1A000E7E718204FF01D0E1C23E2E70E204FF0BA
:10B1B0000F0EDDE712204FF0130E1023D9E70E20FB
:10B1C0004FF00F0E0C237BE713682493249BD907C1
:10B1D000FAD54D4B52494B4A196013682593259B6C
:10B1E000DB07FAD548484F4C04604F494F4B07984E
:10B1F000444A002808BF194613682693269BDF0798
:10B20000FAD5414B3F4A196013682793279BDE0705
:10B21000FAD53D4B464A1A609EE73A4A13681D9399
:10B220001D9BD907FAD5384B4249364A1960136835
:10B230001E931E9BDB07FAD5334B3F49314A1960F9
:10B2400013681F931F9BDF07FAD52F4B3B492D4AED
:10B25000196013682093209BDD07FAD52A4B384AE2
:10B260001A604FF0FF3A1AE6264A13681993199BA1
:10B27000DF07FAD5244B3349224A196013681A9321
:10B280001A9BDD07FAD5204B2F491E4A1960136817
:10B290001B931B9BDC07FAD51B4B2C49194A1960E1
:10B2A00013681C931C9BD807FAD5174B284A1A60C1
:10B2B0004FF0000AF3E5134A13681593159BDC075A
:10B2C000FAD5114B1F490F4A196013681693169B44
:10B2D000D807FAD50C4B1C490A4A19601368179312
:10B2E000179BD907FAD5084B1849064A1960136805
:10B2F0001893189BDB07FAD5034B154A1A604FF0D9
:10B30000FF3ACCE5B0B0025080B00250C0552129C0
:10B31000000752494007564940075E4900065A490E
:10B32000C0D32029000732494007364940073E492B
:10B3300000063A49000542494005464980054A4908
:10B34000C0054E49000532494005364980053A4955
:10B35000C0053E492DE9F041624A92B0136800935E
:10B36000009BDF07FAD5604B6049614A196013689A
:10B370000193019BDE07FAD55E4B1B68DD0400F1EB
:10B38000AB80584A13680293029BDC07FAD5564BF0
:10B390005949574A196013680393039BD807FAD594
:10B3A000544B1B68D90400F18780514BDFF870E1E2
:10B3B0004C494D4D51484FF0010C514F514E002416
:10B3C0001A680492049AD207FAD5DEF800801A6847
:10B3D0000692069AD207FAD5C7F80080326805921D
:10B3E000059A12B960E052080134D707FBD514F072
:10B3F0001F0609D0444F013E47EA06370E680896FB
:10B40000089EF607FAD52F601E680996099EF70771
:10B41000FAD53E4ED6F800801E680B960B9EF607B6
:10B42000FAD5374F374EC7F8008036680A96E707D7
:10B430000A9E05D506F00704032C4AD0052C48D0F7
:10B4400002F00302032A3DD00A680C920C9AD60738
:10B45000FAD52F4A2A600A680D920D9AD407FAD5B8
:10B460002C4A2A600A680E920E9AD207FAD52A4A06
:10B470002A600A680F920F9AD707FAD5274A2A60DE
:10B480000A681092109AD607FAD5184A2A601A68E4
:10B490001192119AD407FAD5164A1268D2048CD5A3
:10B4A000604612B0BDE8F0810A680792079AD20799
:10B4B000FAD52860203483E74FF0010C604612B0C3
:10B4C000BDE8F08106F00306032E08BFCCF1000CA6
:10B4D000BAE7CCF1000CB3E74FF0000C604612B0B5
:10B4E000BDE8F081B0B0025080B0025000082A518F
:10B4F000B4B0025088B0025000182A5180F229617D
:10B50000E4B00250DCB00250800228612CB002503E
:10B5100000032A4980022E49C0C228A1C002324934
:10B5200028B002500B6830B40468524284EA030524
:10B530002A405440534004600B6030BC704700BF49
:10B540000B6812F01F0F10B404464FEA93700CD131
:10B55000002A6FF04043B8BF1F3203EB621254F869
:10B5600022300B605DF8044B70479B000B605DF868
:10B57000044B70472DE9F0473D4ABAB01368009379
:10B58000009BDE07FAD53B4B3B493C4A19601368E8
:10B590000193019BDD07FAD5394B1B68DC0400F1F0
:10B5A0002B81364A13680393039BD907FAD5354B91
:10B5B000324A196813680593059BDB07FAD5324AAE
:10B5C000324B11601B680493049C04F00303032BAB
:10B5D00000F0A08104F00707052F254A00F019812B
:10B5E00013681993199BDD07FAD5224B2849204A85
:10B5F000196013681A931A9BD807FAD51D4B254A70
:10B600001A60FFF7A7FE013000F05682184A13684F
:10B610001B931B9BD907FAD516481F4B0360671E67
:10B6200040F0FF811249DFF878E0144B1B4E164DB5
:10B63000164CB8460A681C921C9AD207FAD5C0F874
:10B6400000E008F120081A681D921D9AD707FAD564
:10B6500037681A681F921F9AD207FAD52F6022689E
:10B660001E921E9F002FE5D017F001031BD02BE088
:10B67000B0B0025080B0025000081251B4B0025075
:10B6800088B0025000B00250E4B00250DCB002506A
:10B6900080021249C0020249C01002290CB00250B7
:10B6A000C0F00D6113467F08FE0703F10102F9D5D2
:10B6B0007D487E49904440EA03300B682093209BEC
:10B6C000DD07FAD57A4B1860784A13682193219BDD
:10B6D000DC07FAD5764B7749744A196013682293D0
:10B6E000229BD807FAD5724B734A704CDFF814923C
:10B6F000724E734D1A609A4623682393239BD90791
:10B70000FAD5CAF8009023682493249BDA07FAD567
:10B71000CAF8006023682593259BDB07FAD5CAF891
:10B720000050FFF717FE0130E6D1604A13682693F8
:10B73000269BDC07FAD55E4B62495C4A19601368A8
:10B740002793279BD807FAD5594B5F49574A196069
:10B7500013682893289BD907FAD5554B5249534A69
:10B76000196013682993299BDB07FAD5504B574979
:10B770004E4A196013682A932A9BDE07FAD54C4B70
:10B7800053494A4A196013682B932B9BDD07FAD55E
:10B790004748504A454BDFF87091DFF870C14E4E74
:10B7A000DFF86CE102601A682C922C9AD407FAD563
:10B7B000C0F800901A682D922D9AD107FAD5474902
:10B7C000474DC0F800C000241A682E922E9AD20766
:10B7D000FAD506600A682F922F9AD207FAD52A68FE
:10B7E000D20400F1218101341A683092309AD207D4
:10B7F000FAD5C0F800E0E7E72C4A13680293029BF1
:10B80000D807FAD52A4B374A1A6001203AB0BDE86A
:10B81000F08713680993099BDC07FAD5244B32495A
:10B82000224A196013680A930A9BD807FAD5204B5D
:10B830002E491E4A196013680B930B9BD907FAD542
:10B840001B4B2B49194A196013680C930C9BDB079F
:10B85000FAD5174B2749214A196013680D930D9BA0
:10B86000DE07FAD51E4B114A1B68DD0440F18F80BC
:10B8700013680E930E9BDC07FAD50D4B1E490B4A3D
:10B88000196013680F930F9BD807FAD5084B1B4913
:10B89000064A196013681093109BD907FAD5044B18
:10B8A000174A1A60002051E0C0000C61B0B002508D
:10B8B00080B00250C0011E41C0111E4980021E49C5
:10B8C000C0020249C0311C98C0100E21C03010982F
:10B8D00040021249809184A800182651B4B0025049
:10B8E00088B00250C0000E4140120229C0112461EC
:10B8F0008071109800181A5180310221802118613E
:10B90000C0601098C0111E2140320C88406224880B
:10B9100040922488343A13680693069BDF07FAD5D1
:10B920006A4B6B496B4A196013680793079BDE07E4
:10B93000FAD5664B6849674A196013680893089BF3
:10B94000DD07FAD5614B654A1A600020614A136829
:10B950003793379BDC07FAD55C4B61495D4A196028
:10B9600013683893389BD907FAD5584B5D495E4A1E
:10B97000196013683993399BDB07FAD55B4B1B6859
:10B9800013F4805F18BF01203AB0BDE8F087136858
:10B990001193119BDB07FAD54C4B5549524A19605C
:10B9A00013681293129BDE07FAD5504B1B68DD0417
:10B9B00040F18280474B1A681392139AD407FAD544
:10B9C000424B4C4A43491A600B681493149BD807A6
:10B9D000FAD53E4B484A3F491A600B681593159BB0
:10B9E000DA07FAD5394B454A3A491A600B6816937B
:10B9F000169BDB07FAD5354B414A36491A600B686E
:10BA00001793179BDF07FAD5304B3E4A31491A602E
:10BA10000B681893189BDE07FAD52C4B3A4A1A602C
:10BA200040E74FF000081FE6002C3FD0A8EB0404CD
:10BA3000012C33D0621E02F01F01002A4FF00107D3
:10BA4000B8BF04F11E028F4051111A683292329A27
:10BA5000D207FAD52D4A244C026022683392339AD9
:10BA6000D507FAD52A4A204C156822683492349AB0
:10BA7000D207FAD5274C284A2944216017601A6852
:10BA80003592359AD207FAD5244A02601A6836925E
:10BA9000369AD507FAD5224A026084E61A683192AE
:10BAA000319AD107FAD51F4A02607CE607F00303FA
:10BAB000032B06D1012049E70020052F3FF446AFB4
:10BAC000A4E607F007070120F7E700BF80B00250A7
:10BAD000C0100221B0B0025080110C61C0601098FB
